{"contracts/landregistry.sol":{"landregistry":{"abi":[{"inputs":[],"stateMutability":"nonpayable","type":"constructor"},{"inputs":[{"internalType":"uint256","name":"landId","type":"uint256"},{"internalType":"address payable","name":"proxyOwner","type":"address"},{"internalType":"bool","name":"_addRemove","type":"bool"}],"name":"AndandRemoveProxyOwner","outputs":[],"stateMutability":"nonpayable","type":"function"},{"inputs":[{"internalType":"uint256","name":"_propertyPID","type":"uint256"}],"name":"CheckDuplicatePid","outputs":[{"internalType":"bool","name":"","type":"bool"}],"stateMutability":"view","type":"function"},{"inputs":[{"internalType":"address","name":"","type":"address"}],"name":"InspectorMapping","outputs":[{"internalType":"uint256","name":"id","type":"uint256"},{"internalType":"address","name":"addr","type":"address"},{"internalType":"bytes32","name":"posdistrict","type":"bytes32"},{"internalType":"address","name":"addby","type":"address"},{"internalType":"uint256","name":"timeStamp","type":"uint256"},{"internalType":"uint256","name":"totaluserVerification","type":"uint256"},{"internalType":"uint256","name":"totallandVerification","type":"uint256"}],"stateMutability":"view","type":"function"},{"inputs":[{"internalType":"uint256","name":"","type":"uint256"}],"name":"LandRequestMapping","outputs":[{"internalType":"uint256","name":"reqId","type":"uint256"},{"internalType":"address payable","name":"sellerId","type":"address"},{"internalType":"address payable","name":"buyerId","type":"address"},{"internalType":"uint256","name":"landId","type":"uint256"},{"internalType":"enum landregistry.reqStatus","name":"requestStatus","type":"uint8"},{"internalType":"uint256","name":"bidPrice","type":"uint256"},{"internalType":"bool","name":"isPaymentDone","type":"bool"}],"stateMutability":"view","type":"function"},{"inputs":[{"internalType":"address","name":"","type":"address"}],"name":"RegisteredInspectorMapping","outputs":[{"internalType":"bool","name":"","type":"bool"}],"stateMutability":"view","type":"function"},{"inputs":[{"internalType":"address","name":"","type":"address"}],"name":"RegisteredUserMapping","outputs":[{"internalType":"bool","name":"","type":"bool"}],"stateMutability":"view","type":"function"},{"inputs":[],"name":"ReturnAllLandIncpectorList","outputs":[{"internalType":"address[]","name":"","type":"address[]"}],"stateMutability":"view","type":"function"},{"inputs":[],"name":"ReturnAllLandList","outputs":[{"internalType":"uint256[]","name":"","type":"uint256[]"}],"stateMutability":"view","type":"function"},{"inputs":[],"name":"ReturnAllUserList","outputs":[{"internalType":"address[]","name":"","type":"address[]"}],"stateMutability":"view","type":"function"},{"inputs":[{"internalType":"address","name":"","type":"address"}],"name":"UserMapping","outputs":[{"internalType":"address","name":"id","type":"address"},{"internalType":"bytes32","name":"name","type":"bytes32"},{"internalType":"bytes32","name":"dob","type":"bytes32"},{"internalType":"bytes32","name":"city","type":"bytes32"},{"internalType":"bytes32","name":"district","type":"bytes32"},{"internalType":"uint256","name":"cnic","type":"uint256"},{"internalType":"string","name":"document","type":"string"},{"internalType":"string","name":"profilepic","type":"string"},{"internalType":"bytes32","name":"email","type":"bytes32"},{"internalType":"bytes32","name":"phone","type":"bytes32"},{"internalType":"bool","name":"isUserVerified","type":"bool"},{"internalType":"bool","name":"death","type":"bool"},{"internalType":"uint256","name":"registerdate","type":"uint256"}],"stateMutability":"view","type":"function"},{"inputs":[{"internalType":"uint256","name":"_requestId","type":"uint256"}],"name":"acceptRequest","outputs":[],"stateMutability":"nonpayable","type":"function"},{"inputs":[{"internalType":"uint256","name":"_area","type":"uint256"},{"internalType":"string","name":"_landAddress","type":"string"},{"internalType":"bytes32","name":"_district","type":"bytes32"},{"internalType":"uint256","name":"_landPrice","type":"uint256"},{"internalType":"string","name":"_allLatiLongi","type":"string"},{"internalType":"uint256","name":"_propertyPID","type":"uint256"},{"internalType":"string","name":"_document","type":"string"},{"internalType":"string","name":"_landpic","type":"string"}],"name":"addLand","outputs":[],"stateMutability":"nonpayable","type":"function"},{"inputs":[{"internalType":"address","name":"_addr","type":"address"},{"internalType":"bytes32","name":"_posdistrict","type":"bytes32"}],"name":"addLandInspector","outputs":[{"internalType":"bool","name":"","type":"bool"}],"stateMutability":"nonpayable","type":"function"},{"inputs":[{"internalType":"address","name":"_addr","type":"address"}],"name":"changeContractOwner","outputs":[],"stateMutability":"nonpayable","type":"function"},{"inputs":[{"internalType":"uint256","name":"_landId","type":"uint256"},{"internalType":"bool","name":"s","type":"bool"},{"internalType":"bool","name":"p","type":"bool"},{"internalType":"bool","name":"i","type":"bool"},{"internalType":"bool","name":"c","type":"bool"},{"internalType":"bool","name":"sell","type":"bool"},{"internalType":"uint256","name":"_newPrice","type":"uint256"},{"internalType":"string","name":"_newPic","type":"string"},{"internalType":"string","name":"_allLatiLongi","type":"string"}],"name":"changeDetails","outputs":[],"stateMutability":"nonpayable","type":"function"},{"inputs":[],"name":"documentId","outputs":[{"internalType":"uint256","name":"","type":"uint256"}],"stateMutability":"view","type":"function"},{"inputs":[{"internalType":"uint256","name":"id","type":"uint256"}],"name":"getLandHistory","outputs":[{"components":[{"internalType":"uint256","name":"parentId","type":"uint256"},{"internalType":"uint256","name":"childCount","type":"uint256"},{"internalType":"uint256","name":"childId","type":"uint256"},{"internalType":"uint256","name":"area","type":"uint256"},{"internalType":"address","name":"parentAddress","type":"address"},{"internalType":"uint256","name":"parentIdRegisterdDate","type":"uint256"},{"internalType":"uint256","name":"childIdRegisterDate","type":"uint256"}],"internalType":"struct landregistry.LandHistory[]","name":"","type":"tuple[]"}],"stateMutability":"view","type":"function"},{"inputs":[],"name":"inspectorsCount","outputs":[{"internalType":"uint256","name":"","type":"uint256"}],"stateMutability":"view","type":"function"},{"inputs":[{"internalType":"address","name":"_addr","type":"address"}],"name":"isContractOwner","outputs":[{"internalType":"bool","name":"","type":"bool"}],"stateMutability":"view","type":"function"},{"inputs":[{"internalType":"address","name":"_id","type":"address"}],"name":"isLandInspector","outputs":[{"internalType":"bool","name":"","type":"bool"}],"stateMutability":"view","type":"function"},{"inputs":[{"internalType":"address","name":"id","type":"address"}],"name":"isUserVerified","outputs":[{"internalType":"bool","name":"","type":"bool"}],"stateMutability":"view","type":"function"},{"inputs":[{"internalType":"uint256","name":"","type":"uint256"}],"name":"landHis","outputs":[{"internalType":"uint256","name":"parentId","type":"uint256"},{"internalType":"uint256","name":"childCount","type":"uint256"},{"internalType":"uint256","name":"childId","type":"uint256"},{"internalType":"uint256","name":"area","type":"uint256"},{"internalType":"address","name":"parentAddress","type":"address"},{"internalType":"uint256","name":"parentIdRegisterdDate","type":"uint256"},{"internalType":"uint256","name":"childIdRegisterDate","type":"uint256"}],"stateMutability":"view","type":"function"},{"inputs":[{"internalType":"uint256","name":"","type":"uint256"}],"name":"landPriceInfo","outputs":[{"internalType":"uint256","name":"id","type":"uint256"},{"internalType":"uint256","name":"basePrice","type":"uint256"},{"internalType":"uint256","name":"bidPrice","type":"uint256"}],"stateMutability":"view","type":"function"},{"inputs":[{"internalType":"uint256","name":"","type":"uint256"}],"name":"landinfo","outputs":[{"internalType":"address","name":"verfiedby","type":"address"},{"internalType":"uint256","name":"verfydate","type":"uint256"},{"internalType":"uint256","name":"childs","type":"uint256"},{"internalType":"enum landregistry.verStatus","name":"verfiactionStatus","type":"uint8"},{"internalType":"bool","name":"paymentdone","type":"bool"}],"stateMutability":"view","type":"function"},{"inputs":[{"internalType":"uint256","name":"","type":"uint256"}],"name":"lands","outputs":[{"internalType":"uint256","name":"id","type":"uint256"},{"internalType":"uint256","name":"propertyPID","type":"uint256"},{"internalType":"uint256","name":"area","type":"uint256"},{"internalType":"uint256","name":"landPrice","type":"uint256"},{"internalType":"string","name":"landAddress","type":"string"},{"internalType":"bytes32","name":"district","type":"bytes32"},{"internalType":"string","name":"allLatitudeLongitude","type":"string"},{"internalType":"string","name":"document","type":"string"},{"internalType":"string","name":"landpic","type":"string"},{"internalType":"bool","name":"isforSell","type":"bool"},{"internalType":"bool","name":"isLandVerified","type":"bool"},{"internalType":"address payable","name":"ownerAddress","type":"address"},{"internalType":"address payable","name":"proxyownerAddress","type":"address"},{"internalType":"uint256","name":"registerdate","type":"uint256"}],"stateMutability":"view","type":"function"},{"inputs":[],"name":"landsCount","outputs":[{"internalType":"uint256","name":"","type":"uint256"}],"stateMutability":"view","type":"function"},{"inputs":[{"internalType":"address payable","name":"_receiver","type":"address"},{"internalType":"uint256","name":"_requestId","type":"uint256"}],"name":"makePayment","outputs":[],"stateMutability":"payable","type":"function"},{"inputs":[{"internalType":"address","name":"id","type":"address"}],"name":"myAllLands","outputs":[{"internalType":"uint256[]","name":"","type":"uint256[]"}],"stateMutability":"view","type":"function"},{"inputs":[],"name":"myReceivedLandRequests","outputs":[{"internalType":"uint256[]","name":"","type":"uint256[]"}],"stateMutability":"view","type":"function"},{"inputs":[],"name":"mySentLandRequests","outputs":[{"internalType":"uint256[]","name":"","type":"uint256[]"}],"stateMutability":"view","type":"function"},{"inputs":[{"internalType":"bytes32","name":"_name","type":"bytes32"},{"internalType":"bytes32","name":"_dob","type":"bytes32"},{"internalType":"bytes32","name":"_city","type":"bytes32"},{"internalType":"bytes32","name":"_district","type":"bytes32"},{"internalType":"uint256","name":"_cinc","type":"uint256"},{"internalType":"string","name":"_document","type":"string"},{"internalType":"string","name":"_profilepic","type":"string"},{"internalType":"bytes32","name":"_email","type":"bytes32"},{"internalType":"bytes32","name":"_phone","type":"bytes32"}],"name":"registerUser","outputs":[],"stateMutability":"nonpayable","type":"function"},{"inputs":[{"internalType":"uint256","name":"_requestId","type":"uint256"}],"name":"rejectRequest","outputs":[],"stateMutability":"nonpayable","type":"function"},{"inputs":[{"internalType":"address","name":"_addr","type":"address"}],"name":"removeLandInspector","outputs":[],"stateMutability":"nonpayable","type":"function"},{"inputs":[],"name":"requestCount","outputs":[{"internalType":"uint256","name":"","type":"uint256"}],"stateMutability":"view","type":"function"},{"inputs":[{"internalType":"uint256","name":"_landId","type":"uint256"},{"internalType":"uint256","name":"_bidPrice","type":"uint256"}],"name":"requestforBuyWithBid","outputs":[],"stateMutability":"nonpayable","type":"function"},{"inputs":[],"name":"returnPaymentDoneList","outputs":[{"internalType":"uint256[]","name":"","type":"uint256[]"}],"stateMutability":"view","type":"function"},{"inputs":[{"internalType":"uint256","name":"id","type":"uint256"},{"internalType":"uint256","name":"newarea","type":"uint256"},{"internalType":"uint256","name":"numplots","type":"uint256"}],"name":"subplot","outputs":[],"stateMutability":"nonpayable","type":"function"},{"inputs":[{"internalType":"address","name":"deceased","type":"address"}],"name":"transferDeceasedOwnership","outputs":[],"stateMutability":"nonpayable","type":"function"},{"inputs":[{"internalType":"uint256","name":"","type":"uint256"}],"name":"transferInfo","outputs":[{"internalType":"uint256","name":"id","type":"uint256"},{"internalType":"address","name":"seller","type":"address"},{"internalType":"address","name":"buyer","type":"address"},{"internalType":"address","name":"witness","type":"address"},{"internalType":"address","name":"verfiedby","type":"address"},{"internalType":"uint256","name":"landid","type":"uint256"},{"internalType":"uint256","name":"transferdate","type":"uint256"}],"stateMutability":"view","type":"function"},{"inputs":[{"internalType":"uint256","name":"_requestId","type":"uint256"},{"internalType":"string","name":"documentUrl","type":"string"},{"internalType":"address","name":"witness","type":"address"}],"name":"transferOwnership","outputs":[],"stateMutability":"nonpayable","type":"function"},{"inputs":[],"name":"userCount","outputs":[{"internalType":"uint256","name":"","type":"uint256"}],"stateMutability":"view","type":"function"},{"inputs":[{"internalType":"address","name":"","type":"address"}],"name":"userinfo","outputs":[{"internalType":"address","name":"verfiedby","type":"address"},{"internalType":"uint256","name":"verifydate","type":"uint256"},{"internalType":"enum landregistry.verStatus","name":"verfiactionStatus","type":"uint8"}],"stateMutability":"view","type":"function"},{"inputs":[{"internalType":"uint256","name":"_id","type":"uint256"}],"name":"verifyLandAccepted","outputs":[],"stateMutability":"nonpayable","type":"function"},{"inputs":[{"internalType":"uint256","name":"_id","type":"uint256"}],"name":"verifyLandRejected","outputs":[],"stateMutability":"nonpayable","type":"function"},{"inputs":[{"internalType":"address","name":"_userId","type":"address"}],"name":"verifyUserAccepted","outputs":[],"stateMutability":"nonpayable","type":"function"},{"inputs":[{"internalType":"address","name":"_userId","type":"address"}],"name":"verifyUserRejected","outputs":[],"stateMutability":"nonpayable","type":"function"},{"stateMutability":"payable","type":"receive"}],"evm":{"bytecode":{"linkReferences":{},"object":"608060405234801561001057600080fd5b50600080546001600160a01b03191633179055614ea5806100326000396000f3fe6080604052600436106102805760003560e01c8063935400ee1161014f578063c6acafcd116100c1578063de1176881161007a578063de117688146107f3578063e165af8714610813578063e261f1e514610833578063e749752c1461086d578063f98cf07c1461088d578063f99a1176146108a057610287565b8063c6acafcd14610701578063cc47e9bd14610732578063d196ebf214610765578063d251839b14610785578063d61ff68c1461079a578063dd056ebc146107d357610287565b8063a6951e1f11610113578063a6951e1f1461062a578063a846fc8f1461064a578063a84e3bdd1461065f578063ab9f38ea1461067f578063ace417e0146106ae578063b10a30ed146106ce57610287565b8063935400ee14610591578063941e2426146105b15780639446ec9f146105c65780639c32e3b4146105f55780639dec448e1461060a57610287565b8063499701b2116101f35780635badbe4c116101ac5780635badbe4c146104d457806364efa002146104e95780636910c46d1461051c5780637517e00f1461053c57806378f7c83f1461055c578063836b39791461057157610287565b8063499701b2146104105780634ba1f098146104255780634f3897211461044557806354f1ebfb14610472578063553a998d1461049257806358051d93146104b457610287565b806323393d771161024557806323393d771461034e5780632d7788db14610370578063314967ac1461039057806332f2bb14146103b05780633ead67b5146103d057806343e8349a146103f057610287565b806252f4581461028c57806307973ccf146102ae57806312ca3f1f146102d9578063145678de146103065780631c9afd0f1461033957610287565b3661028757005b600080fd5b34801561029857600080fd5b506102ac6102a7366004614420565b6108c0565b005b3480156102ba57600080fd5b506102c36109df565b6040516102d09190614b9b565b60405180910390f35b3480156102e557600080fd5b506102f96102f4366004614525565b6109e5565b6040516102d09190614a3b565b34801561031257600080fd5b50610326610321366004614525565b610a32565b6040516102d09796959493929190614c6f565b34801561034557600080fd5b506102c3610a79565b34801561035a57600080fd5b50610363610a7f565b6040516102d09190614a03565b34801561037c57600080fd5b506102ac61038b366004614525565b610aff565b34801561039c57600080fd5b506102ac6103ab36600461469b565b610bf3565b3480156103bc57600080fd5b506102f96103cb366004614420565b6110bc565b3480156103dc57600080fd5b506102ac6103eb366004614420565b6110d1565b3480156103fc57600080fd5b506102ac61040b366004614642565b611104565b34801561041c57600080fd5b50610363611635565b34801561043157600080fd5b506102ac610440366004614525565b611694565b34801561045157600080fd5b50610465610460366004614525565b611862565b6040516102d09190614978565b34801561047e57600080fd5b506102ac61048d366004614420565b61191d565b34801561049e57600080fd5b506104a76119be565b6040516102d0919061492b565b3480156104c057600080fd5b506102ac6104cf36600461478b565b611a47565b3480156104e057600080fd5b506102c3612549565b3480156104f557600080fd5b50610509610504366004614420565b61254f565b6040516102d09796959493929190614c30565b34801561052857600080fd5b506102f961053736600461446e565b612598565b34801561054857600080fd5b506102ac610557366004614420565b6127c8565b34801561056857600080fd5b506102c36129da565b34801561057d57600080fd5b506102ac61058c36600461453d565b6129e0565b34801561059d57600080fd5b506102ac6105ac36600461457a565b612b08565b3480156105bd57600080fd5b506102c3612d5c565b3480156105d257600080fd5b506105e66105e1366004614420565b612d62565b6040516102d0939291906148be565b34801561060157600080fd5b50610363612d90565b34801561061657600080fd5b506102ac61062536600461476a565b612def565b34801561063657600080fd5b506102ac610645366004614525565b61318f565b34801561065657600080fd5b5061036361332e565b34801561066b57600080fd5b506102ac61067a366004614420565b6133ac565b34801561068b57600080fd5b5061069f61069a366004614525565b613664565b6040516102d093929190614814565b3480156106ba57600080fd5b506102f96106c9366004614420565b613685565b3480156106da57600080fd5b506106ee6106e9366004614525565b6136a6565b6040516102d09796959493929190614ba4565b34801561070d57600080fd5b5061072161071c366004614525565b6136f5565b6040516102d09594939291906148ec565b34801561073e57600080fd5b5061075261074d366004614525565b613732565b6040516102d09796959493929190614bf2565b34801561077157600080fd5b50610363610780366004614420565b61377f565b34801561079157600080fd5b506104a76137eb565b3480156107a657600080fd5b506107ba6107b5366004614420565b613861565b6040516102d09d9c9b9a9998979695949392919061482a565b3480156107df57600080fd5b506102f96107ee366004614420565b6139e8565b3480156107ff57600080fd5b506102f961080e366004614420565b6139fd565b34801561081f57600080fd5b506102f961082e366004614420565b613a24565b34801561083f57600080fd5b5061085361084e366004614525565b613a4d565b6040516102d09e9d9c9b9a99989796959493929190614ca8565b34801561087957600080fd5b506102ac610888366004614480565b613cea565b6102ac61089b366004614443565b614035565b3480156108ac57600080fd5b506102ac6108bb366004614525565b614200565b6108c933613a24565b80156108de57506001600160a01b0381163314155b80156109155750336000908152600760209081526040808320600201546001600160a01b0385168452600690925290912060040154145b15610287576001600160a01b038116600090815260066020908152604091829020600a01805460ff191660019081179091558251606081018452338152429281019290925290918201905b90526001600160a01b03828116600090815260166020908152604091829020845181546001600160a01b0319169416939093178355830151600180840191909155908301516002830180549192909160ff1916908360048111156109d457634e487b7160e01b600052602160045260246000fd5b021790555050505b50565b60025481565b6000805b6003548111610a27576000818152600d6020526040902060010154831415610a15576001915050610a2d565b80610a1f81614dd5565b9150506109e9565b50600090505b919050565b601460205260009081526040902080546001820154600283015460038401546004850154600586015460069096015494959394929391926001600160a01b03909116919087565b60035481565b6001600052601160209081527f17bc176d2408558f6e4111feebc3cab4e16b63e967be91cde721f4c8a488b5528054604080518285028101850190915281815260609390929190830182828015610af557602002820191906000526020600020905b815481526020019060010190808311610ae1575b5050505050905090565b6000818152600e60205260409020600101546001600160a01b03163314610b415760405162461bcd60e51b8152600401610b3890614b15565b60405180910390fd5b6000818152600e6020526040902060049081015460ff1681811115610b7657634e487b7160e01b600052602160045260246000fd5b14158015610bb9575060036000828152600e6020526040902060049081015460ff1690811115610bb657634e487b7160e01b600052602160045260246000fd5b14155b610bd55760405162461bcd60e51b8152600401610b3890614a9b565b6000908152600e60205260409020600401805460ff19166001179055565b336000908152600660205260409020600a015460ff168015610c24575060008381526019602052604090205460ff16155b8015610c305750600088115b8015610c545750336000908152600660205260409020600a0154610100900460ff16155b156102875760038054906000610c6983614dd5565b9091555050604080516101c0810182526003805480835260208084018881528486018e8152606086018c8152608087018f815260a088018f905260c088018d905260e088018b905261010088018a9052600061012089018190526101408901819052336101608a015280546001600160a01b03166101808a0152426101a08a0152958652600d855297909420865181559151600183015551600282015591519282019290925592518051929392610d2692600485019201906142f6565b5060a0820151600582015560c08201518051610d4c9160068401916020909101906142f6565b5060e08201518051610d689160078401916020909101906142f6565b506101008201518051610d859160088401916020909101906142f6565b506101208201518160090160006101000a81548160ff0219169083151502179055506101408201518160090160016101000a81548160ff0219169083151502179055506101608201518160090160026101000a8154816001600160a01b0302191690836001600160a01b0316021790555061018082015181600a0160006101000a8154816001600160a01b0302191690836001600160a01b031602179055506101a082015181600b0155905050600c6000336001600160a01b03166001600160a01b031681526020019081526020016000206003549080600181540180825580915050600190039060005260206000200160009091909190915055601160006001815260200190815260200160002060035490806001815401808255809150506001900390600052602060002001600090919091909150556013600060035481526020019081526020016000206040518060e00160405280600354815260200160008152602001600081526020018a8152602001336001600160a01b03168152602001428152602001600081525090806001815401808255809150506001900390600052602060002090600702016000909190919091506000820151816000015560208201518160010155604082015181600201556060820151816003015560808201518160040160006101000a8154816001600160a01b0302191690836001600160a01b0316021790555060a0820151816005015560c0820151816006015550506040518060a0016040528060006001600160a01b03168152602001600081526020016000815260200160006004811115610ff157634e487b7160e01b600052602160045260246000fd5b81526000602091820181905260038054825260158352604091829020845181546001600160a01b0319166001600160a01b0390911617815592840151600180850191909155918401516002840155606084015190830180549192909160ff19169083600481111561107257634e487b7160e01b600052602160045260246000fd5b021790555060809190910151600390910180549115156101000261ff00199092169190911790556000838152601960205260409020805460ff191660011790555050505050505050565b600b6020526000908152604090205460ff1681565b6000546001600160a01b03163314156109dc57600080546001600160a01b0383166001600160a01b031990911617905550565b61110d33613a24565b801561112a57506000838152600e602052604090206006015460ff165b801561116457506000838152600e60209081526040808320600301548352600d825280832060050154338452600790925290912060020154145b801561118b57506001600160a01b0381166000908152600660205260409020600a015460ff165b80156111b457506000838152600e60205260409020600101546001600160a01b03828116911614155b80156111dd57506000838152600e60205260409020600201546001600160a01b03828116911614155b1561028757600480549060006111f283614dd5565b90915550506000838152600e602090815260408083206004808201805460ff1916909117905560028101546001600160a01b039081168552600c84528285206003830154815460018181018455928852958720909501949094559201549091168252812054905b818110156113e0576000858152600e6020908152604080832060038101546001909101546001600160a01b03168452600c9092529091208054839081106112b057634e487b7160e01b600052603260045260246000fd5b906000526020600020015414156113ce576000858152600e602090815260408083206001908101546001600160a01b03168452600c909252909120906112f69084614d83565b8154811061131457634e487b7160e01b600052603260045260246000fd5b6000918252602080832090910154878352600e82526040808420600101546001600160a01b03168452600c909252912080548390811061136457634e487b7160e01b600052603260045260246000fd5b6000918252602080832090910192909255868152600e82526040808220600101546001600160a01b03168252600c909252208054806113b357634e487b7160e01b600052603160045260246000fd5b600190038181906000526020600020016000905590556113e0565b806113d881614dd5565b915050611259565b506040518060e001604052806004548152602001600e600087815260200190815260200160002060010160009054906101000a90046001600160a01b03166001600160a01b03168152602001600e600087815260200190815260200160002060020160009054906101000a90046001600160a01b03166001600160a01b03168152602001836001600160a01b03168152602001336001600160a01b03168152602001600e6000878152602001908152602001600020600301548152602001428152506018600060045481526020019081526020016000206000820151816000015560208201518160010160006101000a8154816001600160a01b0302191690836001600160a01b0316021790555060408201518160020160006101000a8154816001600160a01b0302191690836001600160a01b0316021790555060608201518160030160006101000a8154816001600160a01b0302191690836001600160a01b0316021790555060808201518160040160006101000a8154816001600160a01b0302191690836001600160a01b0316021790555060a0820151816005015560c0820151816006015590505082600d6000600e600088815260200190815260200160002060030154815260200190815260200160002060070190805190602001906115cc9291906142f6565b50506000838152600e602090815260408083206003810180548552600d9093528184206009908101805460ff19169055600290910154925484529220909101805462010000600160b01b0319166001600160a01b0390921662010000029190911790555b505050565b336000908152600f6020908152604091829020805483518184028101840190945280845260609392830182828015610af55760200282019190600052602060002090815481526020019060010190808311610ae1575050505050905090565b6000818152600e60205260409020600101546001600160a01b031633146116cd5760405162461bcd60e51b8152600401610b3890614b15565b6000818152600e6020526040902060049081015460ff168181111561170257634e487b7160e01b600052602160045260246000fd5b14158015611745575060036000828152600e6020526040902060049081015460ff169081111561174257634e487b7160e01b600052602160045260246000fd5b14155b6117615760405162461bcd60e51b8152600401610b3890614a9b565b6000818152600e6020526040902060050154156117d757604080516060810182528281526000838152600e60209081528382206003808201548452600d83528584200154828501908152600590910154848601908152868452601790925293909120915182559151600182015590516002909101555b6000818152600e6020526040902060048101805460ff191660021790556003015460015b6005548111611630576000818152600e6020526040902060030154821480156118245750828114155b801561184257506000818152600e602052604090206006015460ff16155b156118505761185081610aff565b8061185a81614dd5565b9150506117fb565b606060136000838152602001908152602001600020805480602002602001604051908101604052809291908181526020016000905b828210156119125760008481526020908190206040805160e0810182526007860290920180548352600180820154848601526002820154928401929092526003810154606084015260048101546001600160a01b03166080840152600581015460a08401526006015460c08301529083529092019101611897565b505050509050919050565b61192633613a24565b801561193b57506001600160a01b0381163314155b80156119725750336000908152600760209081526040808320600201546001600160a01b0385168452600690925290912060040154145b15610287576001600160a01b038116600090815260066020908152604091829020600a01805460ff19166001179055815160608101835233815242918101919091529081016002610960565b6001600052600a60209081527fbbc70db1b6c7afd11e79c0fb0051300458f1a3acb8ee9789d9b6b26c61ad9bc78054604080518285028101850190915281815260609390929190830182828015610af557602002820191906000526020600020905b81546001600160a01b03168152600190910190602001808311611a20575050505050905090565b336000908152600660205260409020600a015460ff168015611a7f57506000838152600d6020526040902060090154610100900460ff165b8015611aaa57506000838152600d60205260409020600901546201000090046001600160a01b031633145b8015611ab65750600081115b8015611ad257506000838152600d602052604090206002015482105b8015611af057506000838152600d602052604090206009015460ff16155b8015611b145750336000908152600660205260409020600a0154610100900460ff16155b15610287576000838152600d60209081526040808320600190810154601390935290832080549293929091611b4891614d83565b81548110611b6657634e487b7160e01b600052603260045260246000fd5b906000526020600020906007020190506000838260010154611b889190614d6b565b905060015b848111158015611bae57506000878152600d60205260409020600201548611155b15612540576000878152600d602052604081206002018054889290611bd4908490614d83565b909155505060038054906000611be983614dd5565b919050555060004260035486604051602001611c0793929190614814565b60408051601f1981840301815282825280516020918201206101c0840183526003805485528483018290528484018c905260008d8152600d8085529481209182015460608701528d905292909152600490910180549193506080830191611c6d90614d9a565b80601f0160208091040260200160405190810160405280929190818152602001828054611c9990614d9a565b8015611ce65780601f10611cbb57610100808354040283529160200191611ce6565b820191906000526020600020905b815481529060010190602001808311611cc957829003601f168201915b50505050508152602001600d60008b8152602001908152602001600020600501548152602001600d60008b81526020019081526020016000206006018054611d2d90614d9a565b80601f0160208091040260200160405190810160405280929190818152602001828054611d5990614d9a565b8015611da65780601f10611d7b57610100808354040283529160200191611da6565b820191906000526020600020905b815481529060010190602001808311611d8957829003601f168201915b50505050508152602001600d60008b81526020019081526020016000206007018054611dd190614d9a565b80601f0160208091040260200160405190810160405280929190818152602001828054611dfd90614d9a565b8015611e4a5780601f10611e1f57610100808354040283529160200191611e4a565b820191906000526020600020905b815481529060010190602001808311611e2d57829003601f168201915b50505050508152602001600d60008b81526020019081526020016000206008018054611e7590614d9a565b80601f0160208091040260200160405190810160405280929190818152602001828054611ea190614d9a565b8015611eee5780601f10611ec357610100808354040283529160200191611eee565b820191906000526020600020905b815481529060010190602001808311611ed157829003601f168201915b50505050508152602001600015158152602001600115158152602001336001600160a01b0316815260200160008054906101000a90046001600160a01b03166001600160a01b0316815260200142815250600d60006003548152602001908152602001600020600082015181600001556020820151816001015560408201518160020155606082015181600301556080820151816004019080519060200190611f989291906142f6565b5060a0820151600582015560c08201518051611fbe9160068401916020909101906142f6565b5060e08201518051611fda9160078401916020909101906142f6565b506101008201518051611ff79160088401916020909101906142f6565b506101208201518160090160006101000a81548160ff0219169083151502179055506101408201518160090160016101000a81548160ff0219169083151502179055506101608201518160090160026101000a8154816001600160a01b0302191690836001600160a01b0316021790555061018082015181600a0160006101000a8154816001600160a01b0302191690836001600160a01b031602179055506101a082015181600b0155905050600c6000336001600160a01b03166001600160a01b031681526020019081526020016000206003549080600181540180825580915050600190039060005260206000200160009091909190915055601160006001815260200190815260200160002060035490806001815401808255809150506001900390600052602060002001600090919091909150556013600060035481526020019081526020016000206040518060e001604052808a81526020016000815260200160008152602001898152602001336001600160a01b03168152602001428152602001600081525090806001815401808255809150506001900390600052602060002090600702016000909190919091506000820151816000015560208201518160010155604082015181600201556060820151816003015560808201518160040160006101000a8154816001600160a01b0302191690836001600160a01b0316021790555060a0820151816005015560c0820151816006015550506040518060a00160405280601560008b815260200190815260200160002060000160009054906101000a90046001600160a01b03166001600160a01b03168152602001601560008b8152602001908152602001600020600101548152602001600081526020016003600481111561229e57634e487b7160e01b600052602160045260246000fd5b81526000602091820181905260038054825260158352604091829020845181546001600160a01b0319166001600160a01b0390911617815592840151600180850191909155918401516002840155606084015190830180549192909160ff19169083600481111561231f57634e487b7160e01b600052602160045260246000fd5b021790555060809190910151600390910180549115156101000261ff00199092169190911790556040805160a08101825260008a81526015602081815284832080546001600160a01b03168552928d905290815260019190910154908201529081018490526060810160028152600060209182018190528a815260158252604090819020835181546001600160a01b0319166001600160a01b039091161781559183015160018084019190915590830151600283015560608301516003830180549192909160ff19169083600481111561240957634e487b7160e01b600052602160045260246000fd5b021790555060808201518160030160016101000a81548160ff021916908315150217905550905050601360008981526020019081526020016000206040518060e001604052808a81526020018581526020016003548152602001898152602001336001600160a01b03168152602001600d60008c8152602001908152602001600020600b015481526020014281525090806001815401808255809150506001900390600052602060002090600702016000909190919091506000820151816000015560208201518160010155604082015181600201556060820151816003015560808201518160040160006101000a8154816001600160a01b0302191690836001600160a01b0316021790555060a0820151816005015560c08201518160060155505050808061253890614dd5565b915050611b8d565b50505050611630565b60055481565b600760205260009081526040902080546001820154600283015460038401546004850154600586015460069096015494956001600160a01b039485169593949092169290919087565b600080546001600160a01b0316331480156125cc57506001600160a01b03831660009081526009602052604090205460ff16155b80156125f557506001600160a01b0383166000908152600b602052604090205460ff1615156001145b15610287576001600160a01b038381166000818152600660209081526040808320600a01805460ff1990811660019081179092558251606081018452338152428186019081526004828601818152988852601690965293909520855181546001600160a01b0319169816979097178755915186820155935160028601805494969591949093921691849081111561269c57634e487b7160e01b600052602160045260246000fd5b021790555050506001600160a01b0383166000908152600960205260408120805460ff191660019081179091558054916126d583614dd5565b9091555050600080516020614e50833981519152805460018082019092557f8048725117155ad5ef9cb75f77fbe235a4558a61159f5364c90d55c3a0d15b7a0180546001600160a01b03199081166001600160a01b038781169182179093556040805160e0810182528554815260208082018481528284018a815233606085019081524260808601908152600060a0870181815260c08801828152998252600790965296909620945185559151848a0180548916918a1691909117905551600284015551600383018054909616961695909517909355516004830155915160058201559051600690910155905092915050565b6000546001600160a01b0316331480156127fa57506001600160a01b03811660009081526009602052604090205460ff165b15610287576001600160a01b03811660009081526009602090815260408220805460ff191690556001825260089052600080516020614e5083398151915254905b818110156129d35760016000526008602052600080516020614e5083398151915280546001600160a01b03851691908390811061288857634e487b7160e01b600052603260045260246000fd5b6000918252602090912001546001600160a01b031614156129c157600160008190526008602052600080516020614e50833981519152906128c99084614d83565b815481106128e757634e487b7160e01b600052603260045260246000fd5b6000918252602080832090910154600190925260089052600080516020614e5083398151915280546001600160a01b03909216918390811061293957634e487b7160e01b600052603260045260246000fd5b600091825260208083209190910180546001600160a01b0319166001600160a01b0394909416939093179092556001905260089052600080516020614e5083398151915280548061299a57634e487b7160e01b600052603160045260246000fd5b600082815260209020810160001990810180546001600160a01b03191690550190556129d3565b806129cb81614dd5565b91505061283b565b50506109dc565b60045481565b6000838152600d60205260409020600901546201000090046001600160a01b031633148015612a2557506000838152600d6020526040902060090154610100900460ff165b8015612a4357506000838152600d602052604090206009015460ff16155b1561028757808015612a7257506000838152600d60205260409020600a01546001600160a01b03838116911614155b15612aa2576000838152600d60205260409020600a0180546001600160a01b0319166001600160a01b0384161790555b80158015612acc57506000838152600d60205260409020600a01546001600160a01b038381169116145b15612b035760008054848252600d6020526040909120600a0180546001600160a01b0319166001600160a01b039092169190911790555b611630565b6000898152600d60209081526040808320600901546201000090046001600160a01b03168352600f825280832080548251818502810185019093528083528493830182828015612b7757602002820191906000526020600020905b815481526020019060010190808311612b63575b5050505050905060005b8151811015612c10578b600e6000848481518110612baf57634e487b7160e01b600052603260045260246000fd5b60200260200101518152602001908152602001600020600301541415612bfe57818181518110612bef57634e487b7160e01b600052603260045260246000fd5b60200260200101519250612c10565b80612c0881614dd5565b915050612b81565b506000828152600e6020908152604080832060068101546004909101548f8552600d90935292206009015460ff9283169291909116906201000090046001600160a01b031633148015612c79575060008d8152600d6020526040902060090154610100900460ff165b8015612c83575081155b8015612caf57506002816004811115612cac57634e487b7160e01b600052602160045260246000fd5b14155b15610287578b15612cd85760008d8152600d60205260409020600901805460ff19168915151790555b8a15612cf35760008d8152600d602052604090206003018790555b8915612d205760008d8152600d602090815260409091208751612d1e926008909201918901906142f6565b505b8815612d4d5760008d8152600d602090815260409091208651612d4b926006909201918801906142f6565b505b50505050505050505050505050565b60015481565b6016602052600090815260409020805460018201546002909201546001600160a01b03909116919060ff1683565b33600090815260106020908152604091829020805483518184028101840190945280845260609392830182828015610af55760200282019190600052602060002090815481526020019060010190808311610ae1575050505050905090565b600082815260156020526040902060030154610100900460ff1615612e265760405162461bcd60e51b8152600401610b3890614b64565b6000828152600d60209081526040808320600901546201000090046001600160a01b03168352600f825280832080548251818502810185019093528083528493830182828015612e9557602002820191906000526020600020905b815481526020019060010190808311612e81575b5050505050905060005b8151811015612f2e5784600e6000848481518110612ecd57634e487b7160e01b600052603260045260246000fd5b60200260200101518152602001908152602001600020600301541415612f1c57818181518110612f0d57634e487b7160e01b600052603260045260246000fd5b60200260200101519250612f2e565b80612f2681614dd5565b915050612e9f565b506000828152600e6020908152604080832060068082015460049092015433865293529220600a015460ff9283169291821691168015612f8457506000868152600d6020526040902060090154610100900460ff165b8015612fb057506000868152600d60205260409020600901546201000090046001600160a01b03163314155b8015612fba575081155b8015612fe657506002816004811115612fe357634e487b7160e01b600052602160045260246000fd5b14155b80156130125750600481600481111561300f57634e487b7160e01b600052602160045260246000fd5b14155b15610287576005805490600061302783614dd5565b90915550506040805160e0810182526005548082526000898152600d6020908152848220600901546201000090046001600160a01b0390811682860190815233868801908152606087018e81526080880186815260a089018f905260c08901879052968652600e90945296909320855181559251600180850180549284166001600160a01b03199384161790559651600285018054919093169116179055516003820155905160048083018054949593949293909260ff191691849081111561310057634e487b7160e01b600052602160045260246000fd5b021790555060a082015160058281019190915560c0909201516006909101805460ff19169115159190911790556000878152600d60209081526040808320600901546201000090046001600160a01b03168352600f8252808320845481546001818101845592865284862001553384526010835290832093548454918201855593835291200155505050505050565b61319833613a24565b80156131c457506000818152600d60205260409020600901546201000090046001600160a01b03163314155b801561320057506000818152600d60209081526040808320600901546201000090046001600160a01b0316835260069091529020600a015460ff165b801561322d57506000818152600d6020908152604080832060050154338452600790925290912060020154145b15610287576000818152600d60209081526040808320600901805461ff001916610100179055805160a0810182523381524281840152848452601590925291829020600290810154928201929092529060608201905b81526000602091820181905283815260158252604090819020835181546001600160a01b0319166001600160a01b039091161781559183015160018084019190915590830151600283015560608301516003830180549192909160ff19169083600481111561330257634e487b7160e01b600052602160045260246000fd5b021790555060809190910151600390910180549115156101000261ff00199092169190911790556109dc565b6001600052601260209081527f71a67924699a20698523213e55fe499d539379d7769cd5567e2c45d583f815a38054604080518285028101850190915281815260609390929190830182828015610af55760200282019190600052602060002090815481526020019060010190808311610ae1575050505050905090565b6133b533613a24565b6133be57600080fd5b6001600160a01b0381166000908152600660209081526040808320600a01805461ff001916610100179055600c82528083208054825181850281018501909352808352919290919083018282801561343557602002820191906000526020600020905b815481526020019060010190808311613421575b5050505050905060005b815181101561163057600082828151811061346a57634e487b7160e01b600052603260045260246000fd5b6020908102919091018101516000818152600d90925260409091206009810154919250906001600160a01b0386811662010000909204161480156134c35750600581015433600090815260076020526040902060020154145b1561364f57600480549060006134d883614dd5565b9091555050600981018054600a83015461ff01600160b01b03199091166001600160a01b03918216620100008102919091179092556000918252600c60209081526040808420805460018101825590855291842090910185905590871682528120905b8154811015613628578382828154811061356557634e487b7160e01b600052603260045260246000fd5b90600052602060002001541415613616578154829061358690600190614d83565b815481106135a457634e487b7160e01b600052603260045260246000fd5b90600052602060002001548282815481106135cf57634e487b7160e01b600052603260045260246000fd5b9060005260206000200181905550818054806135fb57634e487b7160e01b600052603160045260246000fd5b60019003818190600052602060002001600090559055613628565b8061362081614dd5565b91505061353b565b5050600054600a820180546001600160a01b0319166001600160a01b039092169190911790555b5050808061365c90614dd5565b91505061343f565b60176020526000908152604090208054600182015460029092015490919083565b6001600160a01b03166000908152600660205260409020600a015460ff1690565b600e60205260009081526040902080546001820154600283015460038401546004850154600586015460069096015494956001600160a01b03948516959390941693919260ff91821692911687565b60156020526000908152604090208054600182015460028301546003909301546001600160a01b0390921692909160ff8082169161010090041685565b601860205260009081526040902080546001820154600283015460038401546004850154600586015460069096015494956001600160a01b03948516959385169492831693929091169187565b6001600160a01b0381166000908152600c60209081526040918290208054835181840281018401909452808452606093928301828280156137df57602002820191906000526020600020905b8154815260200190600101908083116137cb575b50505050509050919050565b600160005260086020908152600080516020614e508339815191528054604080518285028101850190915281815260609390929190830182828015610af5576020028201919060005260206000209081546001600160a01b03168152600190910190602001808311611a20575050505050905090565b600660208190526000918252604090912080546001820154600283015460038401546004850154600586015496860180546001600160a01b0390961697949693959294919391926138b190614d9a565b80601f01602080910402602001604051908101604052809291908181526020018280546138dd90614d9a565b801561392a5780601f106138ff5761010080835404028352916020019161392a565b820191906000526020600020905b81548152906001019060200180831161390d57829003601f168201915b50505050509080600701805461393f90614d9a565b80601f016020809104026020016040519081016040528092919081815260200182805461396b90614d9a565b80156139b85780601f1061398d576101008083540402835291602001916139b8565b820191906000526020600020905b81548152906001019060200180831161399b57829003601f168201915b5050505060088301546009840154600a850154600b909501549394919390925060ff80831692610100900416908d565b60096020526000908152604090205460ff1681565b600080546001600160a01b0383811691161415613a1c57506001610a2d565b506000610a2d565b6001600160a01b03811660009081526009602052604081205460ff1615613a1c57506001610a2d565b600d60205260009081526040902080546001820154600283015460038401546004850180549495939492939192613a8390614d9a565b80601f0160208091040260200160405190810160405280929190818152602001828054613aaf90614d9a565b8015613afc5780601f10613ad157610100808354040283529160200191613afc565b820191906000526020600020905b815481529060010190602001808311613adf57829003601f168201915b505050505090806005015490806006018054613b1790614d9a565b80601f0160208091040260200160405190810160405280929190818152602001828054613b4390614d9a565b8015613b905780601f10613b6557610100808354040283529160200191613b90565b820191906000526020600020905b815481529060010190602001808311613b7357829003601f168201915b505050505090806007018054613ba590614d9a565b80601f0160208091040260200160405190810160405280929190818152602001828054613bd190614d9a565b8015613c1e5780601f10613bf357610100808354040283529160200191613c1e565b820191906000526020600020905b815481529060010190602001808311613c0157829003601f168201915b505050505090806008018054613c3390614d9a565b80601f0160208091040260200160405190810160405280929190818152602001828054613c5f90614d9a565b8015613cac5780601f10613c8157610100808354040283529160200191613cac565b820191906000526020600020905b815481529060010190602001808311613c8f57829003601f168201915b5050506009840154600a850154600b90950154939460ff80831695610100840490911694506001600160a01b0362010000909304831693509116908e565b336000908152600b602052604090205460ff16151560011415613d1f5760405162461bcd60e51b8152600401610b3890614a46565b60005b600254811015613dd85760016000908152600a6020527fbbc70db1b6c7afd11e79c0fb0051300458f1a3acb8ee9789d9b6b26c61ad9bc780548892600692909185908110613d8057634e487b7160e01b600052603260045260246000fd5b60009182526020808320909101546001600160a01b031683528201929092526040019020600501541415613dc65760405162461bcd60e51b8152600401610b3890614a73565b80613dd081614dd5565b915050613d22565b50336000908152600b60205260408120805460ff191660011790556002805491613e0183614dd5565b90915550507fbbc70db1b6c7afd11e79c0fb0051300458f1a3acb8ee9789d9b6b26c61ad9bc7805460018082019092557fed65b032d5a5fa3a5b6544566ee46a0f6b8fe8b1375ec878dc3be6580b078495018054336001600160a01b03199182168117909255604080516101a08101825283815260208082018f81528284018f8152606084018f8152608085018f815260a086018f815260c087018f815260e088018f905261010088018e905261012088018d9052600061014089018190526101608901819052426101808a01529a8b52600680885298909a2087518154909a166001600160a01b03909a169990991789559351998801999099559051600287015551600386015595516004850155945160058401559251805193949293613f31939285019291909101906142f6565b5060e08201518051613f4d9160078401916020909101906142f6565b506101008281015160088301556101208301516009830155610140830151600a8301805461016086015160ff199182169315159390931761ff00191692151590930291909117905561018090920151600b909101556040805160608101825260008082526020808301828152838501838152338452601690925293909120825181546001600160a01b0319166001600160a01b039091161781559251600184810191909155905160028401805493959193909291169083600481111561402357634e487b7160e01b600052602160045260246000fd5b02179055505050505050505050505050565b6000818152600e6020526040902060038101546002909101546001600160a01b031633148015614099575060026000838152600e6020526040902060049081015460ff169081111561409757634e487b7160e01b600052602160045260246000fd5b145b80156140da575060036000838152600e6020526040902060049081015460ff16908111156140d757634e487b7160e01b600052602160045260246000fd5b14155b801561410257506000828152600e60205260409020600101546001600160a01b038481169116145b801561411e575060008281526017602052604090206002015434145b15610287576000828152600e60209081526040808320600481018054600360ff1991821681179092556006909201805490921660019081179092558585526015845282852001805461ff00191661010017905560129092527f71a67924699a20698523213e55fe499d539379d7769cd5567e2c45d583f815a38054928301815583527f09d3634ec98b7a093f4c560246b0e10c09e0e06c46ca9be08ca93e6cf08d8d13909101849055516001600160a01b038516913480156108fc02929091818181858888f193505050501580156141fa573d6000803e3d6000fd5b50611630565b61420933613a24565b801561423557506000818152600d60205260409020600901546201000090046001600160a01b03163314155b801561427157506000818152600d60209081526040808320600901546201000090046001600160a01b0316835260069091529020600a015460ff165b801561429e57506000818152600d6020908152604080832060050154338452600790925290912060020154145b15610287576000818152600d60209081526040808320600901805461ff001916610100179055805160a08101825233815242818401528484526015909252918290206002015491810191909152606081016001613283565b82805461430290614d9a565b90600052602060002090601f016020900481019282614324576000855561436a565b82601f1061433d57805160ff191683800117855561436a565b8280016001018555821561436a579182015b8281111561436a57825182559160200191906001019061434f565b5061437692915061437a565b5090565b5b80821115614376576000815560010161437b565b80358015158114610a2d57600080fd5b600082601f8301126143af578081fd5b813567ffffffffffffffff808211156143ca576143ca614e06565b604051601f8301601f1916810160200182811182821017156143ee576143ee614e06565b604052828152848301602001861015614405578384fd5b82602086016020830137918201602001929092529392505050565b600060208284031215614431578081fd5b813561443c81614e3a565b9392505050565b60008060408385031215614455578081fd5b823561446081614e3a565b946020939093013593505050565b60008060408385031215614455578182fd5b60008060008060008060008060006101208a8c03121561449e578485fd5b8935985060208a0135975060408a0135965060608a0135955060808a0135945060a08a013567ffffffffffffffff808211156144d8578586fd5b6144e48d838e0161439f565b955060c08c01359150808211156144f9578485fd5b506145068c828d0161439f565b93505060e08a013591506101008a013590509295985092959850929598565b600060208284031215614536578081fd5b5035919050565b600080600060608486031215614551578283fd5b83359250602084013561456381614e3a565b91506145716040850161438f565b90509250925092565b60008060008060008060008060006101208a8c031215614598578485fd5b893598506145a860208b0161438f565b97506145b660408b0161438f565b96506145c460608b0161438f565b95506145d260808b0161438f565b94506145e060a08b0161438f565b935060c08a0135925060e08a013567ffffffffffffffff80821115614603578384fd5b61460f8d838e0161439f565b93506101008c0135915080821115614625578283fd5b506146328c828d0161439f565b9150509295985092959850929598565b600080600060608486031215614656578283fd5b83359250602084013567ffffffffffffffff811115614673578283fd5b61467f8682870161439f565b925050604084013561469081614e3a565b809150509250925092565b600080600080600080600080610100898b0312156146b7578384fd5b88359750602089013567ffffffffffffffff808211156146d5578586fd5b6146e18c838d0161439f565b985060408b0135975060608b0135965060808b0135915080821115614704578586fd5b6147108c838d0161439f565b955060a08b0135945060c08b013591508082111561472c578384fd5b6147388c838d0161439f565b935060e08b013591508082111561474d578283fd5b5061475a8b828c0161439f565b9150509295985092959890939650565b6000806040838503121561477c578182fd5b50508035926020909101359150565b60008060006060848603121561479f578081fd5b505081359360208301359350604090920135919050565b6001600160a01b03169052565b15159052565b60008151808452815b818110156147ee576020818501810151868301820152016147d2565b818111156147ff5782602083870101525b50601f01601f19169290920160200192915050565b9283526020830191909152604082015260600190565b600060018060a01b038f1682528d60208301528c60408301528b60608301528a60808301528960a08301526101a060c083015261486b6101a083018a6147c9565b82810360e084015261487d818a6147c9565b91505086610100830152856101208301528415156101408301526148a56101608301856147c3565b826101808301529e9d5050505050505050505050505050565b6001600160a01b038416815260208101839052606081016148de83614e1c565b826040830152949350505050565b6001600160a01b0386168152602081018590526040810184905260a0810161491384614e1c565b83606083015282151560808301529695505050505050565b6020808252825182820181905260009190848201906040850190845b8181101561496c5783516001600160a01b031683529284019291840191600101614947565b50909695505050505050565b602080825282518282018190526000919060409081850190868401855b828110156149f65781518051855286810151878601528581015186860152606080820151908601526080808201516001600160a01b03169086015260a0808201519086015260c0908101519085015260e09093019290850190600101614995565b5091979650505050505050565b6020808252825182820181905260009190848201906040850190845b8181101561496c57835183529284019291840191600101614a1f565b901515815260200190565b602080825260139082015272105b1b1c995859195e481c9959da5cdd195c99606a1b604082015260600190565b6020808252600e908201526d6475706c696361746520636e696360901b604082015260600190565b60208082526054908201527f52657175657374206d757374206e6f7420626520696e20277061796d656e746460408201527f6f6e65206f7220636f6d706c65746564272073746174757320746f206265206160608201527331b1b2b83a32b21037b9103932b532b1ba32b21760611b608082015260a00190565b6020808252602f908201527f4f6e6c79207468652073656c6c65722063616e20616363657074206f7220726560408201526e3532b1ba1030903932b8bab2b9ba1760891b606082015260800190565b6020808252601a908201527f7061796d656e742073686f756c64206e6f7420626520646f6e65000000000000604082015260600190565b90815260200190565b8781526001600160a01b038781166020830152861660408201526060810185905260e08101614bd285614e1c565b8460808301528360a083015282151560c083015298975050505050505050565b9687526001600160a01b03958616602088015293851660408701529184166060860152909216608084015260a083019190915260c082015260e00190565b9687526001600160a01b0395861660208801526040870194909452919093166060850152608084019290925260a083019190915260c082015260e00190565b9687526020870195909552604086019390935260608501919091526001600160a01b0316608084015260a083015260c082015260e00190565b60008f82528e60208301528d60408301528c60608301526101c06080830152614cd56101c083018d6147c9565b8b60a084015282810360c0840152614ced818c6147c9565b905082810360e0840152614d01818b6147c9565b9050828103610100840152614d16818a6147c9565b915050614d276101208301886147c3565b614d356101408301876147c3565b614d436101608301866147b6565b614d516101808301856147b6565b826101a08301529f9e505050505050505050505050505050565b60008219821115614d7e57614d7e614df0565b500190565b600082821015614d9557614d95614df0565b500390565b600281046001821680614dae57607f821691505b60208210811415614dcf57634e487b7160e01b600052602260045260246000fd5b50919050565b6000600019821415614de957614de9614df0565b5060010190565b634e487b7160e01b600052601160045260246000fd5b634e487b7160e01b600052604160045260246000fd5b600581106109dc57634e487b7160e01b600052602160045260246000fd5b6001600160a01b03811681146109dc57600080fdfead67d757c34507f157cacfa2e3153e9f260a2244f30428821be7be64587ac55fa2646970667358221220d6e06f76ec232bcbb4bb799e2a81369bb122077f4d4b744f07ffe4cec6fe8c9064736f6c63430008000033","opcodes":"PUSH1 0x80 PUSH1 0x40 MSTORE CALLVALUE DUP1 ISZERO PUSH2 0x10 JUMPI PUSH1 0x0 DUP1 REVERT JUMPDEST POP PUSH1 0x0 DUP1 SLOAD PUSH1 0x1 PUSH1 0x1 PUSH1 0xA0 SHL SUB NOT AND CALLER OR SWAP1 SSTORE PUSH2 0x4EA5 DUP1 PUSH2 0x32 PUSH1 0x0 CODECOPY PUSH1 0x0 RETURN INVALID PUSH1 0x80 PUSH1 0x40 MSTORE PUSH1 0x4 CALLDATASIZE LT PUSH2 0x280 JUMPI PUSH1 0x0 CALLDATALOAD PUSH1 0xE0 SHR DUP1 PUSH4 0x935400EE GT PUSH2 0x14F JUMPI DUP1 PUSH4 0xC6ACAFCD GT PUSH2 0xC1 JUMPI DUP1 PUSH4 0xDE117688 GT PUSH2 0x7A JUMPI DUP1 PUSH4 0xDE117688 EQ PUSH2 0x7F3 JUMPI DUP1 PUSH4 0xE165AF87 EQ PUSH2 0x813 JUMPI DUP1 PUSH4 0xE261F1E5 EQ PUSH2 0x833 JUMPI DUP1 PUSH4 0xE749752C EQ PUSH2 0x86D JUMPI DUP1 PUSH4 0xF98CF07C EQ PUSH2 0x88D JUMPI DUP1 PUSH4 0xF99A1176 EQ PUSH2 0x8A0 JUMPI PUSH2 0x287 JUMP JUMPDEST DUP1 PUSH4 0xC6ACAFCD EQ PUSH2 0x701 JUMPI DUP1 PUSH4 0xCC47E9BD EQ PUSH2 0x732 JUMPI DUP1 PUSH4 0xD196EBF2 EQ PUSH2 0x765 JUMPI DUP1 PUSH4 0xD251839B EQ PUSH2 0x785 JUMPI DUP1 PUSH4 0xD61FF68C EQ PUSH2 0x79A JUMPI DUP1 PUSH4 0xDD056EBC EQ PUSH2 0x7D3 JUMPI PUSH2 0x287 JUMP JUMPDEST DUP1 PUSH4 0xA6951E1F GT PUSH2 0x113 JUMPI DUP1 PUSH4 0xA6951E1F EQ PUSH2 0x62A JUMPI DUP1 PUSH4 0xA846FC8F EQ PUSH2 0x64A JUMPI DUP1 PUSH4 0xA84E3BDD EQ PUSH2 0x65F JUMPI DUP1 PUSH4 0xAB9F38EA EQ PUSH2 0x67F JUMPI DUP1 PUSH4 0xACE417E0 EQ PUSH2 0x6AE JUMPI DUP1 PUSH4 0xB10A30ED EQ PUSH2 0x6CE JUMPI PUSH2 0x287 JUMP JUMPDEST DUP1 PUSH4 0x935400EE EQ PUSH2 0x591 JUMPI DUP1 PUSH4 0x941E2426 EQ PUSH2 0x5B1 JUMPI DUP1 PUSH4 0x9446EC9F EQ PUSH2 0x5C6 JUMPI DUP1 PUSH4 0x9C32E3B4 EQ PUSH2 0x5F5 JUMPI DUP1 PUSH4 0x9DEC448E EQ PUSH2 0x60A JUMPI PUSH2 0x287 JUMP JUMPDEST DUP1 PUSH4 0x499701B2 GT PUSH2 0x1F3 JUMPI DUP1 PUSH4 0x5BADBE4C GT PUSH2 0x1AC JUMPI DUP1 PUSH4 0x5BADBE4C EQ PUSH2 0x4D4 JUMPI DUP1 PUSH4 0x64EFA002 EQ PUSH2 0x4E9 JUMPI DUP1 PUSH4 0x6910C46D EQ PUSH2 0x51C JUMPI DUP1 PUSH4 0x7517E00F EQ PUSH2 0x53C JUMPI DUP1 PUSH4 0x78F7C83F EQ PUSH2 0x55C JUMPI DUP1 PUSH4 0x836B3979 EQ PUSH2 0x571 JUMPI PUSH2 0x287 JUMP JUMPDEST DUP1 PUSH4 0x499701B2 EQ PUSH2 0x410 JUMPI DUP1 PUSH4 0x4BA1F098 EQ PUSH2 0x425 JUMPI DUP1 PUSH4 0x4F389721 EQ PUSH2 0x445 JUMPI DUP1 PUSH4 0x54F1EBFB EQ PUSH2 0x472 JUMPI DUP1 PUSH4 0x553A998D EQ PUSH2 0x492 JUMPI DUP1 PUSH4 0x58051D93 EQ PUSH2 0x4B4 JUMPI PUSH2 0x287 JUMP JUMPDEST DUP1 PUSH4 0x23393D77 GT PUSH2 0x245 JUMPI DUP1 PUSH4 0x23393D77 EQ PUSH2 0x34E JUMPI DUP1 PUSH4 0x2D7788DB EQ PUSH2 0x370 JUMPI DUP1 PUSH4 0x314967AC EQ PUSH2 0x390 JUMPI DUP1 PUSH4 0x32F2BB14 EQ PUSH2 0x3B0 JUMPI DUP1 PUSH4 0x3EAD67B5 EQ PUSH2 0x3D0 JUMPI DUP1 PUSH4 0x43E8349A EQ PUSH2 0x3F0 JUMPI PUSH2 0x287 JUMP JUMPDEST DUP1 PUSH3 0x52F458 EQ PUSH2 0x28C JUMPI DUP1 PUSH4 0x7973CCF EQ PUSH2 0x2AE JUMPI DUP1 PUSH4 0x12CA3F1F EQ PUSH2 0x2D9 JUMPI DUP1 PUSH4 0x145678DE EQ PUSH2 0x306 JUMPI DUP1 PUSH4 0x1C9AFD0F EQ PUSH2 0x339 JUMPI PUSH2 0x287 JUMP JUMPDEST CALLDATASIZE PUSH2 0x287 JUMPI STOP JUMPDEST PUSH1 0x0 DUP1 REVERT JUMPDEST CALLVALUE DUP1 ISZERO PUSH2 0x298 JUMPI PUSH1 0x0 DUP1 REVERT JUMPDEST POP PUSH2 0x2AC PUSH2 0x2A7 CALLDATASIZE PUSH1 0x4 PUSH2 0x4420 JUMP JUMPDEST PUSH2 0x8C0 JUMP JUMPDEST STOP JUMPDEST CALLVALUE DUP1 ISZERO PUSH2 0x2BA JUMPI PUSH1 0x0 DUP1 REVERT JUMPDEST POP PUSH2 0x2C3 PUSH2 0x9DF JUMP JUMPDEST PUSH1 0x40 MLOAD PUSH2 0x2D0 SWAP2 SWAP1 PUSH2 0x4B9B JUMP JUMPDEST PUSH1 0x40 MLOAD DUP1 SWAP2 SUB SWAP1 RETURN JUMPDEST CALLVALUE DUP1 ISZERO PUSH2 0x2E5 JUMPI PUSH1 0x0 DUP1 REVERT JUMPDEST POP PUSH2 0x2F9 PUSH2 0x2F4 CALLDATASIZE PUSH1 0x4 PUSH2 0x4525 JUMP JUMPDEST PUSH2 0x9E5 JUMP JUMPDEST PUSH1 0x40 MLOAD PUSH2 0x2D0 SWAP2 SWAP1 PUSH2 0x4A3B JUMP JUMPDEST CALLVALUE DUP1 ISZERO PUSH2 0x312 JUMPI PUSH1 0x0 DUP1 REVERT JUMPDEST POP PUSH2 0x326 PUSH2 0x321 CALLDATASIZE PUSH1 0x4 PUSH2 0x4525 JUMP JUMPDEST PUSH2 0xA32 JUMP JUMPDEST PUSH1 0x40 MLOAD PUSH2 0x2D0 SWAP8 SWAP7 SWAP6 SWAP5 SWAP4 SWAP3 SWAP2 SWAP1 PUSH2 0x4C6F JUMP JUMPDEST CALLVALUE DUP1 ISZERO PUSH2 0x345 JUMPI PUSH1 0x0 DUP1 REVERT JUMPDEST POP PUSH2 0x2C3 PUSH2 0xA79 JUMP JUMPDEST CALLVALUE DUP1 ISZERO PUSH2 0x35A JUMPI PUSH1 0x0 DUP1 REVERT JUMPDEST POP PUSH2 0x363 PUSH2 0xA7F JUMP JUMPDEST PUSH1 0x40 MLOAD PUSH2 0x2D0 SWAP2 SWAP1 PUSH2 0x4A03 JUMP JUMPDEST CALLVALUE DUP1 ISZERO PUSH2 0x37C JUMPI PUSH1 0x0 DUP1 REVERT JUMPDEST POP PUSH2 0x2AC PUSH2 0x38B CALLDATASIZE PUSH1 0x4 PUSH2 0x4525 JUMP JUMPDEST PUSH2 0xAFF JUMP JUMPDEST CALLVALUE DUP1 ISZERO PUSH2 0x39C JUMPI PUSH1 0x0 DUP1 REVERT JUMPDEST POP PUSH2 0x2AC PUSH2 0x3AB CALLDATASIZE PUSH1 0x4 PUSH2 0x469B JUMP JUMPDEST PUSH2 0xBF3 JUMP JUMPDEST CALLVALUE DUP1 ISZERO PUSH2 0x3BC JUMPI PUSH1 0x0 DUP1 REVERT JUMPDEST POP PUSH2 0x2F9 PUSH2 0x3CB CALLDATASIZE PUSH1 0x4 PUSH2 0x4420 JUMP JUMPDEST PUSH2 0x10BC JUMP JUMPDEST CALLVALUE DUP1 ISZERO PUSH2 0x3DC JUMPI PUSH1 0x0 DUP1 REVERT JUMPDEST POP PUSH2 0x2AC PUSH2 0x3EB CALLDATASIZE PUSH1 0x4 PUSH2 0x4420 JUMP JUMPDEST PUSH2 0x10D1 JUMP JUMPDEST CALLVALUE DUP1 ISZERO PUSH2 0x3FC JUMPI PUSH1 0x0 DUP1 REVERT JUMPDEST POP PUSH2 0x2AC PUSH2 0x40B CALLDATASIZE PUSH1 0x4 PUSH2 0x4642 JUMP JUMPDEST PUSH2 0x1104 JUMP JUMPDEST CALLVALUE DUP1 ISZERO PUSH2 0x41C JUMPI PUSH1 0x0 DUP1 REVERT JUMPDEST POP PUSH2 0x363 PUSH2 0x1635 JUMP JUMPDEST CALLVALUE DUP1 ISZERO PUSH2 0x431 JUMPI PUSH1 0x0 DUP1 REVERT JUMPDEST POP PUSH2 0x2AC PUSH2 0x440 CALLDATASIZE PUSH1 0x4 PUSH2 0x4525 JUMP JUMPDEST PUSH2 0x1694 JUMP JUMPDEST CALLVALUE DUP1 ISZERO PUSH2 0x451 JUMPI PUSH1 0x0 DUP1 REVERT JUMPDEST POP PUSH2 0x465 PUSH2 0x460 CALLDATASIZE PUSH1 0x4 PUSH2 0x4525 JUMP JUMPDEST PUSH2 0x1862 JUMP JUMPDEST PUSH1 0x40 MLOAD PUSH2 0x2D0 SWAP2 SWAP1 PUSH2 0x4978 JUMP JUMPDEST CALLVALUE DUP1 ISZERO PUSH2 0x47E JUMPI PUSH1 0x0 DUP1 REVERT JUMPDEST POP PUSH2 0x2AC PUSH2 0x48D CALLDATASIZE PUSH1 0x4 PUSH2 0x4420 JUMP JUMPDEST PUSH2 0x191D JUMP JUMPDEST CALLVALUE DUP1 ISZERO PUSH2 0x49E JUMPI PUSH1 0x0 DUP1 REVERT JUMPDEST POP PUSH2 0x4A7 PUSH2 0x19BE JUMP JUMPDEST PUSH1 0x40 MLOAD PUSH2 0x2D0 SWAP2 SWAP1 PUSH2 0x492B JUMP JUMPDEST CALLVALUE DUP1 ISZERO PUSH2 0x4C0 JUMPI PUSH1 0x0 DUP1 REVERT JUMPDEST POP PUSH2 0x2AC PUSH2 0x4CF CALLDATASIZE PUSH1 0x4 PUSH2 0x478B JUMP JUMPDEST PUSH2 0x1A47 JUMP JUMPDEST CALLVALUE DUP1 ISZERO PUSH2 0x4E0 JUMPI PUSH1 0x0 DUP1 REVERT JUMPDEST POP PUSH2 0x2C3 PUSH2 0x2549 JUMP JUMPDEST CALLVALUE DUP1 ISZERO PUSH2 0x4F5 JUMPI PUSH1 0x0 DUP1 REVERT JUMPDEST POP PUSH2 0x509 PUSH2 0x504 CALLDATASIZE PUSH1 0x4 PUSH2 0x4420 JUMP JUMPDEST PUSH2 0x254F JUMP JUMPDEST PUSH1 0x40 MLOAD PUSH2 0x2D0 SWAP8 SWAP7 SWAP6 SWAP5 SWAP4 SWAP3 SWAP2 SWAP1 PUSH2 0x4C30 JUMP JUMPDEST CALLVALUE DUP1 ISZERO PUSH2 0x528 JUMPI PUSH1 0x0 DUP1 REVERT JUMPDEST POP PUSH2 0x2F9 PUSH2 0x537 CALLDATASIZE PUSH1 0x4 PUSH2 0x446E JUMP JUMPDEST PUSH2 0x2598 JUMP JUMPDEST CALLVALUE DUP1 ISZERO PUSH2 0x548 JUMPI PUSH1 0x0 DUP1 REVERT JUMPDEST POP PUSH2 0x2AC PUSH2 0x557 CALLDATASIZE PUSH1 0x4 PUSH2 0x4420 JUMP JUMPDEST PUSH2 0x27C8 JUMP JUMPDEST CALLVALUE DUP1 ISZERO PUSH2 0x568 JUMPI PUSH1 0x0 DUP1 REVERT JUMPDEST POP PUSH2 0x2C3 PUSH2 0x29DA JUMP JUMPDEST CALLVALUE DUP1 ISZERO PUSH2 0x57D JUMPI PUSH1 0x0 DUP1 REVERT JUMPDEST POP PUSH2 0x2AC PUSH2 0x58C CALLDATASIZE PUSH1 0x4 PUSH2 0x453D JUMP JUMPDEST PUSH2 0x29E0 JUMP JUMPDEST CALLVALUE DUP1 ISZERO PUSH2 0x59D JUMPI PUSH1 0x0 DUP1 REVERT JUMPDEST POP PUSH2 0x2AC PUSH2 0x5AC CALLDATASIZE PUSH1 0x4 PUSH2 0x457A JUMP JUMPDEST PUSH2 0x2B08 JUMP JUMPDEST CALLVALUE DUP1 ISZERO PUSH2 0x5BD JUMPI PUSH1 0x0 DUP1 REVERT JUMPDEST POP PUSH2 0x2C3 PUSH2 0x2D5C JUMP JUMPDEST CALLVALUE DUP1 ISZERO PUSH2 0x5D2 JUMPI PUSH1 0x0 DUP1 REVERT JUMPDEST POP PUSH2 0x5E6 PUSH2 0x5E1 CALLDATASIZE PUSH1 0x4 PUSH2 0x4420 JUMP JUMPDEST PUSH2 0x2D62 JUMP JUMPDEST PUSH1 0x40 MLOAD PUSH2 0x2D0 SWAP4 SWAP3 SWAP2 SWAP1 PUSH2 0x48BE JUMP JUMPDEST CALLVALUE DUP1 ISZERO PUSH2 0x601 JUMPI PUSH1 0x0 DUP1 REVERT JUMPDEST POP PUSH2 0x363 PUSH2 0x2D90 JUMP JUMPDEST CALLVALUE DUP1 ISZERO PUSH2 0x616 JUMPI PUSH1 0x0 DUP1 REVERT JUMPDEST POP PUSH2 0x2AC PUSH2 0x625 CALLDATASIZE PUSH1 0x4 PUSH2 0x476A JUMP JUMPDEST PUSH2 0x2DEF JUMP JUMPDEST CALLVALUE DUP1 ISZERO PUSH2 0x636 JUMPI PUSH1 0x0 DUP1 REVERT JUMPDEST POP PUSH2 0x2AC PUSH2 0x645 CALLDATASIZE PUSH1 0x4 PUSH2 0x4525 JUMP JUMPDEST PUSH2 0x318F JUMP JUMPDEST CALLVALUE DUP1 ISZERO PUSH2 0x656 JUMPI PUSH1 0x0 DUP1 REVERT JUMPDEST POP PUSH2 0x363 PUSH2 0x332E JUMP JUMPDEST CALLVALUE DUP1 ISZERO PUSH2 0x66B JUMPI PUSH1 0x0 DUP1 REVERT JUMPDEST POP PUSH2 0x2AC PUSH2 0x67A CALLDATASIZE PUSH1 0x4 PUSH2 0x4420 JUMP JUMPDEST PUSH2 0x33AC JUMP JUMPDEST CALLVALUE DUP1 ISZERO PUSH2 0x68B JUMPI PUSH1 0x0 DUP1 REVERT JUMPDEST POP PUSH2 0x69F PUSH2 0x69A CALLDATASIZE PUSH1 0x4 PUSH2 0x4525 JUMP JUMPDEST PUSH2 0x3664 JUMP JUMPDEST PUSH1 0x40 MLOAD PUSH2 0x2D0 SWAP4 SWAP3 SWAP2 SWAP1 PUSH2 0x4814 JUMP JUMPDEST CALLVALUE DUP1 ISZERO PUSH2 0x6BA JUMPI PUSH1 0x0 DUP1 REVERT JUMPDEST POP PUSH2 0x2F9 PUSH2 0x6C9 CALLDATASIZE PUSH1 0x4 PUSH2 0x4420 JUMP JUMPDEST PUSH2 0x3685 JUMP JUMPDEST CALLVALUE DUP1 ISZERO PUSH2 0x6DA JUMPI PUSH1 0x0 DUP1 REVERT JUMPDEST POP PUSH2 0x6EE PUSH2 0x6E9 CALLDATASIZE PUSH1 0x4 PUSH2 0x4525 JUMP JUMPDEST PUSH2 0x36A6 JUMP JUMPDEST PUSH1 0x40 MLOAD PUSH2 0x2D0 SWAP8 SWAP7 SWAP6 SWAP5 SWAP4 SWAP3 SWAP2 SWAP1 PUSH2 0x4BA4 JUMP JUMPDEST CALLVALUE DUP1 ISZERO PUSH2 0x70D JUMPI PUSH1 0x0 DUP1 REVERT JUMPDEST POP PUSH2 0x721 PUSH2 0x71C CALLDATASIZE PUSH1 0x4 PUSH2 0x4525 JUMP JUMPDEST PUSH2 0x36F5 JUMP JUMPDEST PUSH1 0x40 MLOAD PUSH2 0x2D0 SWAP6 SWAP5 SWAP4 SWAP3 SWAP2 SWAP1 PUSH2 0x48EC JUMP JUMPDEST CALLVALUE DUP1 ISZERO PUSH2 0x73E JUMPI PUSH1 0x0 DUP1 REVERT JUMPDEST POP PUSH2 0x752 PUSH2 0x74D CALLDATASIZE PUSH1 0x4 PUSH2 0x4525 JUMP JUMPDEST PUSH2 0x3732 JUMP JUMPDEST PUSH1 0x40 MLOAD PUSH2 0x2D0 SWAP8 SWAP7 SWAP6 SWAP5 SWAP4 SWAP3 SWAP2 SWAP1 PUSH2 0x4BF2 JUMP JUMPDEST CALLVALUE DUP1 ISZERO PUSH2 0x771 JUMPI PUSH1 0x0 DUP1 REVERT JUMPDEST POP PUSH2 0x363 PUSH2 0x780 CALLDATASIZE PUSH1 0x4 PUSH2 0x4420 JUMP JUMPDEST PUSH2 0x377F JUMP JUMPDEST CALLVALUE DUP1 ISZERO PUSH2 0x791 JUMPI PUSH1 0x0 DUP1 REVERT JUMPDEST POP PUSH2 0x4A7 PUSH2 0x37EB JUMP JUMPDEST CALLVALUE DUP1 ISZERO PUSH2 0x7A6 JUMPI PUSH1 0x0 DUP1 REVERT JUMPDEST POP PUSH2 0x7BA PUSH2 0x7B5 CALLDATASIZE PUSH1 0x4 PUSH2 0x4420 JUMP JUMPDEST PUSH2 0x3861 JUMP JUMPDEST PUSH1 0x40 MLOAD PUSH2 0x2D0 SWAP14 SWAP13 SWAP12 SWAP11 SWAP10 SWAP9 SWAP8 SWAP7 SWAP6 SWAP5 SWAP4 SWAP3 SWAP2 SWAP1 PUSH2 0x482A JUMP JUMPDEST CALLVALUE DUP1 ISZERO PUSH2 0x7DF JUMPI PUSH1 0x0 DUP1 REVERT JUMPDEST POP PUSH2 0x2F9 PUSH2 0x7EE CALLDATASIZE PUSH1 0x4 PUSH2 0x4420 JUMP JUMPDEST PUSH2 0x39E8 JUMP JUMPDEST CALLVALUE DUP1 ISZERO PUSH2 0x7FF JUMPI PUSH1 0x0 DUP1 REVERT JUMPDEST POP PUSH2 0x2F9 PUSH2 0x80E CALLDATASIZE PUSH1 0x4 PUSH2 0x4420 JUMP JUMPDEST PUSH2 0x39FD JUMP JUMPDEST CALLVALUE DUP1 ISZERO PUSH2 0x81F JUMPI PUSH1 0x0 DUP1 REVERT JUMPDEST POP PUSH2 0x2F9 PUSH2 0x82E CALLDATASIZE PUSH1 0x4 PUSH2 0x4420 JUMP JUMPDEST PUSH2 0x3A24 JUMP JUMPDEST CALLVALUE DUP1 ISZERO PUSH2 0x83F JUMPI PUSH1 0x0 DUP1 REVERT JUMPDEST POP PUSH2 0x853 PUSH2 0x84E CALLDATASIZE PUSH1 0x4 PUSH2 0x4525 JUMP JUMPDEST PUSH2 0x3A4D JUMP JUMPDEST PUSH1 0x40 MLOAD PUSH2 0x2D0 SWAP15 SWAP14 SWAP13 SWAP12 SWAP11 SWAP10 SWAP9 SWAP8 SWAP7 SWAP6 SWAP5 SWAP4 SWAP3 SWAP2 SWAP1 PUSH2 0x4CA8 JUMP JUMPDEST CALLVALUE DUP1 ISZERO PUSH2 0x879 JUMPI PUSH1 0x0 DUP1 REVERT JUMPDEST POP PUSH2 0x2AC PUSH2 0x888 CALLDATASIZE PUSH1 0x4 PUSH2 0x4480 JUMP JUMPDEST PUSH2 0x3CEA JUMP JUMPDEST PUSH2 0x2AC PUSH2 0x89B CALLDATASIZE PUSH1 0x4 PUSH2 0x4443 JUMP JUMPDEST PUSH2 0x4035 JUMP JUMPDEST CALLVALUE DUP1 ISZERO PUSH2 0x8AC JUMPI PUSH1 0x0 DUP1 REVERT JUMPDEST POP PUSH2 0x2AC PUSH2 0x8BB CALLDATASIZE PUSH1 0x4 PUSH2 0x4525 JUMP JUMPDEST PUSH2 0x4200 JUMP JUMPDEST PUSH2 0x8C9 CALLER PUSH2 0x3A24 JUMP JUMPDEST DUP1 ISZERO PUSH2 0x8DE JUMPI POP PUSH1 0x1 PUSH1 0x1 PUSH1 0xA0 SHL SUB DUP2 AND CALLER EQ ISZERO JUMPDEST DUP1 ISZERO PUSH2 0x915 JUMPI POP CALLER PUSH1 0x0 SWAP1 DUP2 MSTORE PUSH1 0x7 PUSH1 0x20 SWAP1 DUP2 MSTORE PUSH1 0x40 DUP1 DUP4 KECCAK256 PUSH1 0x2 ADD SLOAD PUSH1 0x1 PUSH1 0x1 PUSH1 0xA0 SHL SUB DUP6 AND DUP5 MSTORE PUSH1 0x6 SWAP1 SWAP3 MSTORE SWAP1 SWAP2 KECCAK256 PUSH1 0x4 ADD SLOAD EQ JUMPDEST ISZERO PUSH2 0x287 JUMPI PUSH1 0x1 PUSH1 0x1 PUSH1 0xA0 SHL SUB DUP2 AND PUSH1 0x0 SWAP1 DUP2 MSTORE PUSH1 0x6 PUSH1 0x20 SWAP1 DUP2 MSTORE PUSH1 0x40 SWAP2 DUP3 SWAP1 KECCAK256 PUSH1 0xA ADD DUP1 SLOAD PUSH1 0xFF NOT AND PUSH1 0x1 SWAP1 DUP2 OR SWAP1 SWAP2 SSTORE DUP3 MLOAD PUSH1 0x60 DUP2 ADD DUP5 MSTORE CALLER DUP2 MSTORE TIMESTAMP SWAP3 DUP2 ADD SWAP3 SWAP1 SWAP3 MSTORE SWAP1 SWAP2 DUP3 ADD SWAP1 JUMPDEST SWAP1 MSTORE PUSH1 0x1 PUSH1 0x1 PUSH1 0xA0 SHL SUB DUP3 DUP2 AND PUSH1 0x0 SWAP1 DUP2 MSTORE PUSH1 0x16 PUSH1 0x20 SWAP1 DUP2 MSTORE PUSH1 0x40 SWAP2 DUP3 SWAP1 KECCAK256 DUP5 MLOAD DUP2 SLOAD PUSH1 0x1 PUSH1 0x1 PUSH1 0xA0 SHL SUB NOT AND SWAP5 AND SWAP4 SWAP1 SWAP4 OR DUP4 SSTORE DUP4 ADD MLOAD PUSH1 0x1 DUP1 DUP5 ADD SWAP2 SWAP1 SWAP2 SSTORE SWAP1 DUP4 ADD MLOAD PUSH1 0x2 DUP4 ADD DUP1 SLOAD SWAP2 SWAP3 SWAP1 SWAP2 PUSH1 0xFF NOT AND SWAP1 DUP4 PUSH1 0x4 DUP2 GT ISZERO PUSH2 0x9D4 JUMPI PUSH4 0x4E487B71 PUSH1 0xE0 SHL PUSH1 0x0 MSTORE PUSH1 0x21 PUSH1 0x4 MSTORE PUSH1 0x24 PUSH1 0x0 REVERT JUMPDEST MUL OR SWAP1 SSTORE POP POP POP JUMPDEST POP JUMP JUMPDEST PUSH1 0x2 SLOAD DUP2 JUMP JUMPDEST PUSH1 0x0 DUP1 JUMPDEST PUSH1 0x3 SLOAD DUP2 GT PUSH2 0xA27 JUMPI PUSH1 0x0 DUP2 DUP2 MSTORE PUSH1 0xD PUSH1 0x20 MSTORE PUSH1 0x40 SWAP1 KECCAK256 PUSH1 0x1 ADD SLOAD DUP4 EQ ISZERO PUSH2 0xA15 JUMPI PUSH1 0x1 SWAP2 POP POP PUSH2 0xA2D JUMP JUMPDEST DUP1 PUSH2 0xA1F DUP2 PUSH2 0x4DD5 JUMP JUMPDEST SWAP2 POP POP PUSH2 0x9E9 JUMP JUMPDEST POP PUSH1 0x0 SWAP1 POP JUMPDEST SWAP2 SWAP1 POP JUMP JUMPDEST PUSH1 0x14 PUSH1 0x20 MSTORE PUSH1 0x0 SWAP1 DUP2 MSTORE PUSH1 0x40 SWAP1 KECCAK256 DUP1 SLOAD PUSH1 0x1 DUP3 ADD SLOAD PUSH1 0x2 DUP4 ADD SLOAD PUSH1 0x3 DUP5 ADD SLOAD PUSH1 0x4 DUP6 ADD SLOAD PUSH1 0x5 DUP7 ADD SLOAD PUSH1 0x6 SWAP1 SWAP7 ADD SLOAD SWAP5 SWAP6 SWAP4 SWAP5 SWAP3 SWAP4 SWAP2 SWAP3 PUSH1 0x1 PUSH1 0x1 PUSH1 0xA0 SHL SUB SWAP1 SWAP2 AND SWAP2 SWAP1 DUP8 JUMP JUMPDEST PUSH1 0x3 SLOAD DUP2 JUMP JUMPDEST PUSH1 0x1 PUSH1 0x0 MSTORE PUSH1 0x11 PUSH1 0x20 SWAP1 DUP2 MSTORE PUSH32 0x17BC176D2408558F6E4111FEEBC3CAB4E16B63E967BE91CDE721F4C8A488B552 DUP1 SLOAD PUSH1 0x40 DUP1 MLOAD DUP3 DUP6 MUL DUP2 ADD DUP6 ADD SWAP1 SWAP2 MSTORE DUP2 DUP2 MSTORE PUSH1 0x60 SWAP4 SWAP1 SWAP3 SWAP2 SWAP1 DUP4 ADD DUP3 DUP3 DUP1 ISZERO PUSH2 0xAF5 JUMPI PUSH1 0x20 MUL DUP3 ADD SWAP2 SWAP1 PUSH1 0x0 MSTORE PUSH1 0x20 PUSH1 0x0 KECCAK256 SWAP1 JUMPDEST DUP2 SLOAD DUP2 MSTORE PUSH1 0x20 ADD SWAP1 PUSH1 0x1 ADD SWAP1 DUP1 DUP4 GT PUSH2 0xAE1 JUMPI JUMPDEST POP POP POP POP POP SWAP1 POP SWAP1 JUMP JUMPDEST PUSH1 0x0 DUP2 DUP2 MSTORE PUSH1 0xE PUSH1 0x20 MSTORE PUSH1 0x40 SWAP1 KECCAK256 PUSH1 0x1 ADD SLOAD PUSH1 0x1 PUSH1 0x1 PUSH1 0xA0 SHL SUB AND CALLER EQ PUSH2 0xB41 JUMPI PUSH1 0x40 MLOAD PUSH3 0x461BCD PUSH1 0xE5 SHL DUP2 MSTORE PUSH1 0x4 ADD PUSH2 0xB38 SWAP1 PUSH2 0x4B15 JUMP JUMPDEST PUSH1 0x40 MLOAD DUP1 SWAP2 SUB SWAP1 REVERT JUMPDEST PUSH1 0x0 DUP2 DUP2 MSTORE PUSH1 0xE PUSH1 0x20 MSTORE PUSH1 0x40 SWAP1 KECCAK256 PUSH1 0x4 SWAP1 DUP2 ADD SLOAD PUSH1 0xFF AND DUP2 DUP2 GT ISZERO PUSH2 0xB76 JUMPI PUSH4 0x4E487B71 PUSH1 0xE0 SHL PUSH1 0x0 MSTORE PUSH1 0x21 PUSH1 0x4 MSTORE PUSH1 0x24 PUSH1 0x0 REVERT JUMPDEST EQ ISZERO DUP1 ISZERO PUSH2 0xBB9 JUMPI POP PUSH1 0x3 PUSH1 0x0 DUP3 DUP2 MSTORE PUSH1 0xE PUSH1 0x20 MSTORE PUSH1 0x40 SWAP1 KECCAK256 PUSH1 0x4 SWAP1 DUP2 ADD SLOAD PUSH1 0xFF AND SWAP1 DUP2 GT ISZERO PUSH2 0xBB6 JUMPI PUSH4 0x4E487B71 PUSH1 0xE0 SHL PUSH1 0x0 MSTORE PUSH1 0x21 PUSH1 0x4 MSTORE PUSH1 0x24 PUSH1 0x0 REVERT JUMPDEST EQ ISZERO JUMPDEST PUSH2 0xBD5 JUMPI PUSH1 0x40 MLOAD PUSH3 0x461BCD PUSH1 0xE5 SHL DUP2 MSTORE PUSH1 0x4 ADD PUSH2 0xB38 SWAP1 PUSH2 0x4A9B JUMP JUMPDEST PUSH1 0x0 SWAP1 DUP2 MSTORE PUSH1 0xE PUSH1 0x20 MSTORE PUSH1 0x40 SWAP1 KECCAK256 PUSH1 0x4 ADD DUP1 SLOAD PUSH1 0xFF NOT AND PUSH1 0x1 OR SWAP1 SSTORE JUMP JUMPDEST CALLER PUSH1 0x0 SWAP1 DUP2 MSTORE PUSH1 0x6 PUSH1 0x20 MSTORE PUSH1 0x40 SWAP1 KECCAK256 PUSH1 0xA ADD SLOAD PUSH1 0xFF AND DUP1 ISZERO PUSH2 0xC24 JUMPI POP PUSH1 0x0 DUP4 DUP2 MSTORE PUSH1 0x19 PUSH1 0x20 MSTORE PUSH1 0x40 SWAP1 KECCAK256 SLOAD PUSH1 0xFF AND ISZERO JUMPDEST DUP1 ISZERO PUSH2 0xC30 JUMPI POP PUSH1 0x0 DUP9 GT JUMPDEST DUP1 ISZERO PUSH2 0xC54 JUMPI POP CALLER PUSH1 0x0 SWAP1 DUP2 MSTORE PUSH1 0x6 PUSH1 0x20 MSTORE PUSH1 0x40 SWAP1 KECCAK256 PUSH1 0xA ADD SLOAD PUSH2 0x100 SWAP1 DIV PUSH1 0xFF AND ISZERO JUMPDEST ISZERO PUSH2 0x287 JUMPI PUSH1 0x3 DUP1 SLOAD SWAP1 PUSH1 0x0 PUSH2 0xC69 DUP4 PUSH2 0x4DD5 JUMP JUMPDEST SWAP1 SWAP2 SSTORE POP POP PUSH1 0x40 DUP1 MLOAD PUSH2 0x1C0 DUP2 ADD DUP3 MSTORE PUSH1 0x3 DUP1 SLOAD DUP1 DUP4 MSTORE PUSH1 0x20 DUP1 DUP5 ADD DUP9 DUP2 MSTORE DUP5 DUP7 ADD DUP15 DUP2 MSTORE PUSH1 0x60 DUP7 ADD DUP13 DUP2 MSTORE PUSH1 0x80 DUP8 ADD DUP16 DUP2 MSTORE PUSH1 0xA0 DUP9 ADD DUP16 SWAP1 MSTORE PUSH1 0xC0 DUP9 ADD DUP14 SWAP1 MSTORE PUSH1 0xE0 DUP9 ADD DUP12 SWAP1 MSTORE PUSH2 0x100 DUP9 ADD DUP11 SWAP1 MSTORE PUSH1 0x0 PUSH2 0x120 DUP10 ADD DUP2 SWAP1 MSTORE PUSH2 0x140 DUP10 ADD DUP2 SWAP1 MSTORE CALLER PUSH2 0x160 DUP11 ADD MSTORE DUP1 SLOAD PUSH1 0x1 PUSH1 0x1 PUSH1 0xA0 SHL SUB AND PUSH2 0x180 DUP11 ADD MSTORE TIMESTAMP PUSH2 0x1A0 DUP11 ADD MSTORE SWAP6 DUP7 MSTORE PUSH1 0xD DUP6 MSTORE SWAP8 SWAP1 SWAP5 KECCAK256 DUP7 MLOAD DUP2 SSTORE SWAP2 MLOAD PUSH1 0x1 DUP4 ADD SSTORE MLOAD PUSH1 0x2 DUP3 ADD SSTORE SWAP2 MLOAD SWAP3 DUP3 ADD SWAP3 SWAP1 SWAP3 SSTORE SWAP3 MLOAD DUP1 MLOAD SWAP3 SWAP4 SWAP3 PUSH2 0xD26 SWAP3 PUSH1 0x4 DUP6 ADD SWAP3 ADD SWAP1 PUSH2 0x42F6 JUMP JUMPDEST POP PUSH1 0xA0 DUP3 ADD MLOAD PUSH1 0x5 DUP3 ADD SSTORE PUSH1 0xC0 DUP3 ADD MLOAD DUP1 MLOAD PUSH2 0xD4C SWAP2 PUSH1 0x6 DUP5 ADD SWAP2 PUSH1 0x20 SWAP1 SWAP2 ADD SWAP1 PUSH2 0x42F6 JUMP JUMPDEST POP PUSH1 0xE0 DUP3 ADD MLOAD DUP1 MLOAD PUSH2 0xD68 SWAP2 PUSH1 0x7 DUP5 ADD SWAP2 PUSH1 0x20 SWAP1 SWAP2 ADD SWAP1 PUSH2 0x42F6 JUMP JUMPDEST POP PUSH2 0x100 DUP3 ADD MLOAD DUP1 MLOAD PUSH2 0xD85 SWAP2 PUSH1 0x8 DUP5 ADD SWAP2 PUSH1 0x20 SWAP1 SWAP2 ADD SWAP1 PUSH2 0x42F6 JUMP JUMPDEST POP PUSH2 0x120 DUP3 ADD MLOAD DUP2 PUSH1 0x9 ADD PUSH1 0x0 PUSH2 0x100 EXP DUP2 SLOAD DUP2 PUSH1 0xFF MUL NOT AND SWAP1 DUP4 ISZERO ISZERO MUL OR SWAP1 SSTORE POP PUSH2 0x140 DUP3 ADD MLOAD DUP2 PUSH1 0x9 ADD PUSH1 0x1 PUSH2 0x100 EXP DUP2 SLOAD DUP2 PUSH1 0xFF MUL NOT AND SWAP1 DUP4 ISZERO ISZERO MUL OR SWAP1 SSTORE POP PUSH2 0x160 DUP3 ADD MLOAD DUP2 PUSH1 0x9 ADD PUSH1 0x2 PUSH2 0x100 EXP DUP2 SLOAD DUP2 PUSH1 0x1 PUSH1 0x1 PUSH1 0xA0 SHL SUB MUL NOT AND SWAP1 DUP4 PUSH1 0x1 PUSH1 0x1 PUSH1 0xA0 SHL SUB AND MUL OR SWAP1 SSTORE POP PUSH2 0x180 DUP3 ADD MLOAD DUP2 PUSH1 0xA ADD PUSH1 0x0 PUSH2 0x100 EXP DUP2 SLOAD DUP2 PUSH1 0x1 PUSH1 0x1 PUSH1 0xA0 SHL SUB MUL NOT AND SWAP1 DUP4 PUSH1 0x1 PUSH1 0x1 PUSH1 0xA0 SHL SUB AND MUL OR SWAP1 SSTORE POP PUSH2 0x1A0 DUP3 ADD MLOAD DUP2 PUSH1 0xB ADD SSTORE SWAP1 POP POP PUSH1 0xC PUSH1 0x0 CALLER PUSH1 0x1 PUSH1 0x1 PUSH1 0xA0 SHL SUB AND PUSH1 0x1 PUSH1 0x1 PUSH1 0xA0 SHL SUB AND DUP2 MSTORE PUSH1 0x20 ADD SWAP1 DUP2 MSTORE PUSH1 0x20 ADD PUSH1 0x0 KECCAK256 PUSH1 0x3 SLOAD SWAP1 DUP1 PUSH1 0x1 DUP2 SLOAD ADD DUP1 DUP3 SSTORE DUP1 SWAP2 POP POP PUSH1 0x1 SWAP1 SUB SWAP1 PUSH1 0x0 MSTORE PUSH1 0x20 PUSH1 0x0 KECCAK256 ADD PUSH1 0x0 SWAP1 SWAP2 SWAP1 SWAP2 SWAP1 SWAP2 POP SSTORE PUSH1 0x11 PUSH1 0x0 PUSH1 0x1 DUP2 MSTORE PUSH1 0x20 ADD SWAP1 DUP2 MSTORE PUSH1 0x20 ADD PUSH1 0x0 KECCAK256 PUSH1 0x3 SLOAD SWAP1 DUP1 PUSH1 0x1 DUP2 SLOAD ADD DUP1 DUP3 SSTORE DUP1 SWAP2 POP POP PUSH1 0x1 SWAP1 SUB SWAP1 PUSH1 0x0 MSTORE PUSH1 0x20 PUSH1 0x0 KECCAK256 ADD PUSH1 0x0 SWAP1 SWAP2 SWAP1 SWAP2 SWAP1 SWAP2 POP SSTORE PUSH1 0x13 PUSH1 0x0 PUSH1 0x3 SLOAD DUP2 MSTORE PUSH1 0x20 ADD SWAP1 DUP2 MSTORE PUSH1 0x20 ADD PUSH1 0x0 KECCAK256 PUSH1 0x40 MLOAD DUP1 PUSH1 0xE0 ADD PUSH1 0x40 MSTORE DUP1 PUSH1 0x3 SLOAD DUP2 MSTORE PUSH1 0x20 ADD PUSH1 0x0 DUP2 MSTORE PUSH1 0x20 ADD PUSH1 0x0 DUP2 MSTORE PUSH1 0x20 ADD DUP11 DUP2 MSTORE PUSH1 0x20 ADD CALLER PUSH1 0x1 PUSH1 0x1 PUSH1 0xA0 SHL SUB AND DUP2 MSTORE PUSH1 0x20 ADD TIMESTAMP DUP2 MSTORE PUSH1 0x20 ADD PUSH1 0x0 DUP2 MSTORE POP SWAP1 DUP1 PUSH1 0x1 DUP2 SLOAD ADD DUP1 DUP3 SSTORE DUP1 SWAP2 POP POP PUSH1 0x1 SWAP1 SUB SWAP1 PUSH1 0x0 MSTORE PUSH1 0x20 PUSH1 0x0 KECCAK256 SWAP1 PUSH1 0x7 MUL ADD PUSH1 0x0 SWAP1 SWAP2 SWAP1 SWAP2 SWAP1 SWAP2 POP PUSH1 0x0 DUP3 ADD MLOAD DUP2 PUSH1 0x0 ADD SSTORE PUSH1 0x20 DUP3 ADD MLOAD DUP2 PUSH1 0x1 ADD SSTORE PUSH1 0x40 DUP3 ADD MLOAD DUP2 PUSH1 0x2 ADD SSTORE PUSH1 0x60 DUP3 ADD MLOAD DUP2 PUSH1 0x3 ADD SSTORE PUSH1 0x80 DUP3 ADD MLOAD DUP2 PUSH1 0x4 ADD PUSH1 0x0 PUSH2 0x100 EXP DUP2 SLOAD DUP2 PUSH1 0x1 PUSH1 0x1 PUSH1 0xA0 SHL SUB MUL NOT AND SWAP1 DUP4 PUSH1 0x1 PUSH1 0x1 PUSH1 0xA0 SHL SUB AND MUL OR SWAP1 SSTORE POP PUSH1 0xA0 DUP3 ADD MLOAD DUP2 PUSH1 0x5 ADD SSTORE PUSH1 0xC0 DUP3 ADD MLOAD DUP2 PUSH1 0x6 ADD SSTORE POP POP PUSH1 0x40 MLOAD DUP1 PUSH1 0xA0 ADD PUSH1 0x40 MSTORE DUP1 PUSH1 0x0 PUSH1 0x1 PUSH1 0x1 PUSH1 0xA0 SHL SUB AND DUP2 MSTORE PUSH1 0x20 ADD PUSH1 0x0 DUP2 MSTORE PUSH1 0x20 ADD PUSH1 0x0 DUP2 MSTORE PUSH1 0x20 ADD PUSH1 0x0 PUSH1 0x4 DUP2 GT ISZERO PUSH2 0xFF1 JUMPI PUSH4 0x4E487B71 PUSH1 0xE0 SHL PUSH1 0x0 MSTORE PUSH1 0x21 PUSH1 0x4 MSTORE PUSH1 0x24 PUSH1 0x0 REVERT JUMPDEST DUP2 MSTORE PUSH1 0x0 PUSH1 0x20 SWAP2 DUP3 ADD DUP2 SWAP1 MSTORE PUSH1 0x3 DUP1 SLOAD DUP3 MSTORE PUSH1 0x15 DUP4 MSTORE PUSH1 0x40 SWAP2 DUP3 SWAP1 KECCAK256 DUP5 MLOAD DUP2 SLOAD PUSH1 0x1 PUSH1 0x1 PUSH1 0xA0 SHL SUB NOT AND PUSH1 0x1 PUSH1 0x1 PUSH1 0xA0 SHL SUB SWAP1 SWAP2 AND OR DUP2 SSTORE SWAP3 DUP5 ADD MLOAD PUSH1 0x1 DUP1 DUP6 ADD SWAP2 SWAP1 SWAP2 SSTORE SWAP2 DUP5 ADD MLOAD PUSH1 0x2 DUP5 ADD SSTORE PUSH1 0x60 DUP5 ADD MLOAD SWAP1 DUP4 ADD DUP1 SLOAD SWAP2 SWAP3 SWAP1 SWAP2 PUSH1 0xFF NOT AND SWAP1 DUP4 PUSH1 0x4 DUP2 GT ISZERO PUSH2 0x1072 JUMPI PUSH4 0x4E487B71 PUSH1 0xE0 SHL PUSH1 0x0 MSTORE PUSH1 0x21 PUSH1 0x4 MSTORE PUSH1 0x24 PUSH1 0x0 REVERT JUMPDEST MUL OR SWAP1 SSTORE POP PUSH1 0x80 SWAP2 SWAP1 SWAP2 ADD MLOAD PUSH1 0x3 SWAP1 SWAP2 ADD DUP1 SLOAD SWAP2 ISZERO ISZERO PUSH2 0x100 MUL PUSH2 0xFF00 NOT SWAP1 SWAP3 AND SWAP2 SWAP1 SWAP2 OR SWAP1 SSTORE PUSH1 0x0 DUP4 DUP2 MSTORE PUSH1 0x19 PUSH1 0x20 MSTORE PUSH1 0x40 SWAP1 KECCAK256 DUP1 SLOAD PUSH1 0xFF NOT AND PUSH1 0x1 OR SWAP1 SSTORE POP POP POP POP POP POP POP POP JUMP JUMPDEST PUSH1 0xB PUSH1 0x20 MSTORE PUSH1 0x0 SWAP1 DUP2 MSTORE PUSH1 0x40 SWAP1 KECCAK256 SLOAD PUSH1 0xFF AND DUP2 JUMP JUMPDEST PUSH1 0x0 SLOAD PUSH1 0x1 PUSH1 0x1 PUSH1 0xA0 SHL SUB AND CALLER EQ ISZERO PUSH2 0x9DC JUMPI PUSH1 0x0 DUP1 SLOAD PUSH1 0x1 PUSH1 0x1 PUSH1 0xA0 SHL SUB DUP4 AND PUSH1 0x1 PUSH1 0x1 PUSH1 0xA0 SHL SUB NOT SWAP1 SWAP2 AND OR SWAP1 SSTORE POP JUMP JUMPDEST PUSH2 0x110D CALLER PUSH2 0x3A24 JUMP JUMPDEST DUP1 ISZERO PUSH2 0x112A JUMPI POP PUSH1 0x0 DUP4 DUP2 MSTORE PUSH1 0xE PUSH1 0x20 MSTORE PUSH1 0x40 SWAP1 KECCAK256 PUSH1 0x6 ADD SLOAD PUSH1 0xFF AND JUMPDEST DUP1 ISZERO PUSH2 0x1164 JUMPI POP PUSH1 0x0 DUP4 DUP2 MSTORE PUSH1 0xE PUSH1 0x20 SWAP1 DUP2 MSTORE PUSH1 0x40 DUP1 DUP4 KECCAK256 PUSH1 0x3 ADD SLOAD DUP4 MSTORE PUSH1 0xD DUP3 MSTORE DUP1 DUP4 KECCAK256 PUSH1 0x5 ADD SLOAD CALLER DUP5 MSTORE PUSH1 0x7 SWAP1 SWAP3 MSTORE SWAP1 SWAP2 KECCAK256 PUSH1 0x2 ADD SLOAD EQ JUMPDEST DUP1 ISZERO PUSH2 0x118B JUMPI POP PUSH1 0x1 PUSH1 0x1 PUSH1 0xA0 SHL SUB DUP2 AND PUSH1 0x0 SWAP1 DUP2 MSTORE PUSH1 0x6 PUSH1 0x20 MSTORE PUSH1 0x40 SWAP1 KECCAK256 PUSH1 0xA ADD SLOAD PUSH1 0xFF AND JUMPDEST DUP1 ISZERO PUSH2 0x11B4 JUMPI POP PUSH1 0x0 DUP4 DUP2 MSTORE PUSH1 0xE PUSH1 0x20 MSTORE PUSH1 0x40 SWAP1 KECCAK256 PUSH1 0x1 ADD SLOAD PUSH1 0x1 PUSH1 0x1 PUSH1 0xA0 SHL SUB DUP3 DUP2 AND SWAP2 AND EQ ISZERO JUMPDEST DUP1 ISZERO PUSH2 0x11DD JUMPI POP PUSH1 0x0 DUP4 DUP2 MSTORE PUSH1 0xE PUSH1 0x20 MSTORE PUSH1 0x40 SWAP1 KECCAK256 PUSH1 0x2 ADD SLOAD PUSH1 0x1 PUSH1 0x1 PUSH1 0xA0 SHL SUB DUP3 DUP2 AND SWAP2 AND EQ ISZERO JUMPDEST ISZERO PUSH2 0x287 JUMPI PUSH1 0x4 DUP1 SLOAD SWAP1 PUSH1 0x0 PUSH2 0x11F2 DUP4 PUSH2 0x4DD5 JUMP JUMPDEST SWAP1 SWAP2 SSTORE POP POP PUSH1 0x0 DUP4 DUP2 MSTORE PUSH1 0xE PUSH1 0x20 SWAP1 DUP2 MSTORE PUSH1 0x40 DUP1 DUP4 KECCAK256 PUSH1 0x4 DUP1 DUP3 ADD DUP1 SLOAD PUSH1 0xFF NOT AND SWAP1 SWAP2 OR SWAP1 SSTORE PUSH1 0x2 DUP2 ADD SLOAD PUSH1 0x1 PUSH1 0x1 PUSH1 0xA0 SHL SUB SWAP1 DUP2 AND DUP6 MSTORE PUSH1 0xC DUP5 MSTORE DUP3 DUP6 KECCAK256 PUSH1 0x3 DUP4 ADD SLOAD DUP2 SLOAD PUSH1 0x1 DUP2 DUP2 ADD DUP5 SSTORE SWAP3 DUP9 MSTORE SWAP6 DUP8 KECCAK256 SWAP1 SWAP6 ADD SWAP5 SWAP1 SWAP5 SSTORE SWAP3 ADD SLOAD SWAP1 SWAP2 AND DUP3 MSTORE DUP2 KECCAK256 SLOAD SWAP1 JUMPDEST DUP2 DUP2 LT ISZERO PUSH2 0x13E0 JUMPI PUSH1 0x0 DUP6 DUP2 MSTORE PUSH1 0xE PUSH1 0x20 SWAP1 DUP2 MSTORE PUSH1 0x40 DUP1 DUP4 KECCAK256 PUSH1 0x3 DUP2 ADD SLOAD PUSH1 0x1 SWAP1 SWAP2 ADD SLOAD PUSH1 0x1 PUSH1 0x1 PUSH1 0xA0 SHL SUB AND DUP5 MSTORE PUSH1 0xC SWAP1 SWAP3 MSTORE SWAP1 SWAP2 KECCAK256 DUP1 SLOAD DUP4 SWAP1 DUP2 LT PUSH2 0x12B0 JUMPI PUSH4 0x4E487B71 PUSH1 0xE0 SHL PUSH1 0x0 MSTORE PUSH1 0x32 PUSH1 0x4 MSTORE PUSH1 0x24 PUSH1 0x0 REVERT JUMPDEST SWAP1 PUSH1 0x0 MSTORE PUSH1 0x20 PUSH1 0x0 KECCAK256 ADD SLOAD EQ ISZERO PUSH2 0x13CE JUMPI PUSH1 0x0 DUP6 DUP2 MSTORE PUSH1 0xE PUSH1 0x20 SWAP1 DUP2 MSTORE PUSH1 0x40 DUP1 DUP4 KECCAK256 PUSH1 0x1 SWAP1 DUP2 ADD SLOAD PUSH1 0x1 PUSH1 0x1 PUSH1 0xA0 SHL SUB AND DUP5 MSTORE PUSH1 0xC SWAP1 SWAP3 MSTORE SWAP1 SWAP2 KECCAK256 SWAP1 PUSH2 0x12F6 SWAP1 DUP5 PUSH2 0x4D83 JUMP JUMPDEST DUP2 SLOAD DUP2 LT PUSH2 0x1314 JUMPI PUSH4 0x4E487B71 PUSH1 0xE0 SHL PUSH1 0x0 MSTORE PUSH1 0x32 PUSH1 0x4 MSTORE PUSH1 0x24 PUSH1 0x0 REVERT JUMPDEST PUSH1 0x0 SWAP2 DUP3 MSTORE PUSH1 0x20 DUP1 DUP4 KECCAK256 SWAP1 SWAP2 ADD SLOAD DUP8 DUP4 MSTORE PUSH1 0xE DUP3 MSTORE PUSH1 0x40 DUP1 DUP5 KECCAK256 PUSH1 0x1 ADD SLOAD PUSH1 0x1 PUSH1 0x1 PUSH1 0xA0 SHL SUB AND DUP5 MSTORE PUSH1 0xC SWAP1 SWAP3 MSTORE SWAP2 KECCAK256 DUP1 SLOAD DUP4 SWAP1 DUP2 LT PUSH2 0x1364 JUMPI PUSH4 0x4E487B71 PUSH1 0xE0 SHL PUSH1 0x0 MSTORE PUSH1 0x32 PUSH1 0x4 MSTORE PUSH1 0x24 PUSH1 0x0 REVERT JUMPDEST PUSH1 0x0 SWAP2 DUP3 MSTORE PUSH1 0x20 DUP1 DUP4 KECCAK256 SWAP1 SWAP2 ADD SWAP3 SWAP1 SWAP3 SSTORE DUP7 DUP2 MSTORE PUSH1 0xE DUP3 MSTORE PUSH1 0x40 DUP1 DUP3 KECCAK256 PUSH1 0x1 ADD SLOAD PUSH1 0x1 PUSH1 0x1 PUSH1 0xA0 SHL SUB AND DUP3 MSTORE PUSH1 0xC SWAP1 SWAP3 MSTORE KECCAK256 DUP1 SLOAD DUP1 PUSH2 0x13B3 JUMPI PUSH4 0x4E487B71 PUSH1 0xE0 SHL PUSH1 0x0 MSTORE PUSH1 0x31 PUSH1 0x4 MSTORE PUSH1 0x24 PUSH1 0x0 REVERT JUMPDEST PUSH1 0x1 SWAP1 SUB DUP2 DUP2 SWAP1 PUSH1 0x0 MSTORE PUSH1 0x20 PUSH1 0x0 KECCAK256 ADD PUSH1 0x0 SWAP1 SSTORE SWAP1 SSTORE PUSH2 0x13E0 JUMP JUMPDEST DUP1 PUSH2 0x13D8 DUP2 PUSH2 0x4DD5 JUMP JUMPDEST SWAP2 POP POP PUSH2 0x1259 JUMP JUMPDEST POP PUSH1 0x40 MLOAD DUP1 PUSH1 0xE0 ADD PUSH1 0x40 MSTORE DUP1 PUSH1 0x4 SLOAD DUP2 MSTORE PUSH1 0x20 ADD PUSH1 0xE PUSH1 0x0 DUP8 DUP2 MSTORE PUSH1 0x20 ADD SWAP1 DUP2 MSTORE PUSH1 0x20 ADD PUSH1 0x0 KECCAK256 PUSH1 0x1 ADD PUSH1 0x0 SWAP1 SLOAD SWAP1 PUSH2 0x100 EXP SWAP1 DIV PUSH1 0x1 PUSH1 0x1 PUSH1 0xA0 SHL SUB AND PUSH1 0x1 PUSH1 0x1 PUSH1 0xA0 SHL SUB AND DUP2 MSTORE PUSH1 0x20 ADD PUSH1 0xE PUSH1 0x0 DUP8 DUP2 MSTORE PUSH1 0x20 ADD SWAP1 DUP2 MSTORE PUSH1 0x20 ADD PUSH1 0x0 KECCAK256 PUSH1 0x2 ADD PUSH1 0x0 SWAP1 SLOAD SWAP1 PUSH2 0x100 EXP SWAP1 DIV PUSH1 0x1 PUSH1 0x1 PUSH1 0xA0 SHL SUB AND PUSH1 0x1 PUSH1 0x1 PUSH1 0xA0 SHL SUB AND DUP2 MSTORE PUSH1 0x20 ADD DUP4 PUSH1 0x1 PUSH1 0x1 PUSH1 0xA0 SHL SUB AND DUP2 MSTORE PUSH1 0x20 ADD CALLER PUSH1 0x1 PUSH1 0x1 PUSH1 0xA0 SHL SUB AND DUP2 MSTORE PUSH1 0x20 ADD PUSH1 0xE PUSH1 0x0 DUP8 DUP2 MSTORE PUSH1 0x20 ADD SWAP1 DUP2 MSTORE PUSH1 0x20 ADD PUSH1 0x0 KECCAK256 PUSH1 0x3 ADD SLOAD DUP2 MSTORE PUSH1 0x20 ADD TIMESTAMP DUP2 MSTORE POP PUSH1 0x18 PUSH1 0x0 PUSH1 0x4 SLOAD DUP2 MSTORE PUSH1 0x20 ADD SWAP1 DUP2 MSTORE PUSH1 0x20 ADD PUSH1 0x0 KECCAK256 PUSH1 0x0 DUP3 ADD MLOAD DUP2 PUSH1 0x0 ADD SSTORE PUSH1 0x20 DUP3 ADD MLOAD DUP2 PUSH1 0x1 ADD PUSH1 0x0 PUSH2 0x100 EXP DUP2 SLOAD DUP2 PUSH1 0x1 PUSH1 0x1 PUSH1 0xA0 SHL SUB MUL NOT AND SWAP1 DUP4 PUSH1 0x1 PUSH1 0x1 PUSH1 0xA0 SHL SUB AND MUL OR SWAP1 SSTORE POP PUSH1 0x40 DUP3 ADD MLOAD DUP2 PUSH1 0x2 ADD PUSH1 0x0 PUSH2 0x100 EXP DUP2 SLOAD DUP2 PUSH1 0x1 PUSH1 0x1 PUSH1 0xA0 SHL SUB MUL NOT AND SWAP1 DUP4 PUSH1 0x1 PUSH1 0x1 PUSH1 0xA0 SHL SUB AND MUL OR SWAP1 SSTORE POP PUSH1 0x60 DUP3 ADD MLOAD DUP2 PUSH1 0x3 ADD PUSH1 0x0 PUSH2 0x100 EXP DUP2 SLOAD DUP2 PUSH1 0x1 PUSH1 0x1 PUSH1 0xA0 SHL SUB MUL NOT AND SWAP1 DUP4 PUSH1 0x1 PUSH1 0x1 PUSH1 0xA0 SHL SUB AND MUL OR SWAP1 SSTORE POP PUSH1 0x80 DUP3 ADD MLOAD DUP2 PUSH1 0x4 ADD PUSH1 0x0 PUSH2 0x100 EXP DUP2 SLOAD DUP2 PUSH1 0x1 PUSH1 0x1 PUSH1 0xA0 SHL SUB MUL NOT AND SWAP1 DUP4 PUSH1 0x1 PUSH1 0x1 PUSH1 0xA0 SHL SUB AND MUL OR SWAP1 SSTORE POP PUSH1 0xA0 DUP3 ADD MLOAD DUP2 PUSH1 0x5 ADD SSTORE PUSH1 0xC0 DUP3 ADD MLOAD DUP2 PUSH1 0x6 ADD SSTORE SWAP1 POP POP DUP3 PUSH1 0xD PUSH1 0x0 PUSH1 0xE PUSH1 0x0 DUP9 DUP2 MSTORE PUSH1 0x20 ADD SWAP1 DUP2 MSTORE PUSH1 0x20 ADD PUSH1 0x0 KECCAK256 PUSH1 0x3 ADD SLOAD DUP2 MSTORE PUSH1 0x20 ADD SWAP1 DUP2 MSTORE PUSH1 0x20 ADD PUSH1 0x0 KECCAK256 PUSH1 0x7 ADD SWAP1 DUP1 MLOAD SWAP1 PUSH1 0x20 ADD SWAP1 PUSH2 0x15CC SWAP3 SWAP2 SWAP1 PUSH2 0x42F6 JUMP JUMPDEST POP POP PUSH1 0x0 DUP4 DUP2 MSTORE PUSH1 0xE PUSH1 0x20 SWAP1 DUP2 MSTORE PUSH1 0x40 DUP1 DUP4 KECCAK256 PUSH1 0x3 DUP2 ADD DUP1 SLOAD DUP6 MSTORE PUSH1 0xD SWAP1 SWAP4 MSTORE DUP2 DUP5 KECCAK256 PUSH1 0x9 SWAP1 DUP2 ADD DUP1 SLOAD PUSH1 0xFF NOT AND SWAP1 SSTORE PUSH1 0x2 SWAP1 SWAP2 ADD SLOAD SWAP3 SLOAD DUP5 MSTORE SWAP3 KECCAK256 SWAP1 SWAP2 ADD DUP1 SLOAD PUSH3 0x10000 PUSH1 0x1 PUSH1 0xB0 SHL SUB NOT AND PUSH1 0x1 PUSH1 0x1 PUSH1 0xA0 SHL SUB SWAP1 SWAP3 AND PUSH3 0x10000 MUL SWAP2 SWAP1 SWAP2 OR SWAP1 SSTORE JUMPDEST POP POP POP JUMP JUMPDEST CALLER PUSH1 0x0 SWAP1 DUP2 MSTORE PUSH1 0xF PUSH1 0x20 SWAP1 DUP2 MSTORE PUSH1 0x40 SWAP2 DUP3 SWAP1 KECCAK256 DUP1 SLOAD DUP4 MLOAD DUP2 DUP5 MUL DUP2 ADD DUP5 ADD SWAP1 SWAP5 MSTORE DUP1 DUP5 MSTORE PUSH1 0x60 SWAP4 SWAP3 DUP4 ADD DUP3 DUP3 DUP1 ISZERO PUSH2 0xAF5 JUMPI PUSH1 0x20 MUL DUP3 ADD SWAP2 SWAP1 PUSH1 0x0 MSTORE PUSH1 0x20 PUSH1 0x0 KECCAK256 SWAP1 DUP2 SLOAD DUP2 MSTORE PUSH1 0x20 ADD SWAP1 PUSH1 0x1 ADD SWAP1 DUP1 DUP4 GT PUSH2 0xAE1 JUMPI POP POP POP POP POP SWAP1 POP SWAP1 JUMP JUMPDEST PUSH1 0x0 DUP2 DUP2 MSTORE PUSH1 0xE PUSH1 0x20 MSTORE PUSH1 0x40 SWAP1 KECCAK256 PUSH1 0x1 ADD SLOAD PUSH1 0x1 PUSH1 0x1 PUSH1 0xA0 SHL SUB AND CALLER EQ PUSH2 0x16CD JUMPI PUSH1 0x40 MLOAD PUSH3 0x461BCD PUSH1 0xE5 SHL DUP2 MSTORE PUSH1 0x4 ADD PUSH2 0xB38 SWAP1 PUSH2 0x4B15 JUMP JUMPDEST PUSH1 0x0 DUP2 DUP2 MSTORE PUSH1 0xE PUSH1 0x20 MSTORE PUSH1 0x40 SWAP1 KECCAK256 PUSH1 0x4 SWAP1 DUP2 ADD SLOAD PUSH1 0xFF AND DUP2 DUP2 GT ISZERO PUSH2 0x1702 JUMPI PUSH4 0x4E487B71 PUSH1 0xE0 SHL PUSH1 0x0 MSTORE PUSH1 0x21 PUSH1 0x4 MSTORE PUSH1 0x24 PUSH1 0x0 REVERT JUMPDEST EQ ISZERO DUP1 ISZERO PUSH2 0x1745 JUMPI POP PUSH1 0x3 PUSH1 0x0 DUP3 DUP2 MSTORE PUSH1 0xE PUSH1 0x20 MSTORE PUSH1 0x40 SWAP1 KECCAK256 PUSH1 0x4 SWAP1 DUP2 ADD SLOAD PUSH1 0xFF AND SWAP1 DUP2 GT ISZERO PUSH2 0x1742 JUMPI PUSH4 0x4E487B71 PUSH1 0xE0 SHL PUSH1 0x0 MSTORE PUSH1 0x21 PUSH1 0x4 MSTORE PUSH1 0x24 PUSH1 0x0 REVERT JUMPDEST EQ ISZERO JUMPDEST PUSH2 0x1761 JUMPI PUSH1 0x40 MLOAD PUSH3 0x461BCD PUSH1 0xE5 SHL DUP2 MSTORE PUSH1 0x4 ADD PUSH2 0xB38 SWAP1 PUSH2 0x4A9B JUMP JUMPDEST PUSH1 0x0 DUP2 DUP2 MSTORE PUSH1 0xE PUSH1 0x20 MSTORE PUSH1 0x40 SWAP1 KECCAK256 PUSH1 0x5 ADD SLOAD ISZERO PUSH2 0x17D7 JUMPI PUSH1 0x40 DUP1 MLOAD PUSH1 0x60 DUP2 ADD DUP3 MSTORE DUP3 DUP2 MSTORE PUSH1 0x0 DUP4 DUP2 MSTORE PUSH1 0xE PUSH1 0x20 SWAP1 DUP2 MSTORE DUP4 DUP3 KECCAK256 PUSH1 0x3 DUP1 DUP3 ADD SLOAD DUP5 MSTORE PUSH1 0xD DUP4 MSTORE DUP6 DUP5 KECCAK256 ADD SLOAD DUP3 DUP6 ADD SWAP1 DUP2 MSTORE PUSH1 0x5 SWAP1 SWAP2 ADD SLOAD DUP5 DUP7 ADD SWAP1 DUP2 MSTORE DUP7 DUP5 MSTORE PUSH1 0x17 SWAP1 SWAP3 MSTORE SWAP4 SWAP1 SWAP2 KECCAK256 SWAP2 MLOAD DUP3 SSTORE SWAP2 MLOAD PUSH1 0x1 DUP3 ADD SSTORE SWAP1 MLOAD PUSH1 0x2 SWAP1 SWAP2 ADD SSTORE JUMPDEST PUSH1 0x0 DUP2 DUP2 MSTORE PUSH1 0xE PUSH1 0x20 MSTORE PUSH1 0x40 SWAP1 KECCAK256 PUSH1 0x4 DUP2 ADD DUP1 SLOAD PUSH1 0xFF NOT AND PUSH1 0x2 OR SWAP1 SSTORE PUSH1 0x3 ADD SLOAD PUSH1 0x1 JUMPDEST PUSH1 0x5 SLOAD DUP2 GT PUSH2 0x1630 JUMPI PUSH1 0x0 DUP2 DUP2 MSTORE PUSH1 0xE PUSH1 0x20 MSTORE PUSH1 0x40 SWAP1 KECCAK256 PUSH1 0x3 ADD SLOAD DUP3 EQ DUP1 ISZERO PUSH2 0x1824 JUMPI POP DUP3 DUP2 EQ ISZERO JUMPDEST DUP1 ISZERO PUSH2 0x1842 JUMPI POP PUSH1 0x0 DUP2 DUP2 MSTORE PUSH1 0xE PUSH1 0x20 MSTORE PUSH1 0x40 SWAP1 KECCAK256 PUSH1 0x6 ADD SLOAD PUSH1 0xFF AND ISZERO JUMPDEST ISZERO PUSH2 0x1850 JUMPI PUSH2 0x1850 DUP2 PUSH2 0xAFF JUMP JUMPDEST DUP1 PUSH2 0x185A DUP2 PUSH2 0x4DD5 JUMP JUMPDEST SWAP2 POP POP PUSH2 0x17FB JUMP JUMPDEST PUSH1 0x60 PUSH1 0x13 PUSH1 0x0 DUP4 DUP2 MSTORE PUSH1 0x20 ADD SWAP1 DUP2 MSTORE PUSH1 0x20 ADD PUSH1 0x0 KECCAK256 DUP1 SLOAD DUP1 PUSH1 0x20 MUL PUSH1 0x20 ADD PUSH1 0x40 MLOAD SWAP1 DUP2 ADD PUSH1 0x40 MSTORE DUP1 SWAP3 SWAP2 SWAP1 DUP2 DUP2 MSTORE PUSH1 0x20 ADD PUSH1 0x0 SWAP1 JUMPDEST DUP3 DUP3 LT ISZERO PUSH2 0x1912 JUMPI PUSH1 0x0 DUP5 DUP2 MSTORE PUSH1 0x20 SWAP1 DUP2 SWAP1 KECCAK256 PUSH1 0x40 DUP1 MLOAD PUSH1 0xE0 DUP2 ADD DUP3 MSTORE PUSH1 0x7 DUP7 MUL SWAP1 SWAP3 ADD DUP1 SLOAD DUP4 MSTORE PUSH1 0x1 DUP1 DUP3 ADD SLOAD DUP5 DUP7 ADD MSTORE PUSH1 0x2 DUP3 ADD SLOAD SWAP3 DUP5 ADD SWAP3 SWAP1 SWAP3 MSTORE PUSH1 0x3 DUP2 ADD SLOAD PUSH1 0x60 DUP5 ADD MSTORE PUSH1 0x4 DUP2 ADD SLOAD PUSH1 0x1 PUSH1 0x1 PUSH1 0xA0 SHL SUB AND PUSH1 0x80 DUP5 ADD MSTORE PUSH1 0x5 DUP2 ADD SLOAD PUSH1 0xA0 DUP5 ADD MSTORE PUSH1 0x6 ADD SLOAD PUSH1 0xC0 DUP4 ADD MSTORE SWAP1 DUP4 MSTORE SWAP1 SWAP3 ADD SWAP2 ADD PUSH2 0x1897 JUMP JUMPDEST POP POP POP POP SWAP1 POP SWAP2 SWAP1 POP JUMP JUMPDEST PUSH2 0x1926 CALLER PUSH2 0x3A24 JUMP JUMPDEST DUP1 ISZERO PUSH2 0x193B JUMPI POP PUSH1 0x1 PUSH1 0x1 PUSH1 0xA0 SHL SUB DUP2 AND CALLER EQ ISZERO JUMPDEST DUP1 ISZERO PUSH2 0x1972 JUMPI POP CALLER PUSH1 0x0 SWAP1 DUP2 MSTORE PUSH1 0x7 PUSH1 0x20 SWAP1 DUP2 MSTORE PUSH1 0x40 DUP1 DUP4 KECCAK256 PUSH1 0x2 ADD SLOAD PUSH1 0x1 PUSH1 0x1 PUSH1 0xA0 SHL SUB DUP6 AND DUP5 MSTORE PUSH1 0x6 SWAP1 SWAP3 MSTORE SWAP1 SWAP2 KECCAK256 PUSH1 0x4 ADD SLOAD EQ JUMPDEST ISZERO PUSH2 0x287 JUMPI PUSH1 0x1 PUSH1 0x1 PUSH1 0xA0 SHL SUB DUP2 AND PUSH1 0x0 SWAP1 DUP2 MSTORE PUSH1 0x6 PUSH1 0x20 SWAP1 DUP2 MSTORE PUSH1 0x40 SWAP2 DUP3 SWAP1 KECCAK256 PUSH1 0xA ADD DUP1 SLOAD PUSH1 0xFF NOT AND PUSH1 0x1 OR SWAP1 SSTORE DUP2 MLOAD PUSH1 0x60 DUP2 ADD DUP4 MSTORE CALLER DUP2 MSTORE TIMESTAMP SWAP2 DUP2 ADD SWAP2 SWAP1 SWAP2 MSTORE SWAP1 DUP2 ADD PUSH1 0x2 PUSH2 0x960 JUMP JUMPDEST PUSH1 0x1 PUSH1 0x0 MSTORE PUSH1 0xA PUSH1 0x20 SWAP1 DUP2 MSTORE PUSH32 0xBBC70DB1B6C7AFD11E79C0FB0051300458F1A3ACB8EE9789D9B6B26C61AD9BC7 DUP1 SLOAD PUSH1 0x40 DUP1 MLOAD DUP3 DUP6 MUL DUP2 ADD DUP6 ADD SWAP1 SWAP2 MSTORE DUP2 DUP2 MSTORE PUSH1 0x60 SWAP4 SWAP1 SWAP3 SWAP2 SWAP1 DUP4 ADD DUP3 DUP3 DUP1 ISZERO PUSH2 0xAF5 JUMPI PUSH1 0x20 MUL DUP3 ADD SWAP2 SWAP1 PUSH1 0x0 MSTORE PUSH1 0x20 PUSH1 0x0 KECCAK256 SWAP1 JUMPDEST DUP2 SLOAD PUSH1 0x1 PUSH1 0x1 PUSH1 0xA0 SHL SUB AND DUP2 MSTORE PUSH1 0x1 SWAP1 SWAP2 ADD SWAP1 PUSH1 0x20 ADD DUP1 DUP4 GT PUSH2 0x1A20 JUMPI POP POP POP POP POP SWAP1 POP SWAP1 JUMP JUMPDEST CALLER PUSH1 0x0 SWAP1 DUP2 MSTORE PUSH1 0x6 PUSH1 0x20 MSTORE PUSH1 0x40 SWAP1 KECCAK256 PUSH1 0xA ADD SLOAD PUSH1 0xFF AND DUP1 ISZERO PUSH2 0x1A7F JUMPI POP PUSH1 0x0 DUP4 DUP2 MSTORE PUSH1 0xD PUSH1 0x20 MSTORE PUSH1 0x40 SWAP1 KECCAK256 PUSH1 0x9 ADD SLOAD PUSH2 0x100 SWAP1 DIV PUSH1 0xFF AND JUMPDEST DUP1 ISZERO PUSH2 0x1AAA JUMPI POP PUSH1 0x0 DUP4 DUP2 MSTORE PUSH1 0xD PUSH1 0x20 MSTORE PUSH1 0x40 SWAP1 KECCAK256 PUSH1 0x9 ADD SLOAD PUSH3 0x10000 SWAP1 DIV PUSH1 0x1 PUSH1 0x1 PUSH1 0xA0 SHL SUB AND CALLER EQ JUMPDEST DUP1 ISZERO PUSH2 0x1AB6 JUMPI POP PUSH1 0x0 DUP2 GT JUMPDEST DUP1 ISZERO PUSH2 0x1AD2 JUMPI POP PUSH1 0x0 DUP4 DUP2 MSTORE PUSH1 0xD PUSH1 0x20 MSTORE PUSH1 0x40 SWAP1 KECCAK256 PUSH1 0x2 ADD SLOAD DUP3 LT JUMPDEST DUP1 ISZERO PUSH2 0x1AF0 JUMPI POP PUSH1 0x0 DUP4 DUP2 MSTORE PUSH1 0xD PUSH1 0x20 MSTORE PUSH1 0x40 SWAP1 KECCAK256 PUSH1 0x9 ADD SLOAD PUSH1 0xFF AND ISZERO JUMPDEST DUP1 ISZERO PUSH2 0x1B14 JUMPI POP CALLER PUSH1 0x0 SWAP1 DUP2 MSTORE PUSH1 0x6 PUSH1 0x20 MSTORE PUSH1 0x40 SWAP1 KECCAK256 PUSH1 0xA ADD SLOAD PUSH2 0x100 SWAP1 DIV PUSH1 0xFF AND ISZERO JUMPDEST ISZERO PUSH2 0x287 JUMPI PUSH1 0x0 DUP4 DUP2 MSTORE PUSH1 0xD PUSH1 0x20 SWAP1 DUP2 MSTORE PUSH1 0x40 DUP1 DUP4 KECCAK256 PUSH1 0x1 SWAP1 DUP2 ADD SLOAD PUSH1 0x13 SWAP1 SWAP4 MSTORE SWAP1 DUP4 KECCAK256 DUP1 SLOAD SWAP3 SWAP4 SWAP3 SWAP1 SWAP2 PUSH2 0x1B48 SWAP2 PUSH2 0x4D83 JUMP JUMPDEST DUP2 SLOAD DUP2 LT PUSH2 0x1B66 JUMPI PUSH4 0x4E487B71 PUSH1 0xE0 SHL PUSH1 0x0 MSTORE PUSH1 0x32 PUSH1 0x4 MSTORE PUSH1 0x24 PUSH1 0x0 REVERT JUMPDEST SWAP1 PUSH1 0x0 MSTORE PUSH1 0x20 PUSH1 0x0 KECCAK256 SWAP1 PUSH1 0x7 MUL ADD SWAP1 POP PUSH1 0x0 DUP4 DUP3 PUSH1 0x1 ADD SLOAD PUSH2 0x1B88 SWAP2 SWAP1 PUSH2 0x4D6B JUMP JUMPDEST SWAP1 POP PUSH1 0x1 JUMPDEST DUP5 DUP2 GT ISZERO DUP1 ISZERO PUSH2 0x1BAE JUMPI POP PUSH1 0x0 DUP8 DUP2 MSTORE PUSH1 0xD PUSH1 0x20 MSTORE PUSH1 0x40 SWAP1 KECCAK256 PUSH1 0x2 ADD SLOAD DUP7 GT ISZERO JUMPDEST ISZERO PUSH2 0x2540 JUMPI PUSH1 0x0 DUP8 DUP2 MSTORE PUSH1 0xD PUSH1 0x20 MSTORE PUSH1 0x40 DUP2 KECCAK256 PUSH1 0x2 ADD DUP1 SLOAD DUP9 SWAP3 SWAP1 PUSH2 0x1BD4 SWAP1 DUP5 SWAP1 PUSH2 0x4D83 JUMP JUMPDEST SWAP1 SWAP2 SSTORE POP POP PUSH1 0x3 DUP1 SLOAD SWAP1 PUSH1 0x0 PUSH2 0x1BE9 DUP4 PUSH2 0x4DD5 JUMP JUMPDEST SWAP2 SWAP1 POP SSTORE POP PUSH1 0x0 TIMESTAMP PUSH1 0x3 SLOAD DUP7 PUSH1 0x40 MLOAD PUSH1 0x20 ADD PUSH2 0x1C07 SWAP4 SWAP3 SWAP2 SWAP1 PUSH2 0x4814 JUMP JUMPDEST PUSH1 0x40 DUP1 MLOAD PUSH1 0x1F NOT DUP2 DUP5 SUB ADD DUP2 MSTORE DUP3 DUP3 MSTORE DUP1 MLOAD PUSH1 0x20 SWAP2 DUP3 ADD KECCAK256 PUSH2 0x1C0 DUP5 ADD DUP4 MSTORE PUSH1 0x3 DUP1 SLOAD DUP6 MSTORE DUP5 DUP4 ADD DUP3 SWAP1 MSTORE DUP5 DUP5 ADD DUP13 SWAP1 MSTORE PUSH1 0x0 DUP14 DUP2 MSTORE PUSH1 0xD DUP1 DUP6 MSTORE SWAP5 DUP2 KECCAK256 SWAP2 DUP3 ADD SLOAD PUSH1 0x60 DUP8 ADD MSTORE DUP14 SWAP1 MSTORE SWAP3 SWAP1 SWAP2 MSTORE PUSH1 0x4 SWAP1 SWAP2 ADD DUP1 SLOAD SWAP2 SWAP4 POP PUSH1 0x80 DUP4 ADD SWAP2 PUSH2 0x1C6D SWAP1 PUSH2 0x4D9A JUMP JUMPDEST DUP1 PUSH1 0x1F ADD PUSH1 0x20 DUP1 SWAP2 DIV MUL PUSH1 0x20 ADD PUSH1 0x40 MLOAD SWAP1 DUP2 ADD PUSH1 0x40 MSTORE DUP1 SWAP3 SWAP2 SWAP1 DUP2 DUP2 MSTORE PUSH1 0x20 ADD DUP3 DUP1 SLOAD PUSH2 0x1C99 SWAP1 PUSH2 0x4D9A JUMP JUMPDEST DUP1 ISZERO PUSH2 0x1CE6 JUMPI DUP1 PUSH1 0x1F LT PUSH2 0x1CBB JUMPI PUSH2 0x100 DUP1 DUP4 SLOAD DIV MUL DUP4 MSTORE SWAP2 PUSH1 0x20 ADD SWAP2 PUSH2 0x1CE6 JUMP JUMPDEST DUP3 ADD SWAP2 SWAP1 PUSH1 0x0 MSTORE PUSH1 0x20 PUSH1 0x0 KECCAK256 SWAP1 JUMPDEST DUP2 SLOAD DUP2 MSTORE SWAP1 PUSH1 0x1 ADD SWAP1 PUSH1 0x20 ADD DUP1 DUP4 GT PUSH2 0x1CC9 JUMPI DUP3 SWAP1 SUB PUSH1 0x1F AND DUP3 ADD SWAP2 JUMPDEST POP POP POP POP POP DUP2 MSTORE PUSH1 0x20 ADD PUSH1 0xD PUSH1 0x0 DUP12 DUP2 MSTORE PUSH1 0x20 ADD SWAP1 DUP2 MSTORE PUSH1 0x20 ADD PUSH1 0x0 KECCAK256 PUSH1 0x5 ADD SLOAD DUP2 MSTORE PUSH1 0x20 ADD PUSH1 0xD PUSH1 0x0 DUP12 DUP2 MSTORE PUSH1 0x20 ADD SWAP1 DUP2 MSTORE PUSH1 0x20 ADD PUSH1 0x0 KECCAK256 PUSH1 0x6 ADD DUP1 SLOAD PUSH2 0x1D2D SWAP1 PUSH2 0x4D9A JUMP JUMPDEST DUP1 PUSH1 0x1F ADD PUSH1 0x20 DUP1 SWAP2 DIV MUL PUSH1 0x20 ADD PUSH1 0x40 MLOAD SWAP1 DUP2 ADD PUSH1 0x40 MSTORE DUP1 SWAP3 SWAP2 SWAP1 DUP2 DUP2 MSTORE PUSH1 0x20 ADD DUP3 DUP1 SLOAD PUSH2 0x1D59 SWAP1 PUSH2 0x4D9A JUMP JUMPDEST DUP1 ISZERO PUSH2 0x1DA6 JUMPI DUP1 PUSH1 0x1F LT PUSH2 0x1D7B JUMPI PUSH2 0x100 DUP1 DUP4 SLOAD DIV MUL DUP4 MSTORE SWAP2 PUSH1 0x20 ADD SWAP2 PUSH2 0x1DA6 JUMP JUMPDEST DUP3 ADD SWAP2 SWAP1 PUSH1 0x0 MSTORE PUSH1 0x20 PUSH1 0x0 KECCAK256 SWAP1 JUMPDEST DUP2 SLOAD DUP2 MSTORE SWAP1 PUSH1 0x1 ADD SWAP1 PUSH1 0x20 ADD DUP1 DUP4 GT PUSH2 0x1D89 JUMPI DUP3 SWAP1 SUB PUSH1 0x1F AND DUP3 ADD SWAP2 JUMPDEST POP POP POP POP POP DUP2 MSTORE PUSH1 0x20 ADD PUSH1 0xD PUSH1 0x0 DUP12 DUP2 MSTORE PUSH1 0x20 ADD SWAP1 DUP2 MSTORE PUSH1 0x20 ADD PUSH1 0x0 KECCAK256 PUSH1 0x7 ADD DUP1 SLOAD PUSH2 0x1DD1 SWAP1 PUSH2 0x4D9A JUMP JUMPDEST DUP1 PUSH1 0x1F ADD PUSH1 0x20 DUP1 SWAP2 DIV MUL PUSH1 0x20 ADD PUSH1 0x40 MLOAD SWAP1 DUP2 ADD PUSH1 0x40 MSTORE DUP1 SWAP3 SWAP2 SWAP1 DUP2 DUP2 MSTORE PUSH1 0x20 ADD DUP3 DUP1 SLOAD PUSH2 0x1DFD SWAP1 PUSH2 0x4D9A JUMP JUMPDEST DUP1 ISZERO PUSH2 0x1E4A JUMPI DUP1 PUSH1 0x1F LT PUSH2 0x1E1F JUMPI PUSH2 0x100 DUP1 DUP4 SLOAD DIV MUL DUP4 MSTORE SWAP2 PUSH1 0x20 ADD SWAP2 PUSH2 0x1E4A JUMP JUMPDEST DUP3 ADD SWAP2 SWAP1 PUSH1 0x0 MSTORE PUSH1 0x20 PUSH1 0x0 KECCAK256 SWAP1 JUMPDEST DUP2 SLOAD DUP2 MSTORE SWAP1 PUSH1 0x1 ADD SWAP1 PUSH1 0x20 ADD DUP1 DUP4 GT PUSH2 0x1E2D JUMPI DUP3 SWAP1 SUB PUSH1 0x1F AND DUP3 ADD SWAP2 JUMPDEST POP POP POP POP POP DUP2 MSTORE PUSH1 0x20 ADD PUSH1 0xD PUSH1 0x0 DUP12 DUP2 MSTORE PUSH1 0x20 ADD SWAP1 DUP2 MSTORE PUSH1 0x20 ADD PUSH1 0x0 KECCAK256 PUSH1 0x8 ADD DUP1 SLOAD PUSH2 0x1E75 SWAP1 PUSH2 0x4D9A JUMP JUMPDEST DUP1 PUSH1 0x1F ADD PUSH1 0x20 DUP1 SWAP2 DIV MUL PUSH1 0x20 ADD PUSH1 0x40 MLOAD SWAP1 DUP2 ADD PUSH1 0x40 MSTORE DUP1 SWAP3 SWAP2 SWAP1 DUP2 DUP2 MSTORE PUSH1 0x20 ADD DUP3 DUP1 SLOAD PUSH2 0x1EA1 SWAP1 PUSH2 0x4D9A JUMP JUMPDEST DUP1 ISZERO PUSH2 0x1EEE JUMPI DUP1 PUSH1 0x1F LT PUSH2 0x1EC3 JUMPI PUSH2 0x100 DUP1 DUP4 SLOAD DIV MUL DUP4 MSTORE SWAP2 PUSH1 0x20 ADD SWAP2 PUSH2 0x1EEE JUMP JUMPDEST DUP3 ADD SWAP2 SWAP1 PUSH1 0x0 MSTORE PUSH1 0x20 PUSH1 0x0 KECCAK256 SWAP1 JUMPDEST DUP2 SLOAD DUP2 MSTORE SWAP1 PUSH1 0x1 ADD SWAP1 PUSH1 0x20 ADD DUP1 DUP4 GT PUSH2 0x1ED1 JUMPI DUP3 SWAP1 SUB PUSH1 0x1F AND DUP3 ADD SWAP2 JUMPDEST POP POP POP POP POP DUP2 MSTORE PUSH1 0x20 ADD PUSH1 0x0 ISZERO ISZERO DUP2 MSTORE PUSH1 0x20 ADD PUSH1 0x1 ISZERO ISZERO DUP2 MSTORE PUSH1 0x20 ADD CALLER PUSH1 0x1 PUSH1 0x1 PUSH1 0xA0 SHL SUB AND DUP2 MSTORE PUSH1 0x20 ADD PUSH1 0x0 DUP1 SLOAD SWAP1 PUSH2 0x100 EXP SWAP1 DIV PUSH1 0x1 PUSH1 0x1 PUSH1 0xA0 SHL SUB AND PUSH1 0x1 PUSH1 0x1 PUSH1 0xA0 SHL SUB AND DUP2 MSTORE PUSH1 0x20 ADD TIMESTAMP DUP2 MSTORE POP PUSH1 0xD PUSH1 0x0 PUSH1 0x3 SLOAD DUP2 MSTORE PUSH1 0x20 ADD SWAP1 DUP2 MSTORE PUSH1 0x20 ADD PUSH1 0x0 KECCAK256 PUSH1 0x0 DUP3 ADD MLOAD DUP2 PUSH1 0x0 ADD SSTORE PUSH1 0x20 DUP3 ADD MLOAD DUP2 PUSH1 0x1 ADD SSTORE PUSH1 0x40 DUP3 ADD MLOAD DUP2 PUSH1 0x2 ADD SSTORE PUSH1 0x60 DUP3 ADD MLOAD DUP2 PUSH1 0x3 ADD SSTORE PUSH1 0x80 DUP3 ADD MLOAD DUP2 PUSH1 0x4 ADD SWAP1 DUP1 MLOAD SWAP1 PUSH1 0x20 ADD SWAP1 PUSH2 0x1F98 SWAP3 SWAP2 SWAP1 PUSH2 0x42F6 JUMP JUMPDEST POP PUSH1 0xA0 DUP3 ADD MLOAD PUSH1 0x5 DUP3 ADD SSTORE PUSH1 0xC0 DUP3 ADD MLOAD DUP1 MLOAD PUSH2 0x1FBE SWAP2 PUSH1 0x6 DUP5 ADD SWAP2 PUSH1 0x20 SWAP1 SWAP2 ADD SWAP1 PUSH2 0x42F6 JUMP JUMPDEST POP PUSH1 0xE0 DUP3 ADD MLOAD DUP1 MLOAD PUSH2 0x1FDA SWAP2 PUSH1 0x7 DUP5 ADD SWAP2 PUSH1 0x20 SWAP1 SWAP2 ADD SWAP1 PUSH2 0x42F6 JUMP JUMPDEST POP PUSH2 0x100 DUP3 ADD MLOAD DUP1 MLOAD PUSH2 0x1FF7 SWAP2 PUSH1 0x8 DUP5 ADD SWAP2 PUSH1 0x20 SWAP1 SWAP2 ADD SWAP1 PUSH2 0x42F6 JUMP JUMPDEST POP PUSH2 0x120 DUP3 ADD MLOAD DUP2 PUSH1 0x9 ADD PUSH1 0x0 PUSH2 0x100 EXP DUP2 SLOAD DUP2 PUSH1 0xFF MUL NOT AND SWAP1 DUP4 ISZERO ISZERO MUL OR SWAP1 SSTORE POP PUSH2 0x140 DUP3 ADD MLOAD DUP2 PUSH1 0x9 ADD PUSH1 0x1 PUSH2 0x100 EXP DUP2 SLOAD DUP2 PUSH1 0xFF MUL NOT AND SWAP1 DUP4 ISZERO ISZERO MUL OR SWAP1 SSTORE POP PUSH2 0x160 DUP3 ADD MLOAD DUP2 PUSH1 0x9 ADD PUSH1 0x2 PUSH2 0x100 EXP DUP2 SLOAD DUP2 PUSH1 0x1 PUSH1 0x1 PUSH1 0xA0 SHL SUB MUL NOT AND SWAP1 DUP4 PUSH1 0x1 PUSH1 0x1 PUSH1 0xA0 SHL SUB AND MUL OR SWAP1 SSTORE POP PUSH2 0x180 DUP3 ADD MLOAD DUP2 PUSH1 0xA ADD PUSH1 0x0 PUSH2 0x100 EXP DUP2 SLOAD DUP2 PUSH1 0x1 PUSH1 0x1 PUSH1 0xA0 SHL SUB MUL NOT AND SWAP1 DUP4 PUSH1 0x1 PUSH1 0x1 PUSH1 0xA0 SHL SUB AND MUL OR SWAP1 SSTORE POP PUSH2 0x1A0 DUP3 ADD MLOAD DUP2 PUSH1 0xB ADD SSTORE SWAP1 POP POP PUSH1 0xC PUSH1 0x0 CALLER PUSH1 0x1 PUSH1 0x1 PUSH1 0xA0 SHL SUB AND PUSH1 0x1 PUSH1 0x1 PUSH1 0xA0 SHL SUB AND DUP2 MSTORE PUSH1 0x20 ADD SWAP1 DUP2 MSTORE PUSH1 0x20 ADD PUSH1 0x0 KECCAK256 PUSH1 0x3 SLOAD SWAP1 DUP1 PUSH1 0x1 DUP2 SLOAD ADD DUP1 DUP3 SSTORE DUP1 SWAP2 POP POP PUSH1 0x1 SWAP1 SUB SWAP1 PUSH1 0x0 MSTORE PUSH1 0x20 PUSH1 0x0 KECCAK256 ADD PUSH1 0x0 SWAP1 SWAP2 SWAP1 SWAP2 SWAP1 SWAP2 POP SSTORE PUSH1 0x11 PUSH1 0x0 PUSH1 0x1 DUP2 MSTORE PUSH1 0x20 ADD SWAP1 DUP2 MSTORE PUSH1 0x20 ADD PUSH1 0x0 KECCAK256 PUSH1 0x3 SLOAD SWAP1 DUP1 PUSH1 0x1 DUP2 SLOAD ADD DUP1 DUP3 SSTORE DUP1 SWAP2 POP POP PUSH1 0x1 SWAP1 SUB SWAP1 PUSH1 0x0 MSTORE PUSH1 0x20 PUSH1 0x0 KECCAK256 ADD PUSH1 0x0 SWAP1 SWAP2 SWAP1 SWAP2 SWAP1 SWAP2 POP SSTORE PUSH1 0x13 PUSH1 0x0 PUSH1 0x3 SLOAD DUP2 MSTORE PUSH1 0x20 ADD SWAP1 DUP2 MSTORE PUSH1 0x20 ADD PUSH1 0x0 KECCAK256 PUSH1 0x40 MLOAD DUP1 PUSH1 0xE0 ADD PUSH1 0x40 MSTORE DUP1 DUP11 DUP2 MSTORE PUSH1 0x20 ADD PUSH1 0x0 DUP2 MSTORE PUSH1 0x20 ADD PUSH1 0x0 DUP2 MSTORE PUSH1 0x20 ADD DUP10 DUP2 MSTORE PUSH1 0x20 ADD CALLER PUSH1 0x1 PUSH1 0x1 PUSH1 0xA0 SHL SUB AND DUP2 MSTORE PUSH1 0x20 ADD TIMESTAMP DUP2 MSTORE PUSH1 0x20 ADD PUSH1 0x0 DUP2 MSTORE POP SWAP1 DUP1 PUSH1 0x1 DUP2 SLOAD ADD DUP1 DUP3 SSTORE DUP1 SWAP2 POP POP PUSH1 0x1 SWAP1 SUB SWAP1 PUSH1 0x0 MSTORE PUSH1 0x20 PUSH1 0x0 KECCAK256 SWAP1 PUSH1 0x7 MUL ADD PUSH1 0x0 SWAP1 SWAP2 SWAP1 SWAP2 SWAP1 SWAP2 POP PUSH1 0x0 DUP3 ADD MLOAD DUP2 PUSH1 0x0 ADD SSTORE PUSH1 0x20 DUP3 ADD MLOAD DUP2 PUSH1 0x1 ADD SSTORE PUSH1 0x40 DUP3 ADD MLOAD DUP2 PUSH1 0x2 ADD SSTORE PUSH1 0x60 DUP3 ADD MLOAD DUP2 PUSH1 0x3 ADD SSTORE PUSH1 0x80 DUP3 ADD MLOAD DUP2 PUSH1 0x4 ADD PUSH1 0x0 PUSH2 0x100 EXP DUP2 SLOAD DUP2 PUSH1 0x1 PUSH1 0x1 PUSH1 0xA0 SHL SUB MUL NOT AND SWAP1 DUP4 PUSH1 0x1 PUSH1 0x1 PUSH1 0xA0 SHL SUB AND MUL OR SWAP1 SSTORE POP PUSH1 0xA0 DUP3 ADD MLOAD DUP2 PUSH1 0x5 ADD SSTORE PUSH1 0xC0 DUP3 ADD MLOAD DUP2 PUSH1 0x6 ADD SSTORE POP POP PUSH1 0x40 MLOAD DUP1 PUSH1 0xA0 ADD PUSH1 0x40 MSTORE DUP1 PUSH1 0x15 PUSH1 0x0 DUP12 DUP2 MSTORE PUSH1 0x20 ADD SWAP1 DUP2 MSTORE PUSH1 0x20 ADD PUSH1 0x0 KECCAK256 PUSH1 0x0 ADD PUSH1 0x0 SWAP1 SLOAD SWAP1 PUSH2 0x100 EXP SWAP1 DIV PUSH1 0x1 PUSH1 0x1 PUSH1 0xA0 SHL SUB AND PUSH1 0x1 PUSH1 0x1 PUSH1 0xA0 SHL SUB AND DUP2 MSTORE PUSH1 0x20 ADD PUSH1 0x15 PUSH1 0x0 DUP12 DUP2 MSTORE PUSH1 0x20 ADD SWAP1 DUP2 MSTORE PUSH1 0x20 ADD PUSH1 0x0 KECCAK256 PUSH1 0x1 ADD SLOAD DUP2 MSTORE PUSH1 0x20 ADD PUSH1 0x0 DUP2 MSTORE PUSH1 0x20 ADD PUSH1 0x3 PUSH1 0x4 DUP2 GT ISZERO PUSH2 0x229E JUMPI PUSH4 0x4E487B71 PUSH1 0xE0 SHL PUSH1 0x0 MSTORE PUSH1 0x21 PUSH1 0x4 MSTORE PUSH1 0x24 PUSH1 0x0 REVERT JUMPDEST DUP2 MSTORE PUSH1 0x0 PUSH1 0x20 SWAP2 DUP3 ADD DUP2 SWAP1 MSTORE PUSH1 0x3 DUP1 SLOAD DUP3 MSTORE PUSH1 0x15 DUP4 MSTORE PUSH1 0x40 SWAP2 DUP3 SWAP1 KECCAK256 DUP5 MLOAD DUP2 SLOAD PUSH1 0x1 PUSH1 0x1 PUSH1 0xA0 SHL SUB NOT AND PUSH1 0x1 PUSH1 0x1 PUSH1 0xA0 SHL SUB SWAP1 SWAP2 AND OR DUP2 SSTORE SWAP3 DUP5 ADD MLOAD PUSH1 0x1 DUP1 DUP6 ADD SWAP2 SWAP1 SWAP2 SSTORE SWAP2 DUP5 ADD MLOAD PUSH1 0x2 DUP5 ADD SSTORE PUSH1 0x60 DUP5 ADD MLOAD SWAP1 DUP4 ADD DUP1 SLOAD SWAP2 SWAP3 SWAP1 SWAP2 PUSH1 0xFF NOT AND SWAP1 DUP4 PUSH1 0x4 DUP2 GT ISZERO PUSH2 0x231F JUMPI PUSH4 0x4E487B71 PUSH1 0xE0 SHL PUSH1 0x0 MSTORE PUSH1 0x21 PUSH1 0x4 MSTORE PUSH1 0x24 PUSH1 0x0 REVERT JUMPDEST MUL OR SWAP1 SSTORE POP PUSH1 0x80 SWAP2 SWAP1 SWAP2 ADD MLOAD PUSH1 0x3 SWAP1 SWAP2 ADD DUP1 SLOAD SWAP2 ISZERO ISZERO PUSH2 0x100 MUL PUSH2 0xFF00 NOT SWAP1 SWAP3 AND SWAP2 SWAP1 SWAP2 OR SWAP1 SSTORE PUSH1 0x40 DUP1 MLOAD PUSH1 0xA0 DUP2 ADD DUP3 MSTORE PUSH1 0x0 DUP11 DUP2 MSTORE PUSH1 0x15 PUSH1 0x20 DUP2 DUP2 MSTORE DUP5 DUP4 KECCAK256 DUP1 SLOAD PUSH1 0x1 PUSH1 0x1 PUSH1 0xA0 SHL SUB AND DUP6 MSTORE SWAP3 DUP14 SWAP1 MSTORE SWAP1 DUP2 MSTORE PUSH1 0x1 SWAP2 SWAP1 SWAP2 ADD SLOAD SWAP1 DUP3 ADD MSTORE SWAP1 DUP2 ADD DUP5 SWAP1 MSTORE PUSH1 0x60 DUP2 ADD PUSH1 0x2 DUP2 MSTORE PUSH1 0x0 PUSH1 0x20 SWAP2 DUP3 ADD DUP2 SWAP1 MSTORE DUP11 DUP2 MSTORE PUSH1 0x15 DUP3 MSTORE PUSH1 0x40 SWAP1 DUP2 SWAP1 KECCAK256 DUP4 MLOAD DUP2 SLOAD PUSH1 0x1 PUSH1 0x1 PUSH1 0xA0 SHL SUB NOT AND PUSH1 0x1 PUSH1 0x1 PUSH1 0xA0 SHL SUB SWAP1 SWAP2 AND OR DUP2 SSTORE SWAP2 DUP4 ADD MLOAD PUSH1 0x1 DUP1 DUP5 ADD SWAP2 SWAP1 SWAP2 SSTORE SWAP1 DUP4 ADD MLOAD PUSH1 0x2 DUP4 ADD SSTORE PUSH1 0x60 DUP4 ADD MLOAD PUSH1 0x3 DUP4 ADD DUP1 SLOAD SWAP2 SWAP3 SWAP1 SWAP2 PUSH1 0xFF NOT AND SWAP1 DUP4 PUSH1 0x4 DUP2 GT ISZERO PUSH2 0x2409 JUMPI PUSH4 0x4E487B71 PUSH1 0xE0 SHL PUSH1 0x0 MSTORE PUSH1 0x21 PUSH1 0x4 MSTORE PUSH1 0x24 PUSH1 0x0 REVERT JUMPDEST MUL OR SWAP1 SSTORE POP PUSH1 0x80 DUP3 ADD MLOAD DUP2 PUSH1 0x3 ADD PUSH1 0x1 PUSH2 0x100 EXP DUP2 SLOAD DUP2 PUSH1 0xFF MUL NOT AND SWAP1 DUP4 ISZERO ISZERO MUL OR SWAP1 SSTORE POP SWAP1 POP POP PUSH1 0x13 PUSH1 0x0 DUP10 DUP2 MSTORE PUSH1 0x20 ADD SWAP1 DUP2 MSTORE PUSH1 0x20 ADD PUSH1 0x0 KECCAK256 PUSH1 0x40 MLOAD DUP1 PUSH1 0xE0 ADD PUSH1 0x40 MSTORE DUP1 DUP11 DUP2 MSTORE PUSH1 0x20 ADD DUP6 DUP2 MSTORE PUSH1 0x20 ADD PUSH1 0x3 SLOAD DUP2 MSTORE PUSH1 0x20 ADD DUP10 DUP2 MSTORE PUSH1 0x20 ADD CALLER PUSH1 0x1 PUSH1 0x1 PUSH1 0xA0 SHL SUB AND DUP2 MSTORE PUSH1 0x20 ADD PUSH1 0xD PUSH1 0x0 DUP13 DUP2 MSTORE PUSH1 0x20 ADD SWAP1 DUP2 MSTORE PUSH1 0x20 ADD PUSH1 0x0 KECCAK256 PUSH1 0xB ADD SLOAD DUP2 MSTORE PUSH1 0x20 ADD TIMESTAMP DUP2 MSTORE POP SWAP1 DUP1 PUSH1 0x1 DUP2 SLOAD ADD DUP1 DUP3 SSTORE DUP1 SWAP2 POP POP PUSH1 0x1 SWAP1 SUB SWAP1 PUSH1 0x0 MSTORE PUSH1 0x20 PUSH1 0x0 KECCAK256 SWAP1 PUSH1 0x7 MUL ADD PUSH1 0x0 SWAP1 SWAP2 SWAP1 SWAP2 SWAP1 SWAP2 POP PUSH1 0x0 DUP3 ADD MLOAD DUP2 PUSH1 0x0 ADD SSTORE PUSH1 0x20 DUP3 ADD MLOAD DUP2 PUSH1 0x1 ADD SSTORE PUSH1 0x40 DUP3 ADD MLOAD DUP2 PUSH1 0x2 ADD SSTORE PUSH1 0x60 DUP3 ADD MLOAD DUP2 PUSH1 0x3 ADD SSTORE PUSH1 0x80 DUP3 ADD MLOAD DUP2 PUSH1 0x4 ADD PUSH1 0x0 PUSH2 0x100 EXP DUP2 SLOAD DUP2 PUSH1 0x1 PUSH1 0x1 PUSH1 0xA0 SHL SUB MUL NOT AND SWAP1 DUP4 PUSH1 0x1 PUSH1 0x1 PUSH1 0xA0 SHL SUB AND MUL OR SWAP1 SSTORE POP PUSH1 0xA0 DUP3 ADD MLOAD DUP2 PUSH1 0x5 ADD SSTORE PUSH1 0xC0 DUP3 ADD MLOAD DUP2 PUSH1 0x6 ADD SSTORE POP POP POP DUP1 DUP1 PUSH2 0x2538 SWAP1 PUSH2 0x4DD5 JUMP JUMPDEST SWAP2 POP POP PUSH2 0x1B8D JUMP JUMPDEST POP POP POP POP PUSH2 0x1630 JUMP JUMPDEST PUSH1 0x5 SLOAD DUP2 JUMP JUMPDEST PUSH1 0x7 PUSH1 0x20 MSTORE PUSH1 0x0 SWAP1 DUP2 MSTORE PUSH1 0x40 SWAP1 KECCAK256 DUP1 SLOAD PUSH1 0x1 DUP3 ADD SLOAD PUSH1 0x2 DUP4 ADD SLOAD PUSH1 0x3 DUP5 ADD SLOAD PUSH1 0x4 DUP6 ADD SLOAD PUSH1 0x5 DUP7 ADD SLOAD PUSH1 0x6 SWAP1 SWAP7 ADD SLOAD SWAP5 SWAP6 PUSH1 0x1 PUSH1 0x1 PUSH1 0xA0 SHL SUB SWAP5 DUP6 AND SWAP6 SWAP4 SWAP5 SWAP1 SWAP3 AND SWAP3 SWAP1 SWAP2 SWAP1 DUP8 JUMP JUMPDEST PUSH1 0x0 DUP1 SLOAD PUSH1 0x1 PUSH1 0x1 PUSH1 0xA0 SHL SUB AND CALLER EQ DUP1 ISZERO PUSH2 0x25CC JUMPI POP PUSH1 0x1 PUSH1 0x1 PUSH1 0xA0 SHL SUB DUP4 AND PUSH1 0x0 SWAP1 DUP2 MSTORE PUSH1 0x9 PUSH1 0x20 MSTORE PUSH1 0x40 SWAP1 KECCAK256 SLOAD PUSH1 0xFF AND ISZERO JUMPDEST DUP1 ISZERO PUSH2 0x25F5 JUMPI POP PUSH1 0x1 PUSH1 0x1 PUSH1 0xA0 SHL SUB DUP4 AND PUSH1 0x0 SWAP1 DUP2 MSTORE PUSH1 0xB PUSH1 0x20 MSTORE PUSH1 0x40 SWAP1 KECCAK256 SLOAD PUSH1 0xFF AND ISZERO ISZERO PUSH1 0x1 EQ JUMPDEST ISZERO PUSH2 0x287 JUMPI PUSH1 0x1 PUSH1 0x1 PUSH1 0xA0 SHL SUB DUP4 DUP2 AND PUSH1 0x0 DUP2 DUP2 MSTORE PUSH1 0x6 PUSH1 0x20 SWAP1 DUP2 MSTORE PUSH1 0x40 DUP1 DUP4 KECCAK256 PUSH1 0xA ADD DUP1 SLOAD PUSH1 0xFF NOT SWAP1 DUP2 AND PUSH1 0x1 SWAP1 DUP2 OR SWAP1 SWAP3 SSTORE DUP3 MLOAD PUSH1 0x60 DUP2 ADD DUP5 MSTORE CALLER DUP2 MSTORE TIMESTAMP DUP2 DUP7 ADD SWAP1 DUP2 MSTORE PUSH1 0x4 DUP3 DUP7 ADD DUP2 DUP2 MSTORE SWAP9 DUP9 MSTORE PUSH1 0x16 SWAP1 SWAP7 MSTORE SWAP4 SWAP1 SWAP6 KECCAK256 DUP6 MLOAD DUP2 SLOAD PUSH1 0x1 PUSH1 0x1 PUSH1 0xA0 SHL SUB NOT AND SWAP9 AND SWAP8 SWAP1 SWAP8 OR DUP8 SSTORE SWAP2 MLOAD DUP7 DUP3 ADD SSTORE SWAP4 MLOAD PUSH1 0x2 DUP7 ADD DUP1 SLOAD SWAP5 SWAP7 SWAP6 SWAP2 SWAP5 SWAP1 SWAP4 SWAP3 AND SWAP2 DUP5 SWAP1 DUP2 GT ISZERO PUSH2 0x269C JUMPI PUSH4 0x4E487B71 PUSH1 0xE0 SHL PUSH1 0x0 MSTORE PUSH1 0x21 PUSH1 0x4 MSTORE PUSH1 0x24 PUSH1 0x0 REVERT JUMPDEST MUL OR SWAP1 SSTORE POP POP POP PUSH1 0x1 PUSH1 0x1 PUSH1 0xA0 SHL SUB DUP4 AND PUSH1 0x0 SWAP1 DUP2 MSTORE PUSH1 0x9 PUSH1 0x20 MSTORE PUSH1 0x40 DUP2 KECCAK256 DUP1 SLOAD PUSH1 0xFF NOT AND PUSH1 0x1 SWAP1 DUP2 OR SWAP1 SWAP2 SSTORE DUP1 SLOAD SWAP2 PUSH2 0x26D5 DUP4 PUSH2 0x4DD5 JUMP JUMPDEST SWAP1 SWAP2 SSTORE POP POP PUSH1 0x0 DUP1 MLOAD PUSH1 0x20 PUSH2 0x4E50 DUP4 CODECOPY DUP2 MLOAD SWAP2 MSTORE DUP1 SLOAD PUSH1 0x1 DUP1 DUP3 ADD SWAP1 SWAP3 SSTORE PUSH32 0x8048725117155AD5EF9CB75F77FBE235A4558A61159F5364C90D55C3A0D15B7A ADD DUP1 SLOAD PUSH1 0x1 PUSH1 0x1 PUSH1 0xA0 SHL SUB NOT SWAP1 DUP2 AND PUSH1 0x1 PUSH1 0x1 PUSH1 0xA0 SHL SUB DUP8 DUP2 AND SWAP2 DUP3 OR SWAP1 SWAP4 SSTORE PUSH1 0x40 DUP1 MLOAD PUSH1 0xE0 DUP2 ADD DUP3 MSTORE DUP6 SLOAD DUP2 MSTORE PUSH1 0x20 DUP1 DUP3 ADD DUP5 DUP2 MSTORE DUP3 DUP5 ADD DUP11 DUP2 MSTORE CALLER PUSH1 0x60 DUP6 ADD SWAP1 DUP2 MSTORE TIMESTAMP PUSH1 0x80 DUP7 ADD SWAP1 DUP2 MSTORE PUSH1 0x0 PUSH1 0xA0 DUP8 ADD DUP2 DUP2 MSTORE PUSH1 0xC0 DUP9 ADD DUP3 DUP2 MSTORE SWAP10 DUP3 MSTORE PUSH1 0x7 SWAP1 SWAP7 MSTORE SWAP7 SWAP1 SWAP7 KECCAK256 SWAP5 MLOAD DUP6 SSTORE SWAP2 MLOAD DUP5 DUP11 ADD DUP1 SLOAD DUP10 AND SWAP2 DUP11 AND SWAP2 SWAP1 SWAP2 OR SWAP1 SSTORE MLOAD PUSH1 0x2 DUP5 ADD SSTORE MLOAD PUSH1 0x3 DUP4 ADD DUP1 SLOAD SWAP1 SWAP7 AND SWAP7 AND SWAP6 SWAP1 SWAP6 OR SWAP1 SWAP4 SSTORE MLOAD PUSH1 0x4 DUP4 ADD SSTORE SWAP2 MLOAD PUSH1 0x5 DUP3 ADD SSTORE SWAP1 MLOAD PUSH1 0x6 SWAP1 SWAP2 ADD SSTORE SWAP1 POP SWAP3 SWAP2 POP POP JUMP JUMPDEST PUSH1 0x0 SLOAD PUSH1 0x1 PUSH1 0x1 PUSH1 0xA0 SHL SUB AND CALLER EQ DUP1 ISZERO PUSH2 0x27FA JUMPI POP PUSH1 0x1 PUSH1 0x1 PUSH1 0xA0 SHL SUB DUP2 AND PUSH1 0x0 SWAP1 DUP2 MSTORE PUSH1 0x9 PUSH1 0x20 MSTORE PUSH1 0x40 SWAP1 KECCAK256 SLOAD PUSH1 0xFF AND JUMPDEST ISZERO PUSH2 0x287 JUMPI PUSH1 0x1 PUSH1 0x1 PUSH1 0xA0 SHL SUB DUP2 AND PUSH1 0x0 SWAP1 DUP2 MSTORE PUSH1 0x9 PUSH1 0x20 SWAP1 DUP2 MSTORE PUSH1 0x40 DUP3 KECCAK256 DUP1 SLOAD PUSH1 0xFF NOT AND SWAP1 SSTORE PUSH1 0x1 DUP3 MSTORE PUSH1 0x8 SWAP1 MSTORE PUSH1 0x0 DUP1 MLOAD PUSH1 0x20 PUSH2 0x4E50 DUP4 CODECOPY DUP2 MLOAD SWAP2 MSTORE SLOAD SWAP1 JUMPDEST DUP2 DUP2 LT ISZERO PUSH2 0x29D3 JUMPI PUSH1 0x1 PUSH1 0x0 MSTORE PUSH1 0x8 PUSH1 0x20 MSTORE PUSH1 0x0 DUP1 MLOAD PUSH1 0x20 PUSH2 0x4E50 DUP4 CODECOPY DUP2 MLOAD SWAP2 MSTORE DUP1 SLOAD PUSH1 0x1 PUSH1 0x1 PUSH1 0xA0 SHL SUB DUP6 AND SWAP2 SWAP1 DUP4 SWAP1 DUP2 LT PUSH2 0x2888 JUMPI PUSH4 0x4E487B71 PUSH1 0xE0 SHL PUSH1 0x0 MSTORE PUSH1 0x32 PUSH1 0x4 MSTORE PUSH1 0x24 PUSH1 0x0 REVERT JUMPDEST PUSH1 0x0 SWAP2 DUP3 MSTORE PUSH1 0x20 SWAP1 SWAP2 KECCAK256 ADD SLOAD PUSH1 0x1 PUSH1 0x1 PUSH1 0xA0 SHL SUB AND EQ ISZERO PUSH2 0x29C1 JUMPI PUSH1 0x1 PUSH1 0x0 DUP2 SWAP1 MSTORE PUSH1 0x8 PUSH1 0x20 MSTORE PUSH1 0x0 DUP1 MLOAD PUSH1 0x20 PUSH2 0x4E50 DUP4 CODECOPY DUP2 MLOAD SWAP2 MSTORE SWAP1 PUSH2 0x28C9 SWAP1 DUP5 PUSH2 0x4D83 JUMP JUMPDEST DUP2 SLOAD DUP2 LT PUSH2 0x28E7 JUMPI PUSH4 0x4E487B71 PUSH1 0xE0 SHL PUSH1 0x0 MSTORE PUSH1 0x32 PUSH1 0x4 MSTORE PUSH1 0x24 PUSH1 0x0 REVERT JUMPDEST PUSH1 0x0 SWAP2 DUP3 MSTORE PUSH1 0x20 DUP1 DUP4 KECCAK256 SWAP1 SWAP2 ADD SLOAD PUSH1 0x1 SWAP1 SWAP3 MSTORE PUSH1 0x8 SWAP1 MSTORE PUSH1 0x0 DUP1 MLOAD PUSH1 0x20 PUSH2 0x4E50 DUP4 CODECOPY DUP2 MLOAD SWAP2 MSTORE DUP1 SLOAD PUSH1 0x1 PUSH1 0x1 PUSH1 0xA0 SHL SUB SWAP1 SWAP3 AND SWAP2 DUP4 SWAP1 DUP2 LT PUSH2 0x2939 JUMPI PUSH4 0x4E487B71 PUSH1 0xE0 SHL PUSH1 0x0 MSTORE PUSH1 0x32 PUSH1 0x4 MSTORE PUSH1 0x24 PUSH1 0x0 REVERT JUMPDEST PUSH1 0x0 SWAP2 DUP3 MSTORE PUSH1 0x20 DUP1 DUP4 KECCAK256 SWAP2 SWAP1 SWAP2 ADD DUP1 SLOAD PUSH1 0x1 PUSH1 0x1 PUSH1 0xA0 SHL SUB NOT AND PUSH1 0x1 PUSH1 0x1 PUSH1 0xA0 SHL SUB SWAP5 SWAP1 SWAP5 AND SWAP4 SWAP1 SWAP4 OR SWAP1 SWAP3 SSTORE PUSH1 0x1 SWAP1 MSTORE PUSH1 0x8 SWAP1 MSTORE PUSH1 0x0 DUP1 MLOAD PUSH1 0x20 PUSH2 0x4E50 DUP4 CODECOPY DUP2 MLOAD SWAP2 MSTORE DUP1 SLOAD DUP1 PUSH2 0x299A JUMPI PUSH4 0x4E487B71 PUSH1 0xE0 SHL PUSH1 0x0 MSTORE PUSH1 0x31 PUSH1 0x4 MSTORE PUSH1 0x24 PUSH1 0x0 REVERT JUMPDEST PUSH1 0x0 DUP3 DUP2 MSTORE PUSH1 0x20 SWAP1 KECCAK256 DUP2 ADD PUSH1 0x0 NOT SWAP1 DUP2 ADD DUP1 SLOAD PUSH1 0x1 PUSH1 0x1 PUSH1 0xA0 SHL SUB NOT AND SWAP1 SSTORE ADD SWAP1 SSTORE PUSH2 0x29D3 JUMP JUMPDEST DUP1 PUSH2 0x29CB DUP2 PUSH2 0x4DD5 JUMP JUMPDEST SWAP2 POP POP PUSH2 0x283B JUMP JUMPDEST POP POP PUSH2 0x9DC JUMP JUMPDEST PUSH1 0x4 SLOAD DUP2 JUMP JUMPDEST PUSH1 0x0 DUP4 DUP2 MSTORE PUSH1 0xD PUSH1 0x20 MSTORE PUSH1 0x40 SWAP1 KECCAK256 PUSH1 0x9 ADD SLOAD PUSH3 0x10000 SWAP1 DIV PUSH1 0x1 PUSH1 0x1 PUSH1 0xA0 SHL SUB AND CALLER EQ DUP1 ISZERO PUSH2 0x2A25 JUMPI POP PUSH1 0x0 DUP4 DUP2 MSTORE PUSH1 0xD PUSH1 0x20 MSTORE PUSH1 0x40 SWAP1 KECCAK256 PUSH1 0x9 ADD SLOAD PUSH2 0x100 SWAP1 DIV PUSH1 0xFF AND JUMPDEST DUP1 ISZERO PUSH2 0x2A43 JUMPI POP PUSH1 0x0 DUP4 DUP2 MSTORE PUSH1 0xD PUSH1 0x20 MSTORE PUSH1 0x40 SWAP1 KECCAK256 PUSH1 0x9 ADD SLOAD PUSH1 0xFF AND ISZERO JUMPDEST ISZERO PUSH2 0x287 JUMPI DUP1 DUP1 ISZERO PUSH2 0x2A72 JUMPI POP PUSH1 0x0 DUP4 DUP2 MSTORE PUSH1 0xD PUSH1 0x20 MSTORE PUSH1 0x40 SWAP1 KECCAK256 PUSH1 0xA ADD SLOAD PUSH1 0x1 PUSH1 0x1 PUSH1 0xA0 SHL SUB DUP4 DUP2 AND SWAP2 AND EQ ISZERO JUMPDEST ISZERO PUSH2 0x2AA2 JUMPI PUSH1 0x0 DUP4 DUP2 MSTORE PUSH1 0xD PUSH1 0x20 MSTORE PUSH1 0x40 SWAP1 KECCAK256 PUSH1 0xA ADD DUP1 SLOAD PUSH1 0x1 PUSH1 0x1 PUSH1 0xA0 SHL SUB NOT AND PUSH1 0x1 PUSH1 0x1 PUSH1 0xA0 SHL SUB DUP5 AND OR SWAP1 SSTORE JUMPDEST DUP1 ISZERO DUP1 ISZERO PUSH2 0x2ACC JUMPI POP PUSH1 0x0 DUP4 DUP2 MSTORE PUSH1 0xD PUSH1 0x20 MSTORE PUSH1 0x40 SWAP1 KECCAK256 PUSH1 0xA ADD SLOAD PUSH1 0x1 PUSH1 0x1 PUSH1 0xA0 SHL SUB DUP4 DUP2 AND SWAP2 AND EQ JUMPDEST ISZERO PUSH2 0x2B03 JUMPI PUSH1 0x0 DUP1 SLOAD DUP5 DUP3 MSTORE PUSH1 0xD PUSH1 0x20 MSTORE PUSH1 0x40 SWAP1 SWAP2 KECCAK256 PUSH1 0xA ADD DUP1 SLOAD PUSH1 0x1 PUSH1 0x1 PUSH1 0xA0 SHL SUB NOT AND PUSH1 0x1 PUSH1 0x1 PUSH1 0xA0 SHL SUB SWAP1 SWAP3 AND SWAP2 SWAP1 SWAP2 OR SWAP1 SSTORE JUMPDEST PUSH2 0x1630 JUMP JUMPDEST PUSH1 0x0 DUP10 DUP2 MSTORE PUSH1 0xD PUSH1 0x20 SWAP1 DUP2 MSTORE PUSH1 0x40 DUP1 DUP4 KECCAK256 PUSH1 0x9 ADD SLOAD PUSH3 0x10000 SWAP1 DIV PUSH1 0x1 PUSH1 0x1 PUSH1 0xA0 SHL SUB AND DUP4 MSTORE PUSH1 0xF DUP3 MSTORE DUP1 DUP4 KECCAK256 DUP1 SLOAD DUP3 MLOAD DUP2 DUP6 MUL DUP2 ADD DUP6 ADD SWAP1 SWAP4 MSTORE DUP1 DUP4 MSTORE DUP5 SWAP4 DUP4 ADD DUP3 DUP3 DUP1 ISZERO PUSH2 0x2B77 JUMPI PUSH1 0x20 MUL DUP3 ADD SWAP2 SWAP1 PUSH1 0x0 MSTORE PUSH1 0x20 PUSH1 0x0 KECCAK256 SWAP1 JUMPDEST DUP2 SLOAD DUP2 MSTORE PUSH1 0x20 ADD SWAP1 PUSH1 0x1 ADD SWAP1 DUP1 DUP4 GT PUSH2 0x2B63 JUMPI JUMPDEST POP POP POP POP POP SWAP1 POP PUSH1 0x0 JUMPDEST DUP2 MLOAD DUP2 LT ISZERO PUSH2 0x2C10 JUMPI DUP12 PUSH1 0xE PUSH1 0x0 DUP5 DUP5 DUP2 MLOAD DUP2 LT PUSH2 0x2BAF JUMPI PUSH4 0x4E487B71 PUSH1 0xE0 SHL PUSH1 0x0 MSTORE PUSH1 0x32 PUSH1 0x4 MSTORE PUSH1 0x24 PUSH1 0x0 REVERT JUMPDEST PUSH1 0x20 MUL PUSH1 0x20 ADD ADD MLOAD DUP2 MSTORE PUSH1 0x20 ADD SWAP1 DUP2 MSTORE PUSH1 0x20 ADD PUSH1 0x0 KECCAK256 PUSH1 0x3 ADD SLOAD EQ ISZERO PUSH2 0x2BFE JUMPI DUP2 DUP2 DUP2 MLOAD DUP2 LT PUSH2 0x2BEF JUMPI PUSH4 0x4E487B71 PUSH1 0xE0 SHL PUSH1 0x0 MSTORE PUSH1 0x32 PUSH1 0x4 MSTORE PUSH1 0x24 PUSH1 0x0 REVERT JUMPDEST PUSH1 0x20 MUL PUSH1 0x20 ADD ADD MLOAD SWAP3 POP PUSH2 0x2C10 JUMP JUMPDEST DUP1 PUSH2 0x2C08 DUP2 PUSH2 0x4DD5 JUMP JUMPDEST SWAP2 POP POP PUSH2 0x2B81 JUMP JUMPDEST POP PUSH1 0x0 DUP3 DUP2 MSTORE PUSH1 0xE PUSH1 0x20 SWAP1 DUP2 MSTORE PUSH1 0x40 DUP1 DUP4 KECCAK256 PUSH1 0x6 DUP2 ADD SLOAD PUSH1 0x4 SWAP1 SWAP2 ADD SLOAD DUP16 DUP6 MSTORE PUSH1 0xD SWAP1 SWAP4 MSTORE SWAP3 KECCAK256 PUSH1 0x9 ADD SLOAD PUSH1 0xFF SWAP3 DUP4 AND SWAP3 SWAP2 SWAP1 SWAP2 AND SWAP1 PUSH3 0x10000 SWAP1 DIV PUSH1 0x1 PUSH1 0x1 PUSH1 0xA0 SHL SUB AND CALLER EQ DUP1 ISZERO PUSH2 0x2C79 JUMPI POP PUSH1 0x0 DUP14 DUP2 MSTORE PUSH1 0xD PUSH1 0x20 MSTORE PUSH1 0x40 SWAP1 KECCAK256 PUSH1 0x9 ADD SLOAD PUSH2 0x100 SWAP1 DIV PUSH1 0xFF AND JUMPDEST DUP1 ISZERO PUSH2 0x2C83 JUMPI POP DUP2 ISZERO JUMPDEST DUP1 ISZERO PUSH2 0x2CAF JUMPI POP PUSH1 0x2 DUP2 PUSH1 0x4 DUP2 GT ISZERO PUSH2 0x2CAC JUMPI PUSH4 0x4E487B71 PUSH1 0xE0 SHL PUSH1 0x0 MSTORE PUSH1 0x21 PUSH1 0x4 MSTORE PUSH1 0x24 PUSH1 0x0 REVERT JUMPDEST EQ ISZERO JUMPDEST ISZERO PUSH2 0x287 JUMPI DUP12 ISZERO PUSH2 0x2CD8 JUMPI PUSH1 0x0 DUP14 DUP2 MSTORE PUSH1 0xD PUSH1 0x20 MSTORE PUSH1 0x40 SWAP1 KECCAK256 PUSH1 0x9 ADD DUP1 SLOAD PUSH1 0xFF NOT AND DUP10 ISZERO ISZERO OR SWAP1 SSTORE JUMPDEST DUP11 ISZERO PUSH2 0x2CF3 JUMPI PUSH1 0x0 DUP14 DUP2 MSTORE PUSH1 0xD PUSH1 0x20 MSTORE PUSH1 0x40 SWAP1 KECCAK256 PUSH1 0x3 ADD DUP8 SWAP1 SSTORE JUMPDEST DUP10 ISZERO PUSH2 0x2D20 JUMPI PUSH1 0x0 DUP14 DUP2 MSTORE PUSH1 0xD PUSH1 0x20 SWAP1 DUP2 MSTORE PUSH1 0x40 SWAP1 SWAP2 KECCAK256 DUP8 MLOAD PUSH2 0x2D1E SWAP3 PUSH1 0x8 SWAP1 SWAP3 ADD SWAP2 DUP10 ADD SWAP1 PUSH2 0x42F6 JUMP JUMPDEST POP JUMPDEST DUP9 ISZERO PUSH2 0x2D4D JUMPI PUSH1 0x0 DUP14 DUP2 MSTORE PUSH1 0xD PUSH1 0x20 SWAP1 DUP2 MSTORE PUSH1 0x40 SWAP1 SWAP2 KECCAK256 DUP7 MLOAD PUSH2 0x2D4B SWAP3 PUSH1 0x6 SWAP1 SWAP3 ADD SWAP2 DUP9 ADD SWAP1 PUSH2 0x42F6 JUMP JUMPDEST POP JUMPDEST POP POP POP POP POP POP POP POP POP POP POP POP POP JUMP JUMPDEST PUSH1 0x1 SLOAD DUP2 JUMP JUMPDEST PUSH1 0x16 PUSH1 0x20 MSTORE PUSH1 0x0 SWAP1 DUP2 MSTORE PUSH1 0x40 SWAP1 KECCAK256 DUP1 SLOAD PUSH1 0x1 DUP3 ADD SLOAD PUSH1 0x2 SWAP1 SWAP3 ADD SLOAD PUSH1 0x1 PUSH1 0x1 PUSH1 0xA0 SHL SUB SWAP1 SWAP2 AND SWAP2 SWAP1 PUSH1 0xFF AND DUP4 JUMP JUMPDEST CALLER PUSH1 0x0 SWAP1 DUP2 MSTORE PUSH1 0x10 PUSH1 0x20 SWAP1 DUP2 MSTORE PUSH1 0x40 SWAP2 DUP3 SWAP1 KECCAK256 DUP1 SLOAD DUP4 MLOAD DUP2 DUP5 MUL DUP2 ADD DUP5 ADD SWAP1 SWAP5 MSTORE DUP1 DUP5 MSTORE PUSH1 0x60 SWAP4 SWAP3 DUP4 ADD DUP3 DUP3 DUP1 ISZERO PUSH2 0xAF5 JUMPI PUSH1 0x20 MUL DUP3 ADD SWAP2 SWAP1 PUSH1 0x0 MSTORE PUSH1 0x20 PUSH1 0x0 KECCAK256 SWAP1 DUP2 SLOAD DUP2 MSTORE PUSH1 0x20 ADD SWAP1 PUSH1 0x1 ADD SWAP1 DUP1 DUP4 GT PUSH2 0xAE1 JUMPI POP POP POP POP POP SWAP1 POP SWAP1 JUMP JUMPDEST PUSH1 0x0 DUP3 DUP2 MSTORE PUSH1 0x15 PUSH1 0x20 MSTORE PUSH1 0x40 SWAP1 KECCAK256 PUSH1 0x3 ADD SLOAD PUSH2 0x100 SWAP1 DIV PUSH1 0xFF AND ISZERO PUSH2 0x2E26 JUMPI PUSH1 0x40 MLOAD PUSH3 0x461BCD PUSH1 0xE5 SHL DUP2 MSTORE PUSH1 0x4 ADD PUSH2 0xB38 SWAP1 PUSH2 0x4B64 JUMP JUMPDEST PUSH1 0x0 DUP3 DUP2 MSTORE PUSH1 0xD PUSH1 0x20 SWAP1 DUP2 MSTORE PUSH1 0x40 DUP1 DUP4 KECCAK256 PUSH1 0x9 ADD SLOAD PUSH3 0x10000 SWAP1 DIV PUSH1 0x1 PUSH1 0x1 PUSH1 0xA0 SHL SUB AND DUP4 MSTORE PUSH1 0xF DUP3 MSTORE DUP1 DUP4 KECCAK256 DUP1 SLOAD DUP3 MLOAD DUP2 DUP6 MUL DUP2 ADD DUP6 ADD SWAP1 SWAP4 MSTORE DUP1 DUP4 MSTORE DUP5 SWAP4 DUP4 ADD DUP3 DUP3 DUP1 ISZERO PUSH2 0x2E95 JUMPI PUSH1 0x20 MUL DUP3 ADD SWAP2 SWAP1 PUSH1 0x0 MSTORE PUSH1 0x20 PUSH1 0x0 KECCAK256 SWAP1 JUMPDEST DUP2 SLOAD DUP2 MSTORE PUSH1 0x20 ADD SWAP1 PUSH1 0x1 ADD SWAP1 DUP1 DUP4 GT PUSH2 0x2E81 JUMPI JUMPDEST POP POP POP POP POP SWAP1 POP PUSH1 0x0 JUMPDEST DUP2 MLOAD DUP2 LT ISZERO PUSH2 0x2F2E JUMPI DUP5 PUSH1 0xE PUSH1 0x0 DUP5 DUP5 DUP2 MLOAD DUP2 LT PUSH2 0x2ECD JUMPI PUSH4 0x4E487B71 PUSH1 0xE0 SHL PUSH1 0x0 MSTORE PUSH1 0x32 PUSH1 0x4 MSTORE PUSH1 0x24 PUSH1 0x0 REVERT JUMPDEST PUSH1 0x20 MUL PUSH1 0x20 ADD ADD MLOAD DUP2 MSTORE PUSH1 0x20 ADD SWAP1 DUP2 MSTORE PUSH1 0x20 ADD PUSH1 0x0 KECCAK256 PUSH1 0x3 ADD SLOAD EQ ISZERO PUSH2 0x2F1C JUMPI DUP2 DUP2 DUP2 MLOAD DUP2 LT PUSH2 0x2F0D JUMPI PUSH4 0x4E487B71 PUSH1 0xE0 SHL PUSH1 0x0 MSTORE PUSH1 0x32 PUSH1 0x4 MSTORE PUSH1 0x24 PUSH1 0x0 REVERT JUMPDEST PUSH1 0x20 MUL PUSH1 0x20 ADD ADD MLOAD SWAP3 POP PUSH2 0x2F2E JUMP JUMPDEST DUP1 PUSH2 0x2F26 DUP2 PUSH2 0x4DD5 JUMP JUMPDEST SWAP2 POP POP PUSH2 0x2E9F JUMP JUMPDEST POP PUSH1 0x0 DUP3 DUP2 MSTORE PUSH1 0xE PUSH1 0x20 SWAP1 DUP2 MSTORE PUSH1 0x40 DUP1 DUP4 KECCAK256 PUSH1 0x6 DUP1 DUP3 ADD SLOAD PUSH1 0x4 SWAP1 SWAP3 ADD SLOAD CALLER DUP7 MSTORE SWAP4 MSTORE SWAP3 KECCAK256 PUSH1 0xA ADD SLOAD PUSH1 0xFF SWAP3 DUP4 AND SWAP3 SWAP2 DUP3 AND SWAP2 AND DUP1 ISZERO PUSH2 0x2F84 JUMPI POP PUSH1 0x0 DUP7 DUP2 MSTORE PUSH1 0xD PUSH1 0x20 MSTORE PUSH1 0x40 SWAP1 KECCAK256 PUSH1 0x9 ADD SLOAD PUSH2 0x100 SWAP1 DIV PUSH1 0xFF AND JUMPDEST DUP1 ISZERO PUSH2 0x2FB0 JUMPI POP PUSH1 0x0 DUP7 DUP2 MSTORE PUSH1 0xD PUSH1 0x20 MSTORE PUSH1 0x40 SWAP1 KECCAK256 PUSH1 0x9 ADD SLOAD PUSH3 0x10000 SWAP1 DIV PUSH1 0x1 PUSH1 0x1 PUSH1 0xA0 SHL SUB AND CALLER EQ ISZERO JUMPDEST DUP1 ISZERO PUSH2 0x2FBA JUMPI POP DUP2 ISZERO JUMPDEST DUP1 ISZERO PUSH2 0x2FE6 JUMPI POP PUSH1 0x2 DUP2 PUSH1 0x4 DUP2 GT ISZERO PUSH2 0x2FE3 JUMPI PUSH4 0x4E487B71 PUSH1 0xE0 SHL PUSH1 0x0 MSTORE PUSH1 0x21 PUSH1 0x4 MSTORE PUSH1 0x24 PUSH1 0x0 REVERT JUMPDEST EQ ISZERO JUMPDEST DUP1 ISZERO PUSH2 0x3012 JUMPI POP PUSH1 0x4 DUP2 PUSH1 0x4 DUP2 GT ISZERO PUSH2 0x300F JUMPI PUSH4 0x4E487B71 PUSH1 0xE0 SHL PUSH1 0x0 MSTORE PUSH1 0x21 PUSH1 0x4 MSTORE PUSH1 0x24 PUSH1 0x0 REVERT JUMPDEST EQ ISZERO JUMPDEST ISZERO PUSH2 0x287 JUMPI PUSH1 0x5 DUP1 SLOAD SWAP1 PUSH1 0x0 PUSH2 0x3027 DUP4 PUSH2 0x4DD5 JUMP JUMPDEST SWAP1 SWAP2 SSTORE POP POP PUSH1 0x40 DUP1 MLOAD PUSH1 0xE0 DUP2 ADD DUP3 MSTORE PUSH1 0x5 SLOAD DUP1 DUP3 MSTORE PUSH1 0x0 DUP10 DUP2 MSTORE PUSH1 0xD PUSH1 0x20 SWAP1 DUP2 MSTORE DUP5 DUP3 KECCAK256 PUSH1 0x9 ADD SLOAD PUSH3 0x10000 SWAP1 DIV PUSH1 0x1 PUSH1 0x1 PUSH1 0xA0 SHL SUB SWAP1 DUP2 AND DUP3 DUP7 ADD SWAP1 DUP2 MSTORE CALLER DUP7 DUP9 ADD SWAP1 DUP2 MSTORE PUSH1 0x60 DUP8 ADD DUP15 DUP2 MSTORE PUSH1 0x80 DUP9 ADD DUP7 DUP2 MSTORE PUSH1 0xA0 DUP10 ADD DUP16 SWAP1 MSTORE PUSH1 0xC0 DUP10 ADD DUP8 SWAP1 MSTORE SWAP7 DUP7 MSTORE PUSH1 0xE SWAP1 SWAP5 MSTORE SWAP7 SWAP1 SWAP4 KECCAK256 DUP6 MLOAD DUP2 SSTORE SWAP3 MLOAD PUSH1 0x1 DUP1 DUP6 ADD DUP1 SLOAD SWAP3 DUP5 AND PUSH1 0x1 PUSH1 0x1 PUSH1 0xA0 SHL SUB NOT SWAP4 DUP5 AND OR SWAP1 SSTORE SWAP7 MLOAD PUSH1 0x2 DUP6 ADD DUP1 SLOAD SWAP2 SWAP1 SWAP4 AND SWAP2 AND OR SWAP1 SSTORE MLOAD PUSH1 0x3 DUP3 ADD SSTORE SWAP1 MLOAD PUSH1 0x4 DUP1 DUP4 ADD DUP1 SLOAD SWAP5 SWAP6 SWAP4 SWAP5 SWAP3 SWAP4 SWAP1 SWAP3 PUSH1 0xFF NOT AND SWAP2 DUP5 SWAP1 DUP2 GT ISZERO PUSH2 0x3100 JUMPI PUSH4 0x4E487B71 PUSH1 0xE0 SHL PUSH1 0x0 MSTORE PUSH1 0x21 PUSH1 0x4 MSTORE PUSH1 0x24 PUSH1 0x0 REVERT JUMPDEST MUL OR SWAP1 SSTORE POP PUSH1 0xA0 DUP3 ADD MLOAD PUSH1 0x5 DUP3 DUP2 ADD SWAP2 SWAP1 SWAP2 SSTORE PUSH1 0xC0 SWAP1 SWAP3 ADD MLOAD PUSH1 0x6 SWAP1 SWAP2 ADD DUP1 SLOAD PUSH1 0xFF NOT AND SWAP2 ISZERO ISZERO SWAP2 SWAP1 SWAP2 OR SWAP1 SSTORE PUSH1 0x0 DUP8 DUP2 MSTORE PUSH1 0xD PUSH1 0x20 SWAP1 DUP2 MSTORE PUSH1 0x40 DUP1 DUP4 KECCAK256 PUSH1 0x9 ADD SLOAD PUSH3 0x10000 SWAP1 DIV PUSH1 0x1 PUSH1 0x1 PUSH1 0xA0 SHL SUB AND DUP4 MSTORE PUSH1 0xF DUP3 MSTORE DUP1 DUP4 KECCAK256 DUP5 SLOAD DUP2 SLOAD PUSH1 0x1 DUP2 DUP2 ADD DUP5 SSTORE SWAP3 DUP7 MSTORE DUP5 DUP7 KECCAK256 ADD SSTORE CALLER DUP5 MSTORE PUSH1 0x10 DUP4 MSTORE SWAP1 DUP4 KECCAK256 SWAP4 SLOAD DUP5 SLOAD SWAP2 DUP3 ADD DUP6 SSTORE SWAP4 DUP4 MSTORE SWAP2 KECCAK256 ADD SSTORE POP POP POP POP POP POP JUMP JUMPDEST PUSH2 0x3198 CALLER PUSH2 0x3A24 JUMP JUMPDEST DUP1 ISZERO PUSH2 0x31C4 JUMPI POP PUSH1 0x0 DUP2 DUP2 MSTORE PUSH1 0xD PUSH1 0x20 MSTORE PUSH1 0x40 SWAP1 KECCAK256 PUSH1 0x9 ADD SLOAD PUSH3 0x10000 SWAP1 DIV PUSH1 0x1 PUSH1 0x1 PUSH1 0xA0 SHL SUB AND CALLER EQ ISZERO JUMPDEST DUP1 ISZERO PUSH2 0x3200 JUMPI POP PUSH1 0x0 DUP2 DUP2 MSTORE PUSH1 0xD PUSH1 0x20 SWAP1 DUP2 MSTORE PUSH1 0x40 DUP1 DUP4 KECCAK256 PUSH1 0x9 ADD SLOAD PUSH3 0x10000 SWAP1 DIV PUSH1 0x1 PUSH1 0x1 PUSH1 0xA0 SHL SUB AND DUP4 MSTORE PUSH1 0x6 SWAP1 SWAP2 MSTORE SWAP1 KECCAK256 PUSH1 0xA ADD SLOAD PUSH1 0xFF AND JUMPDEST DUP1 ISZERO PUSH2 0x322D JUMPI POP PUSH1 0x0 DUP2 DUP2 MSTORE PUSH1 0xD PUSH1 0x20 SWAP1 DUP2 MSTORE PUSH1 0x40 DUP1 DUP4 KECCAK256 PUSH1 0x5 ADD SLOAD CALLER DUP5 MSTORE PUSH1 0x7 SWAP1 SWAP3 MSTORE SWAP1 SWAP2 KECCAK256 PUSH1 0x2 ADD SLOAD EQ JUMPDEST ISZERO PUSH2 0x287 JUMPI PUSH1 0x0 DUP2 DUP2 MSTORE PUSH1 0xD PUSH1 0x20 SWAP1 DUP2 MSTORE PUSH1 0x40 DUP1 DUP4 KECCAK256 PUSH1 0x9 ADD DUP1 SLOAD PUSH2 0xFF00 NOT AND PUSH2 0x100 OR SWAP1 SSTORE DUP1 MLOAD PUSH1 0xA0 DUP2 ADD DUP3 MSTORE CALLER DUP2 MSTORE TIMESTAMP DUP2 DUP5 ADD MSTORE DUP5 DUP5 MSTORE PUSH1 0x15 SWAP1 SWAP3 MSTORE SWAP2 DUP3 SWAP1 KECCAK256 PUSH1 0x2 SWAP1 DUP2 ADD SLOAD SWAP3 DUP3 ADD SWAP3 SWAP1 SWAP3 MSTORE SWAP1 PUSH1 0x60 DUP3 ADD SWAP1 JUMPDEST DUP2 MSTORE PUSH1 0x0 PUSH1 0x20 SWAP2 DUP3 ADD DUP2 SWAP1 MSTORE DUP4 DUP2 MSTORE PUSH1 0x15 DUP3 MSTORE PUSH1 0x40 SWAP1 DUP2 SWAP1 KECCAK256 DUP4 MLOAD DUP2 SLOAD PUSH1 0x1 PUSH1 0x1 PUSH1 0xA0 SHL SUB NOT AND PUSH1 0x1 PUSH1 0x1 PUSH1 0xA0 SHL SUB SWAP1 SWAP2 AND OR DUP2 SSTORE SWAP2 DUP4 ADD MLOAD PUSH1 0x1 DUP1 DUP5 ADD SWAP2 SWAP1 SWAP2 SSTORE SWAP1 DUP4 ADD MLOAD PUSH1 0x2 DUP4 ADD SSTORE PUSH1 0x60 DUP4 ADD MLOAD PUSH1 0x3 DUP4 ADD DUP1 SLOAD SWAP2 SWAP3 SWAP1 SWAP2 PUSH1 0xFF NOT AND SWAP1 DUP4 PUSH1 0x4 DUP2 GT ISZERO PUSH2 0x3302 JUMPI PUSH4 0x4E487B71 PUSH1 0xE0 SHL PUSH1 0x0 MSTORE PUSH1 0x21 PUSH1 0x4 MSTORE PUSH1 0x24 PUSH1 0x0 REVERT JUMPDEST MUL OR SWAP1 SSTORE POP PUSH1 0x80 SWAP2 SWAP1 SWAP2 ADD MLOAD PUSH1 0x3 SWAP1 SWAP2 ADD DUP1 SLOAD SWAP2 ISZERO ISZERO PUSH2 0x100 MUL PUSH2 0xFF00 NOT SWAP1 SWAP3 AND SWAP2 SWAP1 SWAP2 OR SWAP1 SSTORE PUSH2 0x9DC JUMP JUMPDEST PUSH1 0x1 PUSH1 0x0 MSTORE PUSH1 0x12 PUSH1 0x20 SWAP1 DUP2 MSTORE PUSH32 0x71A67924699A20698523213E55FE499D539379D7769CD5567E2C45D583F815A3 DUP1 SLOAD PUSH1 0x40 DUP1 MLOAD DUP3 DUP6 MUL DUP2 ADD DUP6 ADD SWAP1 SWAP2 MSTORE DUP2 DUP2 MSTORE PUSH1 0x60 SWAP4 SWAP1 SWAP3 SWAP2 SWAP1 DUP4 ADD DUP3 DUP3 DUP1 ISZERO PUSH2 0xAF5 JUMPI PUSH1 0x20 MUL DUP3 ADD SWAP2 SWAP1 PUSH1 0x0 MSTORE PUSH1 0x20 PUSH1 0x0 KECCAK256 SWAP1 DUP2 SLOAD DUP2 MSTORE PUSH1 0x20 ADD SWAP1 PUSH1 0x1 ADD SWAP1 DUP1 DUP4 GT PUSH2 0xAE1 JUMPI POP POP POP POP POP SWAP1 POP SWAP1 JUMP JUMPDEST PUSH2 0x33B5 CALLER PUSH2 0x3A24 JUMP JUMPDEST PUSH2 0x33BE JUMPI PUSH1 0x0 DUP1 REVERT JUMPDEST PUSH1 0x1 PUSH1 0x1 PUSH1 0xA0 SHL SUB DUP2 AND PUSH1 0x0 SWAP1 DUP2 MSTORE PUSH1 0x6 PUSH1 0x20 SWAP1 DUP2 MSTORE PUSH1 0x40 DUP1 DUP4 KECCAK256 PUSH1 0xA ADD DUP1 SLOAD PUSH2 0xFF00 NOT AND PUSH2 0x100 OR SWAP1 SSTORE PUSH1 0xC DUP3 MSTORE DUP1 DUP4 KECCAK256 DUP1 SLOAD DUP3 MLOAD DUP2 DUP6 MUL DUP2 ADD DUP6 ADD SWAP1 SWAP4 MSTORE DUP1 DUP4 MSTORE SWAP2 SWAP3 SWAP1 SWAP2 SWAP1 DUP4 ADD DUP3 DUP3 DUP1 ISZERO PUSH2 0x3435 JUMPI PUSH1 0x20 MUL DUP3 ADD SWAP2 SWAP1 PUSH1 0x0 MSTORE PUSH1 0x20 PUSH1 0x0 KECCAK256 SWAP1 JUMPDEST DUP2 SLOAD DUP2 MSTORE PUSH1 0x20 ADD SWAP1 PUSH1 0x1 ADD SWAP1 DUP1 DUP4 GT PUSH2 0x3421 JUMPI JUMPDEST POP POP POP POP POP SWAP1 POP PUSH1 0x0 JUMPDEST DUP2 MLOAD DUP2 LT ISZERO PUSH2 0x1630 JUMPI PUSH1 0x0 DUP3 DUP3 DUP2 MLOAD DUP2 LT PUSH2 0x346A JUMPI PUSH4 0x4E487B71 PUSH1 0xE0 SHL PUSH1 0x0 MSTORE PUSH1 0x32 PUSH1 0x4 MSTORE PUSH1 0x24 PUSH1 0x0 REVERT JUMPDEST PUSH1 0x20 SWAP1 DUP2 MUL SWAP2 SWAP1 SWAP2 ADD DUP2 ADD MLOAD PUSH1 0x0 DUP2 DUP2 MSTORE PUSH1 0xD SWAP1 SWAP3 MSTORE PUSH1 0x40 SWAP1 SWAP2 KECCAK256 PUSH1 0x9 DUP2 ADD SLOAD SWAP2 SWAP3 POP SWAP1 PUSH1 0x1 PUSH1 0x1 PUSH1 0xA0 SHL SUB DUP7 DUP2 AND PUSH3 0x10000 SWAP1 SWAP3 DIV AND EQ DUP1 ISZERO PUSH2 0x34C3 JUMPI POP PUSH1 0x5 DUP2 ADD SLOAD CALLER PUSH1 0x0 SWAP1 DUP2 MSTORE PUSH1 0x7 PUSH1 0x20 MSTORE PUSH1 0x40 SWAP1 KECCAK256 PUSH1 0x2 ADD SLOAD EQ JUMPDEST ISZERO PUSH2 0x364F JUMPI PUSH1 0x4 DUP1 SLOAD SWAP1 PUSH1 0x0 PUSH2 0x34D8 DUP4 PUSH2 0x4DD5 JUMP JUMPDEST SWAP1 SWAP2 SSTORE POP POP PUSH1 0x9 DUP2 ADD DUP1 SLOAD PUSH1 0xA DUP4 ADD SLOAD PUSH2 0xFF01 PUSH1 0x1 PUSH1 0xB0 SHL SUB NOT SWAP1 SWAP2 AND PUSH1 0x1 PUSH1 0x1 PUSH1 0xA0 SHL SUB SWAP2 DUP3 AND PUSH3 0x10000 DUP2 MUL SWAP2 SWAP1 SWAP2 OR SWAP1 SWAP3 SSTORE PUSH1 0x0 SWAP2 DUP3 MSTORE PUSH1 0xC PUSH1 0x20 SWAP1 DUP2 MSTORE PUSH1 0x40 DUP1 DUP5 KECCAK256 DUP1 SLOAD PUSH1 0x1 DUP2 ADD DUP3 SSTORE SWAP1 DUP6 MSTORE SWAP2 DUP5 KECCAK256 SWAP1 SWAP2 ADD DUP6 SWAP1 SSTORE SWAP1 DUP8 AND DUP3 MSTORE DUP2 KECCAK256 SWAP1 JUMPDEST DUP2 SLOAD DUP2 LT ISZERO PUSH2 0x3628 JUMPI DUP4 DUP3 DUP3 DUP2 SLOAD DUP2 LT PUSH2 0x3565 JUMPI PUSH4 0x4E487B71 PUSH1 0xE0 SHL PUSH1 0x0 MSTORE PUSH1 0x32 PUSH1 0x4 MSTORE PUSH1 0x24 PUSH1 0x0 REVERT JUMPDEST SWAP1 PUSH1 0x0 MSTORE PUSH1 0x20 PUSH1 0x0 KECCAK256 ADD SLOAD EQ ISZERO PUSH2 0x3616 JUMPI DUP2 SLOAD DUP3 SWAP1 PUSH2 0x3586 SWAP1 PUSH1 0x1 SWAP1 PUSH2 0x4D83 JUMP JUMPDEST DUP2 SLOAD DUP2 LT PUSH2 0x35A4 JUMPI PUSH4 0x4E487B71 PUSH1 0xE0 SHL PUSH1 0x0 MSTORE PUSH1 0x32 PUSH1 0x4 MSTORE PUSH1 0x24 PUSH1 0x0 REVERT JUMPDEST SWAP1 PUSH1 0x0 MSTORE PUSH1 0x20 PUSH1 0x0 KECCAK256 ADD SLOAD DUP3 DUP3 DUP2 SLOAD DUP2 LT PUSH2 0x35CF JUMPI PUSH4 0x4E487B71 PUSH1 0xE0 SHL PUSH1 0x0 MSTORE PUSH1 0x32 PUSH1 0x4 MSTORE PUSH1 0x24 PUSH1 0x0 REVERT JUMPDEST SWAP1 PUSH1 0x0 MSTORE PUSH1 0x20 PUSH1 0x0 KECCAK256 ADD DUP2 SWAP1 SSTORE POP DUP2 DUP1 SLOAD DUP1 PUSH2 0x35FB JUMPI PUSH4 0x4E487B71 PUSH1 0xE0 SHL PUSH1 0x0 MSTORE PUSH1 0x31 PUSH1 0x4 MSTORE PUSH1 0x24 PUSH1 0x0 REVERT JUMPDEST PUSH1 0x1 SWAP1 SUB DUP2 DUP2 SWAP1 PUSH1 0x0 MSTORE PUSH1 0x20 PUSH1 0x0 KECCAK256 ADD PUSH1 0x0 SWAP1 SSTORE SWAP1 SSTORE PUSH2 0x3628 JUMP JUMPDEST DUP1 PUSH2 0x3620 DUP2 PUSH2 0x4DD5 JUMP JUMPDEST SWAP2 POP POP PUSH2 0x353B JUMP JUMPDEST POP POP PUSH1 0x0 SLOAD PUSH1 0xA DUP3 ADD DUP1 SLOAD PUSH1 0x1 PUSH1 0x1 PUSH1 0xA0 SHL SUB NOT AND PUSH1 0x1 PUSH1 0x1 PUSH1 0xA0 SHL SUB SWAP1 SWAP3 AND SWAP2 SWAP1 SWAP2 OR SWAP1 SSTORE JUMPDEST POP POP DUP1 DUP1 PUSH2 0x365C SWAP1 PUSH2 0x4DD5 JUMP JUMPDEST SWAP2 POP POP PUSH2 0x343F JUMP JUMPDEST PUSH1 0x17 PUSH1 0x20 MSTORE PUSH1 0x0 SWAP1 DUP2 MSTORE PUSH1 0x40 SWAP1 KECCAK256 DUP1 SLOAD PUSH1 0x1 DUP3 ADD SLOAD PUSH1 0x2 SWAP1 SWAP3 ADD SLOAD SWAP1 SWAP2 SWAP1 DUP4 JUMP JUMPDEST PUSH1 0x1 PUSH1 0x1 PUSH1 0xA0 SHL SUB AND PUSH1 0x0 SWAP1 DUP2 MSTORE PUSH1 0x6 PUSH1 0x20 MSTORE PUSH1 0x40 SWAP1 KECCAK256 PUSH1 0xA ADD SLOAD PUSH1 0xFF AND SWAP1 JUMP JUMPDEST PUSH1 0xE PUSH1 0x20 MSTORE PUSH1 0x0 SWAP1 DUP2 MSTORE PUSH1 0x40 SWAP1 KECCAK256 DUP1 SLOAD PUSH1 0x1 DUP3 ADD SLOAD PUSH1 0x2 DUP4 ADD SLOAD PUSH1 0x3 DUP5 ADD SLOAD PUSH1 0x4 DUP6 ADD SLOAD PUSH1 0x5 DUP7 ADD SLOAD PUSH1 0x6 SWAP1 SWAP7 ADD SLOAD SWAP5 SWAP6 PUSH1 0x1 PUSH1 0x1 PUSH1 0xA0 SHL SUB SWAP5 DUP6 AND SWAP6 SWAP4 SWAP1 SWAP5 AND SWAP4 SWAP2 SWAP3 PUSH1 0xFF SWAP2 DUP3 AND SWAP3 SWAP2 AND DUP8 JUMP JUMPDEST PUSH1 0x15 PUSH1 0x20 MSTORE PUSH1 0x0 SWAP1 DUP2 MSTORE PUSH1 0x40 SWAP1 KECCAK256 DUP1 SLOAD PUSH1 0x1 DUP3 ADD SLOAD PUSH1 0x2 DUP4 ADD SLOAD PUSH1 0x3 SWAP1 SWAP4 ADD SLOAD PUSH1 0x1 PUSH1 0x1 PUSH1 0xA0 SHL SUB SWAP1 SWAP3 AND SWAP3 SWAP1 SWAP2 PUSH1 0xFF DUP1 DUP3 AND SWAP2 PUSH2 0x100 SWAP1 DIV AND DUP6 JUMP JUMPDEST PUSH1 0x18 PUSH1 0x20 MSTORE PUSH1 0x0 SWAP1 DUP2 MSTORE PUSH1 0x40 SWAP1 KECCAK256 DUP1 SLOAD PUSH1 0x1 DUP3 ADD SLOAD PUSH1 0x2 DUP4 ADD SLOAD PUSH1 0x3 DUP5 ADD SLOAD PUSH1 0x4 DUP6 ADD SLOAD PUSH1 0x5 DUP7 ADD SLOAD PUSH1 0x6 SWAP1 SWAP7 ADD SLOAD SWAP5 SWAP6 PUSH1 0x1 PUSH1 0x1 PUSH1 0xA0 SHL SUB SWAP5 DUP6 AND SWAP6 SWAP4 DUP6 AND SWAP5 SWAP3 DUP4 AND SWAP4 SWAP3 SWAP1 SWAP2 AND SWAP2 DUP8 JUMP JUMPDEST PUSH1 0x1 PUSH1 0x1 PUSH1 0xA0 SHL SUB DUP2 AND PUSH1 0x0 SWAP1 DUP2 MSTORE PUSH1 0xC PUSH1 0x20 SWAP1 DUP2 MSTORE PUSH1 0x40 SWAP2 DUP3 SWAP1 KECCAK256 DUP1 SLOAD DUP4 MLOAD DUP2 DUP5 MUL DUP2 ADD DUP5 ADD SWAP1 SWAP5 MSTORE DUP1 DUP5 MSTORE PUSH1 0x60 SWAP4 SWAP3 DUP4 ADD DUP3 DUP3 DUP1 ISZERO PUSH2 0x37DF JUMPI PUSH1 0x20 MUL DUP3 ADD SWAP2 SWAP1 PUSH1 0x0 MSTORE PUSH1 0x20 PUSH1 0x0 KECCAK256 SWAP1 JUMPDEST DUP2 SLOAD DUP2 MSTORE PUSH1 0x20 ADD SWAP1 PUSH1 0x1 ADD SWAP1 DUP1 DUP4 GT PUSH2 0x37CB JUMPI JUMPDEST POP POP POP POP POP SWAP1 POP SWAP2 SWAP1 POP JUMP JUMPDEST PUSH1 0x1 PUSH1 0x0 MSTORE PUSH1 0x8 PUSH1 0x20 SWAP1 DUP2 MSTORE PUSH1 0x0 DUP1 MLOAD PUSH1 0x20 PUSH2 0x4E50 DUP4 CODECOPY DUP2 MLOAD SWAP2 MSTORE DUP1 SLOAD PUSH1 0x40 DUP1 MLOAD DUP3 DUP6 MUL DUP2 ADD DUP6 ADD SWAP1 SWAP2 MSTORE DUP2 DUP2 MSTORE PUSH1 0x60 SWAP4 SWAP1 SWAP3 SWAP2 SWAP1 DUP4 ADD DUP3 DUP3 DUP1 ISZERO PUSH2 0xAF5 JUMPI PUSH1 0x20 MUL DUP3 ADD SWAP2 SWAP1 PUSH1 0x0 MSTORE PUSH1 0x20 PUSH1 0x0 KECCAK256 SWAP1 DUP2 SLOAD PUSH1 0x1 PUSH1 0x1 PUSH1 0xA0 SHL SUB AND DUP2 MSTORE PUSH1 0x1 SWAP1 SWAP2 ADD SWAP1 PUSH1 0x20 ADD DUP1 DUP4 GT PUSH2 0x1A20 JUMPI POP POP POP POP POP SWAP1 POP SWAP1 JUMP JUMPDEST PUSH1 0x6 PUSH1 0x20 DUP2 SWAP1 MSTORE PUSH1 0x0 SWAP2 DUP3 MSTORE PUSH1 0x40 SWAP1 SWAP2 KECCAK256 DUP1 SLOAD PUSH1 0x1 DUP3 ADD SLOAD PUSH1 0x2 DUP4 ADD SLOAD PUSH1 0x3 DUP5 ADD SLOAD PUSH1 0x4 DUP6 ADD SLOAD PUSH1 0x5 DUP7 ADD SLOAD SWAP7 DUP7 ADD DUP1 SLOAD PUSH1 0x1 PUSH1 0x1 PUSH1 0xA0 SHL SUB SWAP1 SWAP7 AND SWAP8 SWAP5 SWAP7 SWAP4 SWAP6 SWAP3 SWAP5 SWAP2 SWAP4 SWAP2 SWAP3 PUSH2 0x38B1 SWAP1 PUSH2 0x4D9A JUMP JUMPDEST DUP1 PUSH1 0x1F ADD PUSH1 0x20 DUP1 SWAP2 DIV MUL PUSH1 0x20 ADD PUSH1 0x40 MLOAD SWAP1 DUP2 ADD PUSH1 0x40 MSTORE DUP1 SWAP3 SWAP2 SWAP1 DUP2 DUP2 MSTORE PUSH1 0x20 ADD DUP3 DUP1 SLOAD PUSH2 0x38DD SWAP1 PUSH2 0x4D9A JUMP JUMPDEST DUP1 ISZERO PUSH2 0x392A JUMPI DUP1 PUSH1 0x1F LT PUSH2 0x38FF JUMPI PUSH2 0x100 DUP1 DUP4 SLOAD DIV MUL DUP4 MSTORE SWAP2 PUSH1 0x20 ADD SWAP2 PUSH2 0x392A JUMP JUMPDEST DUP3 ADD SWAP2 SWAP1 PUSH1 0x0 MSTORE PUSH1 0x20 PUSH1 0x0 KECCAK256 SWAP1 JUMPDEST DUP2 SLOAD DUP2 MSTORE SWAP1 PUSH1 0x1 ADD SWAP1 PUSH1 0x20 ADD DUP1 DUP4 GT PUSH2 0x390D JUMPI DUP3 SWAP1 SUB PUSH1 0x1F AND DUP3 ADD SWAP2 JUMPDEST POP POP POP POP POP SWAP1 DUP1 PUSH1 0x7 ADD DUP1 SLOAD PUSH2 0x393F SWAP1 PUSH2 0x4D9A JUMP JUMPDEST DUP1 PUSH1 0x1F ADD PUSH1 0x20 DUP1 SWAP2 DIV MUL PUSH1 0x20 ADD PUSH1 0x40 MLOAD SWAP1 DUP2 ADD PUSH1 0x40 MSTORE DUP1 SWAP3 SWAP2 SWAP1 DUP2 DUP2 MSTORE PUSH1 0x20 ADD DUP3 DUP1 SLOAD PUSH2 0x396B SWAP1 PUSH2 0x4D9A JUMP JUMPDEST DUP1 ISZERO PUSH2 0x39B8 JUMPI DUP1 PUSH1 0x1F LT PUSH2 0x398D JUMPI PUSH2 0x100 DUP1 DUP4 SLOAD DIV MUL DUP4 MSTORE SWAP2 PUSH1 0x20 ADD SWAP2 PUSH2 0x39B8 JUMP JUMPDEST DUP3 ADD SWAP2 SWAP1 PUSH1 0x0 MSTORE PUSH1 0x20 PUSH1 0x0 KECCAK256 SWAP1 JUMPDEST DUP2 SLOAD DUP2 MSTORE SWAP1 PUSH1 0x1 ADD SWAP1 PUSH1 0x20 ADD DUP1 DUP4 GT PUSH2 0x399B JUMPI DUP3 SWAP1 SUB PUSH1 0x1F AND DUP3 ADD SWAP2 JUMPDEST POP POP POP POP PUSH1 0x8 DUP4 ADD SLOAD PUSH1 0x9 DUP5 ADD SLOAD PUSH1 0xA DUP6 ADD SLOAD PUSH1 0xB SWAP1 SWAP6 ADD SLOAD SWAP4 SWAP5 SWAP2 SWAP4 SWAP1 SWAP3 POP PUSH1 0xFF DUP1 DUP4 AND SWAP3 PUSH2 0x100 SWAP1 DIV AND SWAP1 DUP14 JUMP JUMPDEST PUSH1 0x9 PUSH1 0x20 MSTORE PUSH1 0x0 SWAP1 DUP2 MSTORE PUSH1 0x40 SWAP1 KECCAK256 SLOAD PUSH1 0xFF AND DUP2 JUMP JUMPDEST PUSH1 0x0 DUP1 SLOAD PUSH1 0x1 PUSH1 0x1 PUSH1 0xA0 SHL SUB DUP4 DUP2 AND SWAP2 AND EQ ISZERO PUSH2 0x3A1C JUMPI POP PUSH1 0x1 PUSH2 0xA2D JUMP JUMPDEST POP PUSH1 0x0 PUSH2 0xA2D JUMP JUMPDEST PUSH1 0x1 PUSH1 0x1 PUSH1 0xA0 SHL SUB DUP2 AND PUSH1 0x0 SWAP1 DUP2 MSTORE PUSH1 0x9 PUSH1 0x20 MSTORE PUSH1 0x40 DUP2 KECCAK256 SLOAD PUSH1 0xFF AND ISZERO PUSH2 0x3A1C JUMPI POP PUSH1 0x1 PUSH2 0xA2D JUMP JUMPDEST PUSH1 0xD PUSH1 0x20 MSTORE PUSH1 0x0 SWAP1 DUP2 MSTORE PUSH1 0x40 SWAP1 KECCAK256 DUP1 SLOAD PUSH1 0x1 DUP3 ADD SLOAD PUSH1 0x2 DUP4 ADD SLOAD PUSH1 0x3 DUP5 ADD SLOAD PUSH1 0x4 DUP6 ADD DUP1 SLOAD SWAP5 SWAP6 SWAP4 SWAP5 SWAP3 SWAP4 SWAP2 SWAP3 PUSH2 0x3A83 SWAP1 PUSH2 0x4D9A JUMP JUMPDEST DUP1 PUSH1 0x1F ADD PUSH1 0x20 DUP1 SWAP2 DIV MUL PUSH1 0x20 ADD PUSH1 0x40 MLOAD SWAP1 DUP2 ADD PUSH1 0x40 MSTORE DUP1 SWAP3 SWAP2 SWAP1 DUP2 DUP2 MSTORE PUSH1 0x20 ADD DUP3 DUP1 SLOAD PUSH2 0x3AAF SWAP1 PUSH2 0x4D9A JUMP JUMPDEST DUP1 ISZERO PUSH2 0x3AFC JUMPI DUP1 PUSH1 0x1F LT PUSH2 0x3AD1 JUMPI PUSH2 0x100 DUP1 DUP4 SLOAD DIV MUL DUP4 MSTORE SWAP2 PUSH1 0x20 ADD SWAP2 PUSH2 0x3AFC JUMP JUMPDEST DUP3 ADD SWAP2 SWAP1 PUSH1 0x0 MSTORE PUSH1 0x20 PUSH1 0x0 KECCAK256 SWAP1 JUMPDEST DUP2 SLOAD DUP2 MSTORE SWAP1 PUSH1 0x1 ADD SWAP1 PUSH1 0x20 ADD DUP1 DUP4 GT PUSH2 0x3ADF JUMPI DUP3 SWAP1 SUB PUSH1 0x1F AND DUP3 ADD SWAP2 JUMPDEST POP POP POP POP POP SWAP1 DUP1 PUSH1 0x5 ADD SLOAD SWAP1 DUP1 PUSH1 0x6 ADD DUP1 SLOAD PUSH2 0x3B17 SWAP1 PUSH2 0x4D9A JUMP JUMPDEST DUP1 PUSH1 0x1F ADD PUSH1 0x20 DUP1 SWAP2 DIV MUL PUSH1 0x20 ADD PUSH1 0x40 MLOAD SWAP1 DUP2 ADD PUSH1 0x40 MSTORE DUP1 SWAP3 SWAP2 SWAP1 DUP2 DUP2 MSTORE PUSH1 0x20 ADD DUP3 DUP1 SLOAD PUSH2 0x3B43 SWAP1 PUSH2 0x4D9A JUMP JUMPDEST DUP1 ISZERO PUSH2 0x3B90 JUMPI DUP1 PUSH1 0x1F LT PUSH2 0x3B65 JUMPI PUSH2 0x100 DUP1 DUP4 SLOAD DIV MUL DUP4 MSTORE SWAP2 PUSH1 0x20 ADD SWAP2 PUSH2 0x3B90 JUMP JUMPDEST DUP3 ADD SWAP2 SWAP1 PUSH1 0x0 MSTORE PUSH1 0x20 PUSH1 0x0 KECCAK256 SWAP1 JUMPDEST DUP2 SLOAD DUP2 MSTORE SWAP1 PUSH1 0x1 ADD SWAP1 PUSH1 0x20 ADD DUP1 DUP4 GT PUSH2 0x3B73 JUMPI DUP3 SWAP1 SUB PUSH1 0x1F AND DUP3 ADD SWAP2 JUMPDEST POP POP POP POP POP SWAP1 DUP1 PUSH1 0x7 ADD DUP1 SLOAD PUSH2 0x3BA5 SWAP1 PUSH2 0x4D9A JUMP JUMPDEST DUP1 PUSH1 0x1F ADD PUSH1 0x20 DUP1 SWAP2 DIV MUL PUSH1 0x20 ADD PUSH1 0x40 MLOAD SWAP1 DUP2 ADD PUSH1 0x40 MSTORE DUP1 SWAP3 SWAP2 SWAP1 DUP2 DUP2 MSTORE PUSH1 0x20 ADD DUP3 DUP1 SLOAD PUSH2 0x3BD1 SWAP1 PUSH2 0x4D9A JUMP JUMPDEST DUP1 ISZERO PUSH2 0x3C1E JUMPI DUP1 PUSH1 0x1F LT PUSH2 0x3BF3 JUMPI PUSH2 0x100 DUP1 DUP4 SLOAD DIV MUL DUP4 MSTORE SWAP2 PUSH1 0x20 ADD SWAP2 PUSH2 0x3C1E JUMP JUMPDEST DUP3 ADD SWAP2 SWAP1 PUSH1 0x0 MSTORE PUSH1 0x20 PUSH1 0x0 KECCAK256 SWAP1 JUMPDEST DUP2 SLOAD DUP2 MSTORE SWAP1 PUSH1 0x1 ADD SWAP1 PUSH1 0x20 ADD DUP1 DUP4 GT PUSH2 0x3C01 JUMPI DUP3 SWAP1 SUB PUSH1 0x1F AND DUP3 ADD SWAP2 JUMPDEST POP POP POP POP POP SWAP1 DUP1 PUSH1 0x8 ADD DUP1 SLOAD PUSH2 0x3C33 SWAP1 PUSH2 0x4D9A JUMP JUMPDEST DUP1 PUSH1 0x1F ADD PUSH1 0x20 DUP1 SWAP2 DIV MUL PUSH1 0x20 ADD PUSH1 0x40 MLOAD SWAP1 DUP2 ADD PUSH1 0x40 MSTORE DUP1 SWAP3 SWAP2 SWAP1 DUP2 DUP2 MSTORE PUSH1 0x20 ADD DUP3 DUP1 SLOAD PUSH2 0x3C5F SWAP1 PUSH2 0x4D9A JUMP JUMPDEST DUP1 ISZERO PUSH2 0x3CAC JUMPI DUP1 PUSH1 0x1F LT PUSH2 0x3C81 JUMPI PUSH2 0x100 DUP1 DUP4 SLOAD DIV MUL DUP4 MSTORE SWAP2 PUSH1 0x20 ADD SWAP2 PUSH2 0x3CAC JUMP JUMPDEST DUP3 ADD SWAP2 SWAP1 PUSH1 0x0 MSTORE PUSH1 0x20 PUSH1 0x0 KECCAK256 SWAP1 JUMPDEST DUP2 SLOAD DUP2 MSTORE SWAP1 PUSH1 0x1 ADD SWAP1 PUSH1 0x20 ADD DUP1 DUP4 GT PUSH2 0x3C8F JUMPI DUP3 SWAP1 SUB PUSH1 0x1F AND DUP3 ADD SWAP2 JUMPDEST POP POP POP PUSH1 0x9 DUP5 ADD SLOAD PUSH1 0xA DUP6 ADD SLOAD PUSH1 0xB SWAP1 SWAP6 ADD SLOAD SWAP4 SWAP5 PUSH1 0xFF DUP1 DUP4 AND SWAP6 PUSH2 0x100 DUP5 DIV SWAP1 SWAP2 AND SWAP5 POP PUSH1 0x1 PUSH1 0x1 PUSH1 0xA0 SHL SUB PUSH3 0x10000 SWAP1 SWAP4 DIV DUP4 AND SWAP4 POP SWAP2 AND SWAP1 DUP15 JUMP JUMPDEST CALLER PUSH1 0x0 SWAP1 DUP2 MSTORE PUSH1 0xB PUSH1 0x20 MSTORE PUSH1 0x40 SWAP1 KECCAK256 SLOAD PUSH1 0xFF AND ISZERO ISZERO PUSH1 0x1 EQ ISZERO PUSH2 0x3D1F JUMPI PUSH1 0x40 MLOAD PUSH3 0x461BCD PUSH1 0xE5 SHL DUP2 MSTORE PUSH1 0x4 ADD PUSH2 0xB38 SWAP1 PUSH2 0x4A46 JUMP JUMPDEST PUSH1 0x0 JUMPDEST PUSH1 0x2 SLOAD DUP2 LT ISZERO PUSH2 0x3DD8 JUMPI PUSH1 0x1 PUSH1 0x0 SWAP1 DUP2 MSTORE PUSH1 0xA PUSH1 0x20 MSTORE PUSH32 0xBBC70DB1B6C7AFD11E79C0FB0051300458F1A3ACB8EE9789D9B6B26C61AD9BC7 DUP1 SLOAD DUP9 SWAP3 PUSH1 0x6 SWAP3 SWAP1 SWAP2 DUP6 SWAP1 DUP2 LT PUSH2 0x3D80 JUMPI PUSH4 0x4E487B71 PUSH1 0xE0 SHL PUSH1 0x0 MSTORE PUSH1 0x32 PUSH1 0x4 MSTORE PUSH1 0x24 PUSH1 0x0 REVERT JUMPDEST PUSH1 0x0 SWAP2 DUP3 MSTORE PUSH1 0x20 DUP1 DUP4 KECCAK256 SWAP1 SWAP2 ADD SLOAD PUSH1 0x1 PUSH1 0x1 PUSH1 0xA0 SHL SUB AND DUP4 MSTORE DUP3 ADD SWAP3 SWAP1 SWAP3 MSTORE PUSH1 0x40 ADD SWAP1 KECCAK256 PUSH1 0x5 ADD SLOAD EQ ISZERO PUSH2 0x3DC6 JUMPI PUSH1 0x40 MLOAD PUSH3 0x461BCD PUSH1 0xE5 SHL DUP2 MSTORE PUSH1 0x4 ADD PUSH2 0xB38 SWAP1 PUSH2 0x4A73 JUMP JUMPDEST DUP1 PUSH2 0x3DD0 DUP2 PUSH2 0x4DD5 JUMP JUMPDEST SWAP2 POP POP PUSH2 0x3D22 JUMP JUMPDEST POP CALLER PUSH1 0x0 SWAP1 DUP2 MSTORE PUSH1 0xB PUSH1 0x20 MSTORE PUSH1 0x40 DUP2 KECCAK256 DUP1 SLOAD PUSH1 0xFF NOT AND PUSH1 0x1 OR SWAP1 SSTORE PUSH1 0x2 DUP1 SLOAD SWAP2 PUSH2 0x3E01 DUP4 PUSH2 0x4DD5 JUMP JUMPDEST SWAP1 SWAP2 SSTORE POP POP PUSH32 0xBBC70DB1B6C7AFD11E79C0FB0051300458F1A3ACB8EE9789D9B6B26C61AD9BC7 DUP1 SLOAD PUSH1 0x1 DUP1 DUP3 ADD SWAP1 SWAP3 SSTORE PUSH32 0xED65B032D5A5FA3A5B6544566EE46A0F6B8FE8B1375EC878DC3BE6580B078495 ADD DUP1 SLOAD CALLER PUSH1 0x1 PUSH1 0x1 PUSH1 0xA0 SHL SUB NOT SWAP2 DUP3 AND DUP2 OR SWAP1 SWAP3 SSTORE PUSH1 0x40 DUP1 MLOAD PUSH2 0x1A0 DUP2 ADD DUP3 MSTORE DUP4 DUP2 MSTORE PUSH1 0x20 DUP1 DUP3 ADD DUP16 DUP2 MSTORE DUP3 DUP5 ADD DUP16 DUP2 MSTORE PUSH1 0x60 DUP5 ADD DUP16 DUP2 MSTORE PUSH1 0x80 DUP6 ADD DUP16 DUP2 MSTORE PUSH1 0xA0 DUP7 ADD DUP16 DUP2 MSTORE PUSH1 0xC0 DUP8 ADD DUP16 DUP2 MSTORE PUSH1 0xE0 DUP9 ADD DUP16 SWAP1 MSTORE PUSH2 0x100 DUP9 ADD DUP15 SWAP1 MSTORE PUSH2 0x120 DUP9 ADD DUP14 SWAP1 MSTORE PUSH1 0x0 PUSH2 0x140 DUP10 ADD DUP2 SWAP1 MSTORE PUSH2 0x160 DUP10 ADD DUP2 SWAP1 MSTORE TIMESTAMP PUSH2 0x180 DUP11 ADD MSTORE SWAP11 DUP12 MSTORE PUSH1 0x6 DUP1 DUP9 MSTORE SWAP9 SWAP1 SWAP11 KECCAK256 DUP8 MLOAD DUP2 SLOAD SWAP1 SWAP11 AND PUSH1 0x1 PUSH1 0x1 PUSH1 0xA0 SHL SUB SWAP1 SWAP11 AND SWAP10 SWAP1 SWAP10 OR DUP10 SSTORE SWAP4 MLOAD SWAP10 DUP9 ADD SWAP10 SWAP1 SWAP10 SSTORE SWAP1 MLOAD PUSH1 0x2 DUP8 ADD SSTORE MLOAD PUSH1 0x3 DUP7 ADD SSTORE SWAP6 MLOAD PUSH1 0x4 DUP6 ADD SSTORE SWAP5 MLOAD PUSH1 0x5 DUP5 ADD SSTORE SWAP3 MLOAD DUP1 MLOAD SWAP4 SWAP5 SWAP3 SWAP4 PUSH2 0x3F31 SWAP4 SWAP3 DUP6 ADD SWAP3 SWAP2 SWAP1 SWAP2 ADD SWAP1 PUSH2 0x42F6 JUMP JUMPDEST POP PUSH1 0xE0 DUP3 ADD MLOAD DUP1 MLOAD PUSH2 0x3F4D SWAP2 PUSH1 0x7 DUP5 ADD SWAP2 PUSH1 0x20 SWAP1 SWAP2 ADD SWAP1 PUSH2 0x42F6 JUMP JUMPDEST POP PUSH2 0x100 DUP3 DUP2 ADD MLOAD PUSH1 0x8 DUP4 ADD SSTORE PUSH2 0x120 DUP4 ADD MLOAD PUSH1 0x9 DUP4 ADD SSTORE PUSH2 0x140 DUP4 ADD MLOAD PUSH1 0xA DUP4 ADD DUP1 SLOAD PUSH2 0x160 DUP7 ADD MLOAD PUSH1 0xFF NOT SWAP2 DUP3 AND SWAP4 ISZERO ISZERO SWAP4 SWAP1 SWAP4 OR PUSH2 0xFF00 NOT AND SWAP3 ISZERO ISZERO SWAP1 SWAP4 MUL SWAP2 SWAP1 SWAP2 OR SWAP1 SSTORE PUSH2 0x180 SWAP1 SWAP3 ADD MLOAD PUSH1 0xB SWAP1 SWAP2 ADD SSTORE PUSH1 0x40 DUP1 MLOAD PUSH1 0x60 DUP2 ADD DUP3 MSTORE PUSH1 0x0 DUP1 DUP3 MSTORE PUSH1 0x20 DUP1 DUP4 ADD DUP3 DUP2 MSTORE DUP4 DUP6 ADD DUP4 DUP2 MSTORE CALLER DUP5 MSTORE PUSH1 0x16 SWAP1 SWAP3 MSTORE SWAP4 SWAP1 SWAP2 KECCAK256 DUP3 MLOAD DUP2 SLOAD PUSH1 0x1 PUSH1 0x1 PUSH1 0xA0 SHL SUB NOT AND PUSH1 0x1 PUSH1 0x1 PUSH1 0xA0 SHL SUB SWAP1 SWAP2 AND OR DUP2 SSTORE SWAP3 MLOAD PUSH1 0x1 DUP5 DUP2 ADD SWAP2 SWAP1 SWAP2 SSTORE SWAP1 MLOAD PUSH1 0x2 DUP5 ADD DUP1 SLOAD SWAP4 SWAP6 SWAP2 SWAP4 SWAP1 SWAP3 SWAP2 AND SWAP1 DUP4 PUSH1 0x4 DUP2 GT ISZERO PUSH2 0x4023 JUMPI PUSH4 0x4E487B71 PUSH1 0xE0 SHL PUSH1 0x0 MSTORE PUSH1 0x21 PUSH1 0x4 MSTORE PUSH1 0x24 PUSH1 0x0 REVERT JUMPDEST MUL OR SWAP1 SSTORE POP POP POP POP POP POP POP POP POP POP POP POP JUMP JUMPDEST PUSH1 0x0 DUP2 DUP2 MSTORE PUSH1 0xE PUSH1 0x20 MSTORE PUSH1 0x40 SWAP1 KECCAK256 PUSH1 0x3 DUP2 ADD SLOAD PUSH1 0x2 SWAP1 SWAP2 ADD SLOAD PUSH1 0x1 PUSH1 0x1 PUSH1 0xA0 SHL SUB AND CALLER EQ DUP1 ISZERO PUSH2 0x4099 JUMPI POP PUSH1 0x2 PUSH1 0x0 DUP4 DUP2 MSTORE PUSH1 0xE PUSH1 0x20 MSTORE PUSH1 0x40 SWAP1 KECCAK256 PUSH1 0x4 SWAP1 DUP2 ADD SLOAD PUSH1 0xFF AND SWAP1 DUP2 GT ISZERO PUSH2 0x4097 JUMPI PUSH4 0x4E487B71 PUSH1 0xE0 SHL PUSH1 0x0 MSTORE PUSH1 0x21 PUSH1 0x4 MSTORE PUSH1 0x24 PUSH1 0x0 REVERT JUMPDEST EQ JUMPDEST DUP1 ISZERO PUSH2 0x40DA JUMPI POP PUSH1 0x3 PUSH1 0x0 DUP4 DUP2 MSTORE PUSH1 0xE PUSH1 0x20 MSTORE PUSH1 0x40 SWAP1 KECCAK256 PUSH1 0x4 SWAP1 DUP2 ADD SLOAD PUSH1 0xFF AND SWAP1 DUP2 GT ISZERO PUSH2 0x40D7 JUMPI PUSH4 0x4E487B71 PUSH1 0xE0 SHL PUSH1 0x0 MSTORE PUSH1 0x21 PUSH1 0x4 MSTORE PUSH1 0x24 PUSH1 0x0 REVERT JUMPDEST EQ ISZERO JUMPDEST DUP1 ISZERO PUSH2 0x4102 JUMPI POP PUSH1 0x0 DUP3 DUP2 MSTORE PUSH1 0xE PUSH1 0x20 MSTORE PUSH1 0x40 SWAP1 KECCAK256 PUSH1 0x1 ADD SLOAD PUSH1 0x1 PUSH1 0x1 PUSH1 0xA0 SHL SUB DUP5 DUP2 AND SWAP2 AND EQ JUMPDEST DUP1 ISZERO PUSH2 0x411E JUMPI POP PUSH1 0x0 DUP3 DUP2 MSTORE PUSH1 0x17 PUSH1 0x20 MSTORE PUSH1 0x40 SWAP1 KECCAK256 PUSH1 0x2 ADD SLOAD CALLVALUE EQ JUMPDEST ISZERO PUSH2 0x287 JUMPI PUSH1 0x0 DUP3 DUP2 MSTORE PUSH1 0xE PUSH1 0x20 SWAP1 DUP2 MSTORE PUSH1 0x40 DUP1 DUP4 KECCAK256 PUSH1 0x4 DUP2 ADD DUP1 SLOAD PUSH1 0x3 PUSH1 0xFF NOT SWAP2 DUP3 AND DUP2 OR SWAP1 SWAP3 SSTORE PUSH1 0x6 SWAP1 SWAP3 ADD DUP1 SLOAD SWAP1 SWAP3 AND PUSH1 0x1 SWAP1 DUP2 OR SWAP1 SWAP3 SSTORE DUP6 DUP6 MSTORE PUSH1 0x15 DUP5 MSTORE DUP3 DUP6 KECCAK256 ADD DUP1 SLOAD PUSH2 0xFF00 NOT AND PUSH2 0x100 OR SWAP1 SSTORE PUSH1 0x12 SWAP1 SWAP3 MSTORE PUSH32 0x71A67924699A20698523213E55FE499D539379D7769CD5567E2C45D583F815A3 DUP1 SLOAD SWAP3 DUP4 ADD DUP2 SSTORE DUP4 MSTORE PUSH32 0x9D3634EC98B7A093F4C560246B0E10C09E0E06C46CA9BE08CA93E6CF08D8D13 SWAP1 SWAP2 ADD DUP5 SWAP1 SSTORE MLOAD PUSH1 0x1 PUSH1 0x1 PUSH1 0xA0 SHL SUB DUP6 AND SWAP2 CALLVALUE DUP1 ISZERO PUSH2 0x8FC MUL SWAP3 SWAP1 SWAP2 DUP2 DUP2 DUP2 DUP6 DUP9 DUP9 CALL SWAP4 POP POP POP POP ISZERO DUP1 ISZERO PUSH2 0x41FA JUMPI RETURNDATASIZE PUSH1 0x0 DUP1 RETURNDATACOPY RETURNDATASIZE PUSH1 0x0 REVERT JUMPDEST POP PUSH2 0x1630 JUMP JUMPDEST PUSH2 0x4209 CALLER PUSH2 0x3A24 JUMP JUMPDEST DUP1 ISZERO PUSH2 0x4235 JUMPI POP PUSH1 0x0 DUP2 DUP2 MSTORE PUSH1 0xD PUSH1 0x20 MSTORE PUSH1 0x40 SWAP1 KECCAK256 PUSH1 0x9 ADD SLOAD PUSH3 0x10000 SWAP1 DIV PUSH1 0x1 PUSH1 0x1 PUSH1 0xA0 SHL SUB AND CALLER EQ ISZERO JUMPDEST DUP1 ISZERO PUSH2 0x4271 JUMPI POP PUSH1 0x0 DUP2 DUP2 MSTORE PUSH1 0xD PUSH1 0x20 SWAP1 DUP2 MSTORE PUSH1 0x40 DUP1 DUP4 KECCAK256 PUSH1 0x9 ADD SLOAD PUSH3 0x10000 SWAP1 DIV PUSH1 0x1 PUSH1 0x1 PUSH1 0xA0 SHL SUB AND DUP4 MSTORE PUSH1 0x6 SWAP1 SWAP2 MSTORE SWAP1 KECCAK256 PUSH1 0xA ADD SLOAD PUSH1 0xFF AND JUMPDEST DUP1 ISZERO PUSH2 0x429E JUMPI POP PUSH1 0x0 DUP2 DUP2 MSTORE PUSH1 0xD PUSH1 0x20 SWAP1 DUP2 MSTORE PUSH1 0x40 DUP1 DUP4 KECCAK256 PUSH1 0x5 ADD SLOAD CALLER DUP5 MSTORE PUSH1 0x7 SWAP1 SWAP3 MSTORE SWAP1 SWAP2 KECCAK256 PUSH1 0x2 ADD SLOAD EQ JUMPDEST ISZERO PUSH2 0x287 JUMPI PUSH1 0x0 DUP2 DUP2 MSTORE PUSH1 0xD PUSH1 0x20 SWAP1 DUP2 MSTORE PUSH1 0x40 DUP1 DUP4 KECCAK256 PUSH1 0x9 ADD DUP1 SLOAD PUSH2 0xFF00 NOT AND PUSH2 0x100 OR SWAP1 SSTORE DUP1 MLOAD PUSH1 0xA0 DUP2 ADD DUP3 MSTORE CALLER DUP2 MSTORE TIMESTAMP DUP2 DUP5 ADD MSTORE DUP5 DUP5 MSTORE PUSH1 0x15 SWAP1 SWAP3 MSTORE SWAP2 DUP3 SWAP1 KECCAK256 PUSH1 0x2 ADD SLOAD SWAP2 DUP2 ADD SWAP2 SWAP1 SWAP2 MSTORE PUSH1 0x60 DUP2 ADD PUSH1 0x1 PUSH2 0x3283 JUMP JUMPDEST DUP3 DUP1 SLOAD PUSH2 0x4302 SWAP1 PUSH2 0x4D9A JUMP JUMPDEST SWAP1 PUSH1 0x0 MSTORE PUSH1 0x20 PUSH1 0x0 KECCAK256 SWAP1 PUSH1 0x1F ADD PUSH1 0x20 SWAP1 DIV DUP2 ADD SWAP3 DUP3 PUSH2 0x4324 JUMPI PUSH1 0x0 DUP6 SSTORE PUSH2 0x436A JUMP JUMPDEST DUP3 PUSH1 0x1F LT PUSH2 0x433D JUMPI DUP1 MLOAD PUSH1 0xFF NOT AND DUP4 DUP1 ADD OR DUP6 SSTORE PUSH2 0x436A JUMP JUMPDEST DUP3 DUP1 ADD PUSH1 0x1 ADD DUP6 SSTORE DUP3 ISZERO PUSH2 0x436A JUMPI SWAP2 DUP3 ADD JUMPDEST DUP3 DUP2 GT ISZERO PUSH2 0x436A JUMPI DUP3 MLOAD DUP3 SSTORE SWAP2 PUSH1 0x20 ADD SWAP2 SWAP1 PUSH1 0x1 ADD SWAP1 PUSH2 0x434F JUMP JUMPDEST POP PUSH2 0x4376 SWAP3 SWAP2 POP PUSH2 0x437A JUMP JUMPDEST POP SWAP1 JUMP JUMPDEST JUMPDEST DUP1 DUP3 GT ISZERO PUSH2 0x4376 JUMPI PUSH1 0x0 DUP2 SSTORE PUSH1 0x1 ADD PUSH2 0x437B JUMP JUMPDEST DUP1 CALLDATALOAD DUP1 ISZERO ISZERO DUP2 EQ PUSH2 0xA2D JUMPI PUSH1 0x0 DUP1 REVERT JUMPDEST PUSH1 0x0 DUP3 PUSH1 0x1F DUP4 ADD SLT PUSH2 0x43AF JUMPI DUP1 DUP2 REVERT JUMPDEST DUP2 CALLDATALOAD PUSH8 0xFFFFFFFFFFFFFFFF DUP1 DUP3 GT ISZERO PUSH2 0x43CA JUMPI PUSH2 0x43CA PUSH2 0x4E06 JUMP JUMPDEST PUSH1 0x40 MLOAD PUSH1 0x1F DUP4 ADD PUSH1 0x1F NOT AND DUP2 ADD PUSH1 0x20 ADD DUP3 DUP2 GT DUP3 DUP3 LT OR ISZERO PUSH2 0x43EE JUMPI PUSH2 0x43EE PUSH2 0x4E06 JUMP JUMPDEST PUSH1 0x40 MSTORE DUP3 DUP2 MSTORE DUP5 DUP4 ADD PUSH1 0x20 ADD DUP7 LT ISZERO PUSH2 0x4405 JUMPI DUP4 DUP5 REVERT JUMPDEST DUP3 PUSH1 0x20 DUP7 ADD PUSH1 0x20 DUP4 ADD CALLDATACOPY SWAP2 DUP3 ADD PUSH1 0x20 ADD SWAP3 SWAP1 SWAP3 MSTORE SWAP4 SWAP3 POP POP POP JUMP JUMPDEST PUSH1 0x0 PUSH1 0x20 DUP3 DUP5 SUB SLT ISZERO PUSH2 0x4431 JUMPI DUP1 DUP2 REVERT JUMPDEST DUP2 CALLDATALOAD PUSH2 0x443C DUP2 PUSH2 0x4E3A JUMP JUMPDEST SWAP4 SWAP3 POP POP POP JUMP JUMPDEST PUSH1 0x0 DUP1 PUSH1 0x40 DUP4 DUP6 SUB SLT ISZERO PUSH2 0x4455 JUMPI DUP1 DUP2 REVERT JUMPDEST DUP3 CALLDATALOAD PUSH2 0x4460 DUP2 PUSH2 0x4E3A JUMP JUMPDEST SWAP5 PUSH1 0x20 SWAP4 SWAP1 SWAP4 ADD CALLDATALOAD SWAP4 POP POP POP JUMP JUMPDEST PUSH1 0x0 DUP1 PUSH1 0x40 DUP4 DUP6 SUB SLT ISZERO PUSH2 0x4455 JUMPI DUP2 DUP3 REVERT JUMPDEST PUSH1 0x0 DUP1 PUSH1 0x0 DUP1 PUSH1 0x0 DUP1 PUSH1 0x0 DUP1 PUSH1 0x0 PUSH2 0x120 DUP11 DUP13 SUB SLT ISZERO PUSH2 0x449E JUMPI DUP5 DUP6 REVERT JUMPDEST DUP10 CALLDATALOAD SWAP9 POP PUSH1 0x20 DUP11 ADD CALLDATALOAD SWAP8 POP PUSH1 0x40 DUP11 ADD CALLDATALOAD SWAP7 POP PUSH1 0x60 DUP11 ADD CALLDATALOAD SWAP6 POP PUSH1 0x80 DUP11 ADD CALLDATALOAD SWAP5 POP PUSH1 0xA0 DUP11 ADD CALLDATALOAD PUSH8 0xFFFFFFFFFFFFFFFF DUP1 DUP3 GT ISZERO PUSH2 0x44D8 JUMPI DUP6 DUP7 REVERT JUMPDEST PUSH2 0x44E4 DUP14 DUP4 DUP15 ADD PUSH2 0x439F JUMP JUMPDEST SWAP6 POP PUSH1 0xC0 DUP13 ADD CALLDATALOAD SWAP2 POP DUP1 DUP3 GT ISZERO PUSH2 0x44F9 JUMPI DUP5 DUP6 REVERT JUMPDEST POP PUSH2 0x4506 DUP13 DUP3 DUP14 ADD PUSH2 0x439F JUMP JUMPDEST SWAP4 POP POP PUSH1 0xE0 DUP11 ADD CALLDATALOAD SWAP2 POP PUSH2 0x100 DUP11 ADD CALLDATALOAD SWAP1 POP SWAP3 SWAP6 SWAP9 POP SWAP3 SWAP6 SWAP9 POP SWAP3 SWAP6 SWAP9 JUMP JUMPDEST PUSH1 0x0 PUSH1 0x20 DUP3 DUP5 SUB SLT ISZERO PUSH2 0x4536 JUMPI DUP1 DUP2 REVERT JUMPDEST POP CALLDATALOAD SWAP2 SWAP1 POP JUMP JUMPDEST PUSH1 0x0 DUP1 PUSH1 0x0 PUSH1 0x60 DUP5 DUP7 SUB SLT ISZERO PUSH2 0x4551 JUMPI DUP3 DUP4 REVERT JUMPDEST DUP4 CALLDATALOAD SWAP3 POP PUSH1 0x20 DUP5 ADD CALLDATALOAD PUSH2 0x4563 DUP2 PUSH2 0x4E3A JUMP JUMPDEST SWAP2 POP PUSH2 0x4571 PUSH1 0x40 DUP6 ADD PUSH2 0x438F JUMP JUMPDEST SWAP1 POP SWAP3 POP SWAP3 POP SWAP3 JUMP JUMPDEST PUSH1 0x0 DUP1 PUSH1 0x0 DUP1 PUSH1 0x0 DUP1 PUSH1 0x0 DUP1 PUSH1 0x0 PUSH2 0x120 DUP11 DUP13 SUB SLT ISZERO PUSH2 0x4598 JUMPI DUP5 DUP6 REVERT JUMPDEST DUP10 CALLDATALOAD SWAP9 POP PUSH2 0x45A8 PUSH1 0x20 DUP12 ADD PUSH2 0x438F JUMP JUMPDEST SWAP8 POP PUSH2 0x45B6 PUSH1 0x40 DUP12 ADD PUSH2 0x438F JUMP JUMPDEST SWAP7 POP PUSH2 0x45C4 PUSH1 0x60 DUP12 ADD PUSH2 0x438F JUMP JUMPDEST SWAP6 POP PUSH2 0x45D2 PUSH1 0x80 DUP12 ADD PUSH2 0x438F JUMP JUMPDEST SWAP5 POP PUSH2 0x45E0 PUSH1 0xA0 DUP12 ADD PUSH2 0x438F JUMP JUMPDEST SWAP4 POP PUSH1 0xC0 DUP11 ADD CALLDATALOAD SWAP3 POP PUSH1 0xE0 DUP11 ADD CALLDATALOAD PUSH8 0xFFFFFFFFFFFFFFFF DUP1 DUP3 GT ISZERO PUSH2 0x4603 JUMPI DUP4 DUP5 REVERT JUMPDEST PUSH2 0x460F DUP14 DUP4 DUP15 ADD PUSH2 0x439F JUMP JUMPDEST SWAP4 POP PUSH2 0x100 DUP13 ADD CALLDATALOAD SWAP2 POP DUP1 DUP3 GT ISZERO PUSH2 0x4625 JUMPI DUP3 DUP4 REVERT JUMPDEST POP PUSH2 0x4632 DUP13 DUP3 DUP14 ADD PUSH2 0x439F JUMP JUMPDEST SWAP2 POP POP SWAP3 SWAP6 SWAP9 POP SWAP3 SWAP6 SWAP9 POP SWAP3 SWAP6 SWAP9 JUMP JUMPDEST PUSH1 0x0 DUP1 PUSH1 0x0 PUSH1 0x60 DUP5 DUP7 SUB SLT ISZERO PUSH2 0x4656 JUMPI DUP3 DUP4 REVERT JUMPDEST DUP4 CALLDATALOAD SWAP3 POP PUSH1 0x20 DUP5 ADD CALLDATALOAD PUSH8 0xFFFFFFFFFFFFFFFF DUP2 GT ISZERO PUSH2 0x4673 JUMPI DUP3 DUP4 REVERT JUMPDEST PUSH2 0x467F DUP7 DUP3 DUP8 ADD PUSH2 0x439F JUMP JUMPDEST SWAP3 POP POP PUSH1 0x40 DUP5 ADD CALLDATALOAD PUSH2 0x4690 DUP2 PUSH2 0x4E3A JUMP JUMPDEST DUP1 SWAP2 POP POP SWAP3 POP SWAP3 POP SWAP3 JUMP JUMPDEST PUSH1 0x0 DUP1 PUSH1 0x0 DUP1 PUSH1 0x0 DUP1 PUSH1 0x0 DUP1 PUSH2 0x100 DUP10 DUP12 SUB SLT ISZERO PUSH2 0x46B7 JUMPI DUP4 DUP5 REVERT JUMPDEST DUP9 CALLDATALOAD SWAP8 POP PUSH1 0x20 DUP10 ADD CALLDATALOAD PUSH8 0xFFFFFFFFFFFFFFFF DUP1 DUP3 GT ISZERO PUSH2 0x46D5 JUMPI DUP6 DUP7 REVERT JUMPDEST PUSH2 0x46E1 DUP13 DUP4 DUP14 ADD PUSH2 0x439F JUMP JUMPDEST SWAP9 POP PUSH1 0x40 DUP12 ADD CALLDATALOAD SWAP8 POP PUSH1 0x60 DUP12 ADD CALLDATALOAD SWAP7 POP PUSH1 0x80 DUP12 ADD CALLDATALOAD SWAP2 POP DUP1 DUP3 GT ISZERO PUSH2 0x4704 JUMPI DUP6 DUP7 REVERT JUMPDEST PUSH2 0x4710 DUP13 DUP4 DUP14 ADD PUSH2 0x439F JUMP JUMPDEST SWAP6 POP PUSH1 0xA0 DUP12 ADD CALLDATALOAD SWAP5 POP PUSH1 0xC0 DUP12 ADD CALLDATALOAD SWAP2 POP DUP1 DUP3 GT ISZERO PUSH2 0x472C JUMPI DUP4 DUP5 REVERT JUMPDEST PUSH2 0x4738 DUP13 DUP4 DUP14 ADD PUSH2 0x439F JUMP JUMPDEST SWAP4 POP PUSH1 0xE0 DUP12 ADD CALLDATALOAD SWAP2 POP DUP1 DUP3 GT ISZERO PUSH2 0x474D JUMPI DUP3 DUP4 REVERT JUMPDEST POP PUSH2 0x475A DUP12 DUP3 DUP13 ADD PUSH2 0x439F JUMP JUMPDEST SWAP2 POP POP SWAP3 SWAP6 SWAP9 POP SWAP3 SWAP6 SWAP9 SWAP1 SWAP4 SWAP7 POP JUMP JUMPDEST PUSH1 0x0 DUP1 PUSH1 0x40 DUP4 DUP6 SUB SLT ISZERO PUSH2 0x477C JUMPI DUP2 DUP3 REVERT JUMPDEST POP POP DUP1 CALLDATALOAD SWAP3 PUSH1 0x20 SWAP1 SWAP2 ADD CALLDATALOAD SWAP2 POP JUMP JUMPDEST PUSH1 0x0 DUP1 PUSH1 0x0 PUSH1 0x60 DUP5 DUP7 SUB SLT ISZERO PUSH2 0x479F JUMPI DUP1 DUP2 REVERT JUMPDEST POP POP DUP2 CALLDATALOAD SWAP4 PUSH1 0x20 DUP4 ADD CALLDATALOAD SWAP4 POP PUSH1 0x40 SWAP1 SWAP3 ADD CALLDATALOAD SWAP2 SWAP1 POP JUMP JUMPDEST PUSH1 0x1 PUSH1 0x1 PUSH1 0xA0 SHL SUB AND SWAP1 MSTORE JUMP JUMPDEST ISZERO ISZERO SWAP1 MSTORE JUMP JUMPDEST PUSH1 0x0 DUP2 MLOAD DUP1 DUP5 MSTORE DUP2 JUMPDEST DUP2 DUP2 LT ISZERO PUSH2 0x47EE JUMPI PUSH1 0x20 DUP2 DUP6 ADD DUP2 ADD MLOAD DUP7 DUP4 ADD DUP3 ADD MSTORE ADD PUSH2 0x47D2 JUMP JUMPDEST DUP2 DUP2 GT ISZERO PUSH2 0x47FF JUMPI DUP3 PUSH1 0x20 DUP4 DUP8 ADD ADD MSTORE JUMPDEST POP PUSH1 0x1F ADD PUSH1 0x1F NOT AND SWAP3 SWAP1 SWAP3 ADD PUSH1 0x20 ADD SWAP3 SWAP2 POP POP JUMP JUMPDEST SWAP3 DUP4 MSTORE PUSH1 0x20 DUP4 ADD SWAP2 SWAP1 SWAP2 MSTORE PUSH1 0x40 DUP3 ADD MSTORE PUSH1 0x60 ADD SWAP1 JUMP JUMPDEST PUSH1 0x0 PUSH1 0x1 DUP1 PUSH1 0xA0 SHL SUB DUP16 AND DUP3 MSTORE DUP14 PUSH1 0x20 DUP4 ADD MSTORE DUP13 PUSH1 0x40 DUP4 ADD MSTORE DUP12 PUSH1 0x60 DUP4 ADD MSTORE DUP11 PUSH1 0x80 DUP4 ADD MSTORE DUP10 PUSH1 0xA0 DUP4 ADD MSTORE PUSH2 0x1A0 PUSH1 0xC0 DUP4 ADD MSTORE PUSH2 0x486B PUSH2 0x1A0 DUP4 ADD DUP11 PUSH2 0x47C9 JUMP JUMPDEST DUP3 DUP2 SUB PUSH1 0xE0 DUP5 ADD MSTORE PUSH2 0x487D DUP2 DUP11 PUSH2 0x47C9 JUMP JUMPDEST SWAP2 POP POP DUP7 PUSH2 0x100 DUP4 ADD MSTORE DUP6 PUSH2 0x120 DUP4 ADD MSTORE DUP5 ISZERO ISZERO PUSH2 0x140 DUP4 ADD MSTORE PUSH2 0x48A5 PUSH2 0x160 DUP4 ADD DUP6 PUSH2 0x47C3 JUMP JUMPDEST DUP3 PUSH2 0x180 DUP4 ADD MSTORE SWAP15 SWAP14 POP POP POP POP POP POP POP POP POP POP POP POP POP POP JUMP JUMPDEST PUSH1 0x1 PUSH1 0x1 PUSH1 0xA0 SHL SUB DUP5 AND DUP2 MSTORE PUSH1 0x20 DUP2 ADD DUP4 SWAP1 MSTORE PUSH1 0x60 DUP2 ADD PUSH2 0x48DE DUP4 PUSH2 0x4E1C JUMP JUMPDEST DUP3 PUSH1 0x40 DUP4 ADD MSTORE SWAP5 SWAP4 POP POP POP POP JUMP JUMPDEST PUSH1 0x1 PUSH1 0x1 PUSH1 0xA0 SHL SUB DUP7 AND DUP2 MSTORE PUSH1 0x20 DUP2 ADD DUP6 SWAP1 MSTORE PUSH1 0x40 DUP2 ADD DUP5 SWAP1 MSTORE PUSH1 0xA0 DUP2 ADD PUSH2 0x4913 DUP5 PUSH2 0x4E1C JUMP JUMPDEST DUP4 PUSH1 0x60 DUP4 ADD MSTORE DUP3 ISZERO ISZERO PUSH1 0x80 DUP4 ADD MSTORE SWAP7 SWAP6 POP POP POP POP POP POP JUMP JUMPDEST PUSH1 0x20 DUP1 DUP3 MSTORE DUP3 MLOAD DUP3 DUP3 ADD DUP2 SWAP1 MSTORE PUSH1 0x0 SWAP2 SWAP1 DUP5 DUP3 ADD SWAP1 PUSH1 0x40 DUP6 ADD SWAP1 DUP5 JUMPDEST DUP2 DUP2 LT ISZERO PUSH2 0x496C JUMPI DUP4 MLOAD PUSH1 0x1 PUSH1 0x1 PUSH1 0xA0 SHL SUB AND DUP4 MSTORE SWAP3 DUP5 ADD SWAP3 SWAP2 DUP5 ADD SWAP2 PUSH1 0x1 ADD PUSH2 0x4947 JUMP JUMPDEST POP SWAP1 SWAP7 SWAP6 POP POP POP POP POP POP JUMP JUMPDEST PUSH1 0x20 DUP1 DUP3 MSTORE DUP3 MLOAD DUP3 DUP3 ADD DUP2 SWAP1 MSTORE PUSH1 0x0 SWAP2 SWAP1 PUSH1 0x40 SWAP1 DUP2 DUP6 ADD SWAP1 DUP7 DUP5 ADD DUP6 JUMPDEST DUP3 DUP2 LT ISZERO PUSH2 0x49F6 JUMPI DUP2 MLOAD DUP1 MLOAD DUP6 MSTORE DUP7 DUP2 ADD MLOAD DUP8 DUP7 ADD MSTORE DUP6 DUP2 ADD MLOAD DUP7 DUP7 ADD MSTORE PUSH1 0x60 DUP1 DUP3 ADD MLOAD SWAP1 DUP7 ADD MSTORE PUSH1 0x80 DUP1 DUP3 ADD MLOAD PUSH1 0x1 PUSH1 0x1 PUSH1 0xA0 SHL SUB AND SWAP1 DUP7 ADD MSTORE PUSH1 0xA0 DUP1 DUP3 ADD MLOAD SWAP1 DUP7 ADD MSTORE PUSH1 0xC0 SWAP1 DUP2 ADD MLOAD SWAP1 DUP6 ADD MSTORE PUSH1 0xE0 SWAP1 SWAP4 ADD SWAP3 SWAP1 DUP6 ADD SWAP1 PUSH1 0x1 ADD PUSH2 0x4995 JUMP JUMPDEST POP SWAP2 SWAP8 SWAP7 POP POP POP POP POP POP POP JUMP JUMPDEST PUSH1 0x20 DUP1 DUP3 MSTORE DUP3 MLOAD DUP3 DUP3 ADD DUP2 SWAP1 MSTORE PUSH1 0x0 SWAP2 SWAP1 DUP5 DUP3 ADD SWAP1 PUSH1 0x40 DUP6 ADD SWAP1 DUP5 JUMPDEST DUP2 DUP2 LT ISZERO PUSH2 0x496C JUMPI DUP4 MLOAD DUP4 MSTORE SWAP3 DUP5 ADD SWAP3 SWAP2 DUP5 ADD SWAP2 PUSH1 0x1 ADD PUSH2 0x4A1F JUMP JUMPDEST SWAP1 ISZERO ISZERO DUP2 MSTORE PUSH1 0x20 ADD SWAP1 JUMP JUMPDEST PUSH1 0x20 DUP1 DUP3 MSTORE PUSH1 0x13 SWAP1 DUP3 ADD MSTORE PUSH19 0x105B1B1C995859195E481C9959DA5CDD195C99 PUSH1 0x6A SHL PUSH1 0x40 DUP3 ADD MSTORE PUSH1 0x60 ADD SWAP1 JUMP JUMPDEST PUSH1 0x20 DUP1 DUP3 MSTORE PUSH1 0xE SWAP1 DUP3 ADD MSTORE PUSH14 0x6475706C696361746520636E6963 PUSH1 0x90 SHL PUSH1 0x40 DUP3 ADD MSTORE PUSH1 0x60 ADD SWAP1 JUMP JUMPDEST PUSH1 0x20 DUP1 DUP3 MSTORE PUSH1 0x54 SWAP1 DUP3 ADD MSTORE PUSH32 0x52657175657374206D757374206E6F7420626520696E20277061796D656E7464 PUSH1 0x40 DUP3 ADD MSTORE PUSH32 0x6F6E65206F7220636F6D706C65746564272073746174757320746F2062652061 PUSH1 0x60 DUP3 ADD MSTORE PUSH20 0x31B1B2B83A32B21037B9103932B532B1BA32B217 PUSH1 0x61 SHL PUSH1 0x80 DUP3 ADD MSTORE PUSH1 0xA0 ADD SWAP1 JUMP JUMPDEST PUSH1 0x20 DUP1 DUP3 MSTORE PUSH1 0x2F SWAP1 DUP3 ADD MSTORE PUSH32 0x4F6E6C79207468652073656C6C65722063616E20616363657074206F72207265 PUSH1 0x40 DUP3 ADD MSTORE PUSH15 0x3532B1BA1030903932B8BAB2B9BA17 PUSH1 0x89 SHL PUSH1 0x60 DUP3 ADD MSTORE PUSH1 0x80 ADD SWAP1 JUMP JUMPDEST PUSH1 0x20 DUP1 DUP3 MSTORE PUSH1 0x1A SWAP1 DUP3 ADD MSTORE PUSH32 0x7061796D656E742073686F756C64206E6F7420626520646F6E65000000000000 PUSH1 0x40 DUP3 ADD MSTORE PUSH1 0x60 ADD SWAP1 JUMP JUMPDEST SWAP1 DUP2 MSTORE PUSH1 0x20 ADD SWAP1 JUMP JUMPDEST DUP8 DUP2 MSTORE PUSH1 0x1 PUSH1 0x1 PUSH1 0xA0 SHL SUB DUP8 DUP2 AND PUSH1 0x20 DUP4 ADD MSTORE DUP7 AND PUSH1 0x40 DUP3 ADD MSTORE PUSH1 0x60 DUP2 ADD DUP6 SWAP1 MSTORE PUSH1 0xE0 DUP2 ADD PUSH2 0x4BD2 DUP6 PUSH2 0x4E1C JUMP JUMPDEST DUP5 PUSH1 0x80 DUP4 ADD MSTORE DUP4 PUSH1 0xA0 DUP4 ADD MSTORE DUP3 ISZERO ISZERO PUSH1 0xC0 DUP4 ADD MSTORE SWAP9 SWAP8 POP POP POP POP POP POP POP POP JUMP JUMPDEST SWAP7 DUP8 MSTORE PUSH1 0x1 PUSH1 0x1 PUSH1 0xA0 SHL SUB SWAP6 DUP7 AND PUSH1 0x20 DUP9 ADD MSTORE SWAP4 DUP6 AND PUSH1 0x40 DUP8 ADD MSTORE SWAP2 DUP5 AND PUSH1 0x60 DUP7 ADD MSTORE SWAP1 SWAP3 AND PUSH1 0x80 DUP5 ADD MSTORE PUSH1 0xA0 DUP4 ADD SWAP2 SWAP1 SWAP2 MSTORE PUSH1 0xC0 DUP3 ADD MSTORE PUSH1 0xE0 ADD SWAP1 JUMP JUMPDEST SWAP7 DUP8 MSTORE PUSH1 0x1 PUSH1 0x1 PUSH1 0xA0 SHL SUB SWAP6 DUP7 AND PUSH1 0x20 DUP9 ADD MSTORE PUSH1 0x40 DUP8 ADD SWAP5 SWAP1 SWAP5 MSTORE SWAP2 SWAP1 SWAP4 AND PUSH1 0x60 DUP6 ADD MSTORE PUSH1 0x80 DUP5 ADD SWAP3 SWAP1 SWAP3 MSTORE PUSH1 0xA0 DUP4 ADD SWAP2 SWAP1 SWAP2 MSTORE PUSH1 0xC0 DUP3 ADD MSTORE PUSH1 0xE0 ADD SWAP1 JUMP JUMPDEST SWAP7 DUP8 MSTORE PUSH1 0x20 DUP8 ADD SWAP6 SWAP1 SWAP6 MSTORE PUSH1 0x40 DUP7 ADD SWAP4 SWAP1 SWAP4 MSTORE PUSH1 0x60 DUP6 ADD SWAP2 SWAP1 SWAP2 MSTORE PUSH1 0x1 PUSH1 0x1 PUSH1 0xA0 SHL SUB AND PUSH1 0x80 DUP5 ADD MSTORE PUSH1 0xA0 DUP4 ADD MSTORE PUSH1 0xC0 DUP3 ADD MSTORE PUSH1 0xE0 ADD SWAP1 JUMP JUMPDEST PUSH1 0x0 DUP16 DUP3 MSTORE DUP15 PUSH1 0x20 DUP4 ADD MSTORE DUP14 PUSH1 0x40 DUP4 ADD MSTORE DUP13 PUSH1 0x60 DUP4 ADD MSTORE PUSH2 0x1C0 PUSH1 0x80 DUP4 ADD MSTORE PUSH2 0x4CD5 PUSH2 0x1C0 DUP4 ADD DUP14 PUSH2 0x47C9 JUMP JUMPDEST DUP12 PUSH1 0xA0 DUP5 ADD MSTORE DUP3 DUP2 SUB PUSH1 0xC0 DUP5 ADD MSTORE PUSH2 0x4CED DUP2 DUP13 PUSH2 0x47C9 JUMP JUMPDEST SWAP1 POP DUP3 DUP2 SUB PUSH1 0xE0 DUP5 ADD MSTORE PUSH2 0x4D01 DUP2 DUP12 PUSH2 0x47C9 JUMP JUMPDEST SWAP1 POP DUP3 DUP2 SUB PUSH2 0x100 DUP5 ADD MSTORE PUSH2 0x4D16 DUP2 DUP11 PUSH2 0x47C9 JUMP JUMPDEST SWAP2 POP POP PUSH2 0x4D27 PUSH2 0x120 DUP4 ADD DUP9 PUSH2 0x47C3 JUMP JUMPDEST PUSH2 0x4D35 PUSH2 0x140 DUP4 ADD DUP8 PUSH2 0x47C3 JUMP JUMPDEST PUSH2 0x4D43 PUSH2 0x160 DUP4 ADD DUP7 PUSH2 0x47B6 JUMP JUMPDEST PUSH2 0x4D51 PUSH2 0x180 DUP4 ADD DUP6 PUSH2 0x47B6 JUMP JUMPDEST DUP3 PUSH2 0x1A0 DUP4 ADD MSTORE SWAP16 SWAP15 POP POP POP POP POP POP POP POP POP POP POP POP POP POP POP JUMP JUMPDEST PUSH1 0x0 DUP3 NOT DUP3 GT ISZERO PUSH2 0x4D7E JUMPI PUSH2 0x4D7E PUSH2 0x4DF0 JUMP JUMPDEST POP ADD SWAP1 JUMP JUMPDEST PUSH1 0x0 DUP3 DUP3 LT ISZERO PUSH2 0x4D95 JUMPI PUSH2 0x4D95 PUSH2 0x4DF0 JUMP JUMPDEST POP SUB SWAP1 JUMP JUMPDEST PUSH1 0x2 DUP2 DIV PUSH1 0x1 DUP3 AND DUP1 PUSH2 0x4DAE JUMPI PUSH1 0x7F DUP3 AND SWAP2 POP JUMPDEST PUSH1 0x20 DUP3 LT DUP2 EQ ISZERO PUSH2 0x4DCF JUMPI PUSH4 0x4E487B71 PUSH1 0xE0 SHL PUSH1 0x0 MSTORE PUSH1 0x22 PUSH1 0x4 MSTORE PUSH1 0x24 PUSH1 0x0 REVERT JUMPDEST POP SWAP2 SWAP1 POP JUMP JUMPDEST PUSH1 0x0 PUSH1 0x0 NOT DUP3 EQ ISZERO PUSH2 0x4DE9 JUMPI PUSH2 0x4DE9 PUSH2 0x4DF0 JUMP JUMPDEST POP PUSH1 0x1 ADD SWAP1 JUMP JUMPDEST PUSH4 0x4E487B71 PUSH1 0xE0 SHL PUSH1 0x0 MSTORE PUSH1 0x11 PUSH1 0x4 MSTORE PUSH1 0x24 PUSH1 0x0 REVERT JUMPDEST PUSH4 0x4E487B71 PUSH1 0xE0 SHL PUSH1 0x0 MSTORE PUSH1 0x41 PUSH1 0x4 MSTORE PUSH1 0x24 PUSH1 0x0 REVERT JUMPDEST PUSH1 0x5 DUP2 LT PUSH2 0x9DC JUMPI PUSH4 0x4E487B71 PUSH1 0xE0 SHL PUSH1 0x0 MSTORE PUSH1 0x21 PUSH1 0x4 MSTORE PUSH1 0x24 PUSH1 0x0 REVERT JUMPDEST PUSH1 0x1 PUSH1 0x1 PUSH1 0xA0 SHL SUB DUP2 AND DUP2 EQ PUSH2 0x9DC JUMPI PUSH1 0x0 DUP1 REVERT INVALID 0xAD PUSH8 0xD757C34507F157CA 0xCF LOG2 0xE3 ISZERO RETURNDATACOPY SWAP16 0x26 EXP 0x22 DIFFICULTY RETURN DIV 0x28 DUP3 SHL 0xE7 0xBE PUSH5 0x587AC55FA2 PUSH5 0x6970667358 0x22 SLT KECCAK256 0xD6 0xE0 PUSH16 0x76EC232BCBB4BB799E2A81369BB12207 PUSH32 0x4D4B744F07FFE4CEC6FE8C9064736F6C63430008000033000000000000000000 "},"methodIdentifiers":{"AndandRemoveProxyOwner(uint256,address,bool)":"836b3979","CheckDuplicatePid(uint256)":"12ca3f1f","InspectorMapping(address)":"64efa002","LandRequestMapping(uint256)":"b10a30ed","RegisteredInspectorMapping(address)":"dd056ebc","RegisteredUserMapping(address)":"32f2bb14","ReturnAllLandIncpectorList()":"d251839b","ReturnAllLandList()":"23393d77","ReturnAllUserList()":"553a998d","UserMapping(address)":"d61ff68c","acceptRequest(uint256)":"4ba1f098","addLand(uint256,string,bytes32,uint256,string,uint256,string,string)":"314967ac","addLandInspector(address,bytes32)":"6910c46d","changeContractOwner(address)":"3ead67b5","changeDetails(uint256,bool,bool,bool,bool,bool,uint256,string,string)":"935400ee","documentId()":"78f7c83f","getLandHistory(uint256)":"4f389721","inspectorsCount()":"941e2426","isContractOwner(address)":"de117688","isLandInspector(address)":"e165af87","isUserVerified(address)":"ace417e0","landHis(uint256)":"145678de","landPriceInfo(uint256)":"ab9f38ea","landinfo(uint256)":"c6acafcd","lands(uint256)":"e261f1e5","landsCount()":"1c9afd0f","makePayment(address,uint256)":"f98cf07c","myAllLands(address)":"d196ebf2","myReceivedLandRequests()":"499701b2","mySentLandRequests()":"9c32e3b4","registerUser(bytes32,bytes32,bytes32,bytes32,uint256,string,string,bytes32,bytes32)":"e749752c","rejectRequest(uint256)":"2d7788db","removeLandInspector(address)":"7517e00f","requestCount()":"5badbe4c","requestforBuyWithBid(uint256,uint256)":"9dec448e","returnPaymentDoneList()":"a846fc8f","subplot(uint256,uint256,uint256)":"58051d93","transferDeceasedOwnership(address)":"a84e3bdd","transferInfo(uint256)":"cc47e9bd","transferOwnership(uint256,string,address)":"43e8349a","userCount()":"07973ccf","userinfo(address)":"9446ec9f","verifyLandAccepted(uint256)":"a6951e1f","verifyLandRejected(uint256)":"f99a1176","verifyUserAccepted(address)":"54f1ebfb","verifyUserRejected(address)":"0052f458"}}}}}