{
  "_format": "hh-sol-artifact-1",
  "contractName": "landregistry",
  "sourceName": "contracts/landregistry.sol",
  "abi": [
    {
      "inputs": [],
      "stateMutability": "nonpayable",
      "type": "constructor"
    },
    {
      "inputs": [
        {
          "internalType": "uint256",
          "name": "landId",
          "type": "uint256"
        },
        {
          "internalType": "address payable",
          "name": "proxyOwner",
          "type": "address"
        },
        {
          "internalType": "bool",
          "name": "_addRemove",
          "type": "bool"
        }
      ],
      "name": "AndandRemoveProxyOwner",
      "outputs": [],
      "stateMutability": "nonpayable",
      "type": "function"
    },
    {
      "inputs": [
        {
          "internalType": "uint256",
          "name": "_propertyPID",
          "type": "uint256"
        }
      ],
      "name": "CheckDuplicatePid",
      "outputs": [
        {
          "internalType": "bool",
          "name": "",
          "type": "bool"
        }
      ],
      "stateMutability": "view",
      "type": "function"
    },
    {
      "inputs": [
        {
          "internalType": "address",
          "name": "",
          "type": "address"
        }
      ],
      "name": "InspectorMapping",
      "outputs": [
        {
          "internalType": "uint256",
          "name": "id",
          "type": "uint256"
        },
        {
          "internalType": "address",
          "name": "addr",
          "type": "address"
        },
        {
          "internalType": "bytes32",
          "name": "name",
          "type": "bytes32"
        },
        {
          "internalType": "bytes32",
          "name": "dob",
          "type": "bytes32"
        },
        {
          "internalType": "uint256",
          "name": "cnic",
          "type": "uint256"
        },
        {
          "internalType": "bytes32",
          "name": "city",
          "type": "bytes32"
        },
        {
          "internalType": "bytes32",
          "name": "district",
          "type": "bytes32"
        },
        {
          "internalType": "bytes32",
          "name": "designation",
          "type": "bytes32"
        },
        {
          "internalType": "bytes32",
          "name": "email",
          "type": "bytes32"
        },
        {
          "internalType": "uint256",
          "name": "phone",
          "type": "uint256"
        }
      ],
      "stateMutability": "view",
      "type": "function"
    },
    {
      "inputs": [
        {
          "internalType": "uint256",
          "name": "",
          "type": "uint256"
        }
      ],
      "name": "LandRequestMapping",
      "outputs": [
        {
          "internalType": "uint256",
          "name": "reqId",
          "type": "uint256"
        },
        {
          "internalType": "address payable",
          "name": "sellerId",
          "type": "address"
        },
        {
          "internalType": "address payable",
          "name": "buyerId",
          "type": "address"
        },
        {
          "internalType": "uint256",
          "name": "landId",
          "type": "uint256"
        },
        {
          "internalType": "enum landregistry.reqStatus",
          "name": "requestStatus",
          "type": "uint8"
        },
        {
          "internalType": "uint256",
          "name": "bidPrice",
          "type": "uint256"
        },
        {
          "internalType": "bool",
          "name": "isPaymentDone",
          "type": "bool"
        }
      ],
      "stateMutability": "view",
      "type": "function"
    },
    {
      "inputs": [
        {
          "internalType": "address",
          "name": "",
          "type": "address"
        }
      ],
      "name": "RegisteredInspectorMapping",
      "outputs": [
        {
          "internalType": "bool",
          "name": "",
          "type": "bool"
        }
      ],
      "stateMutability": "view",
      "type": "function"
    },
    {
      "inputs": [
        {
          "internalType": "address",
          "name": "",
          "type": "address"
        }
      ],
      "name": "RegisteredUserMapping",
      "outputs": [
        {
          "internalType": "bool",
          "name": "",
          "type": "bool"
        }
      ],
      "stateMutability": "view",
      "type": "function"
    },
    {
      "inputs": [],
      "name": "ReturnAllLandIncpectorList",
      "outputs": [
        {
          "internalType": "address[]",
          "name": "",
          "type": "address[]"
        }
      ],
      "stateMutability": "view",
      "type": "function"
    },
    {
      "inputs": [],
      "name": "ReturnAllLandList",
      "outputs": [
        {
          "internalType": "uint256[]",
          "name": "",
          "type": "uint256[]"
        }
      ],
      "stateMutability": "view",
      "type": "function"
    },
    {
      "inputs": [],
      "name": "ReturnAllUserList",
      "outputs": [
        {
          "internalType": "address[]",
          "name": "",
          "type": "address[]"
        }
      ],
      "stateMutability": "view",
      "type": "function"
    },
    {
      "inputs": [
        {
          "internalType": "address",
          "name": "",
          "type": "address"
        }
      ],
      "name": "UserMapping",
      "outputs": [
        {
          "internalType": "address",
          "name": "id",
          "type": "address"
        },
        {
          "internalType": "bytes32",
          "name": "name",
          "type": "bytes32"
        },
        {
          "internalType": "bytes32",
          "name": "dob",
          "type": "bytes32"
        },
        {
          "internalType": "bytes32",
          "name": "city",
          "type": "bytes32"
        },
        {
          "internalType": "bytes32",
          "name": "district",
          "type": "bytes32"
        },
        {
          "internalType": "uint256",
          "name": "cnic",
          "type": "uint256"
        },
        {
          "internalType": "string",
          "name": "document",
          "type": "string"
        },
        {
          "internalType": "string",
          "name": "profilepic",
          "type": "string"
        },
        {
          "internalType": "bytes32",
          "name": "email",
          "type": "bytes32"
        },
        {
          "internalType": "bytes32",
          "name": "phone",
          "type": "bytes32"
        },
        {
          "internalType": "bool",
          "name": "isUserVerified",
          "type": "bool"
        },
        {
          "internalType": "bool",
          "name": "death",
          "type": "bool"
        },
        {
          "internalType": "uint256",
          "name": "registerdate",
          "type": "uint256"
        }
      ],
      "stateMutability": "view",
      "type": "function"
    },
    {
      "inputs": [
        {
          "internalType": "uint256",
          "name": "_requestId",
          "type": "uint256"
        },
        {
          "internalType": "bool",
          "name": "acceptreject",
          "type": "bool"
        }
      ],
      "name": "acceptRequest",
      "outputs": [],
      "stateMutability": "nonpayable",
      "type": "function"
    },
    {
      "inputs": [
        {
          "internalType": "uint256",
          "name": "_area",
          "type": "uint256"
        },
        {
          "internalType": "string",
          "name": "_landAddress",
          "type": "string"
        },
        {
          "internalType": "bytes32",
          "name": "_district",
          "type": "bytes32"
        },
        {
          "internalType": "uint256",
          "name": "_landPrice",
          "type": "uint256"
        },
        {
          "internalType": "string",
          "name": "_allLatiLongi",
          "type": "string"
        },
        {
          "internalType": "uint256",
          "name": "_propertyPID",
          "type": "uint256"
        },
        {
          "internalType": "string",
          "name": "_document",
          "type": "string"
        },
        {
          "internalType": "string",
          "name": "_landpic",
          "type": "string"
        }
      ],
      "name": "addLand",
      "outputs": [],
      "stateMutability": "nonpayable",
      "type": "function"
    },
    {
      "inputs": [
        {
          "internalType": "address",
          "name": "_addr",
          "type": "address"
        },
        {
          "internalType": "bytes32",
          "name": "_name",
          "type": "bytes32"
        },
        {
          "internalType": "bytes32",
          "name": "_dob",
          "type": "bytes32"
        },
        {
          "internalType": "uint256",
          "name": "_cinc",
          "type": "uint256"
        },
        {
          "internalType": "bytes32",
          "name": "_designation",
          "type": "bytes32"
        },
        {
          "internalType": "bytes32",
          "name": "_city",
          "type": "bytes32"
        },
        {
          "internalType": "bytes32",
          "name": "_district",
          "type": "bytes32"
        },
        {
          "internalType": "bytes32",
          "name": "_email",
          "type": "bytes32"
        },
        {
          "internalType": "uint256",
          "name": "_phone",
          "type": "uint256"
        }
      ],
      "name": "addLandInspector",
      "outputs": [
        {
          "internalType": "bool",
          "name": "",
          "type": "bool"
        }
      ],
      "stateMutability": "nonpayable",
      "type": "function"
    },
    {
      "inputs": [
        {
          "internalType": "address",
          "name": "_addr",
          "type": "address"
        }
      ],
      "name": "changeContractOwner",
      "outputs": [],
      "stateMutability": "nonpayable",
      "type": "function"
    },
    {
      "inputs": [
        {
          "internalType": "uint256",
          "name": "_landId",
          "type": "uint256"
        },
        {
          "internalType": "bool",
          "name": "s",
          "type": "bool"
        },
        {
          "internalType": "bool",
          "name": "p",
          "type": "bool"
        },
        {
          "internalType": "bool",
          "name": "i",
          "type": "bool"
        },
        {
          "internalType": "bool",
          "name": "c",
          "type": "bool"
        },
        {
          "internalType": "bool",
          "name": "sell",
          "type": "bool"
        },
        {
          "internalType": "uint256",
          "name": "_newPrice",
          "type": "uint256"
        },
        {
          "internalType": "string",
          "name": "_newPic",
          "type": "string"
        },
        {
          "internalType": "string",
          "name": "_allLatiLongi",
          "type": "string"
        }
      ],
      "name": "changeDetails",
      "outputs": [],
      "stateMutability": "nonpayable",
      "type": "function"
    },
    {
      "inputs": [],
      "name": "documentId",
      "outputs": [
        {
          "internalType": "uint256",
          "name": "",
          "type": "uint256"
        }
      ],
      "stateMutability": "view",
      "type": "function"
    },
    {
      "inputs": [
        {
          "internalType": "uint256",
          "name": "id",
          "type": "uint256"
        }
      ],
      "name": "getLandHistory",
      "outputs": [
        {
          "components": [
            {
              "internalType": "uint256",
              "name": "parentId",
              "type": "uint256"
            },
            {
              "internalType": "uint256",
              "name": "childCount",
              "type": "uint256"
            },
            {
              "internalType": "uint256",
              "name": "childId",
              "type": "uint256"
            },
            {
              "internalType": "uint256",
              "name": "area",
              "type": "uint256"
            },
            {
              "internalType": "address",
              "name": "parentAddress",
              "type": "address"
            },
            {
              "internalType": "uint256",
              "name": "parentIdRegisterdDate",
              "type": "uint256"
            },
            {
              "internalType": "uint256",
              "name": "childIdRegisterDate",
              "type": "uint256"
            }
          ],
          "internalType": "struct landregistry.LandHistory[]",
          "name": "",
          "type": "tuple[]"
        }
      ],
      "stateMutability": "view",
      "type": "function"
    },
    {
      "inputs": [],
      "name": "inspectorsCount",
      "outputs": [
        {
          "internalType": "uint256",
          "name": "",
          "type": "uint256"
        }
      ],
      "stateMutability": "view",
      "type": "function"
    },
    {
      "inputs": [
        {
          "internalType": "address",
          "name": "_addr",
          "type": "address"
        }
      ],
      "name": "isContractOwner",
      "outputs": [
        {
          "internalType": "bool",
          "name": "",
          "type": "bool"
        }
      ],
      "stateMutability": "view",
      "type": "function"
    },
    {
      "inputs": [
        {
          "internalType": "address",
          "name": "_id",
          "type": "address"
        }
      ],
      "name": "isLandInspector",
      "outputs": [
        {
          "internalType": "bool",
          "name": "",
          "type": "bool"
        }
      ],
      "stateMutability": "view",
      "type": "function"
    },
    {
      "inputs": [
        {
          "internalType": "address",
          "name": "id",
          "type": "address"
        }
      ],
      "name": "isUserVerified",
      "outputs": [
        {
          "internalType": "bool",
          "name": "",
          "type": "bool"
        }
      ],
      "stateMutability": "view",
      "type": "function"
    },
    {
      "inputs": [
        {
          "internalType": "uint256",
          "name": "",
          "type": "uint256"
        }
      ],
      "name": "landHis",
      "outputs": [
        {
          "internalType": "uint256",
          "name": "parentId",
          "type": "uint256"
        },
        {
          "internalType": "uint256",
          "name": "childCount",
          "type": "uint256"
        },
        {
          "internalType": "uint256",
          "name": "childId",
          "type": "uint256"
        },
        {
          "internalType": "uint256",
          "name": "area",
          "type": "uint256"
        },
        {
          "internalType": "address",
          "name": "parentAddress",
          "type": "address"
        },
        {
          "internalType": "uint256",
          "name": "parentIdRegisterdDate",
          "type": "uint256"
        },
        {
          "internalType": "uint256",
          "name": "childIdRegisterDate",
          "type": "uint256"
        }
      ],
      "stateMutability": "view",
      "type": "function"
    },
    {
      "inputs": [
        {
          "internalType": "uint256",
          "name": "",
          "type": "uint256"
        }
      ],
      "name": "landPriceInfo",
      "outputs": [
        {
          "internalType": "uint256",
          "name": "id",
          "type": "uint256"
        },
        {
          "internalType": "uint256",
          "name": "basePrice",
          "type": "uint256"
        },
        {
          "internalType": "uint256",
          "name": "landPrice",
          "type": "uint256"
        }
      ],
      "stateMutability": "view",
      "type": "function"
    },
    {
      "inputs": [
        {
          "internalType": "uint256",
          "name": "",
          "type": "uint256"
        }
      ],
      "name": "landinfo",
      "outputs": [
        {
          "internalType": "address",
          "name": "verfiedby",
          "type": "address"
        },
        {
          "internalType": "uint256",
          "name": "verfydate",
          "type": "uint256"
        },
        {
          "internalType": "bool",
          "name": "directed",
          "type": "bool"
        },
        {
          "internalType": "uint256",
          "name": "childs",
          "type": "uint256"
        }
      ],
      "stateMutability": "view",
      "type": "function"
    },
    {
      "inputs": [
        {
          "internalType": "uint256",
          "name": "",
          "type": "uint256"
        }
      ],
      "name": "lands",
      "outputs": [
        {
          "internalType": "uint256",
          "name": "id",
          "type": "uint256"
        },
        {
          "internalType": "uint256",
          "name": "propertyPID",
          "type": "uint256"
        },
        {
          "internalType": "uint256",
          "name": "area",
          "type": "uint256"
        },
        {
          "internalType": "uint256",
          "name": "landPrice",
          "type": "uint256"
        },
        {
          "internalType": "string",
          "name": "landAddress",
          "type": "string"
        },
        {
          "internalType": "bytes32",
          "name": "district",
          "type": "bytes32"
        },
        {
          "internalType": "string",
          "name": "allLatitudeLongitude",
          "type": "string"
        },
        {
          "internalType": "string",
          "name": "document",
          "type": "string"
        },
        {
          "internalType": "string",
          "name": "landpic",
          "type": "string"
        },
        {
          "internalType": "bool",
          "name": "isforSell",
          "type": "bool"
        },
        {
          "internalType": "bool",
          "name": "isLandVerified",
          "type": "bool"
        },
        {
          "internalType": "address payable",
          "name": "ownerAddress",
          "type": "address"
        },
        {
          "internalType": "address payable",
          "name": "proxyownerAddress",
          "type": "address"
        },
        {
          "internalType": "uint256",
          "name": "registerdate",
          "type": "uint256"
        }
      ],
      "stateMutability": "view",
      "type": "function"
    },
    {
      "inputs": [],
      "name": "landsCount",
      "outputs": [
        {
          "internalType": "uint256",
          "name": "",
          "type": "uint256"
        }
      ],
      "stateMutability": "view",
      "type": "function"
    },
    {
      "inputs": [
        {
          "internalType": "address payable",
          "name": "_receiver",
          "type": "address"
        },
        {
          "internalType": "uint256",
          "name": "_requestId",
          "type": "uint256"
        }
      ],
      "name": "makePayment",
      "outputs": [],
      "stateMutability": "payable",
      "type": "function"
    },
    {
      "inputs": [
        {
          "internalType": "address",
          "name": "id",
          "type": "address"
        }
      ],
      "name": "myAllLands",
      "outputs": [
        {
          "internalType": "uint256[]",
          "name": "",
          "type": "uint256[]"
        }
      ],
      "stateMutability": "view",
      "type": "function"
    },
    {
      "inputs": [],
      "name": "myReceivedLandRequests",
      "outputs": [
        {
          "internalType": "uint256[]",
          "name": "",
          "type": "uint256[]"
        }
      ],
      "stateMutability": "view",
      "type": "function"
    },
    {
      "inputs": [],
      "name": "mySentLandRequests",
      "outputs": [
        {
          "internalType": "uint256[]",
          "name": "",
          "type": "uint256[]"
        }
      ],
      "stateMutability": "view",
      "type": "function"
    },
    {
      "inputs": [
        {
          "internalType": "bytes32",
          "name": "_name",
          "type": "bytes32"
        },
        {
          "internalType": "bytes32",
          "name": "_dob",
          "type": "bytes32"
        },
        {
          "internalType": "bytes32",
          "name": "_city",
          "type": "bytes32"
        },
        {
          "internalType": "bytes32",
          "name": "_district",
          "type": "bytes32"
        },
        {
          "internalType": "uint256",
          "name": "_cinc",
          "type": "uint256"
        },
        {
          "internalType": "string",
          "name": "_document",
          "type": "string"
        },
        {
          "internalType": "string",
          "name": "_profilepic",
          "type": "string"
        },
        {
          "internalType": "bytes32",
          "name": "_email",
          "type": "bytes32"
        },
        {
          "internalType": "bytes32",
          "name": "_phone",
          "type": "bytes32"
        }
      ],
      "name": "registerUser",
      "outputs": [],
      "stateMutability": "nonpayable",
      "type": "function"
    },
    {
      "inputs": [
        {
          "internalType": "address",
          "name": "_addr",
          "type": "address"
        }
      ],
      "name": "removeLandInspector",
      "outputs": [],
      "stateMutability": "nonpayable",
      "type": "function"
    },
    {
      "inputs": [],
      "name": "requestCount",
      "outputs": [
        {
          "internalType": "uint256",
          "name": "",
          "type": "uint256"
        }
      ],
      "stateMutability": "view",
      "type": "function"
    },
    {
      "inputs": [
        {
          "internalType": "uint256",
          "name": "_landId",
          "type": "uint256"
        },
        {
          "internalType": "uint256",
          "name": "_bidPrice",
          "type": "uint256"
        }
      ],
      "name": "requestforBuyWithBid",
      "outputs": [],
      "stateMutability": "nonpayable",
      "type": "function"
    },
    {
      "inputs": [],
      "name": "returnPaymentDoneList",
      "outputs": [
        {
          "internalType": "uint256[]",
          "name": "",
          "type": "uint256[]"
        }
      ],
      "stateMutability": "view",
      "type": "function"
    },
    {
      "inputs": [
        {
          "internalType": "uint256",
          "name": "id",
          "type": "uint256"
        },
        {
          "internalType": "uint256",
          "name": "newarea",
          "type": "uint256"
        },
        {
          "internalType": "uint256",
          "name": "numplots",
          "type": "uint256"
        }
      ],
      "name": "subplot",
      "outputs": [],
      "stateMutability": "nonpayable",
      "type": "function"
    },
    {
      "inputs": [
        {
          "internalType": "address",
          "name": "deceased",
          "type": "address"
        }
      ],
      "name": "transferDeceasedOwnership",
      "outputs": [],
      "stateMutability": "nonpayable",
      "type": "function"
    },
    {
      "inputs": [
        {
          "internalType": "uint256",
          "name": "",
          "type": "uint256"
        }
      ],
      "name": "transferInfo",
      "outputs": [
        {
          "internalType": "uint256",
          "name": "id",
          "type": "uint256"
        },
        {
          "internalType": "address",
          "name": "seller",
          "type": "address"
        },
        {
          "internalType": "address",
          "name": "buyer",
          "type": "address"
        },
        {
          "internalType": "address",
          "name": "witness",
          "type": "address"
        },
        {
          "internalType": "address",
          "name": "verfiedby",
          "type": "address"
        },
        {
          "internalType": "uint256",
          "name": "landid",
          "type": "uint256"
        },
        {
          "internalType": "uint256",
          "name": "transferdate",
          "type": "uint256"
        }
      ],
      "stateMutability": "view",
      "type": "function"
    },
    {
      "inputs": [
        {
          "internalType": "uint256",
          "name": "_requestId",
          "type": "uint256"
        },
        {
          "internalType": "string",
          "name": "documentUrl",
          "type": "string"
        },
        {
          "internalType": "address",
          "name": "witness",
          "type": "address"
        }
      ],
      "name": "transferOwnership",
      "outputs": [],
      "stateMutability": "nonpayable",
      "type": "function"
    },
    {
      "inputs": [],
      "name": "userCount",
      "outputs": [
        {
          "internalType": "uint256",
          "name": "",
          "type": "uint256"
        }
      ],
      "stateMutability": "view",
      "type": "function"
    },
    {
      "inputs": [
        {
          "internalType": "address",
          "name": "",
          "type": "address"
        }
      ],
      "name": "userinfo",
      "outputs": [
        {
          "internalType": "address",
          "name": "verfiedby",
          "type": "address"
        },
        {
          "internalType": "uint256",
          "name": "verifydate",
          "type": "uint256"
        }
      ],
      "stateMutability": "view",
      "type": "function"
    },
    {
      "inputs": [
        {
          "internalType": "uint256",
          "name": "_id",
          "type": "uint256"
        }
      ],
      "name": "verifyLand",
      "outputs": [],
      "stateMutability": "nonpayable",
      "type": "function"
    },
    {
      "inputs": [
        {
          "internalType": "address",
          "name": "_userId",
          "type": "address"
        }
      ],
      "name": "verifyUser",
      "outputs": [],
      "stateMutability": "nonpayable",
      "type": "function"
    },
    {
      "stateMutability": "payable",
      "type": "receive"
    }
  ],
  "bytecode": "0x608060405234801561001057600080fd5b50600080546001600160a01b03191633179055614804806100326000396000f3fe6080604052600436106102605760003560e01c8063935400ee11610144578063cc47e9bd116100b6578063de1176881161007a578063de11768814610774578063e165af8714610794578063e261f1e5146107b4578063e749752c146107ee578063f98cf07c1461080e578063f9c43bdf1461082157610267565b8063cc47e9bd146106b3578063d196ebf2146106e6578063d251839b14610706578063d61ff68c1461071b578063dd056ebc1461075457610267565b8063a846fc8f11610108578063a846fc8f146105cc578063a84e3bdd146105e1578063ab9f38ea14610601578063ace417e014610630578063b10a30ed14610650578063c6acafcd1461068357610267565b8063935400ee14610534578063941e2426146105545780639446ec9f146105695780639c32e3b4146105975780639dec448e146105ac57610267565b80634d813120116101dd5780635badbe4c116101a15780635badbe4c1461047457806364efa00214610489578063690a3ca9146104bf5780637517e00f146104df57806378f7c83f146104ff578063836b39791461051457610267565b80634d813120146103c55780634f389721146103e557806354d1b98f14610412578063553a998d1461043257806358051d931461045457610267565b8063314967ac11610224578063314967ac1461032e57806332f2bb14146103505780633ead67b51461037057806343e8349a14610390578063499701b2146103b057610267565b806307973ccf1461026c57806312ca3f1f14610297578063145678de146102c45780631c9afd0f146102f757806323393d771461030c57610267565b3661026757005b600080fd5b34801561027857600080fd5b50610281610841565b60405161028e91906144f4565b60405180910390f35b3480156102a357600080fd5b506102b76102b2366004613ede565b610847565b60405161028e91906143f3565b3480156102d057600080fd5b506102e46102df366004613ede565b610894565b60405161028e97969594939291906145ec565b34801561030357600080fd5b506102816108db565b34801561031857600080fd5b506103216108e1565b60405161028e91906143bb565b34801561033a57600080fd5b5061034e61034936600461407f565b610961565b005b34801561035c57600080fd5b506102b761036b366004613d84565b610d16565b34801561037c57600080fd5b5061034e61038b366004613d84565b610d2b565b34801561039c57600080fd5b5061034e6103ab366004614026565b610d5d565b3480156103bc57600080fd5b5061032161128e565b3480156103d157600080fd5b5061034e6103e0366004613d84565b6112ed565b3480156103f157600080fd5b50610405610400366004613ede565b6113af565b60405161028e9190614330565b34801561041e57600080fd5b506102b761042d366004613dd2565b61146a565b34801561043e57600080fd5b506104476116dd565b60405161028e91906142e3565b34801561046057600080fd5b5061034e61046f36600461416f565b611766565b34801561048057600080fd5b506102816121f7565b34801561049557600080fd5b506104a96104a4366004613d84565b6121fd565b60405161028e9a9998979695949392919061459e565b3480156104cb57600080fd5b5061034e6104da366004613f33565b612259565b3480156104eb57600080fd5b5061034e6104fa366004613d84565b612443565b34801561050b57600080fd5b50610281612655565b34801561052057600080fd5b5061034e61052f366004613ef6565b61265b565b34801561054057600080fd5b5061034e61054f366004613f5e565b61275a565b34801561056057600080fd5b506102816129ae565b34801561057557600080fd5b50610589610584366004613d84565b6129b4565b60405161028e9291906142a2565b3480156105a357600080fd5b506103216129d9565b3480156105b857600080fd5b5061034e6105c736600461414e565b612a38565b3480156105d857600080fd5b50610321612da1565b3480156105ed57600080fd5b5061034e6105fc366004613d84565b612e1f565b34801561060d57600080fd5b5061062161061c366004613ede565b6130d7565b60405161028e939291906141f8565b34801561063c57600080fd5b506102b761064b366004613d84565b6130f8565b34801561065c57600080fd5b5061067061066b366004613ede565b613119565b60405161028e97969594939291906144fd565b34801561068f57600080fd5b506106a361069e366004613ede565b613168565b60405161028e94939291906142bb565b3480156106bf57600080fd5b506106d36106ce366004613ede565b61319f565b60405161028e9796959493929190614560565b3480156106f257600080fd5b50610321610701366004613d84565b6131ec565b34801561071257600080fd5b50610447613258565b34801561072757600080fd5b5061073b610736366004613d84565b6132ce565b60405161028e9d9c9b9a9998979695949392919061420e565b34801561076057600080fd5b506102b761076f366004613d84565b613455565b34801561078057600080fd5b506102b761078f366004613d84565b61346a565b3480156107a057600080fd5b506102b76107af366004613d84565b613491565b3480156107c057600080fd5b506107d46107cf366004613ede565b6134ba565b60405161028e9e9d9c9b9a99989796959493929190614625565b3480156107fa57600080fd5b5061034e610809366004613e39565b613757565b61034e61081c366004613da7565b61395d565b34801561082d57600080fd5b5061034e61083c366004613ede565b613b19565b60025481565b6000805b6003548111610889576000818152600d602052604090206001015483141561087757600191505061088f565b8061088181614752565b91505061084b565b50600090505b919050565b601460205260009081526040902080546001820154600283015460038401546004850154600586015460069096015494959394929391926001600160a01b03909116919087565b60035481565b6001600052601160209081527f17bc176d2408558f6e4111feebc3cab4e16b63e967be91cde721f4c8a488b552805460408051828502810185019091528181526060939092919083018282801561095757602002820191906000526020600020905b815481526020019060010190808311610943575b5050505050905090565b336000908152600660205260409020600a015460ff168015610989575061098783610847565b155b80156109955750600088115b80156109b95750336000908152600660205260409020600a0154610100900460ff16155b1561026757600380549060006109ce83614752565b9091555050604080516101c0810182526003805480835260208084018881528486018e8152606086018c8152608087018f815260a088018f905260c088018d905260e088018b905261010088018a9052600061012089018190526101408901819052336101608a015280546001600160a01b03166101808a0152426101a08a0152958652600d855297909420865181559151600183015551600282015591519282019290925592518051929392610a8b9260048501920190613c5a565b5060a0820151600582015560c08201518051610ab1916006840191602090910190613c5a565b5060e08201518051610acd916007840191602090910190613c5a565b506101008201518051610aea916008840191602090910190613c5a565b506101208201518160090160006101000a81548160ff0219169083151502179055506101408201518160090160016101000a81548160ff0219169083151502179055506101608201518160090160026101000a8154816001600160a01b0302191690836001600160a01b0316021790555061018082015181600a0160006101000a8154816001600160a01b0302191690836001600160a01b031602179055506101a082015181600b0155905050600c6000336001600160a01b03166001600160a01b031681526020019081526020016000206003549080600181540180825580915050600190039060005260206000200160009091909190915055601160006001815260200190815260200160002060035490806001815401808255809150506001900390600052602060002001600090919091909150556013600060035481526020019081526020016000206040518060e00160405280600354815260200160008152602001600081526020018a8152602001336001600160a01b03168152602001428152602001600081525090806001815401808255809150506001900390600052602060002090600702016000909190919091506000820151816000015560208201518160010155604082015181600201556060820151816003015560808201518160040160006101000a8154816001600160a01b0302191690836001600160a01b0316021790555060a0820151816005015560c0820151816006015550505050505050505050565b600b6020526000908152604090205460ff1681565b6000546001600160a01b0316331415610d5a57600080546001600160a01b0319166001600160a01b0383161790555b50565b610d6633613491565b8015610d8357506000838152600e602052604090206006015460ff165b8015610dbd57506000838152600e60209081526040808320600301548352600d825280832060050154338452600790925290912060060154145b8015610de457506001600160a01b0381166000908152600660205260409020600a015460ff165b8015610e0d57506000838152600e60205260409020600101546001600160a01b03828116911614155b8015610e3657506000838152600e60205260409020600201546001600160a01b03828116911614155b156102675760048054906000610e4b83614752565b90915550506000838152600e602090815260408083206004808201805460ff1916909117905560028101546001600160a01b039081168552600c84528285206003830154815460018181018455928852958720909501949094559201549091168252812054905b81811015611039576000858152600e6020908152604080832060038101546001909101546001600160a01b03168452600c909252909120805483908110610f0957634e487b7160e01b600052603260045260246000fd5b90600052602060002001541415611027576000858152600e602090815260408083206001908101546001600160a01b03168452600c90925290912090610f4f9084614700565b81548110610f6d57634e487b7160e01b600052603260045260246000fd5b6000918252602080832090910154878352600e82526040808420600101546001600160a01b03168452600c9092529120805483908110610fbd57634e487b7160e01b600052603260045260246000fd5b6000918252602080832090910192909255868152600e82526040808220600101546001600160a01b03168252600c9092522080548061100c57634e487b7160e01b600052603160045260246000fd5b60019003818190600052602060002001600090559055611039565b8061103181614752565b915050610eb2565b506040518060e001604052806004548152602001600e600087815260200190815260200160002060010160009054906101000a90046001600160a01b03166001600160a01b03168152602001600e600087815260200190815260200160002060020160009054906101000a90046001600160a01b03166001600160a01b03168152602001836001600160a01b03168152602001336001600160a01b03168152602001600e6000878152602001908152602001600020600301548152602001428152506018600060045481526020019081526020016000206000820151816000015560208201518160010160006101000a8154816001600160a01b0302191690836001600160a01b0316021790555060408201518160020160006101000a8154816001600160a01b0302191690836001600160a01b0316021790555060608201518160030160006101000a8154816001600160a01b0302191690836001600160a01b0316021790555060808201518160040160006101000a8154816001600160a01b0302191690836001600160a01b0316021790555060a0820151816005015560c0820151816006015590505082600d6000600e60008881526020019081526020016000206003015481526020019081526020016000206007019080519060200190611225929190613c5a565b50506000838152600e602090815260408083206003810180548552600d9093528184206009908101805460ff19169055600290910154925484529220909101805462010000600160b01b0319166001600160a01b0390921662010000029190911790555b505050565b336000908152600f60209081526040918290208054835181840281018401909452808452606093928301828280156109575760200282019190600052602060002090815481526020019060010190808311610943575050505050905090565b6112f633613491565b801561130b57506001600160a01b0381163314155b801561134157503360009081526007602090815260408083206006908101546001600160a01b0386168552925290912060040154145b15610267576001600160a01b038181166000818152600660209081526040808320600a018054600160ff199091168117909155815180830183523381524281850190815295855260169093529220905181546001600160a01b03191694169390931783559051910155610d5a565b606060136000838152602001908152602001600020805480602002602001604051908101604052809291908181526020016000905b8282101561145f5760008481526020908190206040805160e0810182526007860290920180548352600180820154848601526002820154928401929092526003810154606084015260048101546001600160a01b03166080840152600581015460a08401526006015460c083015290835290920191016113e4565b505050509050919050565b600080546001600160a01b03163314801561149e57506001600160a01b038a1660009081526009602052604090205460ff16155b156102675760005b600154811015611537576001600090815260086020526000805160206147af83398151915280548a926007929091859081106114f257634e487b7160e01b600052603260045260246000fd5b60009182526020808320909101546001600160a01b03168352820192909252604001902060040154141561152557600080fd5b8061152f81614752565b9150506114a6565b506001600160a01b038a166000908152600960205260408120805460ff1916600190811790915580549161156a83614752565b919050555060086000600181526020019081526020016000208a9080600181540180825580915050600190039060005260206000200160009091909190916101000a8154816001600160a01b0302191690836001600160a01b0316021790555060405180610140016040528060015481526020018b6001600160a01b031681526020018a815260200189815260200188815260200186815260200185815260200187815260200184815260200183815250600760008c6001600160a01b03166001600160a01b031681526020019081526020016000206000820151816000015560208201518160010160006101000a8154816001600160a01b0302191690836001600160a01b0316021790555060408201518160020155606082015181600301556080820151816004015560a0820151816005015560c0820151816006015560e0820151816007015561010082015181600801556101208201518160090155905050600190509998505050505050505050565b6001600052600a60209081527fbbc70db1b6c7afd11e79c0fb0051300458f1a3acb8ee9789d9b6b26c61ad9bc7805460408051828502810185019091528181526060939092919083018282801561095757602002820191906000526020600020905b81546001600160a01b0316815260019091019060200180831161173f575050505050905090565b336000908152600660205260409020600a015460ff16801561179e57506000838152600d6020526040902060090154610100900460ff165b80156117c957506000838152600d60205260409020600901546201000090046001600160a01b031633145b80156117d55750600081115b80156117f157506000838152600d602052604090206002015482105b801561180f57506000838152600d602052604090206009015460ff16155b80156118335750336000908152600660205260409020600a0154610100900460ff16155b15610267576000838152600d6020908152604080832060019081015460139093529083208054929392909161186791614700565b8154811061188557634e487b7160e01b600052603260045260246000fd5b9060005260206000209060070201905060008382600101546118a791906146e8565b905060015b8481111580156118cd57506000878152600d60205260409020600201548611155b156121ee576000878152600d6020526040812060020180548892906118f3908490614700565b90915550506003805490600061190883614752565b919050555060004260035486604051602001611926939291906141f8565b60408051601f1981840301815282825280516020918201206101c0840183526003805485528483018290528484018c905260008d8152600d8085529481209182015460608701528d90529290915260049091018054919350608083019161198c90614717565b80601f01602080910402602001604051908101604052809291908181526020018280546119b890614717565b8015611a055780601f106119da57610100808354040283529160200191611a05565b820191906000526020600020905b8154815290600101906020018083116119e857829003601f168201915b50505050508152602001600d60008b8152602001908152602001600020600501548152602001600d60008b81526020019081526020016000206006018054611a4c90614717565b80601f0160208091040260200160405190810160405280929190818152602001828054611a7890614717565b8015611ac55780601f10611a9a57610100808354040283529160200191611ac5565b820191906000526020600020905b815481529060010190602001808311611aa857829003601f168201915b50505050508152602001600d60008b81526020019081526020016000206007018054611af090614717565b80601f0160208091040260200160405190810160405280929190818152602001828054611b1c90614717565b8015611b695780601f10611b3e57610100808354040283529160200191611b69565b820191906000526020600020905b815481529060010190602001808311611b4c57829003601f168201915b50505050508152602001600d60008b81526020019081526020016000206008018054611b9490614717565b80601f0160208091040260200160405190810160405280929190818152602001828054611bc090614717565b8015611c0d5780601f10611be257610100808354040283529160200191611c0d565b820191906000526020600020905b815481529060010190602001808311611bf057829003601f168201915b50505091835250506000602080830182905260408084018390523360608086019190915283546001600160a01b03166080808701919091524260a090960195909552600380548552600d84529382902086518155868401516001820155918601516002830155850151928101929092559183015180519192611c9792600485019290910190613c5a565b5060a0820151600582015560c08201518051611cbd916006840191602090910190613c5a565b5060e08201518051611cd9916007840191602090910190613c5a565b506101008201518051611cf6916008840191602090910190613c5a565b506101208201518160090160006101000a81548160ff0219169083151502179055506101408201518160090160016101000a81548160ff0219169083151502179055506101608201518160090160026101000a8154816001600160a01b0302191690836001600160a01b0316021790555061018082015181600a0160006101000a8154816001600160a01b0302191690836001600160a01b031602179055506101a082015181600b0155905050600c6000336001600160a01b03166001600160a01b031681526020019081526020016000206003549080600181540180825580915050600190039060005260206000200160009091909190915055601160006001815260200190815260200160002060035490806001815401808255809150506001900390600052602060002001600090919091909150556013600060035481526020019081526020016000206040518060e001604052808a81526020016000815260200160008152602001898152602001336001600160a01b03168152602001428152602001600081525090806001815401808255809150506001900390600052602060002090600702016000909190919091506000820151816000015560208201518160010155604082015181600201556060820151816003015560808201518160040160006101000a8154816001600160a01b0302191690836001600160a01b0316021790555060a0820151816005015560c0820151816006015550506040518060800160405280601560008b815260200190815260200160002060000160009054906101000a90046001600160a01b03166001600160a01b03168152602001601560008b8152602001908152602001600020600101548152602001600015158152602001600081525060156000600354815260200190815260200160002060008201518160000160006101000a8154816001600160a01b0302191690836001600160a01b031602179055506020820151816001015560408201518160020160006101000a81548160ff021916908315150217905550606082015181600301559050506040518060800160405280601560008b815260200190815260200160002060000160009054906101000a90046001600160a01b03166001600160a01b03168152602001601560008b815260200190815260200160002060010154815260200160011515815260200184815250601560008a815260200190815260200160002060008201518160000160006101000a8154816001600160a01b0302191690836001600160a01b031602179055506020820151816001015560408201518160020160006101000a81548160ff02191690831515021790555060608201518160030155905050601360008981526020019081526020016000206040518060e001604052808a81526020018581526020016003548152602001898152602001336001600160a01b03168152602001600d60008c8152602001908152602001600020600b015481526020014281525090806001815401808255809150506001900390600052602060002090600702016000909190919091506000820151816000015560208201518160010155604082015181600201556060820151816003015560808201518160040160006101000a8154816001600160a01b0302191690836001600160a01b0316021790555060a0820151816005015560c0820151816006015550505080806121e690614752565b9150506118ac565b50505050611289565b60055481565b6007602081905260009182526040909120805460018201546002830154600384015460048501546005860154600687015497870154600888015460099098015496986001600160a01b039096169794969395929491939091908a565b6000828152600e60205260409020600101546001600160a01b0316331461229b5760405162461bcd60e51b8152600401612292906144a5565b60405180910390fd5b6000828152600e6020526040902060049081015460ff16818111156122d057634e487b7160e01b600052602160045260246000fd5b14158015612313575060036000838152600e6020526040902060049081015460ff169081111561231057634e487b7160e01b600052602160045260246000fd5b14155b61232f5760405162461bcd60e51b81526004016122929061442b565b8015612422576000828152600e60205260409020600501541561239a57604080516060810182528381526000848152600e6020908152838220600380820154808552600d80855287862090920180548588015260059093015495909601859052949092529290925290555b6000828152600e6020526040902060048101805460ff191660021790556003015460015b600554811161241b576000818152600e6020526040902060030154821480156123e75750838114155b15612409576000818152600e60205260409020600401805460ff191660011790555b8061241381614752565b9150506123be565b505061243f565b6000828152600e60205260409020600401805460ff191660011790555b5050565b6000546001600160a01b03163314801561247557506001600160a01b03811660009081526009602052604090205460ff165b15610267576001600160a01b03811660009081526009602090815260408220805460ff1916905560018252600890526000805160206147af83398151915254905b8181101561264e57600160005260086020526000805160206147af83398151915280546001600160a01b03851691908390811061250357634e487b7160e01b600052603260045260246000fd5b6000918252602090912001546001600160a01b0316141561263c576001600081905260086020526000805160206147af833981519152906125449084614700565b8154811061256257634e487b7160e01b600052603260045260246000fd5b60009182526020808320909101546001909252600890526000805160206147af83398151915280546001600160a01b0390921691839081106125b457634e487b7160e01b600052603260045260246000fd5b600091825260208083209190910180546001600160a01b0319166001600160a01b03949094169390931790925560019052600890526000805160206147af83398151915280548061261557634e487b7160e01b600052603160045260246000fd5b600082815260209020810160001990810180546001600160a01b031916905501905561264e565b8061264681614752565b9150506124b6565b5050610d5a565b60045481565b6000838152600d60205260409020600901546201000090046001600160a01b0316331480156126a057506000838152600d6020526040902060090154610100900460ff165b80156126be57506000838152600d602052604090206009015460ff16155b156102675780156126f4576000838152600d60205260409020600a0180546001600160a01b0319166001600160a01b0384161790555b8015801561271e57506000838152600d60205260409020600a01546001600160a01b038381169116145b156127555760008054848252600d6020526040909120600a0180546001600160a01b0319166001600160a01b039092169190911790555b611289565b6000898152600d60209081526040808320600901546201000090046001600160a01b03168352600f8252808320805482518185028101850190935280835284938301828280156127c957602002820191906000526020600020905b8154815260200190600101908083116127b5575b5050505050905060005b8151811015612862578b600e600084848151811061280157634e487b7160e01b600052603260045260246000fd5b602002602001015181526020019081526020016000206003015414156128505781818151811061284157634e487b7160e01b600052603260045260246000fd5b60200260200101519250612862565b8061285a81614752565b9150506127d3565b506000828152600e6020908152604080832060068101546004909101548f8552600d90935292206009015460ff9283169291909116906201000090046001600160a01b0316331480156128cb575060008d8152600d6020526040902060090154610100900460ff165b80156128d5575081155b8015612901575060028160048111156128fe57634e487b7160e01b600052602160045260246000fd5b14155b15610267578b1561292a5760008d8152600d60205260409020600901805460ff19168915151790555b8a156129455760008d8152600d602052604090206003018790555b89156129725760008d8152600d60209081526040909120875161297092600890920191890190613c5a565b505b881561299f5760008d8152600d60209081526040909120865161299d92600690920191880190613c5a565b505b50505050505050505050505050565b60015481565b601660205260009081526040902080546001909101546001600160a01b039091169082565b336000908152601060209081526040918290208054835181840281018401909452808452606093928301828280156109575760200282019190600052602060002090815481526020019060010190808311610943575050505050905090565b6000828152600d60209081526040808320600901546201000090046001600160a01b03168352600f825280832080548251818502810185019093528083528493830182828015612aa757602002820191906000526020600020905b815481526020019060010190808311612a93575b5050505050905060005b8151811015612b405784600e6000848481518110612adf57634e487b7160e01b600052603260045260246000fd5b60200260200101518152602001908152602001600020600301541415612b2e57818181518110612b1f57634e487b7160e01b600052603260045260246000fd5b60200260200101519250612b40565b80612b3881614752565b915050612ab1565b506000828152600e6020908152604080832060068082015460049092015433865293529220600a015460ff9283169291821691168015612b9657506000868152600d6020526040902060090154610100900460ff165b8015612bc257506000868152600d60205260409020600901546201000090046001600160a01b03163314155b8015612bcc575081155b8015612bf857506002816004811115612bf557634e487b7160e01b600052602160045260246000fd5b14155b8015612c2457506004816004811115612c2157634e487b7160e01b600052602160045260246000fd5b14155b156102675760058054906000612c3983614752565b90915550506040805160e0810182526005548082526000898152600d6020908152848220600901546201000090046001600160a01b0390811682860190815233868801908152606087018e81526080880186815260a089018f905260c08901879052968652600e90945296909320855181559251600180850180549284166001600160a01b03199384161790559651600285018054919093169116179055516003820155905160048083018054949593949293909260ff1916918490811115612d1257634e487b7160e01b600052602160045260246000fd5b021790555060a082015160058281019190915560c0909201516006909101805460ff19169115159190911790556000878152600d60209081526040808320600901546201000090046001600160a01b03168352600f8252808320845481546001818101845592865284862001553384526010835290832093548454918201855593835291200155505050505050565b6001600052601260209081527f71a67924699a20698523213e55fe499d539379d7769cd5567e2c45d583f815a380546040805182850281018501909152818152606093909291908301828280156109575760200282019190600052602060002090815481526020019060010190808311610943575050505050905090565b612e2833613491565b612e3157600080fd5b6001600160a01b0381166000908152600660209081526040808320600a01805461ff001916610100179055600c825280832080548251818502810185019093528083529192909190830182828015612ea857602002820191906000526020600020905b815481526020019060010190808311612e94575b5050505050905060005b8151811015611289576000828281518110612edd57634e487b7160e01b600052603260045260246000fd5b6020908102919091018101516000818152600d90925260409091206009810154919250906001600160a01b038681166201000090920416148015612f365750600581015433600090815260076020526040902060060154145b156130c25760048054906000612f4b83614752565b9091555050600981018054600a83015461ff01600160b01b03199091166001600160a01b03918216620100008102919091179092556000918252600c60209081526040808420805460018101825590855291842090910185905590871682528120905b815481101561309b5783828281548110612fd857634e487b7160e01b600052603260045260246000fd5b906000526020600020015414156130895781548290612ff990600190614700565b8154811061301757634e487b7160e01b600052603260045260246000fd5b906000526020600020015482828154811061304257634e487b7160e01b600052603260045260246000fd5b90600052602060002001819055508180548061306e57634e487b7160e01b600052603160045260246000fd5b6001900381819060005260206000200160009055905561309b565b8061309381614752565b915050612fae565b5050600054600a820180546001600160a01b0319166001600160a01b039092169190911790555b505080806130cf90614752565b915050612eb2565b60176020526000908152604090208054600182015460029092015490919083565b6001600160a01b03166000908152600660205260409020600a015460ff1690565b600e60205260009081526040902080546001820154600283015460038401546004850154600586015460069096015494956001600160a01b03948516959390941693919260ff91821692911687565b60156020526000908152604090208054600182015460028301546003909301546001600160a01b0390921692909160ff9091169084565b601860205260009081526040902080546001820154600283015460038401546004850154600586015460069096015494956001600160a01b03948516959385169492831693929091169187565b6001600160a01b0381166000908152600c602090815260409182902080548351818402810184019094528084526060939283018282801561324c57602002820191906000526020600020905b815481526020019060010190808311613238575b50505050509050919050565b6001600052600860209081526000805160206147af8339815191528054604080518285028101850190915281815260609390929190830182828015610957576020028201919060005260206000209081546001600160a01b0316815260019091019060200180831161173f575050505050905090565b600660208190526000918252604090912080546001820154600283015460038401546004850154600586015496860180546001600160a01b03909616979496939592949193919261331e90614717565b80601f016020809104026020016040519081016040528092919081815260200182805461334a90614717565b80156133975780601f1061336c57610100808354040283529160200191613397565b820191906000526020600020905b81548152906001019060200180831161337a57829003601f168201915b5050505050908060070180546133ac90614717565b80601f01602080910402602001604051908101604052809291908181526020018280546133d890614717565b80156134255780601f106133fa57610100808354040283529160200191613425565b820191906000526020600020905b81548152906001019060200180831161340857829003601f168201915b5050505060088301546009840154600a850154600b909501549394919390925060ff80831692610100900416908d565b60096020526000908152604090205460ff1681565b600080546001600160a01b03838116911614156134895750600161088f565b50600061088f565b6001600160a01b03811660009081526009602052604081205460ff16156134895750600161088f565b600d602052600090815260409020805460018201546002830154600384015460048501805494959394929391926134f090614717565b80601f016020809104026020016040519081016040528092919081815260200182805461351c90614717565b80156135695780601f1061353e57610100808354040283529160200191613569565b820191906000526020600020905b81548152906001019060200180831161354c57829003601f168201915b50505050509080600501549080600601805461358490614717565b80601f01602080910402602001604051908101604052809291908181526020018280546135b090614717565b80156135fd5780601f106135d2576101008083540402835291602001916135fd565b820191906000526020600020905b8154815290600101906020018083116135e057829003601f168201915b50505050509080600701805461361290614717565b80601f016020809104026020016040519081016040528092919081815260200182805461363e90614717565b801561368b5780601f106136605761010080835404028352916020019161368b565b820191906000526020600020905b81548152906001019060200180831161366e57829003601f168201915b5050505050908060080180546136a090614717565b80601f01602080910402602001604051908101604052809291908181526020018280546136cc90614717565b80156137195780601f106136ee57610100808354040283529160200191613719565b820191906000526020600020905b8154815290600101906020018083116136fc57829003601f168201915b5050506009840154600a850154600b90950154939460ff80831695610100840490911694506001600160a01b0362010000909304831693509116908e565b336000908152600b602052604090205460ff1615156001141561378c5760405162461bcd60e51b8152600401612292906143fe565b336000908152600b60205260408120805460ff1916600117905560028054916137b483614752565b90915550507fbbc70db1b6c7afd11e79c0fb0051300458f1a3acb8ee9789d9b6b26c61ad9bc7805460018082019092557fed65b032d5a5fa3a5b6544566ee46a0f6b8fe8b1375ec878dc3be6580b078495018054336001600160a01b03199182168117909255604080516101a08101825283815260208082018f81528284018f8152606084018f8152608085018f815260a086018f815260c087018f815260e088018f905261010088018e905261012088018d9052600061014089018190526101608901819052426101808a01529a8b52600680885298909a2087518154909a166001600160a01b03909a1699909917895593519988019990995590516002870155516003860155955160048501559451600584015592518051939492936138e493928501929190910190613c5a565b5060e08201518051613900916007840191602090910190613c5a565b506101008281015160088301556101208301516009830155610140830151600a8301805461016086015160ff199091169215159290921761ff00191691151590920217905561018090910151600b90910155505050505050505050565b6000818152600e60205260409020600201546001600160a01b0316331480156139ba575060026000828152600e6020526040902060049081015460ff16908111156139b857634e487b7160e01b600052602160045260246000fd5b145b80156139fb575060036000828152600e6020526040902060049081015460ff16908111156139f857634e487b7160e01b600052602160045260246000fd5b14155b8015613a2357506000818152600e60205260409020600101546001600160a01b038381169116145b8015613a5057506000818152600e602090815260408083206003908101548452600d909252909120015434145b15610267576000818152600e60209081526040808320600481018054600360ff199182161790915560069091018054909116600190811790915560129092527f71a67924699a20698523213e55fe499d539379d7769cd5567e2c45d583f815a38054928301815583527f09d3634ec98b7a093f4c560246b0e10c09e0e06c46ca9be08ca93e6cf08d8d13909101839055516001600160a01b038416913480156108fc02929091818181858888f19350505050158015613b13573d6000803e3d6000fd5b5061243f565b613b2233613491565b8015613b4e57506000818152600d60205260409020600901546201000090046001600160a01b03163314155b8015613b8a57506000818152600d60209081526040808320600901546201000090046001600160a01b0316835260069091529020600a015460ff165b8015613bb757506000818152600d6020908152604080832060050154338452600790925290912060060154145b15610267576000818152600d60209081526040808320600901805461010061ff00199091161790558051608081018252338152428184019081526001828401818152878752601580875294872060038101805460608701908152988a905295909652925185546001600160a01b0319166001600160a01b03909116178555905190840155516002909201805460ff19169215159290921790915590519055610d5a565b828054613c6690614717565b90600052602060002090601f016020900481019282613c885760008555613cce565b82601f10613ca157805160ff1916838001178555613cce565b82800160010185558215613cce579182015b82811115613cce578251825591602001919060010190613cb3565b50613cda929150613cde565b5090565b5b80821115613cda5760008155600101613cdf565b8035801515811461088f57600080fd5b600082601f830112613d13578081fd5b813567ffffffffffffffff80821115613d2e57613d2e614783565b604051601f8301601f191681016020018281118282101715613d5257613d52614783565b604052828152848301602001861015613d69578384fd5b82602086016020830137918201602001929092529392505050565b600060208284031215613d95578081fd5b8135613da081614799565b9392505050565b60008060408385031215613db9578081fd5b8235613dc481614799565b946020939093013593505050565b60008060008060008060008060006101208a8c031215613df0578485fd5b8935613dfb81614799565b9b60208b01359b5060408b01359a60608101359a506080810135995060a0810135985060c0810135975060e081013596506101000135945092505050565b60008060008060008060008060006101208a8c031215613e57578485fd5b8935985060208a0135975060408a0135965060608a0135955060808a0135945060a08a013567ffffffffffffffff80821115613e91578586fd5b613e9d8d838e01613d03565b955060c08c0135915080821115613eb2578485fd5b50613ebf8c828d01613d03565b93505060e08a013591506101008a013590509295985092959850929598565b600060208284031215613eef578081fd5b5035919050565b600080600060608486031215613f0a578283fd5b833592506020840135613f1c81614799565b9150613f2a60408501613cf3565b90509250925092565b60008060408385031215613f45578182fd5b82359150613f5560208401613cf3565b90509250929050565b60008060008060008060008060006101208a8c031215613f7c578485fd5b89359850613f8c60208b01613cf3565b9750613f9a60408b01613cf3565b9650613fa860608b01613cf3565b9550613fb660808b01613cf3565b9450613fc460a08b01613cf3565b935060c08a0135925060e08a013567ffffffffffffffff80821115613fe7578384fd5b613ff38d838e01613d03565b93506101008c0135915080821115614009578283fd5b506140168c828d01613d03565b9150509295985092959850929598565b60008060006060848603121561403a578283fd5b83359250602084013567ffffffffffffffff811115614057578283fd5b61406386828701613d03565b925050604084013561407481614799565b809150509250925092565b600080600080600080600080610100898b03121561409b578182fd5b88359750602089013567ffffffffffffffff808211156140b9578384fd5b6140c58c838d01613d03565b985060408b0135975060608b0135965060808b01359150808211156140e8578384fd5b6140f48c838d01613d03565b955060a08b0135945060c08b0135915080821115614110578384fd5b61411c8c838d01613d03565b935060e08b0135915080821115614131578283fd5b5061413e8b828c01613d03565b9150509295985092959890939650565b60008060408385031215614160578182fd5b50508035926020909101359150565b600080600060608486031215614183578081fd5b505081359360208301359350604090920135919050565b6001600160a01b03169052565b15159052565b60008151808452815b818110156141d2576020818501810151868301820152016141b6565b818111156141e35782602083870101525b50601f01601f19169290920160200192915050565b9283526020830191909152604082015260600190565b600060018060a01b038f1682528d60208301528c60408301528b60608301528a60808301528960a08301526101a060c083015261424f6101a083018a6141ad565b82810360e0840152614261818a6141ad565b91505086610100830152856101208301528415156101408301526142896101608301856141a7565b826101808301529e9d5050505050505050505050505050565b6001600160a01b03929092168252602082015260400190565b6001600160a01b03949094168452602084019290925215156040830152606082015260800190565b6020808252825182820181905260009190848201906040850190845b818110156143245783516001600160a01b0316835292840192918401916001016142ff565b50909695505050505050565b602080825282518282018190526000919060409081850190868401855b828110156143ae5781518051855286810151878601528581015186860152606080820151908601526080808201516001600160a01b03169086015260a0808201519086015260c0908101519085015260e0909301929085019060010161434d565b5091979650505050505050565b6020808252825182820181905260009190848201906040850190845b81811015614324578351835292840192918401916001016143d7565b901515815260200190565b602080825260139082015272105b1b1c995859195e481c9959da5cdd195c99606a1b604082015260600190565b60208082526054908201527f52657175657374206d757374206e6f7420626520696e20277061796d656e746460408201527f6f6e65206f7220636f6d706c65746564272073746174757320746f206265206160608201527331b1b2b83a32b21037b9103932b532b1ba32b21760611b608082015260a00190565b6020808252602f908201527f4f6e6c79207468652073656c6c65722063616e20616363657074206f7220726560408201526e3532b1ba1030903932b8bab2b9ba1760891b606082015260800190565b90815260200190565b8781526001600160a01b038781166020830152861660408201526060810185905260e081016005851061454057634e487b7160e01b600052602160045260246000fd5b8460808301528360a083015282151560c083015298975050505050505050565b9687526001600160a01b03958616602088015293851660408701529184166060860152909216608084015260a083019190915260c082015260e00190565b998a526001600160a01b039890981660208a015260408901969096526060880194909452608087019290925260a086015260c085015260e08401526101008301526101208201526101400190565b9687526020870195909552604086019390935260608501919091526001600160a01b0316608084015260a083015260c082015260e00190565b60008f82528e60208301528d60408301528c60608301526101c060808301526146526101c083018d6141ad565b8b60a084015282810360c084015261466a818c6141ad565b905082810360e084015261467e818b6141ad565b9050828103610100840152614693818a6141ad565b9150506146a46101208301886141a7565b6146b26101408301876141a7565b6146c061016083018661419a565b6146ce61018083018561419a565b826101a08301529f9e505050505050505050505050505050565b600082198211156146fb576146fb61476d565b500190565b6000828210156147125761471261476d565b500390565b60028104600182168061472b57607f821691505b6020821081141561474c57634e487b7160e01b600052602260045260246000fd5b50919050565b60006000198214156147665761476661476d565b5060010190565b634e487b7160e01b600052601160045260246000fd5b634e487b7160e01b600052604160045260246000fd5b6001600160a01b0381168114610d5a57600080fdfead67d757c34507f157cacfa2e3153e9f260a2244f30428821be7be64587ac55fa264697066735822122049f4365a3634e9221addbc9a890eff1d9cbe9de8446df639704d89167d07b34764736f6c63430008000033",
  "linkReferences": {},
  "deployedLinkReferences": {}
}