{
  "_format": "hh-sol-artifact-1",
  "contractName": "landregistry",
  "sourceName": "contracts/landregistry.sol",
  "abi": [
    {
      "inputs": [],
      "stateMutability": "nonpayable",
      "type": "constructor"
    },
    {
      "inputs": [
        {
          "internalType": "uint256",
          "name": "landId",
          "type": "uint256"
        },
        {
          "internalType": "address payable",
          "name": "proxyOwner",
          "type": "address"
        },
        {
          "internalType": "bool",
          "name": "x",
          "type": "bool"
        }
      ],
      "name": "AndandRemoveProxyOwner",
      "outputs": [],
      "stateMutability": "nonpayable",
      "type": "function"
    },
    {
      "inputs": [
        {
          "internalType": "uint256",
          "name": "_propertyPID",
          "type": "uint256"
        }
      ],
      "name": "CheckDuplicatePid",
      "outputs": [
        {
          "internalType": "bool",
          "name": "",
          "type": "bool"
        }
      ],
      "stateMutability": "view",
      "type": "function"
    },
    {
      "inputs": [
        {
          "internalType": "address",
          "name": "",
          "type": "address"
        }
      ],
      "name": "InspectorMapping",
      "outputs": [
        {
          "internalType": "uint256",
          "name": "id",
          "type": "uint256"
        },
        {
          "internalType": "address",
          "name": "addr",
          "type": "address"
        },
        {
          "internalType": "bytes32",
          "name": "name",
          "type": "bytes32"
        },
        {
          "internalType": "bytes32",
          "name": "dob",
          "type": "bytes32"
        },
        {
          "internalType": "uint256",
          "name": "cnic",
          "type": "uint256"
        },
        {
          "internalType": "bytes32",
          "name": "city",
          "type": "bytes32"
        },
        {
          "internalType": "bytes32",
          "name": "district",
          "type": "bytes32"
        },
        {
          "internalType": "bytes32",
          "name": "designation",
          "type": "bytes32"
        },
        {
          "internalType": "bytes32",
          "name": "email",
          "type": "bytes32"
        },
        {
          "internalType": "uint256",
          "name": "phone",
          "type": "uint256"
        }
      ],
      "stateMutability": "view",
      "type": "function"
    },
    {
      "inputs": [
        {
          "internalType": "uint256",
          "name": "",
          "type": "uint256"
        }
      ],
      "name": "LandRequestMapping",
      "outputs": [
        {
          "internalType": "uint256",
          "name": "reqId",
          "type": "uint256"
        },
        {
          "internalType": "address payable",
          "name": "sellerId",
          "type": "address"
        },
        {
          "internalType": "address payable",
          "name": "buyerId",
          "type": "address"
        },
        {
          "internalType": "uint256",
          "name": "landId",
          "type": "uint256"
        },
        {
          "internalType": "enum landregistry.reqStatus",
          "name": "requestStatus",
          "type": "uint8"
        },
        {
          "internalType": "uint256",
          "name": "bidPrice",
          "type": "uint256"
        },
        {
          "internalType": "bool",
          "name": "isPaymentDone",
          "type": "bool"
        }
      ],
      "stateMutability": "view",
      "type": "function"
    },
    {
      "inputs": [
        {
          "internalType": "address",
          "name": "",
          "type": "address"
        }
      ],
      "name": "RegisteredInspectorMapping",
      "outputs": [
        {
          "internalType": "bool",
          "name": "",
          "type": "bool"
        }
      ],
      "stateMutability": "view",
      "type": "function"
    },
    {
      "inputs": [
        {
          "internalType": "address",
          "name": "",
          "type": "address"
        }
      ],
      "name": "RegisteredUserMapping",
      "outputs": [
        {
          "internalType": "bool",
          "name": "",
          "type": "bool"
        }
      ],
      "stateMutability": "view",
      "type": "function"
    },
    {
      "inputs": [],
      "name": "ReturnAllLandIncpectorList",
      "outputs": [
        {
          "internalType": "address[]",
          "name": "",
          "type": "address[]"
        }
      ],
      "stateMutability": "view",
      "type": "function"
    },
    {
      "inputs": [],
      "name": "ReturnAllLandList",
      "outputs": [
        {
          "internalType": "uint256[]",
          "name": "",
          "type": "uint256[]"
        }
      ],
      "stateMutability": "view",
      "type": "function"
    },
    {
      "inputs": [],
      "name": "ReturnAllUserList",
      "outputs": [
        {
          "internalType": "address[]",
          "name": "",
          "type": "address[]"
        }
      ],
      "stateMutability": "view",
      "type": "function"
    },
    {
      "inputs": [
        {
          "internalType": "address",
          "name": "",
          "type": "address"
        }
      ],
      "name": "UserMapping",
      "outputs": [
        {
          "internalType": "address",
          "name": "id",
          "type": "address"
        },
        {
          "internalType": "bytes32",
          "name": "name",
          "type": "bytes32"
        },
        {
          "internalType": "bytes32",
          "name": "dob",
          "type": "bytes32"
        },
        {
          "internalType": "bytes32",
          "name": "city",
          "type": "bytes32"
        },
        {
          "internalType": "uint256",
          "name": "cinc",
          "type": "uint256"
        },
        {
          "internalType": "string",
          "name": "document",
          "type": "string"
        },
        {
          "internalType": "string",
          "name": "profilepic",
          "type": "string"
        },
        {
          "internalType": "bytes32",
          "name": "email",
          "type": "bytes32"
        },
        {
          "internalType": "bool",
          "name": "isUserVerified",
          "type": "bool"
        },
        {
          "internalType": "bool",
          "name": "death",
          "type": "bool"
        },
        {
          "internalType": "address",
          "name": "verfiedby",
          "type": "address"
        },
        {
          "internalType": "uint256",
          "name": "verifydate",
          "type": "uint256"
        }
      ],
      "stateMutability": "view",
      "type": "function"
    },
    {
      "inputs": [
        {
          "internalType": "uint256",
          "name": "_requestId",
          "type": "uint256"
        },
        {
          "internalType": "bool",
          "name": "acceptreject",
          "type": "bool"
        }
      ],
      "name": "acceptRequest",
      "outputs": [],
      "stateMutability": "nonpayable",
      "type": "function"
    },
    {
      "inputs": [
        {
          "internalType": "uint256",
          "name": "_area",
          "type": "uint256"
        },
        {
          "internalType": "bytes32",
          "name": "_landAddress",
          "type": "bytes32"
        },
        {
          "internalType": "bytes32",
          "name": "_district",
          "type": "bytes32"
        },
        {
          "internalType": "uint256",
          "name": "_landPrice",
          "type": "uint256"
        },
        {
          "internalType": "string",
          "name": "_allLatiLongi",
          "type": "string"
        },
        {
          "internalType": "uint256",
          "name": "_propertyPID",
          "type": "uint256"
        },
        {
          "internalType": "string",
          "name": "_document",
          "type": "string"
        },
        {
          "internalType": "string",
          "name": "_landpic",
          "type": "string"
        }
      ],
      "name": "addLand",
      "outputs": [],
      "stateMutability": "nonpayable",
      "type": "function"
    },
    {
      "inputs": [
        {
          "internalType": "address",
          "name": "_addr",
          "type": "address"
        },
        {
          "internalType": "bytes32",
          "name": "_name",
          "type": "bytes32"
        },
        {
          "internalType": "bytes32",
          "name": "_dob",
          "type": "bytes32"
        },
        {
          "internalType": "uint256",
          "name": "_cinc",
          "type": "uint256"
        },
        {
          "internalType": "bytes32",
          "name": "_designation",
          "type": "bytes32"
        },
        {
          "internalType": "bytes32",
          "name": "_city",
          "type": "bytes32"
        },
        {
          "internalType": "bytes32",
          "name": "_district",
          "type": "bytes32"
        },
        {
          "internalType": "bytes32",
          "name": "_email",
          "type": "bytes32"
        },
        {
          "internalType": "uint256",
          "name": "_phone",
          "type": "uint256"
        }
      ],
      "name": "addLandInspector",
      "outputs": [
        {
          "internalType": "bool",
          "name": "",
          "type": "bool"
        }
      ],
      "stateMutability": "nonpayable",
      "type": "function"
    },
    {
      "inputs": [
        {
          "internalType": "address",
          "name": "_addr",
          "type": "address"
        }
      ],
      "name": "changeContractOwner",
      "outputs": [],
      "stateMutability": "nonpayable",
      "type": "function"
    },
    {
      "inputs": [],
      "name": "documentId",
      "outputs": [
        {
          "internalType": "uint256",
          "name": "",
          "type": "uint256"
        }
      ],
      "stateMutability": "view",
      "type": "function"
    },
    {
      "inputs": [
        {
          "internalType": "uint256",
          "name": "landId",
          "type": "uint256"
        }
      ],
      "name": "getLandHistory",
      "outputs": [
        {
          "components": [
            {
              "internalType": "uint256",
              "name": "parentId",
              "type": "uint256"
            },
            {
              "internalType": "uint256",
              "name": "childCount",
              "type": "uint256"
            },
            {
              "internalType": "uint256",
              "name": "childId",
              "type": "uint256"
            },
            {
              "internalType": "uint256",
              "name": "area",
              "type": "uint256"
            },
            {
              "internalType": "address",
              "name": "ownerAddress",
              "type": "address"
            },
            {
              "internalType": "uint256",
              "name": "timestamp",
              "type": "uint256"
            }
          ],
          "internalType": "struct landregistry.LandHistory[]",
          "name": "",
          "type": "tuple[]"
        }
      ],
      "stateMutability": "view",
      "type": "function"
    },
    {
      "inputs": [],
      "name": "inspectorsCount",
      "outputs": [
        {
          "internalType": "uint256",
          "name": "",
          "type": "uint256"
        }
      ],
      "stateMutability": "view",
      "type": "function"
    },
    {
      "inputs": [
        {
          "internalType": "address",
          "name": "_addr",
          "type": "address"
        }
      ],
      "name": "isContractOwner",
      "outputs": [
        {
          "internalType": "bool",
          "name": "",
          "type": "bool"
        }
      ],
      "stateMutability": "view",
      "type": "function"
    },
    {
      "inputs": [
        {
          "internalType": "address",
          "name": "_id",
          "type": "address"
        }
      ],
      "name": "isLandInspector",
      "outputs": [
        {
          "internalType": "bool",
          "name": "",
          "type": "bool"
        }
      ],
      "stateMutability": "view",
      "type": "function"
    },
    {
      "inputs": [
        {
          "internalType": "address",
          "name": "id",
          "type": "address"
        }
      ],
      "name": "isUserVerified",
      "outputs": [
        {
          "internalType": "bool",
          "name": "",
          "type": "bool"
        }
      ],
      "stateMutability": "view",
      "type": "function"
    },
    {
      "inputs": [
        {
          "internalType": "uint256",
          "name": "",
          "type": "uint256"
        }
      ],
      "name": "landinfo",
      "outputs": [
        {
          "internalType": "address",
          "name": "verfiedby",
          "type": "address"
        },
        {
          "internalType": "uint256",
          "name": "timestamp",
          "type": "uint256"
        }
      ],
      "stateMutability": "view",
      "type": "function"
    },
    {
      "inputs": [
        {
          "internalType": "uint256",
          "name": "",
          "type": "uint256"
        }
      ],
      "name": "lands",
      "outputs": [
        {
          "internalType": "uint256",
          "name": "id",
          "type": "uint256"
        },
        {
          "internalType": "uint256",
          "name": "propertyPID",
          "type": "uint256"
        },
        {
          "internalType": "uint256",
          "name": "area",
          "type": "uint256"
        },
        {
          "internalType": "uint256",
          "name": "landPrice",
          "type": "uint256"
        },
        {
          "internalType": "bytes32",
          "name": "landAddress",
          "type": "bytes32"
        },
        {
          "internalType": "bytes32",
          "name": "district",
          "type": "bytes32"
        },
        {
          "internalType": "string",
          "name": "allLatitudeLongitude",
          "type": "string"
        },
        {
          "internalType": "string",
          "name": "document",
          "type": "string"
        },
        {
          "internalType": "string",
          "name": "Landpic",
          "type": "string"
        },
        {
          "internalType": "bool",
          "name": "isforSell",
          "type": "bool"
        },
        {
          "internalType": "bool",
          "name": "isLandVerified",
          "type": "bool"
        },
        {
          "internalType": "address payable",
          "name": "ownerAddress",
          "type": "address"
        },
        {
          "internalType": "address payable",
          "name": "proxyownerAddress",
          "type": "address"
        }
      ],
      "stateMutability": "view",
      "type": "function"
    },
    {
      "inputs": [],
      "name": "landsCount",
      "outputs": [
        {
          "internalType": "uint256",
          "name": "",
          "type": "uint256"
        }
      ],
      "stateMutability": "view",
      "type": "function"
    },
    {
      "inputs": [
        {
          "internalType": "uint256",
          "name": "_landId",
          "type": "uint256"
        },
        {
          "internalType": "bool",
          "name": "sell",
          "type": "bool"
        },
        {
          "internalType": "uint256",
          "name": "_newPrice",
          "type": "uint256"
        }
      ],
      "name": "makeItforSell",
      "outputs": [],
      "stateMutability": "nonpayable",
      "type": "function"
    },
    {
      "inputs": [
        {
          "internalType": "address payable",
          "name": "_receiver",
          "type": "address"
        },
        {
          "internalType": "uint256",
          "name": "_requestId",
          "type": "uint256"
        }
      ],
      "name": "makePayment",
      "outputs": [],
      "stateMutability": "payable",
      "type": "function"
    },
    {
      "inputs": [
        {
          "internalType": "address",
          "name": "id",
          "type": "address"
        }
      ],
      "name": "myAllLands",
      "outputs": [
        {
          "internalType": "uint256[]",
          "name": "",
          "type": "uint256[]"
        }
      ],
      "stateMutability": "view",
      "type": "function"
    },
    {
      "inputs": [],
      "name": "myReceivedLandRequests",
      "outputs": [
        {
          "internalType": "uint256[]",
          "name": "",
          "type": "uint256[]"
        }
      ],
      "stateMutability": "view",
      "type": "function"
    },
    {
      "inputs": [],
      "name": "mySentLandRequests",
      "outputs": [
        {
          "internalType": "uint256[]",
          "name": "",
          "type": "uint256[]"
        }
      ],
      "stateMutability": "view",
      "type": "function"
    },
    {
      "inputs": [
        {
          "internalType": "bytes32",
          "name": "_name",
          "type": "bytes32"
        },
        {
          "internalType": "bytes32",
          "name": "_dob",
          "type": "bytes32"
        },
        {
          "internalType": "bytes32",
          "name": "_city",
          "type": "bytes32"
        },
        {
          "internalType": "uint256",
          "name": "_cinc",
          "type": "uint256"
        },
        {
          "internalType": "string",
          "name": "_document",
          "type": "string"
        },
        {
          "internalType": "string",
          "name": "_profilepic",
          "type": "string"
        },
        {
          "internalType": "bytes32",
          "name": "_email",
          "type": "bytes32"
        }
      ],
      "name": "registerUser",
      "outputs": [],
      "stateMutability": "nonpayable",
      "type": "function"
    },
    {
      "inputs": [
        {
          "internalType": "address",
          "name": "_addr",
          "type": "address"
        }
      ],
      "name": "removeLandInspector",
      "outputs": [],
      "stateMutability": "nonpayable",
      "type": "function"
    },
    {
      "inputs": [
        {
          "internalType": "uint256",
          "name": "_landId",
          "type": "uint256"
        },
        {
          "internalType": "uint256",
          "name": "_bidPrice",
          "type": "uint256"
        }
      ],
      "name": "requestforBuyWithBid",
      "outputs": [],
      "stateMutability": "nonpayable",
      "type": "function"
    },
    {
      "inputs": [],
      "name": "returnPaymentDoneList",
      "outputs": [
        {
          "internalType": "uint256[]",
          "name": "",
          "type": "uint256[]"
        }
      ],
      "stateMutability": "view",
      "type": "function"
    },
    {
      "inputs": [
        {
          "internalType": "uint256",
          "name": "id",
          "type": "uint256"
        },
        {
          "internalType": "uint256",
          "name": "newarea",
          "type": "uint256"
        },
        {
          "internalType": "uint256",
          "name": "numplots",
          "type": "uint256"
        }
      ],
      "name": "subplot",
      "outputs": [],
      "stateMutability": "nonpayable",
      "type": "function"
    },
    {
      "inputs": [
        {
          "internalType": "uint256",
          "name": "_requestId",
          "type": "uint256"
        },
        {
          "internalType": "string",
          "name": "documentUrl",
          "type": "string"
        }
      ],
      "name": "transferOwnership",
      "outputs": [],
      "stateMutability": "nonpayable",
      "type": "function"
    },
    {
      "inputs": [
        {
          "internalType": "address",
          "name": "deceased",
          "type": "address"
        },
        {
          "internalType": "string",
          "name": "documentUrl",
          "type": "string"
        }
      ],
      "name": "transferOwnership1",
      "outputs": [],
      "stateMutability": "nonpayable",
      "type": "function"
    },
    {
      "inputs": [],
      "name": "userCount",
      "outputs": [
        {
          "internalType": "uint256",
          "name": "",
          "type": "uint256"
        }
      ],
      "stateMutability": "view",
      "type": "function"
    },
    {
      "inputs": [
        {
          "internalType": "uint256",
          "name": "_id",
          "type": "uint256"
        }
      ],
      "name": "verifyLand",
      "outputs": [],
      "stateMutability": "nonpayable",
      "type": "function"
    },
    {
      "inputs": [
        {
          "internalType": "address",
          "name": "_userId",
          "type": "address"
        }
      ],
      "name": "verifyUser",
      "outputs": [],
      "stateMutability": "nonpayable",
      "type": "function"
    },
    {
      "stateMutability": "payable",
      "type": "receive"
    }
  ],
  "bytecode": "0x608060405234801561001057600080fd5b50600080546001600160a01b03191633179055613ae6806100326000396000f3fe6080604052600436106102295760003560e01c8063941e242611610123578063d196ebf2116100ab578063e165af871161006f578063e165af8714610682578063e261f1e5146106a2578063f98cf07c146106db578063f9c43bdf146106ee578063fa0245491461070e57610230565b8063d196ebf2146105d5578063d251839b146105f5578063d61ff68c1461060a578063dd056ebc14610642578063de1176881461066257610230565b8063ace417e0116100f2578063ace417e014610514578063af189cd114610534578063b10a30ed14610554578063c6acafcd14610587578063c981925b146105b557610230565b8063941e2426146104b55780639c32e3b4146104ca5780639dec448e146104df578063a846fc8f146104ff57610230565b806354d1b98f116101b1578063690a3ca911610175578063690a3ca9146104205780637517e00f1461044057806378f7c83f1461046057806380f9694c14610475578063836b39791461049557610230565b806354d1b98f14610368578063553a998d1461038857806358051d93146103aa5780635f0dc4b3146103ca57806364efa002146103ea57610230565b806332f2bb14116101f857806332f2bb14146102c45780633ead67b5146102e4578063499701b2146103065780634d8131201461031b5780634f3897211461033b57610230565b806307973ccf1461023557806312ca3f1f146102605780631c9afd0f1461028d57806323393d77146102a257610230565b3661023057005b600080fd5b34801561024157600080fd5b5061024a61072e565b604051610257919061387f565b60405180910390f35b34801561026c57600080fd5b5061028061027b36600461344e565b610734565b6040516102579190613847565b34801561029957600080fd5b5061024a610781565b3480156102ae57600080fd5b506102b7610787565b604051610257919061380f565b3480156102d057600080fd5b506102806102df3660046132ba565b610807565b3480156102f057600080fd5b506103046102ff3660046132ba565b61081c565b005b34801561031257600080fd5b506102b761084e565b34801561032757600080fd5b506103046103363660046132ba565b6108ad565b34801561034757600080fd5b5061035b61035636600461344e565b610918565b604051610257919061378e565b34801561037457600080fd5b50610280610383366004613308565b6109c0565b34801561039457600080fd5b5061039d610c33565b6040516102579190613741565b3480156103b657600080fd5b506103046103c5366004613607565b610cbc565b3480156103d657600080fd5b506103046103e53660046133bd565b61141f565b3480156103f657600080fd5b5061040a6104053660046132ba565b611638565b6040516102579a999897969594939291906138eb565b34801561042c57600080fd5b5061030461043b3660046134a3565b611694565b34801561044c57600080fd5b5061030461045b3660046132ba565b611786565b34801561046c57600080fd5b5061024a611998565b34801561048157600080fd5b50610304610490366004613502565b61199e565b3480156104a157600080fd5b506103046104b0366004613466565b611fa8565b3480156104c157600080fd5b5061024a612089565b3480156104d657600080fd5b506102b761208f565b3480156104eb57600080fd5b506103046104fa3660046135e6565b6120ee565b34801561050b57600080fd5b506102b76122cc565b34801561052057600080fd5b5061028061052f3660046132ba565b61234a565b34801561054057600080fd5b5061030461054f3660046134ce565b61236b565b34801561056057600080fd5b5061057461056f36600461344e565b6123de565b6040516102579796959493929190613888565b34801561059357600080fd5b506105a76105a236600461344e565b61242d565b604051610257929190613728565b3480156105c157600080fd5b506103046105d036600461336f565b612452565b3480156105e157600080fd5b506102b76105f03660046132ba565b612726565b34801561060157600080fd5b5061039d612792565b34801561061657600080fd5b5061062a6106253660046132ba565b612808565b6040516102579c9b9a999897969594939291906136a6565b34801561064e57600080fd5b5061028061065d3660046132ba565b612990565b34801561066e57600080fd5b5061028061067d3660046132ba565b6129a5565b34801561068e57600080fd5b5061028061069d3660046132ba565b6129cc565b3480156106ae57600080fd5b506106c26106bd36600461344e565b6129f5565b6040516102579d9c9b9a99989796959493929190613939565b6103046106e93660046132dd565b612c08565b3480156106fa57600080fd5b5061030461070936600461344e565b612d83565b34801561071a57600080fd5b506103046107293660046135b7565b612e8d565b60025481565b6000805b6003548111610776576000818152600d602052604090206001015483141561076457600191505061077c565b8061076e81613a34565b915050610738565b50600090505b919050565b60035481565b6001600052601160209081527f17bc176d2408558f6e4111feebc3cab4e16b63e967be91cde721f4c8a488b55280546040805182850281018501909152818152606093909291908301828280156107fd57602002820191906000526020600020905b8154815260200190600101908083116107e9575b5050505050905090565b600b6020526000908152604090205460ff1681565b6000546001600160a01b031633141561084b57600080546001600160a01b0319166001600160a01b0383161790555b50565b336000908152600f60209081526040918290208054835181840281018401909452808452606093928301828280156107fd57602002820191906000526020600020908154815260200190600101908083116107e9575050505050905090565b6108b6336129cc565b80156108cb57506001600160a01b0381163314155b15610230576001600160a01b0381166000908152600660205260409020600881018054600160ff199091161762010000600160b01b0319163362010000021790554260099091015561084b565b6000818152601360209081526040808320805482518185028101850190935280835260609493849084015b828210156109b45760008481526020908190206040805160c0810182526006860290920180548352600180820154848601526002820154928401929092526003810154606084015260048101546001600160a01b031660808401526005015460a08301529083529092019101610943565b50929695505050505050565b600080546001600160a01b0316331480156109f457506001600160a01b038a1660009081526009602052604090205460ff16155b156102305760005b600154811015610a8d57600160009081526008602052600080516020613a9183398151915280548a92600792909185908110610a4857634e487b7160e01b600052603260045260246000fd5b60009182526020808320909101546001600160a01b031683528201929092526040019020600401541415610a7b57600080fd5b80610a8581613a34565b9150506109fc565b506001600160a01b038a166000908152600960205260408120805460ff19166001908117909155805491610ac083613a34565b919050555060086000600181526020019081526020016000208a9080600181540180825580915050600190039060005260206000200160009091909190916101000a8154816001600160a01b0302191690836001600160a01b0316021790555060405180610140016040528060015481526020018b6001600160a01b031681526020018a815260200189815260200188815260200186815260200185815260200187815260200184815260200183815250600760008c6001600160a01b03166001600160a01b031681526020019081526020016000206000820151816000015560208201518160010160006101000a8154816001600160a01b0302191690836001600160a01b0316021790555060408201518160020155606082015181600301556080820151816004015560a0820151816005015560c0820151816006015560e0820151816007015561010082015181600801556101208201518160090155905050600190509998505050505050505050565b6001600052600a60209081527fbbc70db1b6c7afd11e79c0fb0051300458f1a3acb8ee9789d9b6b26c61ad9bc780546040805182850281018501909152818152606093909291908301828280156107fd57602002820191906000526020600020905b81546001600160a01b03168152600190910190602001808311610c95575050505050905090565b3360009081526006602052604090206008015460ff168015610cf457506000838152600d6020526040902060090154610100900460ff165b8015610d1f57506000838152600d60205260409020600901546201000090046001600160a01b031633145b8015610d2b5750600081115b8015610d4757506000838152600d602052604090206002015482105b8015610d6557506000838152600d602052604090206009015460ff16155b8015610d89575033600090815260066020526040902060080154610100900460ff16155b15610230576000838152600d60205260409020600190810154905b828111158015610dc557506000858152600d60205260409020600201548411155b15611417576000858152600d602052604081206002018054869290610deb9084906139e2565b909155505060038054906000610e0083613a34565b919050555060004260035484604051602001610e1e93929190613690565b60408051601f1981840301815282825280516020918201206101a0840183526003805485528483018290528484018a905260008b8152600d80855294812091820154606087015260048201546080870152600582015460a08701528b9052929091526006909101805491935060c0830191610e98906139f9565b80601f0160208091040260200160405190810160405280929190818152602001828054610ec4906139f9565b8015610f115780601f10610ee657610100808354040283529160200191610f11565b820191906000526020600020905b815481529060010190602001808311610ef457829003601f168201915b50505050508152602001600d60008981526020019081526020016000206007018054610f3c906139f9565b80601f0160208091040260200160405190810160405280929190818152602001828054610f68906139f9565b8015610fb55780601f10610f8a57610100808354040283529160200191610fb5565b820191906000526020600020905b815481529060010190602001808311610f9857829003601f168201915b50505050508152602001600d60008981526020019081526020016000206008018054610fe0906139f9565b80601f016020809104026020016040519081016040528092919081815260200182805461100c906139f9565b80156110595780601f1061102e57610100808354040283529160200191611059565b820191906000526020600020905b81548152906001019060200180831161103c57829003601f168201915b505050918352505060006020808301829052600160408085018290523360608087019190915284546001600160a01b0316608096870152600380548652600d8552948290208751815587850151938101939093559086015160028301558501519281019290925591830151600482015560a0830151600582015560c0830151805191926110ee92600685019290910190613190565b5060e0820151805161110a916007840191602090910190613190565b506101008201518051611127916008840191602090910190613190565b506101208201518160090160006101000a81548160ff0219169083151502179055506101408201518160090160016101000a81548160ff0219169083151502179055506101608201518160090160026101000a8154816001600160a01b0302191690836001600160a01b0316021790555061018082015181600a0160006101000a8154816001600160a01b0302191690836001600160a01b03160217905550905050600c6000336001600160a01b03166001600160a01b031681526020019081526020016000206003549080600181540180825580915050600190039060005260206000200160009091909190915055601160006001815260200190815260200160002060035490806001815401808255809150506001900390600052602060002001600090919091909150556013600060035481526020019081526020016000206040518060c00160405280888152602001600081526020016000815260200187815260200160006001600160a01b031681526020014281525090806001815401808255809150506001900390600052602060002090600602016000909190919091506000820151816000015560208201518160010155604082015181600201556060820151816003015560808201518160040160006101000a8154816001600160a01b0302191690836001600160a01b0316021790555060a082015181600501555050601360008781526020019081526020016000206040518060c00160405280888152602001868152602001600354815260200187815260200160006001600160a01b03168152602001600081525090806001815401808255809150506001900390600052602060002090600602016000909190919091506000820151816000015560208201518160010155604082015181600201556060820151816003015560808201518160040160006101000a8154816001600160a01b0302191690836001600160a01b0316021790555060a08201518160050155505050808061140f90613a34565b915050610da4565b50505b505050565b336000908152600b602052604090205460ff1615156001141561145d5760405162461bcd60e51b815260040161145490613852565b60405180910390fd5b336000908152600b60205260408120805460ff19166001179055600280549161148583613a34565b90915550507fbbc70db1b6c7afd11e79c0fb0051300458f1a3acb8ee9789d9b6b26c61ad9bc7805460018082019092557fed65b032d5a5fa3a5b6544566ee46a0f6b8fe8b1375ec878dc3be6580b078495018054336001600160a01b03199182168117909255604080516101808101825283815260208082018d81528284018d8152606084018d8152608085018d815260a086018d815260c087018d905260e087018c9052600061010088018190526101208801819052610140880181905242610160890152998a526006865296909820855181549098166001600160a01b03909816979097178755915197860197909755955160028501559451600384015592516004830155518051929391926115a39260058501920190613190565b5060c082015180516115bf916006840191602090910190613190565b5060e08201516007820155610100808301516008830180546101208601516101408701516001600160a01b0316620100000262010000600160b01b031991151590950261ff001994151560ff19909316929092179390931617919091169190911790556101609091015160099091015550505050505050565b6007602081905260009182526040909120805460018201546002830154600384015460048501546005860154600687015497870154600888015460099098015496986001600160a01b039096169794969395929491939091908a565b6000828152600e60205260409020600101546001600160a01b031633146116ba57600080fd5b8080156116d957506000828152600e602052604090206006015460ff16155b15611740576000828152600e60205260409020600501541561171f576000828152600e6020908152604080832060058101546003918201548552600d9093529220909101555b6000828152600e60205260409020600401805460ff19166001179055611782565b8015801561176057506000828152600e602052604090206006015460ff16155b15611782576000828152600e60205260409020600401805460ff191660021790555b5050565b6000546001600160a01b0316331480156117b857506001600160a01b03811660009081526009602052604090205460ff165b15610230576001600160a01b03811660009081526009602090815260408220805460ff191690556001825260089052600080516020613a9183398151915254905b818110156119915760016000526008602052600080516020613a9183398151915280546001600160a01b03851691908390811061184657634e487b7160e01b600052603260045260246000fd5b6000918252602090912001546001600160a01b0316141561197f57600160008190526008602052600080516020613a918339815191529061188790846139e2565b815481106118a557634e487b7160e01b600052603260045260246000fd5b6000918252602080832090910154600190925260089052600080516020613a9183398151915280546001600160a01b0390921691839081106118f757634e487b7160e01b600052603260045260246000fd5b600091825260208083209190910180546001600160a01b0319166001600160a01b0394909416939093179092556001905260089052600080516020613a9183398151915280548061195857634e487b7160e01b600052603160045260246000fd5b600082815260209020810160001990810180546001600160a01b0319169055019055611991565b8061198981613a34565b9150506117f9565b505061084b565b60045481565b3360009081526006602052604090206008015460ff1680156119c657506119c483610734565b155b80156119d25750600088115b80156119f6575033600090815260066020526040902060080154610100900460ff16155b156102305760038054906000611a0b83613a34565b9091555050604080516101a0810182526003805480835260208084018881528486018e8152606086018c8152608087018f815260a088018f815260c089018e815260e08a018d90526101008a018c905260006101208b018190526101408b01819052336101608c015280546001600160a01b03166101808c0152978852600d875299909620885181559351600185015591516002840155519482019490945592516004840155905160058301559251805192939192611ad09260068501920190613190565b5060e08201518051611aec916007840191602090910190613190565b506101008201518051611b09916008840191602090910190613190565b506101208201518160090160006101000a81548160ff0219169083151502179055506101408201518160090160016101000a81548160ff0219169083151502179055506101608201518160090160026101000a8154816001600160a01b0302191690836001600160a01b0316021790555061018082015181600a0160006101000a8154816001600160a01b0302191690836001600160a01b03160217905550905050600c6000336001600160a01b03166001600160a01b031681526020019081526020016000206003549080600181540180825580915050600190039060005260206000200160009091909190915055601160006001815260200190815260200160002060035490806001815401808255809150506001900390600052602060002001600090919091909150556013600060035481526020019081526020016000206040518060c00160405280600354815260200160008152602001600081526020018a815260200160006001600160a01b031681526020014281525090806001815401808255809150506001900390600052602060002090600602016000909190919091506000820151816000015560208201518160010155604082015181600201556060820151816003015560808201518160040160006101000a8154816001600160a01b0302191690836001600160a01b0316021790555060a0820151816005015550506013600060035481526020019081526020016000206040518060c00160405280600354815260200160008152602001600081526020018a815260200160006001600160a01b031681526020014281525090806001815401808255809150506001900390600052602060002090600602016000909190919091506000820151816000015560208201518160010155604082015181600201556060820151816003015560808201518160040160006101000a8154816001600160a01b0302191690836001600160a01b0316021790555060a0820151816005015550506013600060035481526020019081526020016000206040518060c00160405280600354815260200160008152602001600081526020018a815260200160006001600160a01b031681526020014281525090806001815401808255809150506001900390600052602060002090600602016000909190919091506000820151816000015560208201518160010155604082015181600201556060820151816003015560808201518160040160006101000a8154816001600160a01b0302191690836001600160a01b0316021790555060a0820151816005015550506013600060035481526020019081526020016000206040518060c00160405280600354815260200160008152602001600081526020018a815260200160006001600160a01b031681526020014281525090806001815401808255809150506001900390600052602060002090600602016000909190919091506000820151816000015560208201518160010155604082015181600201556060820151816003015560808201518160040160006101000a8154816001600160a01b0302191690836001600160a01b0316021790555060a0820151816005015550505050505050505050565b6000838152600d60205260409020600901546201000090046001600160a01b031633148015611fed57506000838152600d6020526040902060090154610100900460ff165b15610230578015612023576000838152600d60205260409020600a0180546001600160a01b0319166001600160a01b0384161790555b8015801561204d57506000838152600d60205260409020600a01546001600160a01b038381169116145b156120845760008054848252600d6020526040909120600a0180546001600160a01b0319166001600160a01b039092169190911790555b61141a565b60015481565b336000908152601060209081526040918290208054835181840281018401909452808452606093928301828280156107fd57602002820191906000526020600020908154815260200190600101908083116107e9575050505050905090565b3360009081526006602052604090206008015460ff16801561212657506000828152600d6020526040902060090154610100900460ff165b801561215257506000828152600d60205260409020600901546201000090046001600160a01b03163314155b15610230576005805490600061216783613a34565b90915550506040805160e0810182526005548082526000858152600d6020908152848220600901546201000090046001600160a01b0390811682860190815233868801908152606087018a81526080880186815260a089018b905260c08901879052968652600e90945296909320855181559251600180850180549284166001600160a01b03199384161790559651600285018054919093169116179055516003820155905160048083018054949593949293909260ff191691849081111561224057634e487b7160e01b600052602160045260246000fd5b021790555060a082015160058281019190915560c0909201516006909101805460ff19169115159190911790556000838152600d60209081526040808320600901546201000090046001600160a01b03168352600f8252808320845481546001818101845592865284862001553384526010835290832093548454918201855593835291200155611782565b6001600052601260209081527f71a67924699a20698523213e55fe499d539379d7769cd5567e2c45d583f815a380546040805182850281018501909152818152606093909291908301828280156107fd57602002820191906000526020600020908154815260200190600101908083116107e9575050505050905090565b6001600160a01b031660009081526006602052604090206008015460ff1690565b6000838152600d60205260409020600901546201000090046001600160a01b0316331480156123b057506000838152600d6020526040902060090154610100900460ff165b15610230576000838152600d6020526040902060098101805460ff191684151517905560030181905561141a565b600e60205260009081526040902080546001820154600283015460038401546004850154600586015460069096015494956001600160a01b03948516959390941693919260ff91821692911687565b601460205260009081526040902080546001909101546001600160a01b039091169082565b61245b336129cc565b61246457600080fd5b6001600160a01b0382166000908152600660209081526040808320600801805461ff001916610100179055600c8252808320805482518185028101850190935280835291929091908301828280156124db57602002820191906000526020600020905b8154815260200190600101908083116124c7575b5050505050905060005b815181101561272057600082828151811061251057634e487b7160e01b600052603260045260246000fd5b6020908102919091018101516000818152600d90925260409091206009810154919250906001600160a01b0387811662010000909204161480156125695750600581015433600090815260076020526040902060060154145b1561270b576004805490600061257e83613a34565b909155505084516125989060078301906020880190613190565b50600981018054600a83015461ff01600160b01b03199091166001600160a01b03918216620100008102919091179092556000918252600c60209081526040808420805460018101825590855291842090910185905590881682528120905b81548110156126e4578382828154811061262157634e487b7160e01b600052603260045260246000fd5b906000526020600020015414156126d25781548290612642906001906139e2565b8154811061266057634e487b7160e01b600052603260045260246000fd5b906000526020600020015482828154811061268b57634e487b7160e01b600052603260045260246000fd5b9060005260206000200181905550818054806126b757634e487b7160e01b600052603160045260246000fd5b600190038181906000526020600020016000905590556126e4565b806126dc81613a34565b9150506125f7565b5050600054600a820180546001600160a01b0319166001600160a01b039092169190911790555b5050808061271890613a34565b9150506124e5565b50505050565b6001600160a01b0381166000908152600c602090815260409182902080548351818402810184019094528084526060939283018282801561278657602002820191906000526020600020905b815481526020019060010190808311612772575b50505050509050919050565b600160005260086020908152600080516020613a9183398151915280546040805182850281018501909152818152606093909291908301828280156107fd576020028201919060005260206000209081546001600160a01b03168152600190910190602001808311610c95575050505050905090565b6006602052600090815260409020805460018201546002830154600384015460048501546005860180546001600160a01b0390961696949593949293919291612850906139f9565b80601f016020809104026020016040519081016040528092919081815260200182805461287c906139f9565b80156128c95780601f1061289e576101008083540402835291602001916128c9565b820191906000526020600020905b8154815290600101906020018083116128ac57829003601f168201915b5050505050908060060180546128de906139f9565b80601f016020809104026020016040519081016040528092919081815260200182805461290a906139f9565b80156129575780601f1061292c57610100808354040283529160200191612957565b820191906000526020600020905b81548152906001019060200180831161293a57829003601f168201915b50505050600783015460088401546009909401549293909260ff8083169350610100830416916201000090046001600160a01b0316908c565b60096020526000908152604090205460ff1681565b600080546001600160a01b03838116911614156129c45750600161077c565b50600061077c565b6001600160a01b03811660009081526009602052604081205460ff16156129c45750600161077c565b600d602052806000526040600020600091509050806000015490806001015490806002015490806003015490806004015490806005015490806006018054612a3c906139f9565b80601f0160208091040260200160405190810160405280929190818152602001828054612a68906139f9565b8015612ab55780601f10612a8a57610100808354040283529160200191612ab5565b820191906000526020600020905b815481529060010190602001808311612a9857829003601f168201915b505050505090806007018054612aca906139f9565b80601f0160208091040260200160405190810160405280929190818152602001828054612af6906139f9565b8015612b435780601f10612b1857610100808354040283529160200191612b43565b820191906000526020600020905b815481529060010190602001808311612b2657829003601f168201915b505050505090806008018054612b58906139f9565b80601f0160208091040260200160405190810160405280929190818152602001828054612b84906139f9565b8015612bd15780601f10612ba657610100808354040283529160200191612bd1565b820191906000526020600020905b815481529060010190602001808311612bb457829003601f168201915b5050506009840154600a90940154929360ff80821694610100830490911693506001600160a01b036201000090920482169250168d565b6000818152600e60205260409020600201546001600160a01b031633148015612c65575060016000828152600e6020526040902060049081015460ff1690811115612c6357634e487b7160e01b600052602160045260246000fd5b145b8015612c8d57506000818152600e60205260409020600101546001600160a01b038381169116145b8015612cba57506000818152600e602090815260408083206003908101548452600d909252909120015434145b15610230576000818152600e60209081526040808320600481018054600360ff199182161790915560069091018054909116600190811790915560129092527f71a67924699a20698523213e55fe499d539379d7769cd5567e2c45d583f815a38054928301815583527f09d3634ec98b7a093f4c560246b0e10c09e0e06c46ca9be08ca93e6cf08d8d13909101839055516001600160a01b038416913480156108fc02929091818181858888f19350505050158015612d7d573d6000803e3d6000fd5b50611782565b612d8c336129cc565b8015612db857506000818152600d60205260409020600901546201000090046001600160a01b03163314155b8015612df457506000818152600d60209081526040808320600901546201000090046001600160a01b03168352600690915290206008015460ff165b8015612e2157506000818152600d6020908152604080832060050154338452600790925290912060060154145b15610230576000818152600d60209081526040808320600901805461010061ff0019909116179055805180820182523381524281840190815285855260149093529220915182546001600160a01b0319166001600160a01b03909116178255516001919091015561084b565b612e96336129cc565b612e9f57600080fd5b6000828152600e602052604090206006015460ff16158015612eef57506000828152600e60209081526040808320600301548352600d825280832060050154338452600790925290912060060154145b15612ef957600080fd5b60048054906000612f0983613a34565b90915550506000828152600e602090815260408083206004808201805460ff1916909117905560028101546001600160a01b039081168552600c84528285206003830154815460018181018455928852958720909501949094559201549091168252812054905b818110156130f7576000848152600e6020908152604080832060038101546001909101546001600160a01b03168452600c909252909120805483908110612fc757634e487b7160e01b600052603260045260246000fd5b906000526020600020015414156130e5576000848152600e602090815260408083206001908101546001600160a01b03168452600c9092529091209061300d90846139e2565b8154811061302b57634e487b7160e01b600052603260045260246000fd5b6000918252602080832090910154868352600e82526040808420600101546001600160a01b03168452600c909252912080548390811061307b57634e487b7160e01b600052603260045260246000fd5b6000918252602080832090910192909255858152600e82526040808220600101546001600160a01b03168252600c909252208054806130ca57634e487b7160e01b600052603160045260246000fd5b600190038181906000526020600020016000905590556130f7565b806130ef81613a34565b915050612f70565b506000838152600e60209081526040808320600301548352600d8252909120835161312a92600790920191850190613190565b5050506000908152600e602090815260408083206003810180548552600d9093528184206009908101805460ff19169055600290910154925484529220909101805462010000600160b01b0319166001600160a01b039092166201000002919091179055565b82805461319c906139f9565b90600052602060002090601f0160209004810192826131be5760008555613204565b82601f106131d757805160ff1916838001178555613204565b82800160010185558215613204579182015b828111156132045782518255916020019190600101906131e9565b50613210929150613214565b5090565b5b808211156132105760008155600101613215565b8035801515811461077c57600080fd5b600082601f830112613249578081fd5b813567ffffffffffffffff8082111561326457613264613a65565b604051601f8301601f19168101602001828111828210171561328857613288613a65565b60405282815284830160200186101561329f578384fd5b82602086016020830137918201602001929092529392505050565b6000602082840312156132cb578081fd5b81356132d681613a7b565b9392505050565b600080604083850312156132ef578081fd5b82356132fa81613a7b565b946020939093013593505050565b60008060008060008060008060006101208a8c031215613326578485fd5b893561333181613a7b565b9b60208b01359b5060408b01359a60608101359a506080810135995060a0810135985060c0810135975060e081013596506101000135945092505050565b60008060408385031215613381578182fd5b823561338c81613a7b565b9150602083013567ffffffffffffffff8111156133a7578182fd5b6133b385828601613239565b9150509250929050565b600080600080600080600060e0888a0312156133d7578283fd5b87359650602088013595506040880135945060608801359350608088013567ffffffffffffffff8082111561340a578485fd5b6134168b838c01613239565b945060a08a013591508082111561342b578384fd5b506134388a828b01613239565b92505060c0880135905092959891949750929550565b60006020828403121561345f578081fd5b5035919050565b60008060006060848603121561347a578283fd5b83359250602084013561348c81613a7b565b915061349a60408501613229565b90509250925092565b600080604083850312156134b5578182fd5b823591506134c560208401613229565b90509250929050565b6000806000606084860312156134e2578283fd5b833592506134f260208501613229565b9150604084013590509250925092565b600080600080600080600080610100898b03121561351e578384fd5b88359750602089013596506040890135955060608901359450608089013567ffffffffffffffff80821115613551578586fd5b61355d8c838d01613239565b955060a08b0135945060c08b0135915080821115613579578384fd5b6135858c838d01613239565b935060e08b013591508082111561359a578283fd5b506135a78b828c01613239565b9150509295985092959890939650565b600080604083850312156135c9578182fd5b82359150602083013567ffffffffffffffff8111156133a7578182fd5b600080604083850312156135f8578182fd5b50508035926020909101359150565b60008060006060848603121561361b578081fd5b505081359360208301359350604090920135919050565b6001600160a01b03169052565b15159052565b60008151808452815b8181101561366a5760208185018101518683018201520161364e565b8181111561367b5782602083870101525b50601f01601f19169290920160200192915050565b9283526020830191909152604082015260600190565b600060018060a01b03808f1683528d60208401528c60408401528b60608401528a608084015261018060a08401526136e261018084018b613645565b83810360c08501526136f4818b613645565b60e0850199909952509515156101008301525092151561012084015292166101408201526101600152979650505050505050565b6001600160a01b03929092168252602082015260400190565b6020808252825182820181905260009190848201906040850190845b818110156137825783516001600160a01b03168352928401929184019160010161375d565b50909695505050505050565b602080825282518282018190526000919060409081850190868401855b828110156138025781518051855286810151878601528581015186860152606080820151908601526080808201516001600160a01b03169086015260a0908101519085015260c090930192908501906001016137ab565b5091979650505050505050565b6020808252825182820181905260009190848201906040850190845b818110156137825783518352928401929184019160010161382b565b901515815260200190565b602080825260139082015272105b1b1c995859195e481c9959da5cdd195c99606a1b604082015260600190565b90815260200190565b8781526001600160a01b038781166020830152861660408201526060810185905260e08101600585106138cb57634e487b7160e01b600052602160045260246000fd5b8460808301528360a083015282151560c083015298975050505050505050565b998a526001600160a01b039890981660208a015260408901969096526060880194909452608087019290925260a086015260c085015260e08401526101008301526101208201526101400190565b60006101a08f83528e60208401528d60408401528c60608401528b60808401528a60a08401528060c08401526139718184018b613645565b905082810360e0840152613985818a613645565b905082810361010084015261399a8189613645565b9150508515156101208301526139b461014083018661363f565b6139c2610160830185613632565b6139d0610180830184613632565b9e9d5050505050505050505050505050565b6000828210156139f4576139f4613a4f565b500390565b600281046001821680613a0d57607f821691505b60208210811415613a2e57634e487b7160e01b600052602260045260246000fd5b50919050565b6000600019821415613a4857613a48613a4f565b5060010190565b634e487b7160e01b600052601160045260246000fd5b634e487b7160e01b600052604160045260246000fd5b6001600160a01b038116811461084b57600080fdfead67d757c34507f157cacfa2e3153e9f260a2244f30428821be7be64587ac55fa264697066735822122024a035d9e993d775bd2acdd1a31181995a7fea112b1806071a651bc001ca6b4164736f6c63430008000033",
  "linkReferences": {},
  "deployedLinkReferences": {}
}