{
  "_format": "hh-sol-artifact-1",
  "contractName": "LandRegistryContract",
  "sourceName": "contracts/LandRegistryContract.sol",
  "abi": [
    {
      "inputs": [],
      "stateMutability": "nonpayable",
      "type": "constructor"
    },
    {
      "inputs": [
        {
          "internalType": "uint256",
          "name": "landId",
          "type": "uint256"
        },
        {
          "internalType": "address payable",
          "name": "proxyOwner",
          "type": "address"
        },
        {
          "internalType": "bool",
          "name": "x",
          "type": "bool"
        }
      ],
      "name": "AndandRemoveProxyOwner",
      "outputs": [],
      "stateMutability": "nonpayable",
      "type": "function"
    },
    {
      "inputs": [
        {
          "internalType": "uint256",
          "name": "_propertyPID",
          "type": "uint256"
        }
      ],
      "name": "CheckDuplicatePid",
      "outputs": [
        {
          "internalType": "bool",
          "name": "",
          "type": "bool"
        }
      ],
      "stateMutability": "view",
      "type": "function"
    },
    {
      "inputs": [
        {
          "internalType": "address",
          "name": "",
          "type": "address"
        }
      ],
      "name": "InspectorMapping",
      "outputs": [
        {
          "internalType": "uint256",
          "name": "id",
          "type": "uint256"
        },
        {
          "internalType": "address",
          "name": "addr",
          "type": "address"
        },
        {
          "internalType": "bytes32",
          "name": "name",
          "type": "bytes32"
        },
        {
          "internalType": "bytes32",
          "name": "dob",
          "type": "bytes32"
        },
        {
          "internalType": "uint256",
          "name": "cnic",
          "type": "uint256"
        },
        {
          "internalType": "bytes32",
          "name": "city",
          "type": "bytes32"
        },
        {
          "internalType": "bytes32",
          "name": "designation",
          "type": "bytes32"
        }
      ],
      "stateMutability": "view",
      "type": "function"
    },
    {
      "inputs": [
        {
          "internalType": "uint256",
          "name": "",
          "type": "uint256"
        }
      ],
      "name": "LandRequestMapping",
      "outputs": [
        {
          "internalType": "uint256",
          "name": "reqId",
          "type": "uint256"
        },
        {
          "internalType": "address payable",
          "name": "sellerId",
          "type": "address"
        },
        {
          "internalType": "address payable",
          "name": "buyerId",
          "type": "address"
        },
        {
          "internalType": "uint256",
          "name": "landId",
          "type": "uint256"
        },
        {
          "internalType": "enum LandRegistryContract.reqStatus",
          "name": "requestStatus",
          "type": "uint8"
        },
        {
          "internalType": "uint256",
          "name": "bidPrice",
          "type": "uint256"
        },
        {
          "internalType": "bool",
          "name": "isPaymentDone",
          "type": "bool"
        }
      ],
      "stateMutability": "view",
      "type": "function"
    },
    {
      "inputs": [
        {
          "internalType": "address",
          "name": "",
          "type": "address"
        }
      ],
      "name": "RegisteredInspectorMapping",
      "outputs": [
        {
          "internalType": "bool",
          "name": "",
          "type": "bool"
        }
      ],
      "stateMutability": "view",
      "type": "function"
    },
    {
      "inputs": [
        {
          "internalType": "address",
          "name": "",
          "type": "address"
        }
      ],
      "name": "RegisteredUserMapping",
      "outputs": [
        {
          "internalType": "bool",
          "name": "",
          "type": "bool"
        }
      ],
      "stateMutability": "view",
      "type": "function"
    },
    {
      "inputs": [],
      "name": "ReturnAllLandIncpectorList",
      "outputs": [
        {
          "internalType": "address[]",
          "name": "",
          "type": "address[]"
        }
      ],
      "stateMutability": "view",
      "type": "function"
    },
    {
      "inputs": [],
      "name": "ReturnAllLandList",
      "outputs": [
        {
          "internalType": "uint256[]",
          "name": "",
          "type": "uint256[]"
        }
      ],
      "stateMutability": "view",
      "type": "function"
    },
    {
      "inputs": [],
      "name": "ReturnAllUserList",
      "outputs": [
        {
          "internalType": "address[]",
          "name": "",
          "type": "address[]"
        }
      ],
      "stateMutability": "view",
      "type": "function"
    },
    {
      "inputs": [
        {
          "internalType": "address",
          "name": "",
          "type": "address"
        }
      ],
      "name": "UserMapping",
      "outputs": [
        {
          "internalType": "address",
          "name": "id",
          "type": "address"
        },
        {
          "internalType": "bytes32",
          "name": "name",
          "type": "bytes32"
        },
        {
          "internalType": "bytes32",
          "name": "dob",
          "type": "bytes32"
        },
        {
          "internalType": "bytes32",
          "name": "city",
          "type": "bytes32"
        },
        {
          "internalType": "uint256",
          "name": "cinc",
          "type": "uint256"
        },
        {
          "internalType": "bytes32",
          "name": "document",
          "type": "bytes32"
        },
        {
          "internalType": "bytes32",
          "name": "profilepic",
          "type": "bytes32"
        },
        {
          "internalType": "bytes32",
          "name": "email",
          "type": "bytes32"
        },
        {
          "internalType": "bool",
          "name": "isUserVerified",
          "type": "bool"
        },
        {
          "internalType": "bool",
          "name": "death",
          "type": "bool"
        },
        {
          "internalType": "address",
          "name": "verfiedby",
          "type": "address"
        },
        {
          "internalType": "uint256",
          "name": "verifydate",
          "type": "uint256"
        }
      ],
      "stateMutability": "view",
      "type": "function"
    },
    {
      "inputs": [
        {
          "internalType": "uint256",
          "name": "_requestId",
          "type": "uint256"
        },
        {
          "internalType": "bool",
          "name": "acceptreject",
          "type": "bool"
        }
      ],
      "name": "acceptRequest",
      "outputs": [],
      "stateMutability": "nonpayable",
      "type": "function"
    },
    {
      "inputs": [
        {
          "internalType": "uint256",
          "name": "_area",
          "type": "uint256"
        },
        {
          "internalType": "bytes32",
          "name": "_landAddress",
          "type": "bytes32"
        },
        {
          "internalType": "uint256",
          "name": "_landPrice",
          "type": "uint256"
        },
        {
          "internalType": "bytes32",
          "name": "_allLatiLongi",
          "type": "bytes32"
        },
        {
          "internalType": "uint256",
          "name": "_propertyPID",
          "type": "uint256"
        },
        {
          "internalType": "bytes32",
          "name": "_document",
          "type": "bytes32"
        },
        {
          "internalType": "bytes32",
          "name": "_landpic",
          "type": "bytes32"
        }
      ],
      "name": "addLand",
      "outputs": [],
      "stateMutability": "nonpayable",
      "type": "function"
    },
    {
      "inputs": [
        {
          "internalType": "address",
          "name": "_addr",
          "type": "address"
        },
        {
          "internalType": "bytes32",
          "name": "_name",
          "type": "bytes32"
        },
        {
          "internalType": "bytes32",
          "name": "_dob",
          "type": "bytes32"
        },
        {
          "internalType": "uint256",
          "name": "_cinc",
          "type": "uint256"
        },
        {
          "internalType": "bytes32",
          "name": "_designation",
          "type": "bytes32"
        },
        {
          "internalType": "bytes32",
          "name": "_city",
          "type": "bytes32"
        }
      ],
      "name": "addLandInspector",
      "outputs": [
        {
          "internalType": "bool",
          "name": "",
          "type": "bool"
        }
      ],
      "stateMutability": "nonpayable",
      "type": "function"
    },
    {
      "inputs": [
        {
          "internalType": "address",
          "name": "_addr",
          "type": "address"
        }
      ],
      "name": "changeContractOwner",
      "outputs": [],
      "stateMutability": "nonpayable",
      "type": "function"
    },
    {
      "inputs": [],
      "name": "documentId",
      "outputs": [
        {
          "internalType": "uint256",
          "name": "",
          "type": "uint256"
        }
      ],
      "stateMutability": "view",
      "type": "function"
    },
    {
      "inputs": [
        {
          "internalType": "uint256",
          "name": "landId",
          "type": "uint256"
        }
      ],
      "name": "getLandHistory",
      "outputs": [
        {
          "components": [
            {
              "internalType": "uint256",
              "name": "parentId",
              "type": "uint256"
            },
            {
              "internalType": "uint256",
              "name": "childCount",
              "type": "uint256"
            },
            {
              "internalType": "uint256",
              "name": "childId",
              "type": "uint256"
            },
            {
              "internalType": "uint256",
              "name": "area",
              "type": "uint256"
            },
            {
              "internalType": "address",
              "name": "ownerAddress",
              "type": "address"
            },
            {
              "internalType": "uint256",
              "name": "timestamp",
              "type": "uint256"
            }
          ],
          "internalType": "struct LandRegistryContract.LandHistory[]",
          "name": "",
          "type": "tuple[]"
        }
      ],
      "stateMutability": "view",
      "type": "function"
    },
    {
      "inputs": [],
      "name": "inspectorsCount",
      "outputs": [
        {
          "internalType": "uint256",
          "name": "",
          "type": "uint256"
        }
      ],
      "stateMutability": "view",
      "type": "function"
    },
    {
      "inputs": [
        {
          "internalType": "address",
          "name": "_addr",
          "type": "address"
        }
      ],
      "name": "isContractOwner",
      "outputs": [
        {
          "internalType": "bool",
          "name": "",
          "type": "bool"
        }
      ],
      "stateMutability": "view",
      "type": "function"
    },
    {
      "inputs": [
        {
          "internalType": "address",
          "name": "_id",
          "type": "address"
        }
      ],
      "name": "isLandInspector",
      "outputs": [
        {
          "internalType": "bool",
          "name": "",
          "type": "bool"
        }
      ],
      "stateMutability": "view",
      "type": "function"
    },
    {
      "inputs": [
        {
          "internalType": "address",
          "name": "id",
          "type": "address"
        }
      ],
      "name": "isUserVerified",
      "outputs": [
        {
          "internalType": "bool",
          "name": "",
          "type": "bool"
        }
      ],
      "stateMutability": "view",
      "type": "function"
    },
    {
      "inputs": [
        {
          "internalType": "uint256",
          "name": "",
          "type": "uint256"
        }
      ],
      "name": "landinfo",
      "outputs": [
        {
          "internalType": "address",
          "name": "verfiedby",
          "type": "address"
        },
        {
          "internalType": "uint256",
          "name": "timestamp",
          "type": "uint256"
        }
      ],
      "stateMutability": "view",
      "type": "function"
    },
    {
      "inputs": [
        {
          "internalType": "uint256",
          "name": "",
          "type": "uint256"
        }
      ],
      "name": "lands",
      "outputs": [
        {
          "internalType": "uint256",
          "name": "id",
          "type": "uint256"
        },
        {
          "internalType": "uint256",
          "name": "propertyPID",
          "type": "uint256"
        },
        {
          "internalType": "uint256",
          "name": "area",
          "type": "uint256"
        },
        {
          "internalType": "uint256",
          "name": "landPrice",
          "type": "uint256"
        },
        {
          "internalType": "bytes32",
          "name": "landAddress",
          "type": "bytes32"
        },
        {
          "internalType": "bytes32",
          "name": "allLatitudeLongitude",
          "type": "bytes32"
        },
        {
          "internalType": "bytes32",
          "name": "document",
          "type": "bytes32"
        },
        {
          "internalType": "bytes32",
          "name": "Landpic",
          "type": "bytes32"
        },
        {
          "internalType": "bool",
          "name": "isforSell",
          "type": "bool"
        },
        {
          "internalType": "bool",
          "name": "isLandVerified",
          "type": "bool"
        },
        {
          "internalType": "address payable",
          "name": "ownerAddress",
          "type": "address"
        },
        {
          "internalType": "address payable",
          "name": "proxyownerAddress",
          "type": "address"
        }
      ],
      "stateMutability": "view",
      "type": "function"
    },
    {
      "inputs": [],
      "name": "landsCount",
      "outputs": [
        {
          "internalType": "uint256",
          "name": "",
          "type": "uint256"
        }
      ],
      "stateMutability": "view",
      "type": "function"
    },
    {
      "inputs": [
        {
          "internalType": "uint256",
          "name": "_landId",
          "type": "uint256"
        },
        {
          "internalType": "bool",
          "name": "sell",
          "type": "bool"
        },
        {
          "internalType": "uint256",
          "name": "_newPrice",
          "type": "uint256"
        }
      ],
      "name": "makeItforSell",
      "outputs": [],
      "stateMutability": "nonpayable",
      "type": "function"
    },
    {
      "inputs": [
        {
          "internalType": "address payable",
          "name": "_receiver",
          "type": "address"
        },
        {
          "internalType": "uint256",
          "name": "_requestId",
          "type": "uint256"
        }
      ],
      "name": "makePayment",
      "outputs": [],
      "stateMutability": "payable",
      "type": "function"
    },
    {
      "inputs": [
        {
          "internalType": "address",
          "name": "id",
          "type": "address"
        }
      ],
      "name": "myAllLands",
      "outputs": [
        {
          "internalType": "uint256[]",
          "name": "",
          "type": "uint256[]"
        }
      ],
      "stateMutability": "view",
      "type": "function"
    },
    {
      "inputs": [],
      "name": "myReceivedLandRequests",
      "outputs": [
        {
          "internalType": "uint256[]",
          "name": "",
          "type": "uint256[]"
        }
      ],
      "stateMutability": "view",
      "type": "function"
    },
    {
      "inputs": [],
      "name": "mySentLandRequests",
      "outputs": [
        {
          "internalType": "uint256[]",
          "name": "",
          "type": "uint256[]"
        }
      ],
      "stateMutability": "view",
      "type": "function"
    },
    {
      "inputs": [
        {
          "internalType": "bytes32",
          "name": "_name",
          "type": "bytes32"
        },
        {
          "internalType": "bytes32",
          "name": "_dob",
          "type": "bytes32"
        },
        {
          "internalType": "bytes32",
          "name": "_city",
          "type": "bytes32"
        },
        {
          "internalType": "uint256",
          "name": "_cinc",
          "type": "uint256"
        },
        {
          "internalType": "bytes32",
          "name": "_document",
          "type": "bytes32"
        },
        {
          "internalType": "bytes32",
          "name": "_profilepic",
          "type": "bytes32"
        },
        {
          "internalType": "bytes32",
          "name": "_email",
          "type": "bytes32"
        }
      ],
      "name": "registerUser",
      "outputs": [],
      "stateMutability": "nonpayable",
      "type": "function"
    },
    {
      "inputs": [
        {
          "internalType": "address",
          "name": "_addr",
          "type": "address"
        }
      ],
      "name": "removeLandInspector",
      "outputs": [],
      "stateMutability": "nonpayable",
      "type": "function"
    },
    {
      "inputs": [
        {
          "internalType": "uint256",
          "name": "_landId",
          "type": "uint256"
        },
        {
          "internalType": "uint256",
          "name": "_bidPrice",
          "type": "uint256"
        }
      ],
      "name": "requestforBuyWithBid",
      "outputs": [],
      "stateMutability": "nonpayable",
      "type": "function"
    },
    {
      "inputs": [],
      "name": "returnPaymentDoneList",
      "outputs": [
        {
          "internalType": "uint256[]",
          "name": "",
          "type": "uint256[]"
        }
      ],
      "stateMutability": "view",
      "type": "function"
    },
    {
      "inputs": [
        {
          "internalType": "uint256",
          "name": "id",
          "type": "uint256"
        },
        {
          "internalType": "uint256",
          "name": "newarea",
          "type": "uint256"
        },
        {
          "internalType": "uint256",
          "name": "numplots",
          "type": "uint256"
        }
      ],
      "name": "subplot",
      "outputs": [],
      "stateMutability": "nonpayable",
      "type": "function"
    },
    {
      "inputs": [
        {
          "internalType": "uint256",
          "name": "_requestId",
          "type": "uint256"
        },
        {
          "internalType": "bytes32",
          "name": "documentUrl",
          "type": "bytes32"
        }
      ],
      "name": "transferOwnership",
      "outputs": [],
      "stateMutability": "nonpayable",
      "type": "function"
    },
    {
      "inputs": [
        {
          "internalType": "address",
          "name": "deceased",
          "type": "address"
        },
        {
          "internalType": "bytes32",
          "name": "documentUrl",
          "type": "bytes32"
        }
      ],
      "name": "transferOwnership1",
      "outputs": [],
      "stateMutability": "nonpayable",
      "type": "function"
    },
    {
      "inputs": [],
      "name": "userCount",
      "outputs": [
        {
          "internalType": "uint256",
          "name": "",
          "type": "uint256"
        }
      ],
      "stateMutability": "view",
      "type": "function"
    },
    {
      "inputs": [
        {
          "internalType": "uint256",
          "name": "_id",
          "type": "uint256"
        }
      ],
      "name": "verifyLand",
      "outputs": [],
      "stateMutability": "nonpayable",
      "type": "function"
    },
    {
      "inputs": [
        {
          "internalType": "address",
          "name": "_userId",
          "type": "address"
        }
      ],
      "name": "verifyUser",
      "outputs": [],
      "stateMutability": "nonpayable",
      "type": "function"
    }
  ],
  "bytecode": "0x608060405234801561001057600080fd5b50336000806101000a81548173ffffffffffffffffffffffffffffffffffffffff021916908373ffffffffffffffffffffffffffffffffffffffff160217905550615293806100606000396000f3fe6080604052600436106102255760003560e01c80638fe2b87311610123578063d196ebf2116100ab578063e165af871161006f578063e165af871461088f578063e261f1e5146108cc578063f98cf07c14610914578063f9c43bdf14610930578063ff84fe871461095957610225565b8063d196ebf214610765578063d251839b146107a2578063d61ff68c146107cd578063dd056ebc14610815578063de1176881461085257610225565b8063a846fc8f116100f2578063a846fc8f14610653578063ace417e01461067e578063af189cd1146106bb578063b10a30ed146106e4578063c6acafcd1461072757610225565b80638fe2b873146105ab578063941e2426146105d45780639c32e3b4146105ff5780639dec448e1461062a57610225565b80634d813120116101b157806364efa0021161017557806364efa002146104c2578063690a3ca9146105055780637517e00f1461052e57806378f7c83f14610557578063836b39791461058257610225565b80634d813120146103cb5780634f389721146103f4578063553a998d14610431578063579d77951461045c57806358051d931461049957610225565b806332f2bb14116101f857806332f2bb14146102e857806339348f84146103255780633ead67b51461034e578063499701b2146103775780634b077418146103a257610225565b806307973ccf1461022a57806312ca3f1f146102555780631c9afd0f1461029257806323393d77146102bd575b600080fd5b34801561023657600080fd5b5061023f610982565b60405161024c919061446a565b60405180910390f35b34801561026157600080fd5b5061027c600480360381019061027791906144b6565b610988565b60405161028991906144fe565b60405180910390f35b34801561029e57600080fd5b506102a76109de565b6040516102b4919061446a565b60405180910390f35b3480156102c957600080fd5b506102d26109e4565b6040516102df91906145d7565b60405180910390f35b3480156102f457600080fd5b5061030f600480360381019061030a9190614657565b610a4e565b60405161031c91906144fe565b60405180910390f35b34801561033157600080fd5b5061034c600480360381019061034791906146ba565b610a6e565b005b34801561035a57600080fd5b5061037560048036038101906103709190614657565b610dd8565b005b34801561038357600080fd5b5061038c610e6f565b60405161039991906145d7565b60405180910390f35b3480156103ae57600080fd5b506103c960048036038101906103c4919061475c565b610f04565b005b3480156103d757600080fd5b506103f260048036038101906103ed9190614657565b611684565b005b34801561040057600080fd5b5061041b600480360381019061041691906144b6565b6117fa565b6040516104289190614937565b60405180910390f35b34801561043d57600080fd5b506104466118fa565b6040516104539190614a08565b60405180910390f35b34801561046857600080fd5b50610483600480360381019061047e9190614a2a565b61199a565b60405161049091906144fe565b60405180910390f35b3480156104a557600080fd5b506104c060048036038101906104bb9190614ab7565b611d19565b005b3480156104ce57600080fd5b506104e960048036038101906104e49190614657565b612495565b6040516104fc9796959493929190614b28565b60405180910390f35b34801561051157600080fd5b5061052c60048036038101906105279190614bc3565b6124f7565b005b34801561053a57600080fd5b5061055560048036038101906105509190614657565b6126bc565b005b34801561056357600080fd5b5061056c6129b2565b604051610579919061446a565b60405180910390f35b34801561058e57600080fd5b506105a960048036038101906105a49190614c41565b6129b8565b005b3480156105b757600080fd5b506105d260048036038101906105cd9190614c94565b612ba3565b005b3480156105e057600080fd5b506105e9612fef565b6040516105f6919061446a565b60405180910390f35b34801561060b57600080fd5b50610614612ff5565b60405161062191906145d7565b60405180910390f35b34801561063657600080fd5b50610651600480360381019061064c9190614cd4565b61308a565b005b34801561065f57600080fd5b50610668613466565b60405161067591906145d7565b60405180910390f35b34801561068a57600080fd5b506106a560048036038101906106a09190614657565b6134d0565b6040516106b291906144fe565b60405180910390f35b3480156106c757600080fd5b506106e260048036038101906106dd9190614d14565b613529565b005b3480156106f057600080fd5b5061070b600480360381019061070691906144b6565b613617565b60405161071e9796959493929190614ded565b60405180910390f35b34801561073357600080fd5b5061074e600480360381019061074991906144b6565b6136b3565b60405161075c929190614e5c565b60405180910390f35b34801561077157600080fd5b5061078c60048036038101906107879190614657565b6136f7565b60405161079991906145d7565b60405180910390f35b3480156107ae57600080fd5b506107b761378e565b6040516107c49190614a08565b60405180910390f35b3480156107d957600080fd5b506107f460048036038101906107ef9190614657565b61382e565b60405161080c9c9b9a99989796959493929190614e85565b60405180910390f35b34801561082157600080fd5b5061083c60048036038101906108379190614657565b6138e8565b60405161084991906144fe565b60405180910390f35b34801561085e57600080fd5b5061087960048036038101906108749190614657565b613908565b60405161088691906144fe565b60405180910390f35b34801561089b57600080fd5b506108b660048036038101906108b19190614657565b613971565b6040516108c391906144fe565b60405180910390f35b3480156108d857600080fd5b506108f360048036038101906108ee91906144b6565b6139d8565b60405161090b9c9b9a99989796959493929190614f3f565b60405180910390f35b61092e60048036038101906109299190614ff9565b613a92565b005b34801561093c57600080fd5b50610957600480360381019061095291906144b6565b613cf1565b005b34801561096557600080fd5b50610980600480360381019061097b9190615039565b613ec9565b005b60025481565b600080600090505b60035481116109d35782600d600083815260200190815260200160002060010154036109c05760019150506109d9565b80806109cb906150a8565b915050610990565b50600090505b919050565b60035481565b60606011600060018152602001908152602001600020805480602002602001604051908101604052809291908181526020018280548015610a4457602002820191906000526020600020905b815481526020019060010190808311610a30575b5050505050905090565b600b6020528060005260406000206000915054906101000a900460ff1681565b60011515600b60003373ffffffffffffffffffffffffffffffffffffffff1673ffffffffffffffffffffffffffffffffffffffff16815260200190815260200160002060009054906101000a900460ff16151503610b01576040517f08c379a0000000000000000000000000000000000000000000000000000000008152600401610af89061514d565b60405180910390fd5b6001600b60003373ffffffffffffffffffffffffffffffffffffffff1673ffffffffffffffffffffffffffffffffffffffff16815260200190815260200160002060006101000a81548160ff02191690831515021790555060026000815480929190610b6c906150a8565b9190505550600a600060018152602001908152602001600020339080600181540180825580915050600190039060005260206000200160009091909190916101000a81548173ffffffffffffffffffffffffffffffffffffffff021916908373ffffffffffffffffffffffffffffffffffffffff1602179055506040518061018001604052803373ffffffffffffffffffffffffffffffffffffffff168152602001888152602001878152602001868152602001858152602001848152602001838152602001828152602001600015158152602001600015158152602001600073ffffffffffffffffffffffffffffffffffffffff16815260200142815250600660003373ffffffffffffffffffffffffffffffffffffffff1673ffffffffffffffffffffffffffffffffffffffff16815260200190815260200160002060008201518160000160006101000a81548173ffffffffffffffffffffffffffffffffffffffff021916908373ffffffffffffffffffffffffffffffffffffffff1602179055506020820151816001015560408201518160020155606082015181600301556080820151816004015560a0820151816005015560c0820151816006015560e082015181600701556101008201518160080160006101000a81548160ff0219169083151502179055506101208201518160080160016101000a81548160ff0219169083151502179055506101408201518160080160026101000a81548173ffffffffffffffffffffffffffffffffffffffff021916908373ffffffffffffffffffffffffffffffffffffffff160217905550610160820151816009015590505050505050505050565b60008054906101000a900473ffffffffffffffffffffffffffffffffffffffff1673ffffffffffffffffffffffffffffffffffffffff163373ffffffffffffffffffffffffffffffffffffffff1603610e6c57806000806101000a81548173ffffffffffffffffffffffffffffffffffffffff021916908373ffffffffffffffffffffffffffffffffffffffff1602179055505b50565b6060600f60003373ffffffffffffffffffffffffffffffffffffffff1673ffffffffffffffffffffffffffffffffffffffff168152602001908152602001600020805480602002602001604051908101604052809291908181526020018280548015610efa57602002820191906000526020600020905b815481526020019060010190808311610ee6575b5050505050905090565b600660003373ffffffffffffffffffffffffffffffffffffffff1673ffffffffffffffffffffffffffffffffffffffff16815260200190815260200160002060080160009054906101000a900460ff168015610f665750610f6483610988565b155b8015610f725750600087115b8015610fcb5750600660003373ffffffffffffffffffffffffffffffffffffffff1673ffffffffffffffffffffffffffffffffffffffff16815260200190815260200160002060080160019054906101000a900460ff16155b156116765760036000815480929190610fe3906150a8565b919050555060405180610180016040528060035481526020018481526020018881526020018681526020018781526020018581526020018381526020018281526020016000151581526020016000151581526020013373ffffffffffffffffffffffffffffffffffffffff16815260200160008054906101000a900473ffffffffffffffffffffffffffffffffffffffff1673ffffffffffffffffffffffffffffffffffffffff16815250600d60006003548152602001908152602001600020600082015181600001556020820151816001015560408201518160020155606082015181600301556080820151816004015560a0820151816005015560c0820151816006015560e082015181600701556101008201518160080160006101000a81548160ff0219169083151502179055506101208201518160080160016101000a81548160ff0219169083151502179055506101408201518160080160026101000a81548173ffffffffffffffffffffffffffffffffffffffff021916908373ffffffffffffffffffffffffffffffffffffffff1602179055506101608201518160090160006101000a81548173ffffffffffffffffffffffffffffffffffffffff021916908373ffffffffffffffffffffffffffffffffffffffff160217905550905050600c60003373ffffffffffffffffffffffffffffffffffffffff1673ffffffffffffffffffffffffffffffffffffffff1681526020019081526020016000206003549080600181540180825580915050600190039060005260206000200160009091909190915055601160006001815260200190815260200160002060035490806001815401808255809150506001900390600052602060002001600090919091909150556013600060035481526020019081526020016000206040518060c0016040528060035481526020016000815260200160008152602001898152602001600073ffffffffffffffffffffffffffffffffffffffff1681526020014281525090806001815401808255809150506001900390600052602060002090600602016000909190919091506000820151816000015560208201518160010155604082015181600201556060820151816003015560808201518160040160006101000a81548173ffffffffffffffffffffffffffffffffffffffff021916908373ffffffffffffffffffffffffffffffffffffffff16021790555060a0820151816005015550506013600060035481526020019081526020016000206040518060c0016040528060035481526020016000815260200160008152602001898152602001600073ffffffffffffffffffffffffffffffffffffffff1681526020014281525090806001815401808255809150506001900390600052602060002090600602016000909190919091506000820151816000015560208201518160010155604082015181600201556060820151816003015560808201518160040160006101000a81548173ffffffffffffffffffffffffffffffffffffffff021916908373ffffffffffffffffffffffffffffffffffffffff16021790555060a0820151816005015550506013600060035481526020019081526020016000206040518060c0016040528060035481526020016000815260200160008152602001898152602001600073ffffffffffffffffffffffffffffffffffffffff1681526020014281525090806001815401808255809150506001900390600052602060002090600602016000909190919091506000820151816000015560208201518160010155604082015181600201556060820151816003015560808201518160040160006101000a81548173ffffffffffffffffffffffffffffffffffffffff021916908373ffffffffffffffffffffffffffffffffffffffff16021790555060a0820151816005015550506013600060035481526020019081526020016000206040518060c0016040528060035481526020016000815260200160008152602001898152602001600073ffffffffffffffffffffffffffffffffffffffff1681526020014281525090806001815401808255809150506001900390600052602060002090600602016000909190919091506000820151816000015560208201518160010155604082015181600201556060820151816003015560808201518160040160006101000a81548173ffffffffffffffffffffffffffffffffffffffff021916908373ffffffffffffffffffffffffffffffffffffffff16021790555060a08201518160050155505061167b565b600080fd5b50505050505050565b61168d33613971565b80156116c557503373ffffffffffffffffffffffffffffffffffffffff168173ffffffffffffffffffffffffffffffffffffffff1614155b156117f2576001600660008373ffffffffffffffffffffffffffffffffffffffff1673ffffffffffffffffffffffffffffffffffffffff16815260200190815260200160002060080160006101000a81548160ff02191690831515021790555033600660008373ffffffffffffffffffffffffffffffffffffffff1673ffffffffffffffffffffffffffffffffffffffff16815260200190815260200160002060080160026101000a81548173ffffffffffffffffffffffffffffffffffffffff021916908373ffffffffffffffffffffffffffffffffffffffff16021790555042600660008373ffffffffffffffffffffffffffffffffffffffff1673ffffffffffffffffffffffffffffffffffffffff168152602001908152602001600020600901819055506117f7565b600080fd5b50565b6060600060136000848152602001908152602001600020805480602002602001604051908101604052809291908181526020016000905b828210156118eb57838290600052602060002090600602016040518060c0016040529081600082015481526020016001820154815260200160028201548152602001600382015481526020016004820160009054906101000a900473ffffffffffffffffffffffffffffffffffffffff1673ffffffffffffffffffffffffffffffffffffffff1673ffffffffffffffffffffffffffffffffffffffff16815260200160058201548152505081526020019060010190611831565b50505050905080915050919050565b6060600a60006001815260200190815260200160002080548060200260200160405190810160405280929190818152602001828054801561199057602002820191906000526020600020905b8160009054906101000a900473ffffffffffffffffffffffffffffffffffffffff1673ffffffffffffffffffffffffffffffffffffffff1681526020019060010190808311611946575b5050505050905090565b60008060009054906101000a900473ffffffffffffffffffffffffffffffffffffffff1673ffffffffffffffffffffffffffffffffffffffff163373ffffffffffffffffffffffffffffffffffffffff16148015611a48575060001515600960008973ffffffffffffffffffffffffffffffffffffffff1673ffffffffffffffffffffffffffffffffffffffff16815260200190815260200160002060009054906101000a900460ff161515145b15611d0a5760005b600154811015611b0b57846007600060086000600181526020019081526020016000208481548110611a8557611a8461516d565b5b9060005260206000200160009054906101000a900473ffffffffffffffffffffffffffffffffffffffff1673ffffffffffffffffffffffffffffffffffffffff1673ffffffffffffffffffffffffffffffffffffffff1681526020019081526020016000206004015403611af857600080fd5b8080611b03906150a8565b915050611a50565b506001600960008973ffffffffffffffffffffffffffffffffffffffff1673ffffffffffffffffffffffffffffffffffffffff16815260200190815260200160002060006101000a81548160ff02191690831515021790555060016000815480929190611b77906150a8565b91905055506008600060018152602001908152602001600020879080600181540180825580915050600190039060005260206000200160009091909190916101000a81548173ffffffffffffffffffffffffffffffffffffffff021916908373ffffffffffffffffffffffffffffffffffffffff1602179055506040518060e0016040528060015481526020018873ffffffffffffffffffffffffffffffffffffffff16815260200187815260200186815260200185815260200184815260200183815250600760008973ffffffffffffffffffffffffffffffffffffffff1673ffffffffffffffffffffffffffffffffffffffff1681526020019081526020016000206000820151816000015560208201518160010160006101000a81548173ffffffffffffffffffffffffffffffffffffffff021916908373ffffffffffffffffffffffffffffffffffffffff16021790555060408201518160020155606082015181600301556080820151816004015560a0820151816005015560c0820151816006015590505060019050611d0f565b600080fd5b9695505050505050565b600660003373ffffffffffffffffffffffffffffffffffffffff1673ffffffffffffffffffffffffffffffffffffffff16815260200190815260200160002060080160009054906101000a900460ff168015611d955750600d600084815260200190815260200160002060080160019054906101000a900460ff165b8015611e0257503373ffffffffffffffffffffffffffffffffffffffff16600d600085815260200190815260200160002060080160029054906101000a900473ffffffffffffffffffffffffffffffffffffffff1673ffffffffffffffffffffffffffffffffffffffff16145b8015611e0e5750600081115b8015611e2f5750600d60008481526020019081526020016000206002015482105b8015611e5c5750600d600084815260200190815260200160002060080160009054906101000a900460ff16155b8015611eb55750600660003373ffffffffffffffffffffffffffffffffffffffff1673ffffffffffffffffffffffffffffffffffffffff16815260200190815260200160002060080160019054906101000a900460ff16155b1561248b576000600d60008581526020019081526020016000206001015490506000600190505b828111158015611f02575083600d60008781526020019081526020016000206002015410155b156124845783600d60008781526020019081526020016000206002016000828254611f2d919061519c565b9250508190555060036000815480929190611f47906150a8565b919050555060004260035484604051602001611f65939291906151f1565b6040516020818303038152906040528051906020012060001c90506040518061018001604052806003548152602001828152602001868152602001600d6000898152602001908152602001600020600301548152602001600d6000898152602001908152602001600020600401548152602001600d6000898152602001908152602001600020600501548152602001600d6000898152602001908152602001600020600601548152602001600d60008981526020019081526020016000206007015481526020016000151581526020016001151581526020013373ffffffffffffffffffffffffffffffffffffffff16815260200160008054906101000a900473ffffffffffffffffffffffffffffffffffffffff1673ffffffffffffffffffffffffffffffffffffffff16815250600d60006003548152602001908152602001600020600082015181600001556020820151816001015560408201518160020155606082015181600301556080820151816004015560a0820151816005015560c0820151816006015560e082015181600701556101008201518160080160006101000a81548160ff0219169083151502179055506101208201518160080160016101000a81548160ff0219169083151502179055506101408201518160080160026101000a81548173ffffffffffffffffffffffffffffffffffffffff021916908373ffffffffffffffffffffffffffffffffffffffff1602179055506101608201518160090160006101000a81548173ffffffffffffffffffffffffffffffffffffffff021916908373ffffffffffffffffffffffffffffffffffffffff160217905550905050600c60003373ffffffffffffffffffffffffffffffffffffffff1673ffffffffffffffffffffffffffffffffffffffff1681526020019081526020016000206003549080600181540180825580915050600190039060005260206000200160009091909190915055601160006001815260200190815260200160002060035490806001815401808255809150506001900390600052602060002001600090919091909150556013600060035481526020019081526020016000206040518060c001604052808881526020016000815260200160008152602001878152602001600073ffffffffffffffffffffffffffffffffffffffff1681526020014281525090806001815401808255809150506001900390600052602060002090600602016000909190919091506000820151816000015560208201518160010155604082015181600201556060820151816003015560808201518160040160006101000a81548173ffffffffffffffffffffffffffffffffffffffff021916908373ffffffffffffffffffffffffffffffffffffffff16021790555060a082015181600501555050601360008781526020019081526020016000206040518060c001604052808881526020018681526020016003548152602001878152602001600073ffffffffffffffffffffffffffffffffffffffff168152602001600081525090806001815401808255809150506001900390600052602060002090600602016000909190919091506000820151816000015560208201518160010155604082015181600201556060820151816003015560808201518160040160006101000a81548173ffffffffffffffffffffffffffffffffffffffff021916908373ffffffffffffffffffffffffffffffffffffffff16021790555060a08201518160050155505050808061247c906150a8565b915050611edc565b5050612490565b600080fd5b505050565b60076020528060005260406000206000915090508060000154908060010160009054906101000a900473ffffffffffffffffffffffffffffffffffffffff16908060020154908060030154908060040154908060050154908060060154905087565b3373ffffffffffffffffffffffffffffffffffffffff16600e600084815260200190815260200160002060010160009054906101000a900473ffffffffffffffffffffffffffffffffffffffff1673ffffffffffffffffffffffffffffffffffffffff161461256557600080fd5b8080156125935750600e600083815260200190815260200160002060060160009054906101000a900460ff16155b15612643576000600e60008481526020019081526020016000206005015411156125ff57600e600083815260200190815260200160002060050154600d6000600e6000868152602001908152602001600020600301548152602001908152602001600020600301819055505b6001600e600084815260200190815260200160002060040160006101000a81548160ff0219169083600481111561263957612638614d76565b5b02179055506126b8565b801580156126725750600e600083815260200190815260200160002060060160009054906101000a900460ff16155b156126b7576002600e600084815260200190815260200160002060040160006101000a81548160ff021916908360048111156126b1576126b0614d76565b5b02179055505b5b5050565b60008054906101000a900473ffffffffffffffffffffffffffffffffffffffff1673ffffffffffffffffffffffffffffffffffffffff163373ffffffffffffffffffffffffffffffffffffffff161480156127605750600960008273ffffffffffffffffffffffffffffffffffffffff1673ffffffffffffffffffffffffffffffffffffffff16815260200190815260200160002060009054906101000a900460ff165b156129aa576000600960008373ffffffffffffffffffffffffffffffffffffffff1673ffffffffffffffffffffffffffffffffffffffff16815260200190815260200160002060006101000a81548160ff0219169083151502179055506000600860006001815260200190815260200160002080549050905060005b818110156129a3578273ffffffffffffffffffffffffffffffffffffffff16600860006001815260200190815260200160002082815481106128215761282061516d565b5b9060005260206000200160009054906101000a900473ffffffffffffffffffffffffffffffffffffffff1673ffffffffffffffffffffffffffffffffffffffff1603612990576008600060018152602001908152602001600020600183612888919061519c565b815481106128995761289861516d565b5b9060005260206000200160009054906101000a900473ffffffffffffffffffffffffffffffffffffffff16600860006001815260200190815260200160002082815481106128ea576128e961516d565b5b9060005260206000200160006101000a81548173ffffffffffffffffffffffffffffffffffffffff021916908373ffffffffffffffffffffffffffffffffffffffff16021790555060086000600181526020019081526020016000208054806129565761295561522e565b5b6001900381819060005260206000200160006101000a81549073ffffffffffffffffffffffffffffffffffffffff021916905590556129a3565b808061299b906150a8565b9150506127dc565b50506129af565b600080fd5b50565b60045481565b3373ffffffffffffffffffffffffffffffffffffffff16600d600085815260200190815260200160002060080160029054906101000a900473ffffffffffffffffffffffffffffffffffffffff1673ffffffffffffffffffffffffffffffffffffffff16148015612a495750600d600084815260200190815260200160002060080160019054906101000a900460ff165b15612b99578015612aaa5781600d600085815260200190815260200160002060090160006101000a81548173ffffffffffffffffffffffffffffffffffffffff021916908373ffffffffffffffffffffffffffffffffffffffff1602179055505b80158015612b1957508173ffffffffffffffffffffffffffffffffffffffff16600d600085815260200190815260200160002060090160009054906101000a900473ffffffffffffffffffffffffffffffffffffffff1673ffffffffffffffffffffffffffffffffffffffff16145b15612b945760008054906101000a900473ffffffffffffffffffffffffffffffffffffffff16600d600085815260200190815260200160002060090160006101000a81548173ffffffffffffffffffffffffffffffffffffffff021916908373ffffffffffffffffffffffffffffffffffffffff1602179055505b612b9e565b600080fd5b505050565b612bac33613971565b612bb557600080fd5b6001600660008473ffffffffffffffffffffffffffffffffffffffff1673ffffffffffffffffffffffffffffffffffffffff16815260200190815260200160002060080160016101000a81548160ff0219169083151502179055506000600c60008473ffffffffffffffffffffffffffffffffffffffff1673ffffffffffffffffffffffffffffffffffffffff168152602001908152602001600020805480602002602001604051908101604052809291908181526020018280548015612c9b57602002820191906000526020600020905b815481526020019060010190808311612c87575b5050505050905060005b8151811015612fe9576000828281518110612cc357612cc261516d565b5b602002602001015190506000600d600083815260200190815260200160002090508573ffffffffffffffffffffffffffffffffffffffff168160080160029054906101000a900473ffffffffffffffffffffffffffffffffffffffff1673ffffffffffffffffffffffffffffffffffffffff1603612fd45760046000815480929190612d4e906150a8565b919050555084816006018190555060008160080160006101000a81548160ff0219169083151502179055508060090160009054906101000a900473ffffffffffffffffffffffffffffffffffffffff168160080160026101000a81548173ffffffffffffffffffffffffffffffffffffffff021916908373ffffffffffffffffffffffffffffffffffffffff160217905550600c60008260090160009054906101000a900473ffffffffffffffffffffffffffffffffffffffff1673ffffffffffffffffffffffffffffffffffffffff1673ffffffffffffffffffffffffffffffffffffffff1681526020019081526020016000208290806001815401808255809150506001900390600052602060002001600090919091909150556000600c60008873ffffffffffffffffffffffffffffffffffffffff1673ffffffffffffffffffffffffffffffffffffffff168152602001908152602001600020905060005b8180549050811015612f6e5783828281548110612ed057612ecf61516d565b5b906000526020600020015403612f5b578160018380549050612ef2919061519c565b81548110612f0357612f0261516d565b5b9060005260206000200154828281548110612f2157612f2061516d565b5b906000526020600020018190555081805480612f4057612f3f61522e565b5b60019003818190600052602060002001600090559055612f6e565b8080612f66906150a8565b915050612eb0565b5060008054906101000a900473ffffffffffffffffffffffffffffffffffffffff168260090160006101000a81548173ffffffffffffffffffffffffffffffffffffffff021916908373ffffffffffffffffffffffffffffffffffffffff160217905550505b50508080612fe1906150a8565b915050612ca5565b50505050565b60015481565b6060601060003373ffffffffffffffffffffffffffffffffffffffff1673ffffffffffffffffffffffffffffffffffffffff16815260200190815260200160002080548060200260200160405190810160405280929190818152602001828054801561308057602002820191906000526020600020905b81548152602001906001019080831161306c575b5050505050905090565b600660003373ffffffffffffffffffffffffffffffffffffffff1673ffffffffffffffffffffffffffffffffffffffff16815260200190815260200160002060080160009054906101000a900460ff1680156131065750600d600083815260200190815260200160002060080160019054906101000a900460ff165b80156131745750600d600083815260200190815260200160002060080160029054906101000a900473ffffffffffffffffffffffffffffffffffffffff1673ffffffffffffffffffffffffffffffffffffffff163373ffffffffffffffffffffffffffffffffffffffff1614155b1561345d576005600081548092919061318c906150a8565b91905055506040518060e001604052806005548152602001600d600085815260200190815260200160002060080160029054906101000a900473ffffffffffffffffffffffffffffffffffffffff1673ffffffffffffffffffffffffffffffffffffffff1681526020013373ffffffffffffffffffffffffffffffffffffffff1681526020018381526020016000600481111561322c5761322b614d76565b5b815260200182815260200160001515815250600e600060055481526020019081526020016000206000820151816000015560208201518160010160006101000a81548173ffffffffffffffffffffffffffffffffffffffff021916908373ffffffffffffffffffffffffffffffffffffffff16021790555060408201518160020160006101000a81548173ffffffffffffffffffffffffffffffffffffffff021916908373ffffffffffffffffffffffffffffffffffffffff1602179055506060820151816003015560808201518160040160006101000a81548160ff021916908360048111156133205761331f614d76565b5b021790555060a0820151816005015560c08201518160060160006101000a81548160ff021916908315150217905550905050600f6000600d600085815260200190815260200160002060080160029054906101000a900473ffffffffffffffffffffffffffffffffffffffff1673ffffffffffffffffffffffffffffffffffffffff1673ffffffffffffffffffffffffffffffffffffffff1681526020019081526020016000206005549080600181540180825580915050600190039060005260206000200160009091909190915055601060003373ffffffffffffffffffffffffffffffffffffffff1673ffffffffffffffffffffffffffffffffffffffff1681526020019081526020016000206005549080600181540180825580915050600190039060005260206000200160009091909190915055613462565b600080fd5b5050565b606060126000600181526020019081526020016000208054806020026020016040519081016040528092919081815260200182805480156134c657602002820191906000526020600020905b8154815260200190600101908083116134b2575b5050505050905090565b6000600660008373ffffffffffffffffffffffffffffffffffffffff1673ffffffffffffffffffffffffffffffffffffffff16815260200190815260200160002060080160009054906101000a900460ff169050919050565b3373ffffffffffffffffffffffffffffffffffffffff16600d600085815260200190815260200160002060080160029054906101000a900473ffffffffffffffffffffffffffffffffffffffff1673ffffffffffffffffffffffffffffffffffffffff161480156135ba5750600d600084815260200190815260200160002060080160019054906101000a900460ff165b1561360d5781600d600085815260200190815260200160002060080160006101000a81548160ff02191690831515021790555080600d600085815260200190815260200160002060030181905550613612565b600080fd5b505050565b600e6020528060005260406000206000915090508060000154908060010160009054906101000a900473ffffffffffffffffffffffffffffffffffffffff16908060020160009054906101000a900473ffffffffffffffffffffffffffffffffffffffff16908060030154908060040160009054906101000a900460ff16908060050154908060060160009054906101000a900460ff16905087565b60146020528060005260406000206000915090508060000160009054906101000a900473ffffffffffffffffffffffffffffffffffffffff16908060010154905082565b6060600c60008373ffffffffffffffffffffffffffffffffffffffff1673ffffffffffffffffffffffffffffffffffffffff16815260200190815260200160002080548060200260200160405190810160405280929190818152602001828054801561378257602002820191906000526020600020905b81548152602001906001019080831161376e575b50505050509050919050565b6060600860006001815260200190815260200160002080548060200260200160405190810160405280929190818152602001828054801561382457602002820191906000526020600020905b8160009054906101000a900473ffffffffffffffffffffffffffffffffffffffff1673ffffffffffffffffffffffffffffffffffffffff16815260200190600101908083116137da575b5050505050905090565b60066020528060005260406000206000915090508060000160009054906101000a900473ffffffffffffffffffffffffffffffffffffffff16908060010154908060020154908060030154908060040154908060050154908060060154908060070154908060080160009054906101000a900460ff16908060080160019054906101000a900460ff16908060080160029054906101000a900473ffffffffffffffffffffffffffffffffffffffff1690806009015490508c565b60096020528060005260406000206000915054906101000a900460ff1681565b60008060009054906101000a900473ffffffffffffffffffffffffffffffffffffffff1673ffffffffffffffffffffffffffffffffffffffff168273ffffffffffffffffffffffffffffffffffffffff1603613967576001905061396c565b600090505b919050565b6000600960008373ffffffffffffffffffffffffffffffffffffffff1673ffffffffffffffffffffffffffffffffffffffff16815260200190815260200160002060009054906101000a900460ff16156139ce57600190506139d3565b600090505b919050565b600d6020528060005260406000206000915090508060000154908060010154908060020154908060030154908060040154908060050154908060060154908060070154908060080160009054906101000a900460ff16908060080160019054906101000a900460ff16908060080160029054906101000a900473ffffffffffffffffffffffffffffffffffffffff16908060090160009054906101000a900473ffffffffffffffffffffffffffffffffffffffff1690508c565b3373ffffffffffffffffffffffffffffffffffffffff16600e600083815260200190815260200160002060020160009054906101000a900473ffffffffffffffffffffffffffffffffffffffff1673ffffffffffffffffffffffffffffffffffffffff16148015613b4a575060016004811115613b1257613b11614d76565b5b600e600083815260200190815260200160002060040160009054906101000a900460ff166004811115613b4857613b47614d76565b5b145b8015613bb757508173ffffffffffffffffffffffffffffffffffffffff16600e600083815260200190815260200160002060010160009054906101000a900473ffffffffffffffffffffffffffffffffffffffff1673ffffffffffffffffffffffffffffffffffffffff16145b8015613bee5750600d6000600e60008481526020019081526020016000206003015481526020019081526020016000206003015434145b15613ce8576003600e600083815260200190815260200160002060040160006101000a81548160ff02191690836004811115613c2d57613c2c614d76565b5b02179055506001600e600083815260200190815260200160002060060160006101000a81548160ff02191690831515021790555060126000600181526020019081526020016000208190806001815401808255809150506001900390600052602060002001600090919091909150558173ffffffffffffffffffffffffffffffffffffffff166108fc349081150290604051600060405180830381858888f19350505050158015613ce2573d6000803e3d6000fd5b50613ced565b600080fd5b5050565b613cfa33613971565b8015613d6857503373ffffffffffffffffffffffffffffffffffffffff16600d600083815260200190815260200160002060080160029054906101000a900473ffffffffffffffffffffffffffffffffffffffff1673ffffffffffffffffffffffffffffffffffffffff1614155b8015613df6575060066000600d600084815260200190815260200160002060080160029054906101000a900473ffffffffffffffffffffffffffffffffffffffff1673ffffffffffffffffffffffffffffffffffffffff1673ffffffffffffffffffffffffffffffffffffffff16815260200190815260200160002060080160009054906101000a900460ff165b15613ec1576001600d600083815260200190815260200160002060080160016101000a81548160ff02191690831515021790555060405180604001604052803373ffffffffffffffffffffffffffffffffffffffff168152602001428152506014600083815260200190815260200160002060008201518160000160006101000a81548173ffffffffffffffffffffffffffffffffffffffff021916908373ffffffffffffffffffffffffffffffffffffffff16021790555060208201518160010155905050613ec6565b600080fd5b50565b613ed233613971565b613edb57600080fd5b60001515600e600084815260200190815260200160002060060160009054906101000a900460ff16151503613f0f57600080fd5b60046000815480929190613f22906150a8565b91905055506004600e600084815260200190815260200160002060040160006101000a81548160ff02191690836004811115613f6157613f60614d76565b5b0217905550600c6000600e600085815260200190815260200160002060020160009054906101000a900473ffffffffffffffffffffffffffffffffffffffff1673ffffffffffffffffffffffffffffffffffffffff1673ffffffffffffffffffffffffffffffffffffffff168152602001908152602001600020600e60008481526020019081526020016000206003015490806001815401808255809150506001900390600052602060002001600090919091909150556000600c6000600e600086815260200190815260200160002060010160009054906101000a900473ffffffffffffffffffffffffffffffffffffffff1673ffffffffffffffffffffffffffffffffffffffff1673ffffffffffffffffffffffffffffffffffffffff16815260200190815260200160002080549050905060005b8181101561433457600e600085815260200190815260200160002060030154600c6000600e600088815260200190815260200160002060010160009054906101000a900473ffffffffffffffffffffffffffffffffffffffff1673ffffffffffffffffffffffffffffffffffffffff1673ffffffffffffffffffffffffffffffffffffffff168152602001908152602001600020828154811061413e5761413d61516d565b5b90600052602060002001540361432157600c6000600e600087815260200190815260200160002060010160009054906101000a900473ffffffffffffffffffffffffffffffffffffffff1673ffffffffffffffffffffffffffffffffffffffff1673ffffffffffffffffffffffffffffffffffffffff1681526020019081526020016000206001836141d0919061519c565b815481106141e1576141e061516d565b5b9060005260206000200154600c6000600e600088815260200190815260200160002060010160009054906101000a900473ffffffffffffffffffffffffffffffffffffffff1673ffffffffffffffffffffffffffffffffffffffff1673ffffffffffffffffffffffffffffffffffffffff16815260200190815260200160002082815481106142735761427261516d565b5b9060005260206000200181905550600c6000600e600087815260200190815260200160002060010160009054906101000a900473ffffffffffffffffffffffffffffffffffffffff1673ffffffffffffffffffffffffffffffffffffffff1673ffffffffffffffffffffffffffffffffffffffff1681526020019081526020016000208054806143065761430561522e565b5b60019003818190600052602060002001600090559055614334565b808061432c906150a8565b915050614098565b5081600d6000600e6000878152602001908152602001600020600301548152602001908152602001600020600601819055506000600d6000600e600087815260200190815260200160002060030154815260200190815260200160002060080160006101000a81548160ff021916908315150217905550600e600084815260200190815260200160002060020160009054906101000a900473ffffffffffffffffffffffffffffffffffffffff16600d6000600e600087815260200190815260200160002060030154815260200190815260200160002060080160026101000a81548173ffffffffffffffffffffffffffffffffffffffff021916908373ffffffffffffffffffffffffffffffffffffffff160217905550505050565b6000819050919050565b61446481614451565b82525050565b600060208201905061447f600083018461445b565b92915050565b600080fd5b61449381614451565b811461449e57600080fd5b50565b6000813590506144b08161448a565b92915050565b6000602082840312156144cc576144cb614485565b5b60006144da848285016144a1565b91505092915050565b60008115159050919050565b6144f8816144e3565b82525050565b600060208201905061451360008301846144ef565b92915050565b600081519050919050565b600082825260208201905092915050565b6000819050602082019050919050565b61454e81614451565b82525050565b60006145608383614545565b60208301905092915050565b6000602082019050919050565b600061458482614519565b61458e8185614524565b935061459983614535565b8060005b838110156145ca5781516145b18882614554565b97506145bc8361456c565b92505060018101905061459d565b5085935050505092915050565b600060208201905081810360008301526145f18184614579565b905092915050565b600073ffffffffffffffffffffffffffffffffffffffff82169050919050565b6000614624826145f9565b9050919050565b61463481614619565b811461463f57600080fd5b50565b6000813590506146518161462b565b92915050565b60006020828403121561466d5761466c614485565b5b600061467b84828501614642565b91505092915050565b6000819050919050565b61469781614684565b81146146a257600080fd5b50565b6000813590506146b48161468e565b92915050565b600080600080600080600060e0888a0312156146d9576146d8614485565b5b60006146e78a828b016146a5565b97505060206146f88a828b016146a5565b96505060406147098a828b016146a5565b955050606061471a8a828b016144a1565b945050608061472b8a828b016146a5565b93505060a061473c8a828b016146a5565b92505060c061474d8a828b016146a5565b91505092959891949750929550565b600080600080600080600060e0888a03121561477b5761477a614485565b5b60006147898a828b016144a1565b975050602061479a8a828b016146a5565b96505060406147ab8a828b016144a1565b95505060606147bc8a828b016146a5565b94505060806147cd8a828b016144a1565b93505060a06147de8a828b016146a5565b92505060c06147ef8a828b016146a5565b91505092959891949750929550565b600081519050919050565b600082825260208201905092915050565b6000819050602082019050919050565b61483381614619565b82525050565b60c08201600082015161484f6000850182614545565b5060208201516148626020850182614545565b5060408201516148756040850182614545565b5060608201516148886060850182614545565b50608082015161489b608085018261482a565b5060a08201516148ae60a0850182614545565b50505050565b60006148c08383614839565b60c08301905092915050565b6000602082019050919050565b60006148e4826147fe565b6148ee8185614809565b93506148f98361481a565b8060005b8381101561492a57815161491188826148b4565b975061491c836148cc565b9250506001810190506148fd565b5085935050505092915050565b6000602082019050818103600083015261495181846148d9565b905092915050565b600081519050919050565b600082825260208201905092915050565b6000819050602082019050919050565b6000614991838361482a565b60208301905092915050565b6000602082019050919050565b60006149b582614959565b6149bf8185614964565b93506149ca83614975565b8060005b838110156149fb5781516149e28882614985565b97506149ed8361499d565b9250506001810190506149ce565b5085935050505092915050565b60006020820190508181036000830152614a2281846149aa565b905092915050565b60008060008060008060c08789031215614a4757614a46614485565b5b6000614a5589828a01614642565b9650506020614a6689828a016146a5565b9550506040614a7789828a016146a5565b9450506060614a8889828a016144a1565b9350506080614a9989828a016146a5565b92505060a0614aaa89828a016146a5565b9150509295509295509295565b600080600060608486031215614ad057614acf614485565b5b6000614ade868287016144a1565b9350506020614aef868287016144a1565b9250506040614b00868287016144a1565b9150509250925092565b614b1381614619565b82525050565b614b2281614684565b82525050565b600060e082019050614b3d600083018a61445b565b614b4a6020830189614b0a565b614b576040830188614b19565b614b646060830187614b19565b614b71608083018661445b565b614b7e60a0830185614b19565b614b8b60c0830184614b19565b98975050505050505050565b614ba0816144e3565b8114614bab57600080fd5b50565b600081359050614bbd81614b97565b92915050565b60008060408385031215614bda57614bd9614485565b5b6000614be8858286016144a1565b9250506020614bf985828601614bae565b9150509250929050565b6000614c0e826145f9565b9050919050565b614c1e81614c03565b8114614c2957600080fd5b50565b600081359050614c3b81614c15565b92915050565b600080600060608486031215614c5a57614c59614485565b5b6000614c68868287016144a1565b9350506020614c7986828701614c2c565b9250506040614c8a86828701614bae565b9150509250925092565b60008060408385031215614cab57614caa614485565b5b6000614cb985828601614642565b9250506020614cca858286016146a5565b9150509250929050565b60008060408385031215614ceb57614cea614485565b5b6000614cf9858286016144a1565b9250506020614d0a858286016144a1565b9150509250929050565b600080600060608486031215614d2d57614d2c614485565b5b6000614d3b868287016144a1565b9350506020614d4c86828701614bae565b9250506040614d5d868287016144a1565b9150509250925092565b614d7081614c03565b82525050565b7f4e487b7100000000000000000000000000000000000000000000000000000000600052602160045260246000fd5b60058110614db657614db5614d76565b5b50565b6000819050614dc782614da5565b919050565b6000614dd782614db9565b9050919050565b614de781614dcc565b82525050565b600060e082019050614e02600083018a61445b565b614e0f6020830189614d67565b614e1c6040830188614d67565b614e29606083018761445b565b614e366080830186614dde565b614e4360a083018561445b565b614e5060c08301846144ef565b98975050505050505050565b6000604082019050614e716000830185614b0a565b614e7e602083018461445b565b9392505050565b600061018082019050614e9b600083018f614b0a565b614ea8602083018e614b19565b614eb5604083018d614b19565b614ec2606083018c614b19565b614ecf608083018b61445b565b614edc60a083018a614b19565b614ee960c0830189614b19565b614ef660e0830188614b19565b614f046101008301876144ef565b614f126101208301866144ef565b614f20610140830185614b0a565b614f2e61016083018461445b565b9d9c50505050505050505050505050565b600061018082019050614f55600083018f61445b565b614f62602083018e61445b565b614f6f604083018d61445b565b614f7c606083018c61445b565b614f89608083018b614b19565b614f9660a083018a614b19565b614fa360c0830189614b19565b614fb060e0830188614b19565b614fbe6101008301876144ef565b614fcc6101208301866144ef565b614fda610140830185614d67565b614fe8610160830184614d67565b9d9c50505050505050505050505050565b600080604083850312156150105761500f614485565b5b600061501e85828601614c2c565b925050602061502f858286016144a1565b9150509250929050565b600080604083850312156150505761504f614485565b5b600061505e858286016144a1565b925050602061506f858286016146a5565b9150509250929050565b7f4e487b7100000000000000000000000000000000000000000000000000000000600052601160045260246000fd5b60006150b382614451565b91507fffffffffffffffffffffffffffffffffffffffffffffffffffffffffffffffff82036150e5576150e4615079565b5b600182019050919050565b600082825260208201905092915050565b7f416c6c7265616465792072656769737465726400000000000000000000000000600082015250565b60006151376013836150f0565b915061514282615101565b602082019050919050565b600060208201905081810360008301526151668161512a565b9050919050565b7f4e487b7100000000000000000000000000000000000000000000000000000000600052603260045260246000fd5b60006151a782614451565b91506151b283614451565b92508282039050818111156151ca576151c9615079565b5b92915050565b6000819050919050565b6151eb6151e682614451565b6151d0565b82525050565b60006151fd82866151da565b60208201915061520d82856151da565b60208201915061521d82846151da565b602082019150819050949350505050565b7f4e487b7100000000000000000000000000000000000000000000000000000000600052603160045260246000fdfea2646970667358221220dcb7679a6984126c6f4cece3eb52a3ece6cd2ebff6f82ef478e407c11146f81764736f6c63430008110033",
  "linkReferences": {},
  "deployedLinkReferences": {}
}