{
  "_format": "hh-sol-artifact-1",
  "contractName": "landregistry",
  "sourceName": "contracts/landregistry.sol",
  "abi": [
    {
      "inputs": [],
      "stateMutability": "nonpayable",
      "type": "constructor"
    },
    {
      "inputs": [
        {
          "internalType": "uint256",
          "name": "landId",
          "type": "uint256"
        },
        {
          "internalType": "address payable",
          "name": "proxyOwner",
          "type": "address"
        },
        {
          "internalType": "bool",
          "name": "x",
          "type": "bool"
        }
      ],
      "name": "AndandRemoveProxyOwner",
      "outputs": [],
      "stateMutability": "nonpayable",
      "type": "function"
    },
    {
      "inputs": [
        {
          "internalType": "uint256",
          "name": "_propertyPID",
          "type": "uint256"
        }
      ],
      "name": "CheckDuplicatePid",
      "outputs": [
        {
          "internalType": "bool",
          "name": "",
          "type": "bool"
        }
      ],
      "stateMutability": "view",
      "type": "function"
    },
    {
      "inputs": [
        {
          "internalType": "address",
          "name": "",
          "type": "address"
        }
      ],
      "name": "InspectorMapping",
      "outputs": [
        {
          "internalType": "uint256",
          "name": "id",
          "type": "uint256"
        },
        {
          "internalType": "address",
          "name": "addr",
          "type": "address"
        },
        {
          "internalType": "bytes32",
          "name": "name",
          "type": "bytes32"
        },
        {
          "internalType": "bytes32",
          "name": "dob",
          "type": "bytes32"
        },
        {
          "internalType": "uint256",
          "name": "cnic",
          "type": "uint256"
        },
        {
          "internalType": "bytes32",
          "name": "city",
          "type": "bytes32"
        },
        {
          "internalType": "bytes32",
          "name": "district",
          "type": "bytes32"
        },
        {
          "internalType": "bytes32",
          "name": "designation",
          "type": "bytes32"
        },
        {
          "internalType": "bytes32",
          "name": "email",
          "type": "bytes32"
        },
        {
          "internalType": "uint256",
          "name": "phone",
          "type": "uint256"
        }
      ],
      "stateMutability": "view",
      "type": "function"
    },
    {
      "inputs": [
        {
          "internalType": "uint256",
          "name": "",
          "type": "uint256"
        }
      ],
      "name": "LandRequestMapping",
      "outputs": [
        {
          "internalType": "uint256",
          "name": "reqId",
          "type": "uint256"
        },
        {
          "internalType": "address payable",
          "name": "sellerId",
          "type": "address"
        },
        {
          "internalType": "address payable",
          "name": "buyerId",
          "type": "address"
        },
        {
          "internalType": "uint256",
          "name": "landId",
          "type": "uint256"
        },
        {
          "internalType": "enum landregistry.reqStatus",
          "name": "requestStatus",
          "type": "uint8"
        },
        {
          "internalType": "uint256",
          "name": "bidPrice",
          "type": "uint256"
        },
        {
          "internalType": "bool",
          "name": "isPaymentDone",
          "type": "bool"
        }
      ],
      "stateMutability": "view",
      "type": "function"
    },
    {
      "inputs": [
        {
          "internalType": "address",
          "name": "",
          "type": "address"
        }
      ],
      "name": "RegisteredInspectorMapping",
      "outputs": [
        {
          "internalType": "bool",
          "name": "",
          "type": "bool"
        }
      ],
      "stateMutability": "view",
      "type": "function"
    },
    {
      "inputs": [
        {
          "internalType": "address",
          "name": "",
          "type": "address"
        }
      ],
      "name": "RegisteredUserMapping",
      "outputs": [
        {
          "internalType": "bool",
          "name": "",
          "type": "bool"
        }
      ],
      "stateMutability": "view",
      "type": "function"
    },
    {
      "inputs": [],
      "name": "ReturnAllLandIncpectorList",
      "outputs": [
        {
          "internalType": "address[]",
          "name": "",
          "type": "address[]"
        }
      ],
      "stateMutability": "view",
      "type": "function"
    },
    {
      "inputs": [],
      "name": "ReturnAllLandList",
      "outputs": [
        {
          "internalType": "uint256[]",
          "name": "",
          "type": "uint256[]"
        }
      ],
      "stateMutability": "view",
      "type": "function"
    },
    {
      "inputs": [],
      "name": "ReturnAllUserList",
      "outputs": [
        {
          "internalType": "address[]",
          "name": "",
          "type": "address[]"
        }
      ],
      "stateMutability": "view",
      "type": "function"
    },
    {
      "inputs": [
        {
          "internalType": "address",
          "name": "",
          "type": "address"
        }
      ],
      "name": "UserMapping",
      "outputs": [
        {
          "internalType": "address",
          "name": "id",
          "type": "address"
        },
        {
          "internalType": "bytes32",
          "name": "name",
          "type": "bytes32"
        },
        {
          "internalType": "bytes32",
          "name": "dob",
          "type": "bytes32"
        },
        {
          "internalType": "bytes32",
          "name": "city",
          "type": "bytes32"
        },
        {
          "internalType": "bytes32",
          "name": "district",
          "type": "bytes32"
        },
        {
          "internalType": "uint256",
          "name": "cnic",
          "type": "uint256"
        },
        {
          "internalType": "string",
          "name": "document",
          "type": "string"
        },
        {
          "internalType": "string",
          "name": "profilepic",
          "type": "string"
        },
        {
          "internalType": "bytes32",
          "name": "email",
          "type": "bytes32"
        },
        {
          "internalType": "bytes32",
          "name": "phone",
          "type": "bytes32"
        },
        {
          "internalType": "bool",
          "name": "isUserVerified",
          "type": "bool"
        },
        {
          "internalType": "bool",
          "name": "death",
          "type": "bool"
        },
        {
          "internalType": "uint256",
          "name": "registerdate",
          "type": "uint256"
        }
      ],
      "stateMutability": "view",
      "type": "function"
    },
    {
      "inputs": [
        {
          "internalType": "uint256",
          "name": "_requestId",
          "type": "uint256"
        },
        {
          "internalType": "bool",
          "name": "acceptreject",
          "type": "bool"
        }
      ],
      "name": "acceptRequest",
      "outputs": [],
      "stateMutability": "nonpayable",
      "type": "function"
    },
    {
      "inputs": [
        {
          "internalType": "uint256",
          "name": "_area",
          "type": "uint256"
        },
        {
          "internalType": "string",
          "name": "_landAddress",
          "type": "string"
        },
        {
          "internalType": "bytes32",
          "name": "_district",
          "type": "bytes32"
        },
        {
          "internalType": "uint256",
          "name": "_landPrice",
          "type": "uint256"
        },
        {
          "internalType": "string",
          "name": "_allLatiLongi",
          "type": "string"
        },
        {
          "internalType": "uint256",
          "name": "_propertyPID",
          "type": "uint256"
        },
        {
          "internalType": "string",
          "name": "_document",
          "type": "string"
        },
        {
          "internalType": "string",
          "name": "_landpic",
          "type": "string"
        }
      ],
      "name": "addLand",
      "outputs": [],
      "stateMutability": "nonpayable",
      "type": "function"
    },
    {
      "inputs": [
        {
          "internalType": "address",
          "name": "_addr",
          "type": "address"
        },
        {
          "internalType": "bytes32",
          "name": "_name",
          "type": "bytes32"
        },
        {
          "internalType": "bytes32",
          "name": "_dob",
          "type": "bytes32"
        },
        {
          "internalType": "uint256",
          "name": "_cinc",
          "type": "uint256"
        },
        {
          "internalType": "bytes32",
          "name": "_designation",
          "type": "bytes32"
        },
        {
          "internalType": "bytes32",
          "name": "_city",
          "type": "bytes32"
        },
        {
          "internalType": "bytes32",
          "name": "_district",
          "type": "bytes32"
        },
        {
          "internalType": "bytes32",
          "name": "_email",
          "type": "bytes32"
        },
        {
          "internalType": "uint256",
          "name": "_phone",
          "type": "uint256"
        }
      ],
      "name": "addLandInspector",
      "outputs": [
        {
          "internalType": "bool",
          "name": "",
          "type": "bool"
        }
      ],
      "stateMutability": "nonpayable",
      "type": "function"
    },
    {
      "inputs": [
        {
          "internalType": "address",
          "name": "_addr",
          "type": "address"
        }
      ],
      "name": "changeContractOwner",
      "outputs": [],
      "stateMutability": "nonpayable",
      "type": "function"
    },
    {
      "inputs": [
        {
          "internalType": "uint256",
          "name": "_landId",
          "type": "uint256"
        },
        {
          "internalType": "bool",
          "name": "s",
          "type": "bool"
        },
        {
          "internalType": "bool",
          "name": "p",
          "type": "bool"
        },
        {
          "internalType": "bool",
          "name": "i",
          "type": "bool"
        },
        {
          "internalType": "bool",
          "name": "c",
          "type": "bool"
        },
        {
          "internalType": "bool",
          "name": "sell",
          "type": "bool"
        },
        {
          "internalType": "uint256",
          "name": "_newPrice",
          "type": "uint256"
        },
        {
          "internalType": "string",
          "name": "_newPic",
          "type": "string"
        },
        {
          "internalType": "string",
          "name": "_allLatiLongi",
          "type": "string"
        }
      ],
      "name": "changeDetails",
      "outputs": [],
      "stateMutability": "nonpayable",
      "type": "function"
    },
    {
      "inputs": [],
      "name": "documentId",
      "outputs": [
        {
          "internalType": "uint256",
          "name": "",
          "type": "uint256"
        }
      ],
      "stateMutability": "view",
      "type": "function"
    },
    {
      "inputs": [
        {
          "internalType": "uint256",
          "name": "landId",
          "type": "uint256"
        }
      ],
      "name": "getLandHistoryId",
      "outputs": [
        {
          "components": [
            {
              "internalType": "uint256",
              "name": "parentId",
              "type": "uint256"
            },
            {
              "internalType": "uint256",
              "name": "childCount",
              "type": "uint256"
            },
            {
              "internalType": "uint256",
              "name": "childId",
              "type": "uint256"
            },
            {
              "internalType": "uint256",
              "name": "area",
              "type": "uint256"
            },
            {
              "internalType": "address",
              "name": "parentAddress",
              "type": "address"
            },
            {
              "internalType": "uint256",
              "name": "timestamp",
              "type": "uint256"
            }
          ],
          "internalType": "struct landregistry.LandHistory[]",
          "name": "",
          "type": "tuple[]"
        }
      ],
      "stateMutability": "view",
      "type": "function"
    },
    {
      "inputs": [],
      "name": "inspectorsCount",
      "outputs": [
        {
          "internalType": "uint256",
          "name": "",
          "type": "uint256"
        }
      ],
      "stateMutability": "view",
      "type": "function"
    },
    {
      "inputs": [
        {
          "internalType": "address",
          "name": "_addr",
          "type": "address"
        }
      ],
      "name": "isContractOwner",
      "outputs": [
        {
          "internalType": "bool",
          "name": "",
          "type": "bool"
        }
      ],
      "stateMutability": "view",
      "type": "function"
    },
    {
      "inputs": [
        {
          "internalType": "address",
          "name": "_id",
          "type": "address"
        }
      ],
      "name": "isLandInspector",
      "outputs": [
        {
          "internalType": "bool",
          "name": "",
          "type": "bool"
        }
      ],
      "stateMutability": "view",
      "type": "function"
    },
    {
      "inputs": [
        {
          "internalType": "address",
          "name": "id",
          "type": "address"
        }
      ],
      "name": "isUserVerified",
      "outputs": [
        {
          "internalType": "bool",
          "name": "",
          "type": "bool"
        }
      ],
      "stateMutability": "view",
      "type": "function"
    },
    {
      "inputs": [
        {
          "internalType": "uint256",
          "name": "",
          "type": "uint256"
        }
      ],
      "name": "landHis",
      "outputs": [
        {
          "internalType": "uint256",
          "name": "parentId",
          "type": "uint256"
        },
        {
          "internalType": "uint256",
          "name": "childCount",
          "type": "uint256"
        },
        {
          "internalType": "uint256",
          "name": "childId",
          "type": "uint256"
        },
        {
          "internalType": "uint256",
          "name": "area",
          "type": "uint256"
        },
        {
          "internalType": "address",
          "name": "parentAddress",
          "type": "address"
        },
        {
          "internalType": "uint256",
          "name": "timestamp",
          "type": "uint256"
        }
      ],
      "stateMutability": "view",
      "type": "function"
    },
    {
      "inputs": [
        {
          "internalType": "uint256",
          "name": "",
          "type": "uint256"
        }
      ],
      "name": "landPriceInfo",
      "outputs": [
        {
          "internalType": "uint256",
          "name": "id",
          "type": "uint256"
        },
        {
          "internalType": "uint256",
          "name": "basePrice",
          "type": "uint256"
        },
        {
          "internalType": "uint256",
          "name": "landPrice",
          "type": "uint256"
        }
      ],
      "stateMutability": "view",
      "type": "function"
    },
    {
      "inputs": [
        {
          "internalType": "uint256",
          "name": "",
          "type": "uint256"
        }
      ],
      "name": "landinfo",
      "outputs": [
        {
          "internalType": "address",
          "name": "verfiedby",
          "type": "address"
        },
        {
          "internalType": "uint256",
          "name": "verfydate",
          "type": "uint256"
        }
      ],
      "stateMutability": "view",
      "type": "function"
    },
    {
      "inputs": [
        {
          "internalType": "uint256",
          "name": "",
          "type": "uint256"
        }
      ],
      "name": "lands",
      "outputs": [
        {
          "internalType": "uint256",
          "name": "id",
          "type": "uint256"
        },
        {
          "internalType": "uint256",
          "name": "propertyPID",
          "type": "uint256"
        },
        {
          "internalType": "uint256",
          "name": "area",
          "type": "uint256"
        },
        {
          "internalType": "uint256",
          "name": "landPrice",
          "type": "uint256"
        },
        {
          "internalType": "string",
          "name": "landAddress",
          "type": "string"
        },
        {
          "internalType": "bytes32",
          "name": "district",
          "type": "bytes32"
        },
        {
          "internalType": "string",
          "name": "allLatitudeLongitude",
          "type": "string"
        },
        {
          "internalType": "string",
          "name": "document",
          "type": "string"
        },
        {
          "internalType": "string",
          "name": "landpic",
          "type": "string"
        },
        {
          "internalType": "bool",
          "name": "isforSell",
          "type": "bool"
        },
        {
          "internalType": "bool",
          "name": "isLandVerified",
          "type": "bool"
        },
        {
          "internalType": "address payable",
          "name": "ownerAddress",
          "type": "address"
        },
        {
          "internalType": "address payable",
          "name": "proxyownerAddress",
          "type": "address"
        },
        {
          "internalType": "uint256",
          "name": "registerdate",
          "type": "uint256"
        }
      ],
      "stateMutability": "view",
      "type": "function"
    },
    {
      "inputs": [],
      "name": "landsCount",
      "outputs": [
        {
          "internalType": "uint256",
          "name": "",
          "type": "uint256"
        }
      ],
      "stateMutability": "view",
      "type": "function"
    },
    {
      "inputs": [
        {
          "internalType": "address payable",
          "name": "_receiver",
          "type": "address"
        },
        {
          "internalType": "uint256",
          "name": "_requestId",
          "type": "uint256"
        }
      ],
      "name": "makePayment",
      "outputs": [],
      "stateMutability": "payable",
      "type": "function"
    },
    {
      "inputs": [
        {
          "internalType": "address",
          "name": "id",
          "type": "address"
        }
      ],
      "name": "myAllLands",
      "outputs": [
        {
          "internalType": "uint256[]",
          "name": "",
          "type": "uint256[]"
        }
      ],
      "stateMutability": "view",
      "type": "function"
    },
    {
      "inputs": [],
      "name": "myReceivedLandRequests",
      "outputs": [
        {
          "internalType": "uint256[]",
          "name": "",
          "type": "uint256[]"
        }
      ],
      "stateMutability": "view",
      "type": "function"
    },
    {
      "inputs": [],
      "name": "mySentLandRequests",
      "outputs": [
        {
          "internalType": "uint256[]",
          "name": "",
          "type": "uint256[]"
        }
      ],
      "stateMutability": "view",
      "type": "function"
    },
    {
      "inputs": [
        {
          "internalType": "bytes32",
          "name": "_name",
          "type": "bytes32"
        },
        {
          "internalType": "bytes32",
          "name": "_dob",
          "type": "bytes32"
        },
        {
          "internalType": "bytes32",
          "name": "_city",
          "type": "bytes32"
        },
        {
          "internalType": "bytes32",
          "name": "_district",
          "type": "bytes32"
        },
        {
          "internalType": "uint256",
          "name": "_cinc",
          "type": "uint256"
        },
        {
          "internalType": "string",
          "name": "_document",
          "type": "string"
        },
        {
          "internalType": "string",
          "name": "_profilepic",
          "type": "string"
        },
        {
          "internalType": "bytes32",
          "name": "_email",
          "type": "bytes32"
        },
        {
          "internalType": "bytes32",
          "name": "_phone",
          "type": "bytes32"
        }
      ],
      "name": "registerUser",
      "outputs": [],
      "stateMutability": "nonpayable",
      "type": "function"
    },
    {
      "inputs": [
        {
          "internalType": "address",
          "name": "_addr",
          "type": "address"
        }
      ],
      "name": "removeLandInspector",
      "outputs": [],
      "stateMutability": "nonpayable",
      "type": "function"
    },
    {
      "inputs": [
        {
          "internalType": "uint256",
          "name": "_landId",
          "type": "uint256"
        },
        {
          "internalType": "uint256",
          "name": "_bidPrice",
          "type": "uint256"
        }
      ],
      "name": "requestforBuyWithBid",
      "outputs": [],
      "stateMutability": "nonpayable",
      "type": "function"
    },
    {
      "inputs": [],
      "name": "returnPaymentDoneList",
      "outputs": [
        {
          "internalType": "uint256[]",
          "name": "",
          "type": "uint256[]"
        }
      ],
      "stateMutability": "view",
      "type": "function"
    },
    {
      "inputs": [
        {
          "internalType": "uint256",
          "name": "id",
          "type": "uint256"
        },
        {
          "internalType": "uint256",
          "name": "newarea",
          "type": "uint256"
        },
        {
          "internalType": "uint256",
          "name": "numplots",
          "type": "uint256"
        }
      ],
      "name": "subplot",
      "outputs": [],
      "stateMutability": "nonpayable",
      "type": "function"
    },
    {
      "inputs": [
        {
          "internalType": "address",
          "name": "deceased",
          "type": "address"
        }
      ],
      "name": "transferDeceasedOwnership",
      "outputs": [],
      "stateMutability": "nonpayable",
      "type": "function"
    },
    {
      "inputs": [
        {
          "internalType": "uint256",
          "name": "_requestId",
          "type": "uint256"
        },
        {
          "internalType": "string",
          "name": "documentUrl",
          "type": "string"
        }
      ],
      "name": "transferOwnership",
      "outputs": [],
      "stateMutability": "nonpayable",
      "type": "function"
    },
    {
      "inputs": [],
      "name": "userCount",
      "outputs": [
        {
          "internalType": "uint256",
          "name": "",
          "type": "uint256"
        }
      ],
      "stateMutability": "view",
      "type": "function"
    },
    {
      "inputs": [
        {
          "internalType": "address",
          "name": "",
          "type": "address"
        }
      ],
      "name": "userinfo",
      "outputs": [
        {
          "internalType": "address",
          "name": "verfiedby",
          "type": "address"
        },
        {
          "internalType": "uint256",
          "name": "verifydate",
          "type": "uint256"
        }
      ],
      "stateMutability": "view",
      "type": "function"
    },
    {
      "inputs": [
        {
          "internalType": "uint256",
          "name": "_id",
          "type": "uint256"
        }
      ],
      "name": "verifyLand",
      "outputs": [],
      "stateMutability": "nonpayable",
      "type": "function"
    },
    {
      "inputs": [
        {
          "internalType": "address",
          "name": "_userId",
          "type": "address"
        }
      ],
      "name": "verifyUser",
      "outputs": [],
      "stateMutability": "nonpayable",
      "type": "function"
    },
    {
      "stateMutability": "payable",
      "type": "receive"
    }
  ],
  "bytecode": "0x608060405234801561001057600080fd5b50600080546001600160a01b03191633179055613d4b806100326000396000f3fe60806040526004361061024a5760003560e01c8063941e242611610139578063d196ebf2116100b6578063e165af871161007a578063e165af8714610705578063e261f1e514610725578063e749752c1461075f578063f98cf07c1461077f578063f9c43bdf14610792578063fa024549146107b257610251565b8063d196ebf214610657578063d251839b14610677578063d61ff68c1461068c578063dd056ebc146106c5578063de117688146106e557610251565b8063a84e3bdd116100fd578063a84e3bdd14610595578063ab9f38ea146105b5578063ace417e0146105e4578063b10a30ed14610604578063c6acafcd1461063757610251565b8063941e2426146105085780639446ec9f1461051d5780639c32e3b41461054b5780639dec448e14610560578063a846fc8f1461058057610251565b80634d813120116101c7578063690a3ca91161018b578063690a3ca9146104735780637517e00f1461049357806378f7c83f146104b3578063836b3979146104c8578063935400ee146104e857610251565b80634d813120146103bb57806354d1b98f146103db578063553a998d146103fb57806358051d931461041d57806364efa0021461043d57610251565b80632b13aa441161020e5780632b13aa4414610317578063314967ac1461034457806332f2bb14146103665780633ead67b514610386578063499701b2146103a657610251565b806307973ccf1461025657806312ca3f1f14610281578063145678de146102ae5780631c9afd0f146102e057806323393d77146102f557610251565b3661025157005b600080fd5b34801561026257600080fd5b5061026b6107d2565b6040516102789190613a7a565b60405180910390f35b34801561028d57600080fd5b506102a161029c366004613573565b6107d8565b6040516102789190613a42565b3480156102ba57600080fd5b506102ce6102c9366004613573565b610825565b60405161027896959493929190613b34565b3480156102ec57600080fd5b5061026b610866565b34801561030157600080fd5b5061030a61086c565b6040516102789190613a0a565b34801561032357600080fd5b50610337610332366004613573565b6108ec565b6040516102789190613989565b34801561035057600080fd5b5061036461035f366004613700565b61099d565b005b34801561037257600080fd5b506102a1610381366004613419565b610d5e565b34801561039257600080fd5b506103646103a1366004613419565b610d73565b3480156103b257600080fd5b5061030a610da5565b3480156103c757600080fd5b506103646103d6366004613419565b610e04565b3480156103e757600080fd5b506102a16103f6366004613467565b610ec6565b34801561040757600080fd5b50610410611139565b604051610278919061393c565b34801561042957600080fd5b506103646104383660046137f0565b6111c2565b34801561044957600080fd5b5061045d610458366004613419565b611a0a565b6040516102789a99989796959493929190613ae6565b34801561047f57600080fd5b5061036461048e3660046135c8565b611a66565b34801561049f57600080fd5b506103646104ae366004613419565b611b7c565b3480156104bf57600080fd5b5061026b611d8e565b3480156104d457600080fd5b506103646104e336600461358b565b611d94565b3480156104f457600080fd5b506103646105033660046135f3565b611e75565b34801561051457600080fd5b5061026b611f73565b34801561052957600080fd5b5061053d610538366004613419565b611f79565b604051610278929190613923565b34801561055757600080fd5b5061030a611f9e565b34801561056c57600080fd5b5061036461057b3660046137cf565b611ffd565b34801561058c57600080fd5b5061030a612201565b3480156105a157600080fd5b506103646105b0366004613419565b61227f565b3480156105c157600080fd5b506105d56105d0366004613573565b612537565b60405161027893929190613879565b3480156105f057600080fd5b506102a16105ff366004613419565b612558565b34801561061057600080fd5b5061062461061f366004613573565b612579565b6040516102789796959493929190613a83565b34801561064357600080fd5b5061053d610652366004613573565b6125c8565b34801561066357600080fd5b5061030a610672366004613419565b6125ed565b34801561068357600080fd5b50610410612659565b34801561069857600080fd5b506106ac6106a7366004613419565b6126cf565b6040516102789d9c9b9a9998979695949392919061388f565b3480156106d157600080fd5b506102a16106e0366004613419565b612856565b3480156106f157600080fd5b506102a1610700366004613419565b61286b565b34801561071157600080fd5b506102a1610720366004613419565b612892565b34801561073157600080fd5b50610745610740366004613573565b6128bb565b6040516102789e9d9c9b9a99989796959493929190613b65565b34801561076b57600080fd5b5061036461077a3660046134ce565b612b58565b61036461078d36600461343c565b612d67565b34801561079e57600080fd5b506103646107ad366004613573565b612ee2565b3480156107be57600080fd5b506103646107cd3660046136bb565b612fec565b60025481565b6000805b600354811161081a576000818152600d6020526040902060010154831415610808576001915050610820565b8061081281613c99565b9150506107dc565b50600090505b919050565b60146020526000908152604090208054600182015460028301546003840154600485015460059095015493949293919290916001600160a01b039091169086565b60035481565b6001600052601160209081527f17bc176d2408558f6e4111feebc3cab4e16b63e967be91cde721f4c8a488b55280546040805182850281018501909152818152606093909291908301828280156108e257602002820191906000526020600020905b8154815260200190600101908083116108ce575b5050505050905090565b606060136000838152602001908152602001600020805480602002602001604051908101604052809291908181526020016000905b828210156109925760008481526020908190206040805160c0810182526006860290920180548352600180820154848601526002820154928401929092526003810154606084015260048101546001600160a01b031660808401526005015460a08301529083529092019101610921565b505050509050919050565b336000908152600660205260409020600a015460ff1680156109c557506109c3836107d8565b155b80156109d15750600088115b80156109f55750336000908152600660205260409020600a0154610100900460ff16155b156102515760038054906000610a0a83613c99565b9190505550604051806101c00160405280600354815260200184815260200189815260200186670de0b6b3a7640000610a439190613c28565b815260208082018a905260408083018a90526060808401899052608080850188905260a08501879052600060c0860181905260e086018190523361010087015280546001600160a01b03166101208701524261014090960195909552600380548652600d855294839020865181558685015160018201559286015160028401559085015193820193909355918301518051610ae492600485019201906132ef565b5060a0820151600582015560c08201518051610b0a9160068401916020909101906132ef565b5060e08201518051610b269160078401916020909101906132ef565b506101008201518051610b439160088401916020909101906132ef565b506101208201518160090160006101000a81548160ff0219169083151502179055506101408201518160090160016101000a81548160ff0219169083151502179055506101608201518160090160026101000a8154816001600160a01b0302191690836001600160a01b0316021790555061018082015181600a0160006101000a8154816001600160a01b0302191690836001600160a01b031602179055506101a082015181600b0155905050600c6000336001600160a01b03166001600160a01b031681526020019081526020016000206003549080600181540180825580915050600190039060005260206000200160009091909190915055601160006001815260200190815260200160002060035490806001815401808255809150506001900390600052602060002001600090919091909150556013600060035481526020019081526020016000206040518060c00160405280600354815260200160008152602001600081526020018a8152602001336001600160a01b031681526020014281525090806001815401808255809150506001900390600052602060002090600602016000909190919091506000820151816000015560208201518160010155604082015181600201556060820151816003015560808201518160040160006101000a8154816001600160a01b0302191690836001600160a01b0316021790555060a0820151816005015550505050505050505050565b600b6020526000908152604090205460ff1681565b6000546001600160a01b0316331415610da257600080546001600160a01b0319166001600160a01b0383161790555b50565b336000908152600f60209081526040918290208054835181840281018401909452808452606093928301828280156108e257602002820191906000526020600020908154815260200190600101908083116108ce575050505050905090565b610e0d33612892565b8015610e2257506001600160a01b0381163314155b8015610e5857503360009081526007602090815260408083206006908101546001600160a01b0386168552925290912060040154145b15610251576001600160a01b038181166000818152600660209081526040808320600a018054600160ff199091168117909155815180830183523381524281850190815295855260169093529220905181546001600160a01b03191694169390931783559051910155610da2565b600080546001600160a01b031633148015610efa57506001600160a01b038a1660009081526009602052604090205460ff16155b156102515760005b600154811015610f9357600160009081526008602052600080516020613cf683398151915280548a92600792909185908110610f4e57634e487b7160e01b600052603260045260246000fd5b60009182526020808320909101546001600160a01b031683528201929092526040019020600401541415610f8157600080fd5b80610f8b81613c99565b915050610f02565b506001600160a01b038a166000908152600960205260408120805460ff19166001908117909155805491610fc683613c99565b919050555060086000600181526020019081526020016000208a9080600181540180825580915050600190039060005260206000200160009091909190916101000a8154816001600160a01b0302191690836001600160a01b0316021790555060405180610140016040528060015481526020018b6001600160a01b031681526020018a815260200189815260200188815260200186815260200185815260200187815260200184815260200183815250600760008c6001600160a01b03166001600160a01b031681526020019081526020016000206000820151816000015560208201518160010160006101000a8154816001600160a01b0302191690836001600160a01b0316021790555060408201518160020155606082015181600301556080820151816004015560a0820151816005015560c0820151816006015560e0820151816007015561010082015181600801556101208201518160090155905050600190509998505050505050505050565b6001600052600a60209081527fbbc70db1b6c7afd11e79c0fb0051300458f1a3acb8ee9789d9b6b26c61ad9bc780546040805182850281018501909152818152606093909291908301828280156108e257602002820191906000526020600020905b81546001600160a01b0316815260019091019060200180831161119b575050505050905090565b336000908152600660205260409020600a015460ff1680156111fa57506000838152600d6020526040902060090154610100900460ff165b801561122557506000838152600d60205260409020600901546201000090046001600160a01b031633145b80156112315750600081115b801561124d57506000838152600d602052604090206002015482105b801561126b57506000838152600d602052604090206009015460ff16155b801561128f5750336000908152600660205260409020600a0154610100900460ff16155b15610251576000838152600d60205260409020600190810154905b8281111580156112cb57506000858152600d60205260409020600201548411155b15611a02576000858152600d6020526040812060020180548692906112f1908490613c47565b90915550506003805490600061130683613c99565b91905055506000426003548460405160200161132493929190613879565b60408051601f1981840301815282825280516020918201206101c0840183526003805485528483018290528484018a905260008b8152600d8085529481209182015460608701528b90529290915260049091018054919350608083019161138a90613c5e565b80601f01602080910402602001604051908101604052809291908181526020018280546113b690613c5e565b80156114035780601f106113d857610100808354040283529160200191611403565b820191906000526020600020905b8154815290600101906020018083116113e657829003601f168201915b50505050508152602001600d6000898152602001908152602001600020600501548152602001600d6000898152602001908152602001600020600601805461144a90613c5e565b80601f016020809104026020016040519081016040528092919081815260200182805461147690613c5e565b80156114c35780601f10611498576101008083540402835291602001916114c3565b820191906000526020600020905b8154815290600101906020018083116114a657829003601f168201915b50505050508152602001600d600089815260200190815260200160002060070180546114ee90613c5e565b80601f016020809104026020016040519081016040528092919081815260200182805461151a90613c5e565b80156115675780601f1061153c57610100808354040283529160200191611567565b820191906000526020600020905b81548152906001019060200180831161154a57829003601f168201915b50505050508152602001600d6000898152602001908152602001600020600801805461159290613c5e565b80601f01602080910402602001604051908101604052809291908181526020018280546115be90613c5e565b801561160b5780601f106115e05761010080835404028352916020019161160b565b820191906000526020600020905b8154815290600101906020018083116115ee57829003601f168201915b50505091835250506000602080830182905260408084018390523360608086019190915283546001600160a01b03166080808701919091524260a090960195909552600380548552600d84529382902086518155868401516001820155918601516002830155850151928101929092559183015180519192611695926004850192909101906132ef565b5060a0820151600582015560c082015180516116bb9160068401916020909101906132ef565b5060e082015180516116d79160078401916020909101906132ef565b5061010082015180516116f49160088401916020909101906132ef565b506101208201518160090160006101000a81548160ff0219169083151502179055506101408201518160090160016101000a81548160ff0219169083151502179055506101608201518160090160026101000a8154816001600160a01b0302191690836001600160a01b0316021790555061018082015181600a0160006101000a8154816001600160a01b0302191690836001600160a01b031602179055506101a082015181600b0155905050600c6000336001600160a01b03166001600160a01b031681526020019081526020016000206003549080600181540180825580915050600190039060005260206000200160009091909190915055601160006001815260200190815260200160002060035490806001815401808255809150506001900390600052602060002001600090919091909150556013600060035481526020019081526020016000206040518060c001604052808881526020016000815260200160008152602001878152602001336001600160a01b031681526020014281525090806001815401808255809150506001900390600052602060002090600602016000909190919091506000820151816000015560208201518160010155604082015181600201556060820151816003015560808201518160040160006101000a8154816001600160a01b0302191690836001600160a01b0316021790555060a082015181600501555050601360008781526020019081526020016000206040518060c001604052808881526020018681526020016003548152602001878152602001336001600160a01b03168152602001600d60008a8152602001908152602001600020600b015481525090806001815401808255809150506001900390600052602060002090600602016000909190919091506000820151816000015560208201518160010155604082015181600201556060820151816003015560808201518160040160006101000a8154816001600160a01b0302191690836001600160a01b0316021790555060a0820151816005015550505080806119fa90613c99565b9150506112aa565b50505b505050565b6007602081905260009182526040909120805460018201546002830154600384015460048501546005860154600687015497870154600888015460099098015496986001600160a01b039096169794969395929491939091908a565b6000828152600e60205260409020600101546001600160a01b03163314611a8c57600080fd5b808015611aab57506000828152600e602052604090206006015460ff16155b15611b36576000828152600e602052604090206005015415611b1557604080516060810182528381526000848152600e6020908152838220600380820154808552600d80855287862090920180548588015260059093015495909601859052949092529290925290555b6000828152600e60205260409020600401805460ff19166001179055611b78565b80158015611b5657506000828152600e602052604090206006015460ff16155b15611b78576000828152600e60205260409020600401805460ff191660021790555b5050565b6000546001600160a01b031633148015611bae57506001600160a01b03811660009081526009602052604090205460ff165b15610251576001600160a01b03811660009081526009602090815260408220805460ff191690556001825260089052600080516020613cf683398151915254905b81811015611d875760016000526008602052600080516020613cf683398151915280546001600160a01b038516919083908110611c3c57634e487b7160e01b600052603260045260246000fd5b6000918252602090912001546001600160a01b03161415611d7557600160008190526008602052600080516020613cf683398151915290611c7d9084613c47565b81548110611c9b57634e487b7160e01b600052603260045260246000fd5b6000918252602080832090910154600190925260089052600080516020613cf683398151915280546001600160a01b039092169183908110611ced57634e487b7160e01b600052603260045260246000fd5b600091825260208083209190910180546001600160a01b0319166001600160a01b0394909416939093179092556001905260089052600080516020613cf6833981519152805480611d4e57634e487b7160e01b600052603160045260246000fd5b600082815260209020810160001990810180546001600160a01b0319169055019055611d87565b80611d7f81613c99565b915050611bef565b5050610da2565b60045481565b6000838152600d60205260409020600901546201000090046001600160a01b031633148015611dd957506000838152600d6020526040902060090154610100900460ff165b15610251578015611e0f576000838152600d60205260409020600a0180546001600160a01b0319166001600160a01b0384161790555b80158015611e3957506000838152600d60205260409020600a01546001600160a01b038381169116145b15611e705760008054848252600d6020526040909120600a0180546001600160a01b0319166001600160a01b039092169190911790555b611a05565b6000898152600d60205260409020600901546201000090046001600160a01b031633148015611eba57506000898152600d6020526040902060090154610100900460ff165b15610251578715611ee3576000898152600d60205260409020600901805460ff19168515151790555b8615611f0e57611efb83670de0b6b3a7640000613c28565b60008a8152600d60205260409020600301555b8515611f3b576000898152600d602090815260409091208351611f39926008909201918501906132ef565b505b8415611f68576000898152600d602090815260409091208251611f66926006909201918401906132ef565b505b505050505050505050565b60015481565b601660205260009081526040902080546001909101546001600160a01b039091169082565b336000908152601060209081526040918290208054835181840281018401909452808452606093928301828280156108e257602002820191906000526020600020908154815260200190600101908083116108ce575050505050905090565b336000908152600660205260409020600a015460ff16801561203557506000828152600d6020526040902060090154610100900460ff165b801561206157506000828152600d60205260409020600901546201000090046001600160a01b03163314155b15610251576005805490600061207683613c99565b90915550506040805160e08101825260055481526000848152600d6020908152838220600901546201000090046001600160a01b03169083015233928201929092526060810184905290608082019081526020016120dc83670de0b6b3a7640000613c28565b8152600060209182018190526005548152600e82526040908190208351815591830151600183810180546001600160a01b039384166001600160a01b03199182161790915592850151600285018054919093169316929092179055606083015160038301556080830151600480840180549293909260ff191691849081111561217557634e487b7160e01b600052602160045260246000fd5b021790555060a082015160058281019190915560c0909201516006909101805460ff19169115159190911790556000838152600d60209081526040808320600901546201000090046001600160a01b03168352600f8252808320845481546001818101845592865284862001553384526010835290832093548454918201855593835291200155611b78565b6001600052601260209081527f71a67924699a20698523213e55fe499d539379d7769cd5567e2c45d583f815a380546040805182850281018501909152818152606093909291908301828280156108e257602002820191906000526020600020908154815260200190600101908083116108ce575050505050905090565b61228833612892565b61229157600080fd5b6001600160a01b0381166000908152600660209081526040808320600a01805461ff001916610100179055600c82528083208054825181850281018501909352808352919290919083018282801561230857602002820191906000526020600020905b8154815260200190600101908083116122f4575b5050505050905060005b8151811015611a0557600082828151811061233d57634e487b7160e01b600052603260045260246000fd5b6020908102919091018101516000818152600d90925260409091206009810154919250906001600160a01b0386811662010000909204161480156123965750600581015433600090815260076020526040902060060154145b1561252257600480549060006123ab83613c99565b9091555050600981018054600a83015461ff01600160b01b03199091166001600160a01b03918216620100008102919091179092556000918252600c60209081526040808420805460018101825590855291842090910185905590871682528120905b81548110156124fb578382828154811061243857634e487b7160e01b600052603260045260246000fd5b906000526020600020015414156124e9578154829061245990600190613c47565b8154811061247757634e487b7160e01b600052603260045260246000fd5b90600052602060002001548282815481106124a257634e487b7160e01b600052603260045260246000fd5b9060005260206000200181905550818054806124ce57634e487b7160e01b600052603160045260246000fd5b600190038181906000526020600020016000905590556124fb565b806124f381613c99565b91505061240e565b5050600054600a820180546001600160a01b0319166001600160a01b039092169190911790555b5050808061252f90613c99565b915050612312565b60176020526000908152604090208054600182015460029092015490919083565b6001600160a01b03166000908152600660205260409020600a015460ff1690565b600e60205260009081526040902080546001820154600283015460038401546004850154600586015460069096015494956001600160a01b03948516959390941693919260ff91821692911687565b601560205260009081526040902080546001909101546001600160a01b039091169082565b6001600160a01b0381166000908152600c602090815260409182902080548351818402810184019094528084526060939283018282801561264d57602002820191906000526020600020905b815481526020019060010190808311612639575b50505050509050919050565b600160005260086020908152600080516020613cf683398151915280546040805182850281018501909152818152606093909291908301828280156108e2576020028201919060005260206000209081546001600160a01b0316815260019091019060200180831161119b575050505050905090565b600660208190526000918252604090912080546001820154600283015460038401546004850154600586015496860180546001600160a01b03909616979496939592949193919261271f90613c5e565b80601f016020809104026020016040519081016040528092919081815260200182805461274b90613c5e565b80156127985780601f1061276d57610100808354040283529160200191612798565b820191906000526020600020905b81548152906001019060200180831161277b57829003601f168201915b5050505050908060070180546127ad90613c5e565b80601f01602080910402602001604051908101604052809291908181526020018280546127d990613c5e565b80156128265780601f106127fb57610100808354040283529160200191612826565b820191906000526020600020905b81548152906001019060200180831161280957829003601f168201915b5050505060088301546009840154600a850154600b909501549394919390925060ff80831692610100900416908d565b60096020526000908152604090205460ff1681565b600080546001600160a01b038381169116141561288a57506001610820565b506000610820565b6001600160a01b03811660009081526009602052604081205460ff161561288a57506001610820565b600d602052600090815260409020805460018201546002830154600384015460048501805494959394929391926128f190613c5e565b80601f016020809104026020016040519081016040528092919081815260200182805461291d90613c5e565b801561296a5780601f1061293f5761010080835404028352916020019161296a565b820191906000526020600020905b81548152906001019060200180831161294d57829003601f168201915b50505050509080600501549080600601805461298590613c5e565b80601f01602080910402602001604051908101604052809291908181526020018280546129b190613c5e565b80156129fe5780601f106129d3576101008083540402835291602001916129fe565b820191906000526020600020905b8154815290600101906020018083116129e157829003601f168201915b505050505090806007018054612a1390613c5e565b80601f0160208091040260200160405190810160405280929190818152602001828054612a3f90613c5e565b8015612a8c5780601f10612a6157610100808354040283529160200191612a8c565b820191906000526020600020905b815481529060010190602001808311612a6f57829003601f168201915b505050505090806008018054612aa190613c5e565b80601f0160208091040260200160405190810160405280929190818152602001828054612acd90613c5e565b8015612b1a5780601f10612aef57610100808354040283529160200191612b1a565b820191906000526020600020905b815481529060010190602001808311612afd57829003601f168201915b5050506009840154600a850154600b90950154939460ff80831695610100840490911694506001600160a01b0362010000909304831693509116908e565b336000908152600b602052604090205460ff16151560011415612b965760405162461bcd60e51b8152600401612b8d90613a4d565b60405180910390fd5b336000908152600b60205260408120805460ff191660011790556002805491612bbe83613c99565b90915550507fbbc70db1b6c7afd11e79c0fb0051300458f1a3acb8ee9789d9b6b26c61ad9bc7805460018082019092557fed65b032d5a5fa3a5b6544566ee46a0f6b8fe8b1375ec878dc3be6580b078495018054336001600160a01b03199182168117909255604080516101a08101825283815260208082018f81528284018f8152606084018f8152608085018f815260a086018f815260c087018f815260e088018f905261010088018e905261012088018d9052600061014089018190526101608901819052426101808a01529a8b52600680885298909a2087518154909a166001600160a01b03909a169990991789559351998801999099559051600287015551600386015595516004850155945160058401559251805193949293612cee939285019291909101906132ef565b5060e08201518051612d0a9160078401916020909101906132ef565b506101008281015160088301556101208301516009830155610140830151600a8301805461016086015160ff199091169215159290921761ff00191691151590920217905561018090910151600b90910155505050505050505050565b6000818152600e60205260409020600201546001600160a01b031633148015612dc4575060016000828152600e6020526040902060049081015460ff1690811115612dc257634e487b7160e01b600052602160045260246000fd5b145b8015612dec57506000818152600e60205260409020600101546001600160a01b038381169116145b8015612e1957506000818152600e602090815260408083206003908101548452600d909252909120015434145b15610251576000818152600e60209081526040808320600481018054600360ff199182161790915560069091018054909116600190811790915560129092527f71a67924699a20698523213e55fe499d539379d7769cd5567e2c45d583f815a38054928301815583527f09d3634ec98b7a093f4c560246b0e10c09e0e06c46ca9be08ca93e6cf08d8d13909101839055516001600160a01b038416913480156108fc02929091818181858888f19350505050158015612edc573d6000803e3d6000fd5b50611b78565b612eeb33612892565b8015612f1757506000818152600d60205260409020600901546201000090046001600160a01b03163314155b8015612f5357506000818152600d60209081526040808320600901546201000090046001600160a01b0316835260069091529020600a015460ff165b8015612f8057506000818152600d6020908152604080832060050154338452600790925290912060060154145b15610251576000818152600d60209081526040808320600901805461010061ff0019909116179055805180820182523381524281840190815285855260159093529220915182546001600160a01b0319166001600160a01b039091161782555160019190910155610da2565b612ff533612892565b612ffe57600080fd5b6000828152600e602052604090206006015460ff1615801561304e57506000828152600e60209081526040808320600301548352600d825280832060050154338452600790925290912060060154145b1561305857600080fd5b6004805490600061306883613c99565b90915550506000828152600e602090815260408083206004808201805460ff1916909117905560028101546001600160a01b039081168552600c84528285206003830154815460018181018455928852958720909501949094559201549091168252812054905b81811015613256576000848152600e6020908152604080832060038101546001909101546001600160a01b03168452600c90925290912080548390811061312657634e487b7160e01b600052603260045260246000fd5b90600052602060002001541415613244576000848152600e602090815260408083206001908101546001600160a01b03168452600c9092529091209061316c9084613c47565b8154811061318a57634e487b7160e01b600052603260045260246000fd5b6000918252602080832090910154868352600e82526040808420600101546001600160a01b03168452600c90925291208054839081106131da57634e487b7160e01b600052603260045260246000fd5b6000918252602080832090910192909255858152600e82526040808220600101546001600160a01b03168252600c9092522080548061322957634e487b7160e01b600052603160045260246000fd5b60019003818190600052602060002001600090559055613256565b8061324e81613c99565b9150506130cf565b506000838152600e60209081526040808320600301548352600d82529091208351613289926007909201918501906132ef565b5050506000908152600e602090815260408083206003810180548552600d9093528184206009908101805460ff19169055600290910154925484529220909101805462010000600160b01b0319166001600160a01b039092166201000002919091179055565b8280546132fb90613c5e565b90600052602060002090601f01602090048101928261331d5760008555613363565b82601f1061333657805160ff1916838001178555613363565b82800160010185558215613363579182015b82811115613363578251825591602001919060010190613348565b5061336f929150613373565b5090565b5b8082111561336f5760008155600101613374565b8035801515811461082057600080fd5b600082601f8301126133a8578081fd5b813567ffffffffffffffff808211156133c3576133c3613cca565b604051601f8301601f1916810160200182811182821017156133e7576133e7613cca565b6040528281528483016020018610156133fe578384fd5b82602086016020830137918201602001929092529392505050565b60006020828403121561342a578081fd5b813561343581613ce0565b9392505050565b6000806040838503121561344e578081fd5b823561345981613ce0565b946020939093013593505050565b60008060008060008060008060006101208a8c031215613485578485fd5b893561349081613ce0565b9b60208b01359b5060408b01359a60608101359a506080810135995060a0810135985060c0810135975060e081013596506101000135945092505050565b60008060008060008060008060006101208a8c0312156134ec578485fd5b8935985060208a0135975060408a0135965060608a0135955060808a0135945060a08a013567ffffffffffffffff80821115613526578586fd5b6135328d838e01613398565b955060c08c0135915080821115613547578485fd5b506135548c828d01613398565b93505060e08a013591506101008a013590509295985092959850929598565b600060208284031215613584578081fd5b5035919050565b60008060006060848603121561359f578283fd5b8335925060208401356135b181613ce0565b91506135bf60408501613388565b90509250925092565b600080604083850312156135da578182fd5b823591506135ea60208401613388565b90509250929050565b60008060008060008060008060006101208a8c031215613611578485fd5b8935985061362160208b01613388565b975061362f60408b01613388565b965061363d60608b01613388565b955061364b60808b01613388565b945061365960a08b01613388565b935060c08a0135925060e08a013567ffffffffffffffff8082111561367c578384fd5b6136888d838e01613398565b93506101008c013591508082111561369e578283fd5b506136ab8c828d01613398565b9150509295985092959850929598565b600080604083850312156136cd578182fd5b82359150602083013567ffffffffffffffff8111156136ea578182fd5b6136f685828601613398565b9150509250929050565b600080600080600080600080610100898b03121561371c578182fd5b88359750602089013567ffffffffffffffff8082111561373a578384fd5b6137468c838d01613398565b985060408b0135975060608b0135965060808b0135915080821115613769578384fd5b6137758c838d01613398565b955060a08b0135945060c08b0135915080821115613791578384fd5b61379d8c838d01613398565b935060e08b01359150808211156137b2578283fd5b506137bf8b828c01613398565b9150509295985092959890939650565b600080604083850312156137e1578182fd5b50508035926020909101359150565b600080600060608486031215613804578081fd5b505081359360208301359350604090920135919050565b6001600160a01b03169052565b15159052565b60008151808452815b8181101561385357602081850181015186830182015201613837565b818111156138645782602083870101525b50601f01601f19169290920160200192915050565b9283526020830191909152604082015260600190565b600060018060a01b038f1682528d60208301528c60408301528b60608301528a60808301528960a08301526101a060c08301526138d06101a083018a61382e565b82810360e08401526138e2818a61382e565b915050866101008301528561012083015284151561014083015261390a610160830185613828565b826101808301529e9d5050505050505050505050505050565b6001600160a01b03929092168252602082015260400190565b6020808252825182820181905260009190848201906040850190845b8181101561397d5783516001600160a01b031683529284019291840191600101613958565b50909695505050505050565b602080825282518282018190526000919060409081850190868401855b828110156139fd5781518051855286810151878601528581015186860152606080820151908601526080808201516001600160a01b03169086015260a0908101519085015260c090930192908501906001016139a6565b5091979650505050505050565b6020808252825182820181905260009190848201906040850190845b8181101561397d57835183529284019291840191600101613a26565b901515815260200190565b602080825260139082015272105b1b1c995859195e481c9959da5cdd195c99606a1b604082015260600190565b90815260200190565b8781526001600160a01b038781166020830152861660408201526060810185905260e0810160058510613ac657634e487b7160e01b600052602160045260246000fd5b8460808301528360a083015282151560c083015298975050505050505050565b998a526001600160a01b039890981660208a015260408901969096526060880194909452608087019290925260a086015260c085015260e08401526101008301526101208201526101400190565b9586526020860194909452604085019290925260608401526001600160a01b0316608083015260a082015260c00190565b60008f82528e60208301528d60408301528c60608301526101c06080830152613b926101c083018d61382e565b8b60a084015282810360c0840152613baa818c61382e565b905082810360e0840152613bbe818b61382e565b9050828103610100840152613bd3818a61382e565b915050613be4610120830188613828565b613bf2610140830187613828565b613c0061016083018661381b565b613c0e61018083018561381b565b826101a08301529f9e505050505050505050505050505050565b6000816000190483118215151615613c4257613c42613cb4565b500290565b600082821015613c5957613c59613cb4565b500390565b600281046001821680613c7257607f821691505b60208210811415613c9357634e487b7160e01b600052602260045260246000fd5b50919050565b6000600019821415613cad57613cad613cb4565b5060010190565b634e487b7160e01b600052601160045260246000fd5b634e487b7160e01b600052604160045260246000fd5b6001600160a01b0381168114610da257600080fdfead67d757c34507f157cacfa2e3153e9f260a2244f30428821be7be64587ac55fa2646970667358221220da9ca019d3f8f3aa6e8072995638d37bf4f71ec9afd33ab3e1df35f2351fe73d64736f6c63430008000033",
  "linkReferences": {},
  "deployedLinkReferences": {}
}