{
    "contractName": "landregistry",
    "abi": [
        {
            "inputs": [],
            "stateMutability": "nonpayable",
            "type": "constructor"
        },
        {
            "inputs": [
                {
                    "internalType": "uint256",
                    "name": "landId",
                    "type": "uint256"
                },
                {
                    "internalType": "address payable",
                    "name": "proxyOwner",
                    "type": "address"
                },
                {
                    "internalType": "bool",
                    "name": "_addRemove",
                    "type": "bool"
                }
            ],
            "name": "AndandRemoveProxyOwner",
            "outputs": [],
            "stateMutability": "nonpayable",
            "type": "function"
        },
        {
            "inputs": [
                {
                    "internalType": "uint256",
                    "name": "_propertyPID",
                    "type": "uint256"
                }
            ],
            "name": "CheckDuplicatePid",
            "outputs": [
                {
                    "internalType": "bool",
                    "name": "",
                    "type": "bool"
                }
            ],
            "stateMutability": "view",
            "type": "function"
        },
        {
            "inputs": [
                {
                    "internalType": "address",
                    "name": "",
                    "type": "address"
                }
            ],
            "name": "InspectorMapping",
            "outputs": [
                {
                    "internalType": "uint256",
                    "name": "id",
                    "type": "uint256"
                },
                {
                    "internalType": "address",
                    "name": "addr",
                    "type": "address"
                },
                {
                    "internalType": "bytes32",
                    "name": "posdistrict",
                    "type": "bytes32"
                },
                {
                    "internalType": "address",
                    "name": "addby",
                    "type": "address"
                },
                {
                    "internalType": "uint256",
                    "name": "timeStamp",
                    "type": "uint256"
                },
                {
                    "internalType": "uint256",
                    "name": "totaluserVerification",
                    "type": "uint256"
                },
                {
                    "internalType": "uint256",
                    "name": "totallandVerification",
                    "type": "uint256"
                }
            ],
            "stateMutability": "view",
            "type": "function"
        },
        {
            "inputs": [
                {
                    "internalType": "uint256",
                    "name": "",
                    "type": "uint256"
                }
            ],
            "name": "LandRequestMapping",
            "outputs": [
                {
                    "internalType": "uint256",
                    "name": "reqId",
                    "type": "uint256"
                },
                {
                    "internalType": "address payable",
                    "name": "sellerId",
                    "type": "address"
                },
                {
                    "internalType": "address payable",
                    "name": "buyerId",
                    "type": "address"
                },
                {
                    "internalType": "uint256",
                    "name": "landId",
                    "type": "uint256"
                },
                {
                    "internalType": "enum landregistry.reqStatus",
                    "name": "requestStatus",
                    "type": "uint8"
                },
                {
                    "internalType": "uint256",
                    "name": "bidPrice",
                    "type": "uint256"
                },
                {
                    "internalType": "bool",
                    "name": "isPaymentDone",
                    "type": "bool"
                }
            ],
            "stateMutability": "view",
            "type": "function"
        },
        {
            "inputs": [
                {
                    "internalType": "address",
                    "name": "",
                    "type": "address"
                }
            ],
            "name": "RegisteredInspectorMapping",
            "outputs": [
                {
                    "internalType": "bool",
                    "name": "",
                    "type": "bool"
                }
            ],
            "stateMutability": "view",
            "type": "function"
        },
        {
            "inputs": [
                {
                    "internalType": "address",
                    "name": "",
                    "type": "address"
                }
            ],
            "name": "RegisteredUserMapping",
            "outputs": [
                {
                    "internalType": "bool",
                    "name": "",
                    "type": "bool"
                }
            ],
            "stateMutability": "view",
            "type": "function"
        },
        {
            "inputs": [],
            "name": "ReturnAllLandIncpectorList",
            "outputs": [
                {
                    "internalType": "address[]",
                    "name": "",
                    "type": "address[]"
                }
            ],
            "stateMutability": "view",
            "type": "function"
        },
        {
            "inputs": [],
            "name": "ReturnAllLandList",
            "outputs": [
                {
                    "internalType": "uint256[]",
                    "name": "",
                    "type": "uint256[]"
                }
            ],
            "stateMutability": "view",
            "type": "function"
        },
        {
            "inputs": [],
            "name": "ReturnAllUserList",
            "outputs": [
                {
                    "internalType": "address[]",
                    "name": "",
                    "type": "address[]"
                }
            ],
            "stateMutability": "view",
            "type": "function"
        },
        {
            "inputs": [
                {
                    "internalType": "address",
                    "name": "",
                    "type": "address"
                }
            ],
            "name": "UserMapping",
            "outputs": [
                {
                    "internalType": "address",
                    "name": "id",
                    "type": "address"
                },
                {
                    "internalType": "bytes32",
                    "name": "name",
                    "type": "bytes32"
                },
                {
                    "internalType": "bytes32",
                    "name": "dob",
                    "type": "bytes32"
                },
                {
                    "internalType": "bytes32",
                    "name": "city",
                    "type": "bytes32"
                },
                {
                    "internalType": "bytes32",
                    "name": "district",
                    "type": "bytes32"
                },
                {
                    "internalType": "uint256",
                    "name": "cnic",
                    "type": "uint256"
                },
                {
                    "internalType": "string",
                    "name": "document",
                    "type": "string"
                },
                {
                    "internalType": "string",
                    "name": "profilepic",
                    "type": "string"
                },
                {
                    "internalType": "bytes32",
                    "name": "email",
                    "type": "bytes32"
                },
                {
                    "internalType": "bytes32",
                    "name": "phone",
                    "type": "bytes32"
                },
                {
                    "internalType": "bool",
                    "name": "isUserVerified",
                    "type": "bool"
                },
                {
                    "internalType": "bool",
                    "name": "death",
                    "type": "bool"
                },
                {
                    "internalType": "uint256",
                    "name": "registerdate",
                    "type": "uint256"
                }
            ],
            "stateMutability": "view",
            "type": "function"
        },
        {
            "inputs": [
                {
                    "internalType": "uint256",
                    "name": "_requestId",
                    "type": "uint256"
                }
            ],
            "name": "acceptRequest",
            "outputs": [],
            "stateMutability": "nonpayable",
            "type": "function"
        },
        {
            "inputs": [
                {
                    "internalType": "uint256",
                    "name": "_area",
                    "type": "uint256"
                },
                {
                    "internalType": "string",
                    "name": "_landAddress",
                    "type": "string"
                },
                {
                    "internalType": "bytes32",
                    "name": "_district",
                    "type": "bytes32"
                },
                {
                    "internalType": "uint256",
                    "name": "_landPrice",
                    "type": "uint256"
                },
                {
                    "internalType": "string",
                    "name": "_allLatiLongi",
                    "type": "string"
                },
                {
                    "internalType": "uint256",
                    "name": "_propertyPID",
                    "type": "uint256"
                },
                {
                    "internalType": "string",
                    "name": "_document",
                    "type": "string"
                },
                {
                    "internalType": "string",
                    "name": "_landpic",
                    "type": "string"
                }
            ],
            "name": "addLand",
            "outputs": [],
            "stateMutability": "nonpayable",
            "type": "function"
        },
        {
            "inputs": [
                {
                    "internalType": "address",
                    "name": "_addr",
                    "type": "address"
                },
                {
                    "internalType": "bytes32",
                    "name": "_posdistrict",
                    "type": "bytes32"
                }
            ],
            "name": "addLandInspector",
            "outputs": [
                {
                    "internalType": "bool",
                    "name": "",
                    "type": "bool"
                }
            ],
            "stateMutability": "nonpayable",
            "type": "function"
        },
        {
            "inputs": [
                {
                    "internalType": "address",
                    "name": "_addr",
                    "type": "address"
                }
            ],
            "name": "changeContractOwner",
            "outputs": [],
            "stateMutability": "nonpayable",
            "type": "function"
        },
        {
            "inputs": [
                {
                    "internalType": "uint256",
                    "name": "_landId",
                    "type": "uint256"
                },
                {
                    "internalType": "bool",
                    "name": "s",
                    "type": "bool"
                },
                {
                    "internalType": "bool",
                    "name": "p",
                    "type": "bool"
                },
                {
                    "internalType": "bool",
                    "name": "i",
                    "type": "bool"
                },
                {
                    "internalType": "bool",
                    "name": "c",
                    "type": "bool"
                },
                {
                    "internalType": "bool",
                    "name": "sell",
                    "type": "bool"
                },
                {
                    "internalType": "uint256",
                    "name": "_newPrice",
                    "type": "uint256"
                },
                {
                    "internalType": "string",
                    "name": "_newPic",
                    "type": "string"
                },
                {
                    "internalType": "string",
                    "name": "_allLatiLongi",
                    "type": "string"
                }
            ],
            "name": "changeDetails",
            "outputs": [],
            "stateMutability": "nonpayable",
            "type": "function"
        },
        {
            "inputs": [],
            "name": "documentId",
            "outputs": [
                {
                    "internalType": "uint256",
                    "name": "",
                    "type": "uint256"
                }
            ],
            "stateMutability": "view",
            "type": "function"
        },
        {
            "inputs": [
                {
                    "internalType": "uint256",
                    "name": "id",
                    "type": "uint256"
                }
            ],
            "name": "getLandHistory",
            "outputs": [
                {
                    "components": [
                        {
                            "internalType": "uint256",
                            "name": "parentId",
                            "type": "uint256"
                        },
                        {
                            "internalType": "uint256",
                            "name": "childCount",
                            "type": "uint256"
                        },
                        {
                            "internalType": "uint256",
                            "name": "childId",
                            "type": "uint256"
                        },
                        {
                            "internalType": "uint256",
                            "name": "area",
                            "type": "uint256"
                        },
                        {
                            "internalType": "address",
                            "name": "parentAddress",
                            "type": "address"
                        },
                        {
                            "internalType": "uint256",
                            "name": "parentIdRegisterdDate",
                            "type": "uint256"
                        },
                        {
                            "internalType": "uint256",
                            "name": "childIdRegisterDate",
                            "type": "uint256"
                        }
                    ],
                    "internalType": "struct landregistry.LandHistory[]",
                    "name": "",
                    "type": "tuple[]"
                }
            ],
            "stateMutability": "view",
            "type": "function"
        },
        {
            "inputs": [],
            "name": "inspectorsCount",
            "outputs": [
                {
                    "internalType": "uint256",
                    "name": "",
                    "type": "uint256"
                }
            ],
            "stateMutability": "view",
            "type": "function"
        },
        {
            "inputs": [
                {
                    "internalType": "address",
                    "name": "_addr",
                    "type": "address"
                }
            ],
            "name": "isContractOwner",
            "outputs": [
                {
                    "internalType": "bool",
                    "name": "",
                    "type": "bool"
                }
            ],
            "stateMutability": "view",
            "type": "function"
        },
        {
            "inputs": [
                {
                    "internalType": "address",
                    "name": "_id",
                    "type": "address"
                }
            ],
            "name": "isLandInspector",
            "outputs": [
                {
                    "internalType": "bool",
                    "name": "",
                    "type": "bool"
                }
            ],
            "stateMutability": "view",
            "type": "function"
        },
        {
            "inputs": [
                {
                    "internalType": "address",
                    "name": "id",
                    "type": "address"
                }
            ],
            "name": "isUserVerified",
            "outputs": [
                {
                    "internalType": "bool",
                    "name": "",
                    "type": "bool"
                }
            ],
            "stateMutability": "view",
            "type": "function"
        },
        {
            "inputs": [
                {
                    "internalType": "uint256",
                    "name": "",
                    "type": "uint256"
                }
            ],
            "name": "landHis",
            "outputs": [
                {
                    "internalType": "uint256",
                    "name": "parentId",
                    "type": "uint256"
                },
                {
                    "internalType": "uint256",
                    "name": "childCount",
                    "type": "uint256"
                },
                {
                    "internalType": "uint256",
                    "name": "childId",
                    "type": "uint256"
                },
                {
                    "internalType": "uint256",
                    "name": "area",
                    "type": "uint256"
                },
                {
                    "internalType": "address",
                    "name": "parentAddress",
                    "type": "address"
                },
                {
                    "internalType": "uint256",
                    "name": "parentIdRegisterdDate",
                    "type": "uint256"
                },
                {
                    "internalType": "uint256",
                    "name": "childIdRegisterDate",
                    "type": "uint256"
                }
            ],
            "stateMutability": "view",
            "type": "function"
        },
        {
            "inputs": [
                {
                    "internalType": "uint256",
                    "name": "",
                    "type": "uint256"
                }
            ],
            "name": "landPriceInfo",
            "outputs": [
                {
                    "internalType": "uint256",
                    "name": "id",
                    "type": "uint256"
                },
                {
                    "internalType": "uint256",
                    "name": "basePrice",
                    "type": "uint256"
                },
                {
                    "internalType": "uint256",
                    "name": "bidPrice",
                    "type": "uint256"
                }
            ],
            "stateMutability": "view",
            "type": "function"
        },
        {
            "inputs": [
                {
                    "internalType": "uint256",
                    "name": "",
                    "type": "uint256"
                }
            ],
            "name": "landinfo",
            "outputs": [
                {
                    "internalType": "address",
                    "name": "verfiedby",
                    "type": "address"
                },
                {
                    "internalType": "uint256",
                    "name": "verfydate",
                    "type": "uint256"
                },
                {
                    "internalType": "uint256",
                    "name": "childs",
                    "type": "uint256"
                },
                {
                    "internalType": "enum landregistry.verStatus",
                    "name": "verfiactionStatus",
                    "type": "uint8"
                },
                {
                    "internalType": "bool",
                    "name": "paymentdone",
                    "type": "bool"
                }
            ],
            "stateMutability": "view",
            "type": "function"
        },
        {
            "inputs": [
                {
                    "internalType": "uint256",
                    "name": "",
                    "type": "uint256"
                }
            ],
            "name": "lands",
            "outputs": [
                {
                    "internalType": "uint256",
                    "name": "id",
                    "type": "uint256"
                },
                {
                    "internalType": "uint256",
                    "name": "propertyPID",
                    "type": "uint256"
                },
                {
                    "internalType": "uint256",
                    "name": "area",
                    "type": "uint256"
                },
                {
                    "internalType": "uint256",
                    "name": "landPrice",
                    "type": "uint256"
                },
                {
                    "internalType": "string",
                    "name": "landAddress",
                    "type": "string"
                },
                {
                    "internalType": "bytes32",
                    "name": "district",
                    "type": "bytes32"
                },
                {
                    "internalType": "string",
                    "name": "allLatitudeLongitude",
                    "type": "string"
                },
                {
                    "internalType": "string",
                    "name": "document",
                    "type": "string"
                },
                {
                    "internalType": "string",
                    "name": "landpic",
                    "type": "string"
                },
                {
                    "internalType": "bool",
                    "name": "isforSell",
                    "type": "bool"
                },
                {
                    "internalType": "bool",
                    "name": "isLandVerified",
                    "type": "bool"
                },
                {
                    "internalType": "address payable",
                    "name": "ownerAddress",
                    "type": "address"
                },
                {
                    "internalType": "address payable",
                    "name": "proxyownerAddress",
                    "type": "address"
                },
                {
                    "internalType": "uint256",
                    "name": "registerdate",
                    "type": "uint256"
                }
            ],
            "stateMutability": "view",
            "type": "function"
        },
        {
            "inputs": [],
            "name": "landsCount",
            "outputs": [
                {
                    "internalType": "uint256",
                    "name": "",
                    "type": "uint256"
                }
            ],
            "stateMutability": "view",
            "type": "function"
        },
        {
            "inputs": [
                {
                    "internalType": "address payable",
                    "name": "_receiver",
                    "type": "address"
                },
                {
                    "internalType": "uint256",
                    "name": "_requestId",
                    "type": "uint256"
                }
            ],
            "name": "makePayment",
            "outputs": [],
            "stateMutability": "payable",
            "type": "function"
        },
        {
            "inputs": [
                {
                    "internalType": "address",
                    "name": "id",
                    "type": "address"
                }
            ],
            "name": "myAllLands",
            "outputs": [
                {
                    "internalType": "uint256[]",
                    "name": "",
                    "type": "uint256[]"
                }
            ],
            "stateMutability": "view",
            "type": "function"
        },
        {
            "inputs": [],
            "name": "myReceivedLandRequests",
            "outputs": [
                {
                    "internalType": "uint256[]",
                    "name": "",
                    "type": "uint256[]"
                }
            ],
            "stateMutability": "view",
            "type": "function"
        },
        {
            "inputs": [],
            "name": "mySentLandRequests",
            "outputs": [
                {
                    "internalType": "uint256[]",
                    "name": "",
                    "type": "uint256[]"
                }
            ],
            "stateMutability": "view",
            "type": "function"
        },
        {
            "inputs": [
                {
                    "internalType": "bytes32",
                    "name": "_name",
                    "type": "bytes32"
                },
                {
                    "internalType": "bytes32",
                    "name": "_dob",
                    "type": "bytes32"
                },
                {
                    "internalType": "bytes32",
                    "name": "_city",
                    "type": "bytes32"
                },
                {
                    "internalType": "bytes32",
                    "name": "_district",
                    "type": "bytes32"
                },
                {
                    "internalType": "uint256",
                    "name": "_cinc",
                    "type": "uint256"
                },
                {
                    "internalType": "string",
                    "name": "_document",
                    "type": "string"
                },
                {
                    "internalType": "string",
                    "name": "_profilepic",
                    "type": "string"
                },
                {
                    "internalType": "bytes32",
                    "name": "_email",
                    "type": "bytes32"
                },
                {
                    "internalType": "bytes32",
                    "name": "_phone",
                    "type": "bytes32"
                }
            ],
            "name": "registerUser",
            "outputs": [],
            "stateMutability": "nonpayable",
            "type": "function"
        },
        {
            "inputs": [
                {
                    "internalType": "uint256",
                    "name": "_requestId",
                    "type": "uint256"
                }
            ],
            "name": "rejectRequest",
            "outputs": [],
            "stateMutability": "nonpayable",
            "type": "function"
        },
        {
            "inputs": [
                {
                    "internalType": "address",
                    "name": "_addr",
                    "type": "address"
                }
            ],
            "name": "removeLandInspector",
            "outputs": [],
            "stateMutability": "nonpayable",
            "type": "function"
        },
        {
            "inputs": [],
            "name": "requestCount",
            "outputs": [
                {
                    "internalType": "uint256",
                    "name": "",
                    "type": "uint256"
                }
            ],
            "stateMutability": "view",
            "type": "function"
        },
        {
            "inputs": [
                {
                    "internalType": "uint256",
                    "name": "_landId",
                    "type": "uint256"
                },
                {
                    "internalType": "uint256",
                    "name": "_bidPrice",
                    "type": "uint256"
                }
            ],
            "name": "requestforBuyWithBid",
            "outputs": [],
            "stateMutability": "nonpayable",
            "type": "function"
        },
        {
            "inputs": [],
            "name": "returnPaymentDoneList",
            "outputs": [
                {
                    "internalType": "uint256[]",
                    "name": "",
                    "type": "uint256[]"
                }
            ],
            "stateMutability": "view",
            "type": "function"
        },
        {
            "inputs": [
                {
                    "internalType": "uint256",
                    "name": "id",
                    "type": "uint256"
                },
                {
                    "internalType": "uint256",
                    "name": "newarea",
                    "type": "uint256"
                },
                {
                    "internalType": "uint256",
                    "name": "numplots",
                    "type": "uint256"
                }
            ],
            "name": "subplot",
            "outputs": [],
            "stateMutability": "nonpayable",
            "type": "function"
        },
        {
            "inputs": [
                {
                    "internalType": "address",
                    "name": "deceased",
                    "type": "address"
                }
            ],
            "name": "transferDeceasedOwnership",
            "outputs": [],
            "stateMutability": "nonpayable",
            "type": "function"
        },
        {
            "inputs": [
                {
                    "internalType": "uint256",
                    "name": "",
                    "type": "uint256"
                }
            ],
            "name": "transferInfo",
            "outputs": [
                {
                    "internalType": "uint256",
                    "name": "id",
                    "type": "uint256"
                },
                {
                    "internalType": "address",
                    "name": "seller",
                    "type": "address"
                },
                {
                    "internalType": "address",
                    "name": "buyer",
                    "type": "address"
                },
                {
                    "internalType": "address",
                    "name": "witness",
                    "type": "address"
                },
                {
                    "internalType": "address",
                    "name": "verfiedby",
                    "type": "address"
                },
                {
                    "internalType": "uint256",
                    "name": "landid",
                    "type": "uint256"
                },
                {
                    "internalType": "uint256",
                    "name": "transferdate",
                    "type": "uint256"
                }
            ],
            "stateMutability": "view",
            "type": "function"
        },
        {
            "inputs": [
                {
                    "internalType": "uint256",
                    "name": "_requestId",
                    "type": "uint256"
                },
                {
                    "internalType": "string",
                    "name": "documentUrl",
                    "type": "string"
                },
                {
                    "internalType": "address",
                    "name": "witness",
                    "type": "address"
                }
            ],
            "name": "transferOwnership",
            "outputs": [],
            "stateMutability": "nonpayable",
            "type": "function"
        },
        {
            "inputs": [],
            "name": "userCount",
            "outputs": [
                {
                    "internalType": "uint256",
                    "name": "",
                    "type": "uint256"
                }
            ],
            "stateMutability": "view",
            "type": "function"
        },
        {
            "inputs": [
                {
                    "internalType": "address",
                    "name": "",
                    "type": "address"
                }
            ],
            "name": "userinfo",
            "outputs": [
                {
                    "internalType": "address",
                    "name": "verfiedby",
                    "type": "address"
                },
                {
                    "internalType": "uint256",
                    "name": "verifydate",
                    "type": "uint256"
                },
                {
                    "internalType": "enum landregistry.verStatus",
                    "name": "verfiactionStatus",
                    "type": "uint8"
                }
            ],
            "stateMutability": "view",
            "type": "function"
        },
        {
            "inputs": [
                {
                    "internalType": "uint256",
                    "name": "_id",
                    "type": "uint256"
                }
            ],
            "name": "verifyLandAccepted",
            "outputs": [],
            "stateMutability": "nonpayable",
            "type": "function"
        },
        {
            "inputs": [
                {
                    "internalType": "uint256",
                    "name": "_id",
                    "type": "uint256"
                }
            ],
            "name": "verifyLandRejected",
            "outputs": [],
            "stateMutability": "nonpayable",
            "type": "function"
        },
        {
            "inputs": [
                {
                    "internalType": "address",
                    "name": "_userId",
                    "type": "address"
                }
            ],
            "name": "verifyUserAccepted",
            "outputs": [],
            "stateMutability": "nonpayable",
            "type": "function"
        },
        {
            "inputs": [
                {
                    "internalType": "address",
                    "name": "_userId",
                    "type": "address"
                }
            ],
            "name": "verifyUserRejected",
            "outputs": [],
            "stateMutability": "nonpayable",
            "type": "function"
        },
        {
            "stateMutability": "payable",
            "type": "receive"
        }
    ],
    "bytecode": "608060405234801561001057600080fd5b50600080546001600160a01b03191633179055614bcf806100326000396000f3fe6080604052600436106102805760003560e01c8063935400ee1161014f578063c6acafcd116100c1578063de1176881161007a578063de11768814610a60578063e165af8714610a80578063e261f1e514610aa0578063e749752c14610ada578063f98cf07c14610afa578063f99a117614610b0d57600080fd5b8063c6acafcd146108ab578063cc47e9bd14610914578063d196ebf2146109c2578063d251839b146109e2578063d61ff68c146109f7578063dd056ebc14610a3057600080fd5b8063a6951e1f11610113578063a6951e1f14610746578063a846fc8f14610766578063a84e3bdd1461077b578063ab9f38ea1461079b578063ace417e0146107f2578063b10a30ed1461082e57600080fd5b8063935400ee14610683578063941e2426146106a35780639446ec9f146106b95780639c32e3b4146107115780639dec448e1461072657600080fd5b8063499701b2116101f35780635badbe4c116101ac5780635badbe4c1461055357806364efa002146105695780636910c46d1461060d5780637517e00f1461062d57806378f7c83f1461064d578063836b39791461066357600080fd5b8063499701b21461048f5780634ba1f098146104a45780634f389721146104c457806354f1ebfb146104f1578063553a998d1461051157806358051d931461053357600080fd5b806323393d771161024557806323393d77146103bd5780632d7788db146103df578063314967ac146103ff57806332f2bb141461041f5780633ead67b51461044f57806343e8349a1461046f57600080fd5b806252f4581461028c57806307973ccf146102ae57806312ca3f1f146102d7578063145678de146103075780631c9afd0f146103a757600080fd5b3661028757005b600080fd5b34801561029857600080fd5b506102ac6102a7366004614114565b610b2d565b005b3480156102ba57600080fd5b506102c460025481565b6040519081526020015b60405180910390f35b3480156102e357600080fd5b506102f76102f2366004614138565b610c40565b60405190151581526020016102ce565b34801561031357600080fd5b50610369610322366004614138565b601460205260009081526040902080546001820154600283015460038401546004850154600586015460069096015494959394929391926001600160a01b03909116919087565b6040805197885260208801969096529486019390935260608501919091526001600160a01b0316608084015260a083015260c082015260e0016102ce565b3480156103b357600080fd5b506102c460035481565b3480156103c957600080fd5b506103d2610c8a565b6040516102ce9190614151565b3480156103eb57600080fd5b506102ac6103fa366004614138565b610d0a565b34801561040b57600080fd5b506102ac61041a366004614238565b610de2565b34801561042b57600080fd5b506102f761043a366004614114565b600b6020526000908152604090205460ff1681565b34801561045b57600080fd5b506102ac61046a366004614114565b611257565b34801561047b57600080fd5b506102ac61048a36600461430c565b611289565b34801561049b57600080fd5b506103d261177d565b3480156104b057600080fd5b506102ac6104bf366004614138565b6117dc565b3480156104d057600080fd5b506104e46104df366004614138565b611964565b6040516102ce9190614367565b3480156104fd57600080fd5b506102ac61050c366004614114565b611a1f565b34801561051d57600080fd5b50610526611ac0565b6040516102ce91906143f2565b34801561053f57600080fd5b506102ac61054e366004614433565b611b49565b34801561055f57600080fd5b506102c460055481565b34801561057557600080fd5b506105cd610584366004614114565b600760205260009081526040902080546001820154600283015460038401546004850154600586015460069096015494956001600160a01b039485169593949092169290919087565b604080519788526001600160a01b039687166020890152870194909452939091166060850152608084015260a083019190915260c082015260e0016102ce565b34801561061957600080fd5b506102f761062836600461445f565b6125ff565b34801561063957600080fd5b506102ac610648366004614114565b612822565b34801561065957600080fd5b506102c460045481565b34801561066f57600080fd5b506102ac61067e36600461449b565b6129f4565b34801561068f57600080fd5b506102ac61069e3660046144d9565b612b1b565b3480156106af57600080fd5b506102c460015481565b3480156106c557600080fd5b506107026106d4366004614114565b6016602052600090815260409020805460018201546002909201546001600160a01b03909116919060ff1683565b6040516102ce939291906145d8565b34801561071d57600080fd5b506103d2612d30565b34801561073257600080fd5b506102ac610741366004614606565b612d8f565b34801561075257600080fd5b506102ac610761366004614138565b613119565b34801561077257600080fd5b506103d26132a8565b34801561078757600080fd5b506102ac610796366004614114565b613326565b3480156107a757600080fd5b506107d76107b6366004614138565b60176020526000908152604090208054600182015460029092015490919083565b604080519384526020840192909252908201526060016102ce565b3480156107fe57600080fd5b506102f761080d366004614114565b6001600160a01b03166000908152600660205260409020600a015460ff1690565b34801561083a57600080fd5b50610898610849366004614138565b600e60205260009081526040902080546001820154600283015460038401546004850154600586015460069096015494956001600160a01b03948516959390941693919260ff91821692911687565b6040516102ce9796959493929190614628565b3480156108b757600080fd5b506109036108c6366004614138565b60156020526000908152604090208054600182015460028301546003909301546001600160a01b0390921692909160ff8082169161010090041685565b6040516102ce959493929190614676565b34801561092057600080fd5b5061097c61092f366004614138565b601860205260009081526040902080546001820154600283015460038401546004850154600586015460069096015494956001600160a01b03948516959385169492831693929091169187565b604080519788526001600160a01b039687166020890152948616948701949094529184166060860152909216608084015260a083019190915260c082015260e0016102ce565b3480156109ce57600080fd5b506103d26109dd366004614114565b613597565b3480156109ee57600080fd5b50610526613603565b348015610a0357600080fd5b50610a17610a12366004614114565b613679565b6040516102ce9d9c9b9a999897969594939291906146fb565b348015610a3c57600080fd5b506102f7610a4b366004614114565b60096020526000908152604090205460ff1681565b348015610a6c57600080fd5b506102f7610a7b366004614114565b613800565b348015610a8c57600080fd5b506102f7610a9b366004614114565b61382c565b348015610aac57600080fd5b50610ac0610abb366004614138565b613855565b6040516102ce9e9d9c9b9a99989796959493929190614790565b348015610ae657600080fd5b506102ac610af5366004614847565b613af2565b6102ac610b0836600461445f565b613e5a565b348015610b1957600080fd5b506102ac610b28366004614138565b614009565b610b363361382c565b8015610b4b57506001600160a01b0381163314155b8015610b825750336000908152600760209081526040808320600201546001600160a01b0385168452600690925290912060040154145b15610287576001600160a01b038116600090815260066020908152604091829020600a01805460ff191660019081179091558251606081018452338152429281019290925290918201905b90526001600160a01b03828116600090815260166020908152604091829020845181546001600160a01b0319169416939093178355830151600180840191909155908301516002830180549192909160ff191690836004811115610c3357610c336145a4565b0217905550505050565b50565b6000805b6003548111610c81576000818152600d6020526040902060010154839003610c6f5750600192915050565b80610c7981614905565b915050610c44565b50600092915050565b6001600052601160209081527f17bc176d2408558f6e4111feebc3cab4e16b63e967be91cde721f4c8a488b5528054604080518285028101850190915281815260609390929190830182828015610d0057602002820191906000526020600020905b815481526020019060010190808311610cec575b5050505050905090565b6000818152600e60205260409020600101546001600160a01b03163314610d4c5760405162461bcd60e51b8152600401610d439061491e565b60405180910390fd5b6000818152600e6020526040902060049081015460ff1681811115610d7357610d736145a4565b14158015610da8575060036000828152600e6020526040902060049081015460ff1690811115610da557610da56145a4565b14155b610dc45760405162461bcd60e51b8152600401610d439061496d565b6000908152600e60205260409020600401805460ff19166001179055565b336000908152600660205260409020600a015460ff168015610e0a5750610e0883610c40565b155b8015610e165750600088115b8015610e3a5750336000908152600660205260409020600a0154610100900460ff16155b156102875760038054906000610e4f83614905565b9091555050604080516101c0810182526003805480835260208084018881528486018e8152606086018c8152608087018f815260a088018f905260c088018d905260e088018b905261010088018a9052600061012089018190526101408901819052336101608a015280546001600160a01b03166101808a0152426101a08a0152958652600d9094529690932085518155905160018201559151600283015593519181019190915591519091906004820190610f0b9082614a67565b5060a0820151600582015560c08201516006820190610f2a9082614a67565b5060e08201516007820190610f3f9082614a67565b506101008201516008820190610f559082614a67565b506101208201518160090160006101000a81548160ff0219169083151502179055506101408201518160090160016101000a81548160ff0219169083151502179055506101608201518160090160026101000a8154816001600160a01b0302191690836001600160a01b0316021790555061018082015181600a0160006101000a8154816001600160a01b0302191690836001600160a01b031602179055506101a082015181600b0155905050600c6000336001600160a01b03166001600160a01b031681526020019081526020016000206003549080600181540180825580915050600190039060005260206000200160009091909190915055601160006001815260200190815260200160002060035490806001815401808255809150506001900390600052602060002001600090919091909150556013600060035481526020019081526020016000206040518060e00160405280600354815260200160008152602001600081526020018a8152602001336001600160a01b03168152602001428152602001600081525090806001815401808255809150506001900390600052602060002090600702016000909190919091506000820151816000015560208201518160010155604082015181600201556060820151816003015560808201518160040160006101000a8154816001600160a01b0302191690836001600160a01b0316021790555060a0820151816005015560c0820151816006015550506040518060a0016040528060006001600160a01b031681526020016000815260200160008152602001600060048111156111b3576111b36145a4565b81526000602091820181905260038054825260158352604091829020845181546001600160a01b0319166001600160a01b0390911617815592840151600180850191909155918401516002840155606084015190830180549192909160ff191690836004811115611226576112266145a4565b021790555060809190910151600390910180549115156101000261ff00199092169190911790555050505050505050565b6000546001600160a01b03163303610c3d57600080546001600160a01b0383166001600160a01b031990911617905550565b6112923361382c565b80156112af57506000838152600e602052604090206006015460ff165b80156112e957506000838152600e60209081526040808320600301548352600d825280832060050154338452600790925290912060020154145b801561131057506001600160a01b0381166000908152600660205260409020600a015460ff165b801561133957506000838152600e60205260409020600101546001600160a01b03828116911614155b801561136257506000838152600e60205260409020600201546001600160a01b03828116911614155b15610287576004805490600061137783614905565b90915550506000838152600e602090815260408083206004808201805460ff1916909117905560028101546001600160a01b039081168552600c84528285206003830154815460018181018455928852958720909501949094559201549091168252812054905b8181101561152c576000858152600e6020908152604080832060038101546001909101546001600160a01b03168452600c90925290912080548390811061142757611427614b27565b90600052602060002001540361151a576000858152600e602090815260408083206001908101546001600160a01b03168452600c9092529091209061146c9084614b3d565b8154811061147c5761147c614b27565b6000918252602080832090910154878352600e82526040808420600101546001600160a01b03168452600c90925291208054839081106114be576114be614b27565b6000918252602080832090910192909255868152600e82526040808220600101546001600160a01b03168252600c909252208054806114ff576114ff614b50565b6001900381819060005260206000200160009055905561152c565b8061152481614905565b9150506113de565b506040518060e001604052806004548152602001600e600087815260200190815260200160002060010160009054906101000a90046001600160a01b03166001600160a01b03168152602001600e600087815260200190815260200160002060020160009054906101000a90046001600160a01b03166001600160a01b03168152602001836001600160a01b03168152602001336001600160a01b03168152602001600e6000878152602001908152602001600020600301548152602001428152506018600060045481526020019081526020016000206000820151816000015560208201518160010160006101000a8154816001600160a01b0302191690836001600160a01b0316021790555060408201518160020160006101000a8154816001600160a01b0302191690836001600160a01b0316021790555060608201518160030160006101000a8154816001600160a01b0302191690836001600160a01b0316021790555060808201518160040160006101000a8154816001600160a01b0302191690836001600160a01b0316021790555060a0820151816005015560c0820151816006015590505082600d6000600e600088815260200190815260200160002060030154815260200190815260200160002060070190816117119190614a67565b505050600091825250600e602090815260408083206003810180548552600d9093528184206009908101805460ff19169055600290910154925484529220909101805462010000600160b01b0319166001600160a01b039092166201000002919091179055565b505050565b336000908152600f6020908152604091829020805483518184028101840190945280845260609392830182828015610d005760200282019190600052602060002090815481526020019060010190808311610cec575050505050905090565b6000818152600e60205260409020600101546001600160a01b031633146118155760405162461bcd60e51b8152600401610d439061491e565b6000818152600e6020526040902060049081015460ff168181111561183c5761183c6145a4565b14158015611871575060036000828152600e6020526040902060049081015460ff169081111561186e5761186e6145a4565b14155b61188d5760405162461bcd60e51b8152600401610d439061496d565b6000818152600e60205260409020600501541561190357604080516060810182528281526000838152600e60209081528382206003808201548452600d83528584200154828501908152600590910154848601908152868452601790925293909120915182559151600182015590516002909101555b6000818152600e6020526040902060048101805460ff191660021790556003015460015b6005548111611778576000818152600e60205260409020600301548290036119525761195281610d0a565b8061195c81614905565b915050611927565b606060136000838152602001908152602001600020805480602002602001604051908101604052809291908181526020016000905b82821015611a145760008481526020908190206040805160e0810182526007860290920180548352600180820154848601526002820154928401929092526003810154606084015260048101546001600160a01b03166080840152600581015460a08401526006015460c08301529083529092019101611999565b505050509050919050565b611a283361382c565b8015611a3d57506001600160a01b0381163314155b8015611a745750336000908152600760209081526040808320600201546001600160a01b0385168452600690925290912060040154145b15610287576001600160a01b038116600090815260066020908152604091829020600a01805460ff19166001179055815160608101835233815242918101919091529081016002610bcd565b6001600052600a60209081527fbbc70db1b6c7afd11e79c0fb0051300458f1a3acb8ee9789d9b6b26c61ad9bc78054604080518285028101850190915281815260609390929190830182828015610d0057602002820191906000526020600020905b81546001600160a01b03168152600190910190602001808311611b22575050505050905090565b336000908152600660205260409020600a015460ff168015611b8157506000838152600d6020526040902060090154610100900460ff165b8015611bac57506000838152600d60205260409020600901546201000090046001600160a01b031633145b8015611bb85750600081115b8015611bd457506000838152600d602052604090206002015482105b8015611bf257506000838152600d602052604090206009015460ff16155b8015611c165750336000908152600660205260409020600a0154610100900460ff16155b15610287576000838152600d60209081526040808320600190810154601390935290832080549293929091611c4a91614b3d565b81548110611c5a57611c5a614b27565b906000526020600020906007020190506000838260010154611c7c9190614b66565b905060015b848111158015611ca257506000878152600d60205260409020600201548611155b156125f6576000878152600d602052604081206002018054889290611cc8908490614b3d565b909155505060038054906000611cdd83614905565b909155505060035460408051426020820152908101919091526060810185905260009060800160408051601f1981840301815282825280516020918201206101c0840183526003805485528483018290528484018c905260008d8152600d8085529481209182015460608701528d905292909152600490910180549193506080830191611d69906149e7565b80601f0160208091040260200160405190810160405280929190818152602001828054611d95906149e7565b8015611de25780601f10611db757610100808354040283529160200191611de2565b820191906000526020600020905b815481529060010190602001808311611dc557829003601f168201915b50505050508152602001600d60008b8152602001908152602001600020600501548152602001600d60008b81526020019081526020016000206006018054611e29906149e7565b80601f0160208091040260200160405190810160405280929190818152602001828054611e55906149e7565b8015611ea25780601f10611e7757610100808354040283529160200191611ea2565b820191906000526020600020905b815481529060010190602001808311611e8557829003601f168201915b50505050508152602001600d60008b81526020019081526020016000206007018054611ecd906149e7565b80601f0160208091040260200160405190810160405280929190818152602001828054611ef9906149e7565b8015611f465780601f10611f1b57610100808354040283529160200191611f46565b820191906000526020600020905b815481529060010190602001808311611f2957829003601f168201915b50505050508152602001600d60008b81526020019081526020016000206008018054611f71906149e7565b80601f0160208091040260200160405190810160405280929190818152602001828054611f9d906149e7565b8015611fea5780601f10611fbf57610100808354040283529160200191611fea565b820191906000526020600020905b815481529060010190602001808311611fcd57829003601f168201915b50505050508152602001600015158152602001600115158152602001336001600160a01b0316815260200160008054906101000a90046001600160a01b03166001600160a01b0316815260200142815250600d6000600354815260200190815260200160002060008201518160000155602082015181600101556040820151816002015560608201518160030155608082015181600401908161208d9190614a67565b5060a0820151600582015560c082015160068201906120ac9082614a67565b5060e082015160078201906120c19082614a67565b5061010082015160088201906120d79082614a67565b506101208201518160090160006101000a81548160ff0219169083151502179055506101408201518160090160016101000a81548160ff0219169083151502179055506101608201518160090160026101000a8154816001600160a01b0302191690836001600160a01b0316021790555061018082015181600a0160006101000a8154816001600160a01b0302191690836001600160a01b031602179055506101a082015181600b0155905050600c6000336001600160a01b03166001600160a01b031681526020019081526020016000206003549080600181540180825580915050600190039060005260206000200160009091909190915055601160006001815260200190815260200160002060035490806001815401808255809150506001900390600052602060002001600090919091909150556013600060035481526020019081526020016000206040518060e001604052808a81526020016000815260200160008152602001898152602001336001600160a01b03168152602001428152602001600081525090806001815401808255809150506001900390600052602060002090600702016000909190919091506000820151816000015560208201518160010155604082015181600201556060820151816003015560808201518160040160006101000a8154816001600160a01b0302191690836001600160a01b0316021790555060a0820151816005015560c0820151816006015550506040518060a00160405280601560008b815260200190815260200160002060000160009054906101000a90046001600160a01b03166001600160a01b03168152602001601560008b81526020019081526020016000206001015481526020016000815260200160036004811115612370576123706145a4565b81526000602091820181905260038054825260158352604091829020845181546001600160a01b0319166001600160a01b0390911617815592840151600180850191909155918401516002840155606084015190830180549192909160ff1916908360048111156123e3576123e36145a4565b021790555060809190910151600390910180549115156101000261ff00199092169190911790556040805160a08101825260008a81526015602081815284832080546001600160a01b03168552928d905290815260019190910154908201529081018490526060810160028152600060209182018190528a815260158252604090819020835181546001600160a01b0319166001600160a01b039091161781559183015160018084019190915590830151600283015560608301516003830180549192909160ff1916908360048111156124bf576124bf6145a4565b021790555060808201518160030160016101000a81548160ff021916908315150217905550905050601360008981526020019081526020016000206040518060e001604052808a81526020018581526020016003548152602001898152602001336001600160a01b03168152602001600d60008c8152602001908152602001600020600b015481526020014281525090806001815401808255809150506001900390600052602060002090600702016000909190919091506000820151816000015560208201518160010155604082015181600201556060820151816003015560808201518160040160006101000a8154816001600160a01b0302191690836001600160a01b0316021790555060a0820151816005015560c0820151816006015550505080806125ee90614905565b915050611c81565b50505050505050565b600080546001600160a01b03163314801561263357506001600160a01b03831660009081526009602052604090205460ff16155b801561265c57506001600160a01b0383166000908152600b602052604090205460ff1615156001145b15610287576001600160a01b038381166000818152600660209081526040808320600a01805460ff1990811660019081179092558251606081018452338152428186019081526004828601818152988852601690965293909520855181546001600160a01b031916981697909717875591518682015593516002860180549496959194909392169184908111156126f5576126f56145a4565b021790555050506001600160a01b0383166000908152600960205260408120805460ff1916600190811790915580549161272e83614905565b9091555050600080516020614b7a833981519152805460018082019092557f8048725117155ad5ef9cb75f77fbe235a4558a61159f5364c90d55c3a0d15b7a0180546001600160a01b03199081166001600160a01b038781169182179093556040805160e0810182528554815260208082018481528284018a815233606085019081524260808601908152600060a0870181815260c08801828152998252600790965296909620945185559151848a0180548916918a169190911790555160028401555160038301805490961696169590951790935551600483015591516005820155905160069091015590505b92915050565b6000546001600160a01b03163314801561285457506001600160a01b03811660009081526009602052604090205460ff165b15610287576001600160a01b03811660009081526009602090815260408220805460ff191690556001825260089052600080516020614b7a83398151915254905b818110156117785760016000526008602052600080516020614b7a83398151915280546001600160a01b0385169190839081106128d4576128d4614b27565b6000918252602090912001546001600160a01b0316036129e257600160008190526008602052600080516020614b7a833981519152906129149084614b3d565b8154811061292457612924614b27565b6000918252602080832090910154600190925260089052600080516020614b7a83398151915280546001600160a01b03909216918390811061296857612968614b27565b600091825260208083209190910180546001600160a01b0319166001600160a01b0394909416939093179092556001905260089052600080516020614b7a8339815191528054806129bb576129bb614b50565b600082815260209020810160001990810180546001600160a01b0319169055019055505050565b806129ec81614905565b915050612895565b6000838152600d60205260409020600901546201000090046001600160a01b031633148015612a3957506000838152600d6020526040902060090154610100900460ff165b8015612a5757506000838152600d602052604090206009015460ff16155b1561028757808015612a8657506000838152600d60205260409020600a01546001600160a01b03838116911614155b15612ab6576000838152600d60205260409020600a0180546001600160a01b0319166001600160a01b0384161790555b80158015612ae057506000838152600d60205260409020600a01546001600160a01b038381169116145b156117785760008054848252600d6020526040909120600a0180546001600160a01b0319166001600160a01b03909216919091179055505050565b6000898152600d60209081526040808320600901546201000090046001600160a01b03168352600f825280832080548251818502810185019093528083528493830182828015612b8a57602002820191906000526020600020905b815481526020019060010190808311612b76575b5050505050905060005b8151811015612c06578b600e6000848481518110612bb457612bb4614b27565b602002602001015181526020019081526020016000206003015403612bf457818181518110612be557612be5614b27565b60200260200101519250612c06565b80612bfe81614905565b915050612b94565b506000828152600e6020908152604080832060068101546004909101548f8552600d90935292206009015460ff9283169291909116906201000090046001600160a01b031633148015612c6f575060008d8152600d6020526040902060090154610100900460ff165b8015612c79575081155b8015612c9757506002816004811115612c9457612c946145a4565b14155b15610287578b15612cc05760008d8152600d60205260409020600901805460ff19168915151790555b8a15612cdb5760008d8152600d602052604090206003018790555b8915612cfe5760008d8152600d60205260409020600801612cfc8782614a67565b505b8815612d215760008d8152600d60205260409020600601612d1f8682614a67565b505b50505050505050505050505050565b33600090815260106020908152604091829020805483518184028101840190945280845260609392830182828015610d005760200282019190600052602060002090815481526020019060010190808311610cec575050505050905090565b600082815260156020526040902060030154610100900460ff1615612df65760405162461bcd60e51b815260206004820152601a60248201527f7061796d656e742073686f756c64206e6f7420626520646f6e650000000000006044820152606401610d43565b6000828152600d60209081526040808320600901546201000090046001600160a01b03168352600f825280832080548251818502810185019093528083528493830182828015612e6557602002820191906000526020600020905b815481526020019060010190808311612e51575b5050505050905060005b8151811015612ee15784600e6000848481518110612e8f57612e8f614b27565b602002602001015181526020019081526020016000206003015403612ecf57818181518110612ec057612ec0614b27565b60200260200101519250612ee1565b80612ed981614905565b915050612e6f565b506000828152600e6020908152604080832060068082015460049092015433865293529220600a015460ff9283169291821691168015612f3757506000868152600d6020526040902060090154610100900460ff165b8015612f6357506000868152600d60205260409020600901546201000090046001600160a01b03163314155b8015612f6d575081155b8015612f8b57506002816004811115612f8857612f886145a4565b14155b8015612fa957506004816004811115612fa657612fa66145a4565b14155b156102875760058054906000612fbe83614905565b90915550506040805160e0810182526005548082526000898152600d6020908152848220600901546201000090046001600160a01b0390811682860190815233868801908152606087018e81526080880186815260a089018f905260c08901879052968652600e90945296909320855181559251600180850180549284166001600160a01b03199384161790559651600285018054919093169116179055516003820155905160048083018054949593949293909260ff1916918490811115613089576130896145a4565b021790555060a082015160058281019190915560c0909201516006909101805460ff19169115159190911790556000878152600d60209081526040808320600901546201000090046001600160a01b03168352600f82528083208454815460018181018455928652848620015533845260108352908320935484549182018555938352912001555b505050505050565b6131223361382c565b801561314e57506000818152600d60205260409020600901546201000090046001600160a01b03163314155b801561318a57506000818152600d60209081526040808320600901546201000090046001600160a01b0316835260069091529020600a015460ff165b80156131b757506000818152600d6020908152604080832060050154338452600790925290912060020154145b15610287576000818152600d60209081526040808320600901805461ff001916610100179055805160a0810182523381524281840152848452601590925291829020600290810154928201929092529060608201905b81526000602091820181905283815260158252604090819020835181546001600160a01b0319166001600160a01b039091161781559183015160018084019190915590830151600283015560608301516003830180549192909160ff19169083600481111561327e5761327e6145a4565b021790555060809190910151600390910180549115156101000261ff001990921691909117905550565b6001600052601260209081527f71a67924699a20698523213e55fe499d539379d7769cd5567e2c45d583f815a38054604080518285028101850190915281815260609390929190830182828015610d005760200282019190600052602060002090815481526020019060010190808311610cec575050505050905090565b61332f3361382c565b61333857600080fd5b6001600160a01b0381166000908152600660209081526040808320600a01805461ff001916610100179055600c8252808320805482518185028101850190935280835291929091908301828280156133af57602002820191906000526020600020905b81548152602001906001019080831161339b575b5050505050905060005b81518110156117785760008282815181106133d6576133d6614b27565b6020908102919091018101516000818152600d90925260409091206009810154919250906001600160a01b03868116620100009092041614801561342f5750600581015433600090815260076020526040902060020154145b15613582576004805490600061344483614905565b9091555050600981018054600a83015461ff01600160b01b03199091166001600160a01b03918216620100008102919091179092556000918252600c60209081526040808420805460018101825590855291842090910185905590871682528120905b815481101561355b57838282815481106134c3576134c3614b27565b90600052602060002001540361354957815482906134e390600190614b3d565b815481106134f3576134f3614b27565b906000526020600020015482828154811061351057613510614b27565b90600052602060002001819055508180548061352e5761352e614b50565b6001900381819060005260206000200160009055905561355b565b8061355381614905565b9150506134a7565b5050600054600a820180546001600160a01b0319166001600160a01b039092169190911790555b5050808061358f90614905565b9150506133b9565b6001600160a01b0381166000908152600c60209081526040918290208054835181840281018401909452808452606093928301828280156135f757602002820191906000526020600020905b8154815260200190600101908083116135e3575b50505050509050919050565b600160005260086020908152600080516020614b7a8339815191528054604080518285028101850190915281815260609390929190830182828015610d00576020028201919060005260206000209081546001600160a01b03168152600190910190602001808311611b22575050505050905090565b600660208190526000918252604090912080546001820154600283015460038401546004850154600586015496860180546001600160a01b0390961697949693959294919391926136c9906149e7565b80601f01602080910402602001604051908101604052809291908181526020018280546136f5906149e7565b80156137425780601f1061371757610100808354040283529160200191613742565b820191906000526020600020905b81548152906001019060200180831161372557829003601f168201915b505050505090806007018054613757906149e7565b80601f0160208091040260200160405190810160405280929190818152602001828054613783906149e7565b80156137d05780601f106137a5576101008083540402835291602001916137d0565b820191906000526020600020905b8154815290600101906020018083116137b357829003601f168201915b5050505060088301546009840154600a850154600b909501549394919390925060ff80831692610100900416908d565b600080546001600160a01b039081169083160361381f57506001919050565b506000919050565b919050565b6001600160a01b03811660009081526009602052604081205460ff161561381f57506001919050565b600d6020526000908152604090208054600182015460028301546003840154600485018054949593949293919261388b906149e7565b80601f01602080910402602001604051908101604052809291908181526020018280546138b7906149e7565b80156139045780601f106138d957610100808354040283529160200191613904565b820191906000526020600020905b8154815290600101906020018083116138e757829003601f168201915b50505050509080600501549080600601805461391f906149e7565b80601f016020809104026020016040519081016040528092919081815260200182805461394b906149e7565b80156139985780601f1061396d57610100808354040283529160200191613998565b820191906000526020600020905b81548152906001019060200180831161397b57829003601f168201915b5050505050908060070180546139ad906149e7565b80601f01602080910402602001604051908101604052809291908181526020018280546139d9906149e7565b8015613a265780601f106139fb57610100808354040283529160200191613a26565b820191906000526020600020905b815481529060010190602001808311613a0957829003601f168201915b505050505090806008018054613a3b906149e7565b80601f0160208091040260200160405190810160405280929190818152602001828054613a67906149e7565b8015613ab45780601f10613a8957610100808354040283529160200191613ab4565b820191906000526020600020905b815481529060010190602001808311613a9757829003601f168201915b5050506009840154600a850154600b90950154939460ff80831695610100840490911694506001600160a01b0362010000909304831693509116908e565b336000908152600b602052604090205460ff161515600103613b4c5760405162461bcd60e51b8152602060048201526013602482015272105b1b1c995859195e481c9959da5cdd195c99606a1b6044820152606401610d43565b60005b600254811015613c175760016000908152600a6020527fbbc70db1b6c7afd11e79c0fb0051300458f1a3acb8ee9789d9b6b26c61ad9bc780548892600692909185908110613b9f57613b9f614b27565b60009182526020808320909101546001600160a01b0316835282019290925260400190206005015403613c055760405162461bcd60e51b815260206004820152600e60248201526d6475706c696361746520636e696360901b6044820152606401610d43565b80613c0f81614905565b915050613b4f565b50336000908152600b60205260408120805460ff191660011790556002805491613c4083614905565b90915550507fbbc70db1b6c7afd11e79c0fb0051300458f1a3acb8ee9789d9b6b26c61ad9bc7805460018082019092557fed65b032d5a5fa3a5b6544566ee46a0f6b8fe8b1375ec878dc3be6580b078495018054336001600160a01b03199182168117909255604080516101a08101825283815260208082018f81528284018f8152606084018f8152608085018f815260a086018f815260c087018f815260e088018f905261010088018e905261012088018d9052600061014089018190526101608901819052426101808a01529a8b5260069687905297909920865181549099166001600160a01b03909916989098178855925198870198909855516002860155955160038501559451600484015592516005830155519192909190820190613d6a9082614a67565b5060e08201516007820190613d7f9082614a67565b506101008281015160088301556101208301516009830155610140830151600a8301805461016086015161ffff1990911692151561ff0019169290921791151590920217905561018090910151600b909101556040805160608101825260008082526020808301828152838501838152338452601690925293909120825181546001600160a01b0319166001600160a01b03909116178155925160018481019190915590516002840180549394939192909160ff191690836004811115613e4857613e486145a4565b02179055505050505050505050505050565b6000818152600e6020526040902060038101546002909101546001600160a01b031633148015613eb0575060026000838152600e6020526040902060049081015460ff1690811115613eae57613eae6145a4565b145b8015613ee3575060036000838152600e6020526040902060049081015460ff1690811115613ee057613ee06145a4565b14155b8015613f0b57506000828152600e60205260409020600101546001600160a01b038481169116145b8015613f27575060008281526017602052604090206002015434145b15610287576000828152600e60209081526040808320600481018054600360ff1991821681179092556006909201805490921660019081179092558585526015845282852001805461ff00191661010017905560129092527f71a67924699a20698523213e55fe499d539379d7769cd5567e2c45d583f815a38054928301815583527f09d3634ec98b7a093f4c560246b0e10c09e0e06c46ca9be08ca93e6cf08d8d13909101849055516001600160a01b038516913480156108fc02929091818181858888f19350505050158015614003573d6000803e3d6000fd5b50505050565b6140123361382c565b801561403e57506000818152600d60205260409020600901546201000090046001600160a01b03163314155b801561407a57506000818152600d60209081526040808320600901546201000090046001600160a01b0316835260069091529020600a015460ff165b80156140a757506000818152600d6020908152604080832060050154338452600790925290912060020154145b15610287576000818152600d60209081526040808320600901805461ff001916610100179055805160a0810182523381524281840152848452601590925291829020600201549181019190915260608101600161320d565b6001600160a01b0381168114610c3d57600080fd5b60006020828403121561412657600080fd5b8135614131816140ff565b9392505050565b60006020828403121561414a57600080fd5b5035919050565b6020808252825182820181905260009190848201906040850190845b818110156141895783518352928401929184019160010161416d565b50909695505050505050565b634e487b7160e01b600052604160045260246000fd5b600082601f8301126141bc57600080fd5b813567ffffffffffffffff808211156141d7576141d7614195565b604051601f8301601f19908116603f011681019082821181831017156141ff576141ff614195565b8160405283815286602085880101111561421857600080fd5b836020870160208301376000602085830101528094505050505092915050565b600080600080600080600080610100898b03121561425557600080fd5b88359750602089013567ffffffffffffffff8082111561427457600080fd5b6142808c838d016141ab565b985060408b0135975060608b0135965060808b01359150808211156142a457600080fd5b6142b08c838d016141ab565b955060a08b0135945060c08b01359150808211156142cd57600080fd5b6142d98c838d016141ab565b935060e08b01359150808211156142ef57600080fd5b506142fc8b828c016141ab565b9150509295985092959890939650565b60008060006060848603121561432157600080fd5b83359250602084013567ffffffffffffffff81111561433f57600080fd5b61434b868287016141ab565b925050604084013561435c816140ff565b809150509250925092565b602080825282518282018190526000919060409081850190868401855b828110156143e55781518051855286810151878601528581015186860152606080820151908601526080808201516001600160a01b03169086015260a0808201519086015260c0908101519085015260e09093019290850190600101614384565b5091979650505050505050565b6020808252825182820181905260009190848201906040850190845b818110156141895783516001600160a01b03168352928401929184019160010161440e565b60008060006060848603121561444857600080fd5b505081359360208301359350604090920135919050565b6000806040838503121561447257600080fd5b823561447d816140ff565b946020939093013593505050565b8035801515811461382757600080fd5b6000806000606084860312156144b057600080fd5b8335925060208401356144c2816140ff565b91506144d06040850161448b565b90509250925092565b60008060008060008060008060006101208a8c0312156144f857600080fd5b8935985061450860208b0161448b565b975061451660408b0161448b565b965061452460608b0161448b565b955061453260808b0161448b565b945061454060a08b0161448b565b935060c08a0135925060e08a013567ffffffffffffffff8082111561456457600080fd5b6145708d838e016141ab565b93506101008c013591508082111561458757600080fd5b506145948c828d016141ab565b9150509295985092959850929598565b634e487b7160e01b600052602160045260246000fd5b60058110610c3d57634e487b7160e01b600052602160045260246000fd5b6001600160a01b038416815260208101839052606081016145f8836145ba565b826040830152949350505050565b6000806040838503121561461957600080fd5b50508035926020909101359150565b8781526001600160a01b038781166020830152861660408201526060810185905260e08101614656856145ba565b8460808301528360a083015282151560c083015298975050505050505050565b6001600160a01b0386168152602081018590526040810184905260a0810161469d846145ba565b83606083015282151560808301529695505050505050565b6000815180845260005b818110156146db576020818501810151868301820152016146bf565b506000602082860101526020601f19601f83011685010191505092915050565b60018060a01b038e1681528c60208201528b60408201528a60608201528960808201528860a08201526101a060c0820152600061473c6101a083018a6146b5565b82810360e084015261474e818a6146b5565b915050866101008301528561012083015284151561014083015261477761016083018515159052565b826101808301529e9d5050505050505050505050505050565b8e81528d60208201528c60408201528b60608201526101c0608082015260006147bd6101c083018d6146b5565b8b60a084015282810360c08401526147d5818c6146b5565b905082810360e08401526147e9818b6146b5565b90508281036101008401526147fe818a6146b5565b91505061481061012083018815159052565b9415156101408201526001600160a01b03938416610160820152919092166101808201526101a001529a9950505050505050505050565b60008060008060008060008060006101208a8c03121561486657600080fd5b8935985060208a0135975060408a0135965060608a0135955060808a0135945060a08a013567ffffffffffffffff808211156148a157600080fd5b6148ad8d838e016141ab565b955060c08c01359150808211156148c357600080fd5b506148d08c828d016141ab565b93505060e08a013591506101008a013590509295985092959850929598565b634e487b7160e01b600052601160045260246000fd5b600060018201614917576149176148ef565b5060010190565b6020808252602f908201527f4f6e6c79207468652073656c6c65722063616e20616363657074206f7220726560408201526e3532b1ba1030903932b8bab2b9ba1760891b606082015260800190565b60208082526054908201527f52657175657374206d757374206e6f7420626520696e20277061796d656e746460408201527f6f6e65206f7220636f6d706c65746564272073746174757320746f206265206160608201527331b1b2b83a32b21037b9103932b532b1ba32b21760611b608082015260a00190565b600181811c908216806149fb57607f821691505b602082108103614a1b57634e487b7160e01b600052602260045260246000fd5b50919050565b601f82111561177857600081815260208120601f850160051c81016020861015614a485750805b601f850160051c820191505b8181101561311157828155600101614a54565b815167ffffffffffffffff811115614a8157614a81614195565b614a9581614a8f84546149e7565b84614a21565b602080601f831160018114614aca5760008415614ab25750858301515b600019600386901b1c1916600185901b178555613111565b600085815260208120601f198616915b82811015614af957888601518255948401946001909101908401614ada565b5085821015614b175787850151600019600388901b60f8161c191681555b5050505050600190811b01905550565b634e487b7160e01b600052603260045260246000fd5b8181038181111561281c5761281c6148ef565b634e487b7160e01b600052603160045260246000fd5b8082018082111561281c5761281c6148ef56fead67d757c34507f157cacfa2e3153e9f260a2244f30428821be7be64587ac55fa2646970667358221220a5f23324daf66d28bbb60cc9b6203cfe5934cac22713442161781d39e45976d564736f6c63430008130033",
    "sourcePath": "/home/mohsin/Documents/GitHub/lrub/contracts/landregistry.sol",
    "compiler": {
        "name": "solc",
        "version": "0.8.19+commit.7dd6d404"
    },
    "functionHashes": {
        "AndandRemoveProxyOwner(uint256,address,bool)": "836b3979",
        "CheckDuplicatePid(uint256)": "12ca3f1f",
        "InspectorMapping(address)": "64efa002",
        "LandRequestMapping(uint256)": "b10a30ed",
        "RegisteredInspectorMapping(address)": "dd056ebc",
        "RegisteredUserMapping(address)": "32f2bb14",
        "ReturnAllLandIncpectorList()": "d251839b",
        "ReturnAllLandList()": "23393d77",
        "ReturnAllUserList()": "553a998d",
        "UserMapping(address)": "d61ff68c",
        "acceptRequest(uint256)": "4ba1f098",
        "addLand(uint256,string,bytes32,uint256,string,uint256,string,string)": "314967ac",
        "addLandInspector(address,bytes32)": "6910c46d",
        "changeContractOwner(address)": "3ead67b5",
        "changeDetails(uint256,bool,bool,bool,bool,bool,uint256,string,string)": "935400ee",
        "documentId()": "78f7c83f",
        "getLandHistory(uint256)": "4f389721",
        "inspectorsCount()": "941e2426",
        "isContractOwner(address)": "de117688",
        "isLandInspector(address)": "e165af87",
        "isUserVerified(address)": "ace417e0",
        "landHis(uint256)": "145678de",
        "landPriceInfo(uint256)": "ab9f38ea",
        "landinfo(uint256)": "c6acafcd",
        "lands(uint256)": "e261f1e5",
        "landsCount()": "1c9afd0f",
        "makePayment(address,uint256)": "f98cf07c",
        "myAllLands(address)": "d196ebf2",
        "myReceivedLandRequests()": "499701b2",
        "mySentLandRequests()": "9c32e3b4",
        "registerUser(bytes32,bytes32,bytes32,bytes32,uint256,string,string,bytes32,bytes32)": "e749752c",
        "rejectRequest(uint256)": "2d7788db",
        "removeLandInspector(address)": "7517e00f",
        "requestCount()": "5badbe4c",
        "requestforBuyWithBid(uint256,uint256)": "9dec448e",
        "returnPaymentDoneList()": "a846fc8f",
        "subplot(uint256,uint256,uint256)": "58051d93",
        "transferDeceasedOwnership(address)": "a84e3bdd",
        "transferInfo(uint256)": "cc47e9bd",
        "transferOwnership(uint256,string,address)": "43e8349a",
        "userCount()": "07973ccf",
        "userinfo(address)": "9446ec9f",
        "verifyLandAccepted(uint256)": "a6951e1f",
        "verifyLandRejected(uint256)": "f99a1176",
        "verifyUserAccepted(address)": "54f1ebfb",
        "verifyUserRejected(address)": "0052f458"
    },
    "gasEstimates": {
        "creation": {
            "codeDepositCost": "3881400",
            "executionCost": "28647",
            "totalCost": "3910047"
        },
        "external": {
            "AndandRemoveProxyOwner(uint256,address,bool)": "62487",
            "CheckDuplicatePid(uint256)": "infinite",
            "InspectorMapping(address)": "15444",
            "LandRequestMapping(uint256)": "15582",
            "RegisteredInspectorMapping(address)": "2680",
            "RegisteredUserMapping(address)": "2637",
            "ReturnAllLandIncpectorList()": "infinite",
            "ReturnAllLandList()": "infinite",
            "ReturnAllUserList()": "infinite",
            "UserMapping(address)": "infinite",
            "acceptRequest(uint256)": "infinite",
            "addLand(uint256,string,bytes32,uint256,string,uint256,string,string)": "infinite",
            "addLandInspector(address,bytes32)": "infinite",
            "changeContractOwner(address)": "infinite",
            "changeDetails(uint256,bool,bool,bool,bool,bool,uint256,string,string)": "infinite",
            "documentId()": "2417",
            "getLandHistory(uint256)": "infinite",
            "inspectorsCount()": "2352",
            "isContractOwner(address)": "2572",
            "isLandInspector(address)": "2651",
            "isUserVerified(address)": "2682",
            "landHis(uint256)": "15403",
            "landPriceInfo(uint256)": "6824",
            "landinfo(uint256)": "9083",
            "lands(uint256)": "infinite",
            "landsCount()": "2419",
            "makePayment(address,uint256)": "infinite",
            "myAllLands(address)": "infinite",
            "myReceivedLandRequests()": "infinite",
            "mySentLandRequests()": "infinite",
            "registerUser(bytes32,bytes32,bytes32,bytes32,uint256,string,string,bytes32,bytes32)": "infinite",
            "rejectRequest(uint256)": "31274",
            "removeLandInspector(address)": "infinite",
            "requestCount()": "2329",
            "requestforBuyWithBid(uint256,uint256)": "infinite",
            "returnPaymentDoneList()": "infinite",
            "subplot(uint256,uint256,uint256)": "infinite",
            "transferDeceasedOwnership(address)": "2647",
            "transferInfo(uint256)": "15399",
            "transferOwnership(uint256,string,address)": "infinite",
            "userCount()": "2353",
            "userinfo(address)": "infinite",
            "verifyLandAccepted(uint256)": "2592",
            "verifyLandRejected(uint256)": "157446",
            "verifyUserAccepted(address)": "2714",
            "verifyUserRejected(address)": "2649"
        }
    }
}