{
  "_format": "hh-sol-artifact-1",
  "contractName": "landregistry",
  "sourceName": "contracts/landregistry.sol",
  "abi": [
    {
      "inputs": [],
      "stateMutability": "nonpayable",
      "type": "constructor"
    },
    {
      "inputs": [
        {
          "internalType": "uint256",
          "name": "landId",
          "type": "uint256"
        },
        {
          "internalType": "address payable",
          "name": "proxyOwner",
          "type": "address"
        },
        {
          "internalType": "bool",
          "name": "x",
          "type": "bool"
        }
      ],
      "name": "AndandRemoveProxyOwner",
      "outputs": [],
      "stateMutability": "nonpayable",
      "type": "function"
    },
    {
      "inputs": [
        {
          "internalType": "uint256",
          "name": "_propertyPID",
          "type": "uint256"
        }
      ],
      "name": "CheckDuplicatePid",
      "outputs": [
        {
          "internalType": "bool",
          "name": "",
          "type": "bool"
        }
      ],
      "stateMutability": "view",
      "type": "function"
    },
    {
      "inputs": [
        {
          "internalType": "address",
          "name": "",
          "type": "address"
        }
      ],
      "name": "InspectorMapping",
      "outputs": [
        {
          "internalType": "uint256",
          "name": "id",
          "type": "uint256"
        },
        {
          "internalType": "address",
          "name": "addr",
          "type": "address"
        },
        {
          "internalType": "bytes32",
          "name": "name",
          "type": "bytes32"
        },
        {
          "internalType": "bytes32",
          "name": "dob",
          "type": "bytes32"
        },
        {
          "internalType": "uint256",
          "name": "cnic",
          "type": "uint256"
        },
        {
          "internalType": "bytes32",
          "name": "city",
          "type": "bytes32"
        },
        {
          "internalType": "bytes32",
          "name": "district",
          "type": "bytes32"
        },
        {
          "internalType": "bytes32",
          "name": "designation",
          "type": "bytes32"
        },
        {
          "internalType": "bytes32",
          "name": "email",
          "type": "bytes32"
        },
        {
          "internalType": "uint256",
          "name": "phone",
          "type": "uint256"
        }
      ],
      "stateMutability": "view",
      "type": "function"
    },
    {
      "inputs": [
        {
          "internalType": "uint256",
          "name": "",
          "type": "uint256"
        }
      ],
      "name": "LandRequestMapping",
      "outputs": [
        {
          "internalType": "uint256",
          "name": "reqId",
          "type": "uint256"
        },
        {
          "internalType": "address payable",
          "name": "sellerId",
          "type": "address"
        },
        {
          "internalType": "address payable",
          "name": "buyerId",
          "type": "address"
        },
        {
          "internalType": "uint256",
          "name": "landId",
          "type": "uint256"
        },
        {
          "internalType": "enum landregistry.reqStatus",
          "name": "requestStatus",
          "type": "uint8"
        },
        {
          "internalType": "uint256",
          "name": "bidPrice",
          "type": "uint256"
        },
        {
          "internalType": "bool",
          "name": "isPaymentDone",
          "type": "bool"
        }
      ],
      "stateMutability": "view",
      "type": "function"
    },
    {
      "inputs": [
        {
          "internalType": "address",
          "name": "",
          "type": "address"
        }
      ],
      "name": "RegisteredInspectorMapping",
      "outputs": [
        {
          "internalType": "bool",
          "name": "",
          "type": "bool"
        }
      ],
      "stateMutability": "view",
      "type": "function"
    },
    {
      "inputs": [
        {
          "internalType": "address",
          "name": "",
          "type": "address"
        }
      ],
      "name": "RegisteredUserMapping",
      "outputs": [
        {
          "internalType": "bool",
          "name": "",
          "type": "bool"
        }
      ],
      "stateMutability": "view",
      "type": "function"
    },
    {
      "inputs": [],
      "name": "ReturnAllLandIncpectorList",
      "outputs": [
        {
          "internalType": "address[]",
          "name": "",
          "type": "address[]"
        }
      ],
      "stateMutability": "view",
      "type": "function"
    },
    {
      "inputs": [],
      "name": "ReturnAllLandList",
      "outputs": [
        {
          "internalType": "uint256[]",
          "name": "",
          "type": "uint256[]"
        }
      ],
      "stateMutability": "view",
      "type": "function"
    },
    {
      "inputs": [],
      "name": "ReturnAllUserList",
      "outputs": [
        {
          "internalType": "address[]",
          "name": "",
          "type": "address[]"
        }
      ],
      "stateMutability": "view",
      "type": "function"
    },
    {
      "inputs": [
        {
          "internalType": "address",
          "name": "",
          "type": "address"
        }
      ],
      "name": "UserMapping",
      "outputs": [
        {
          "internalType": "address",
          "name": "id",
          "type": "address"
        },
        {
          "internalType": "bytes32",
          "name": "name",
          "type": "bytes32"
        },
        {
          "internalType": "bytes32",
          "name": "dob",
          "type": "bytes32"
        },
        {
          "internalType": "bytes32",
          "name": "city",
          "type": "bytes32"
        },
        {
          "internalType": "bytes32",
          "name": "district",
          "type": "bytes32"
        },
        {
          "internalType": "uint256",
          "name": "cnic",
          "type": "uint256"
        },
        {
          "internalType": "string",
          "name": "document",
          "type": "string"
        },
        {
          "internalType": "string",
          "name": "profilepic",
          "type": "string"
        },
        {
          "internalType": "bytes32",
          "name": "email",
          "type": "bytes32"
        },
        {
          "internalType": "bytes32",
          "name": "phone",
          "type": "bytes32"
        },
        {
          "internalType": "bool",
          "name": "isUserVerified",
          "type": "bool"
        },
        {
          "internalType": "bool",
          "name": "death",
          "type": "bool"
        },
        {
          "internalType": "uint256",
          "name": "registerdate",
          "type": "uint256"
        }
      ],
      "stateMutability": "view",
      "type": "function"
    },
    {
      "inputs": [
        {
          "internalType": "uint256",
          "name": "_requestId",
          "type": "uint256"
        },
        {
          "internalType": "bool",
          "name": "acceptreject",
          "type": "bool"
        }
      ],
      "name": "acceptRequest",
      "outputs": [],
      "stateMutability": "nonpayable",
      "type": "function"
    },
    {
      "inputs": [
        {
          "internalType": "uint256",
          "name": "_area",
          "type": "uint256"
        },
        {
          "internalType": "string",
          "name": "_landAddress",
          "type": "string"
        },
        {
          "internalType": "bytes32",
          "name": "_district",
          "type": "bytes32"
        },
        {
          "internalType": "uint256",
          "name": "_landPrice",
          "type": "uint256"
        },
        {
          "internalType": "string",
          "name": "_allLatiLongi",
          "type": "string"
        },
        {
          "internalType": "uint256",
          "name": "_propertyPID",
          "type": "uint256"
        },
        {
          "internalType": "string",
          "name": "_document",
          "type": "string"
        },
        {
          "internalType": "string",
          "name": "_landpic",
          "type": "string"
        }
      ],
      "name": "addLand",
      "outputs": [],
      "stateMutability": "nonpayable",
      "type": "function"
    },
    {
      "inputs": [
        {
          "internalType": "address",
          "name": "_addr",
          "type": "address"
        },
        {
          "internalType": "bytes32",
          "name": "_name",
          "type": "bytes32"
        },
        {
          "internalType": "bytes32",
          "name": "_dob",
          "type": "bytes32"
        },
        {
          "internalType": "uint256",
          "name": "_cinc",
          "type": "uint256"
        },
        {
          "internalType": "bytes32",
          "name": "_designation",
          "type": "bytes32"
        },
        {
          "internalType": "bytes32",
          "name": "_city",
          "type": "bytes32"
        },
        {
          "internalType": "bytes32",
          "name": "_district",
          "type": "bytes32"
        },
        {
          "internalType": "bytes32",
          "name": "_email",
          "type": "bytes32"
        },
        {
          "internalType": "uint256",
          "name": "_phone",
          "type": "uint256"
        }
      ],
      "name": "addLandInspector",
      "outputs": [
        {
          "internalType": "bool",
          "name": "",
          "type": "bool"
        }
      ],
      "stateMutability": "nonpayable",
      "type": "function"
    },
    {
      "inputs": [
        {
          "internalType": "address",
          "name": "_addr",
          "type": "address"
        }
      ],
      "name": "changeContractOwner",
      "outputs": [],
      "stateMutability": "nonpayable",
      "type": "function"
    },
    {
      "inputs": [
        {
          "internalType": "uint256",
          "name": "_landId",
          "type": "uint256"
        },
        {
          "internalType": "bool",
          "name": "s",
          "type": "bool"
        },
        {
          "internalType": "bool",
          "name": "p",
          "type": "bool"
        },
        {
          "internalType": "bool",
          "name": "i",
          "type": "bool"
        },
        {
          "internalType": "bool",
          "name": "c",
          "type": "bool"
        },
        {
          "internalType": "bool",
          "name": "sell",
          "type": "bool"
        },
        {
          "internalType": "uint256",
          "name": "_newPrice",
          "type": "uint256"
        },
        {
          "internalType": "string",
          "name": "_newPic",
          "type": "string"
        },
        {
          "internalType": "string",
          "name": "_allLatiLongi",
          "type": "string"
        }
      ],
      "name": "changeDetails",
      "outputs": [],
      "stateMutability": "nonpayable",
      "type": "function"
    },
    {
      "inputs": [],
      "name": "documentId",
      "outputs": [
        {
          "internalType": "uint256",
          "name": "",
          "type": "uint256"
        }
      ],
      "stateMutability": "view",
      "type": "function"
    },
    {
      "inputs": [
        {
          "internalType": "uint256",
          "name": "landId",
          "type": "uint256"
        }
      ],
      "name": "getLandHistoryId",
      "outputs": [
        {
          "components": [
            {
              "internalType": "uint256",
              "name": "parentId",
              "type": "uint256"
            },
            {
              "internalType": "uint256",
              "name": "childCount",
              "type": "uint256"
            },
            {
              "internalType": "uint256",
              "name": "childId",
              "type": "uint256"
            },
            {
              "internalType": "uint256",
              "name": "area",
              "type": "uint256"
            },
            {
              "internalType": "address",
              "name": "parentAddress",
              "type": "address"
            },
            {
              "internalType": "uint256",
              "name": "timestamp",
              "type": "uint256"
            }
          ],
          "internalType": "struct landregistry.LandHistory[]",
          "name": "",
          "type": "tuple[]"
        }
      ],
      "stateMutability": "view",
      "type": "function"
    },
    {
      "inputs": [],
      "name": "inspectorsCount",
      "outputs": [
        {
          "internalType": "uint256",
          "name": "",
          "type": "uint256"
        }
      ],
      "stateMutability": "view",
      "type": "function"
    },
    {
      "inputs": [
        {
          "internalType": "address",
          "name": "_addr",
          "type": "address"
        }
      ],
      "name": "isContractOwner",
      "outputs": [
        {
          "internalType": "bool",
          "name": "",
          "type": "bool"
        }
      ],
      "stateMutability": "view",
      "type": "function"
    },
    {
      "inputs": [
        {
          "internalType": "address",
          "name": "_id",
          "type": "address"
        }
      ],
      "name": "isLandInspector",
      "outputs": [
        {
          "internalType": "bool",
          "name": "",
          "type": "bool"
        }
      ],
      "stateMutability": "view",
      "type": "function"
    },
    {
      "inputs": [
        {
          "internalType": "address",
          "name": "id",
          "type": "address"
        }
      ],
      "name": "isUserVerified",
      "outputs": [
        {
          "internalType": "bool",
          "name": "",
          "type": "bool"
        }
      ],
      "stateMutability": "view",
      "type": "function"
    },
    {
      "inputs": [
        {
          "internalType": "uint256",
          "name": "",
          "type": "uint256"
        }
      ],
      "name": "landHis",
      "outputs": [
        {
          "internalType": "uint256",
          "name": "parentId",
          "type": "uint256"
        },
        {
          "internalType": "uint256",
          "name": "childCount",
          "type": "uint256"
        },
        {
          "internalType": "uint256",
          "name": "childId",
          "type": "uint256"
        },
        {
          "internalType": "uint256",
          "name": "area",
          "type": "uint256"
        },
        {
          "internalType": "address",
          "name": "parentAddress",
          "type": "address"
        },
        {
          "internalType": "uint256",
          "name": "timestamp",
          "type": "uint256"
        }
      ],
      "stateMutability": "view",
      "type": "function"
    },
    {
      "inputs": [
        {
          "internalType": "uint256",
          "name": "",
          "type": "uint256"
        }
      ],
      "name": "landPriceInfo",
      "outputs": [
        {
          "internalType": "uint256",
          "name": "id",
          "type": "uint256"
        },
        {
          "internalType": "uint256",
          "name": "basePrice",
          "type": "uint256"
        },
        {
          "internalType": "uint256",
          "name": "landPrice",
          "type": "uint256"
        }
      ],
      "stateMutability": "view",
      "type": "function"
    },
    {
      "inputs": [
        {
          "internalType": "uint256",
          "name": "",
          "type": "uint256"
        }
      ],
      "name": "landinfo",
      "outputs": [
        {
          "internalType": "address",
          "name": "verfiedby",
          "type": "address"
        },
        {
          "internalType": "uint256",
          "name": "verfydate",
          "type": "uint256"
        }
      ],
      "stateMutability": "view",
      "type": "function"
    },
    {
      "inputs": [
        {
          "internalType": "uint256",
          "name": "",
          "type": "uint256"
        }
      ],
      "name": "lands",
      "outputs": [
        {
          "internalType": "uint256",
          "name": "id",
          "type": "uint256"
        },
        {
          "internalType": "uint256",
          "name": "propertyPID",
          "type": "uint256"
        },
        {
          "internalType": "uint256",
          "name": "area",
          "type": "uint256"
        },
        {
          "internalType": "uint256",
          "name": "landPrice",
          "type": "uint256"
        },
        {
          "internalType": "string",
          "name": "landAddress",
          "type": "string"
        },
        {
          "internalType": "bytes32",
          "name": "district",
          "type": "bytes32"
        },
        {
          "internalType": "string",
          "name": "allLatitudeLongitude",
          "type": "string"
        },
        {
          "internalType": "string",
          "name": "document",
          "type": "string"
        },
        {
          "internalType": "string",
          "name": "landpic",
          "type": "string"
        },
        {
          "internalType": "bool",
          "name": "isforSell",
          "type": "bool"
        },
        {
          "internalType": "bool",
          "name": "isLandVerified",
          "type": "bool"
        },
        {
          "internalType": "address payable",
          "name": "ownerAddress",
          "type": "address"
        },
        {
          "internalType": "address payable",
          "name": "proxyownerAddress",
          "type": "address"
        },
        {
          "internalType": "uint256",
          "name": "registerdate",
          "type": "uint256"
        }
      ],
      "stateMutability": "view",
      "type": "function"
    },
    {
      "inputs": [],
      "name": "landsCount",
      "outputs": [
        {
          "internalType": "uint256",
          "name": "",
          "type": "uint256"
        }
      ],
      "stateMutability": "view",
      "type": "function"
    },
    {
      "inputs": [
        {
          "internalType": "address payable",
          "name": "_receiver",
          "type": "address"
        },
        {
          "internalType": "uint256",
          "name": "_requestId",
          "type": "uint256"
        }
      ],
      "name": "makePayment",
      "outputs": [],
      "stateMutability": "payable",
      "type": "function"
    },
    {
      "inputs": [
        {
          "internalType": "address",
          "name": "id",
          "type": "address"
        }
      ],
      "name": "myAllLands",
      "outputs": [
        {
          "internalType": "uint256[]",
          "name": "",
          "type": "uint256[]"
        }
      ],
      "stateMutability": "view",
      "type": "function"
    },
    {
      "inputs": [],
      "name": "myReceivedLandRequests",
      "outputs": [
        {
          "internalType": "uint256[]",
          "name": "",
          "type": "uint256[]"
        }
      ],
      "stateMutability": "view",
      "type": "function"
    },
    {
      "inputs": [],
      "name": "mySentLandRequests",
      "outputs": [
        {
          "internalType": "uint256[]",
          "name": "",
          "type": "uint256[]"
        }
      ],
      "stateMutability": "view",
      "type": "function"
    },
    {
      "inputs": [
        {
          "internalType": "bytes32",
          "name": "_name",
          "type": "bytes32"
        },
        {
          "internalType": "bytes32",
          "name": "_dob",
          "type": "bytes32"
        },
        {
          "internalType": "bytes32",
          "name": "_city",
          "type": "bytes32"
        },
        {
          "internalType": "bytes32",
          "name": "_district",
          "type": "bytes32"
        },
        {
          "internalType": "uint256",
          "name": "_cinc",
          "type": "uint256"
        },
        {
          "internalType": "string",
          "name": "_document",
          "type": "string"
        },
        {
          "internalType": "string",
          "name": "_profilepic",
          "type": "string"
        },
        {
          "internalType": "bytes32",
          "name": "_email",
          "type": "bytes32"
        },
        {
          "internalType": "bytes32",
          "name": "_phone",
          "type": "bytes32"
        }
      ],
      "name": "registerUser",
      "outputs": [],
      "stateMutability": "nonpayable",
      "type": "function"
    },
    {
      "inputs": [
        {
          "internalType": "address",
          "name": "_addr",
          "type": "address"
        }
      ],
      "name": "removeLandInspector",
      "outputs": [],
      "stateMutability": "nonpayable",
      "type": "function"
    },
    {
      "inputs": [
        {
          "internalType": "uint256",
          "name": "_landId",
          "type": "uint256"
        },
        {
          "internalType": "uint256",
          "name": "_bidPrice",
          "type": "uint256"
        }
      ],
      "name": "requestforBuyWithBid",
      "outputs": [],
      "stateMutability": "nonpayable",
      "type": "function"
    },
    {
      "inputs": [],
      "name": "returnPaymentDoneList",
      "outputs": [
        {
          "internalType": "uint256[]",
          "name": "",
          "type": "uint256[]"
        }
      ],
      "stateMutability": "view",
      "type": "function"
    },
    {
      "inputs": [
        {
          "internalType": "uint256",
          "name": "id",
          "type": "uint256"
        },
        {
          "internalType": "uint256",
          "name": "newarea",
          "type": "uint256"
        },
        {
          "internalType": "uint256",
          "name": "numplots",
          "type": "uint256"
        }
      ],
      "name": "subplot",
      "outputs": [],
      "stateMutability": "nonpayable",
      "type": "function"
    },
    {
      "inputs": [
        {
          "internalType": "address",
          "name": "deceased",
          "type": "address"
        }
      ],
      "name": "transferDeceasedOwnership",
      "outputs": [],
      "stateMutability": "nonpayable",
      "type": "function"
    },
    {
      "inputs": [
        {
          "internalType": "uint256",
          "name": "_requestId",
          "type": "uint256"
        },
        {
          "internalType": "string",
          "name": "documentUrl",
          "type": "string"
        }
      ],
      "name": "transferOwnership",
      "outputs": [],
      "stateMutability": "nonpayable",
      "type": "function"
    },
    {
      "inputs": [],
      "name": "userCount",
      "outputs": [
        {
          "internalType": "uint256",
          "name": "",
          "type": "uint256"
        }
      ],
      "stateMutability": "view",
      "type": "function"
    },
    {
      "inputs": [
        {
          "internalType": "address",
          "name": "",
          "type": "address"
        }
      ],
      "name": "userinfo",
      "outputs": [
        {
          "internalType": "address",
          "name": "verfiedby",
          "type": "address"
        },
        {
          "internalType": "uint256",
          "name": "verifydate",
          "type": "uint256"
        }
      ],
      "stateMutability": "view",
      "type": "function"
    },
    {
      "inputs": [
        {
          "internalType": "uint256",
          "name": "_id",
          "type": "uint256"
        }
      ],
      "name": "verifyLand",
      "outputs": [],
      "stateMutability": "nonpayable",
      "type": "function"
    },
    {
      "inputs": [
        {
          "internalType": "address",
          "name": "_userId",
          "type": "address"
        }
      ],
      "name": "verifyUser",
      "outputs": [],
      "stateMutability": "nonpayable",
      "type": "function"
    },
    {
      "stateMutability": "payable",
      "type": "receive"
    }
  ],
  "bytecode": "0x608060405234801561001057600080fd5b50600080546001600160a01b03191633179055613cd9806100326000396000f3fe60806040526004361061024a5760003560e01c8063941e242611610139578063d196ebf2116100b6578063e165af871161007a578063e165af8714610705578063e261f1e514610725578063e749752c1461075f578063f98cf07c1461077f578063f9c43bdf14610792578063fa024549146107b257610251565b8063d196ebf214610657578063d251839b14610677578063d61ff68c1461068c578063dd056ebc146106c5578063de117688146106e557610251565b8063a84e3bdd116100fd578063a84e3bdd14610595578063ab9f38ea146105b5578063ace417e0146105e4578063b10a30ed14610604578063c6acafcd1461063757610251565b8063941e2426146105085780639446ec9f1461051d5780639c32e3b41461054b5780639dec448e14610560578063a846fc8f1461058057610251565b80634d813120116101c7578063690a3ca91161018b578063690a3ca9146104735780637517e00f1461049357806378f7c83f146104b3578063836b3979146104c8578063935400ee146104e857610251565b80634d813120146103bb57806354d1b98f146103db578063553a998d146103fb57806358051d931461041d57806364efa0021461043d57610251565b80632b13aa441161020e5780632b13aa4414610317578063314967ac1461034457806332f2bb14146103665780633ead67b514610386578063499701b2146103a657610251565b806307973ccf1461025657806312ca3f1f14610281578063145678de146102ae5780631c9afd0f146102e057806323393d77146102f557610251565b3661025157005b600080fd5b34801561026257600080fd5b5061026b6107d2565b6040516102789190613a27565b60405180910390f35b34801561028d57600080fd5b506102a161029c366004613520565b6107d8565b60405161027891906139ef565b3480156102ba57600080fd5b506102ce6102c9366004613520565b610825565b60405161027896959493929190613ae1565b3480156102ec57600080fd5b5061026b610866565b34801561030157600080fd5b5061030a61086c565b60405161027891906139b7565b34801561032357600080fd5b50610337610332366004613520565b6108ec565b6040516102789190613936565b34801561035057600080fd5b5061036461035f3660046136ad565b61099d565b005b34801561037257600080fd5b506102a16103813660046133c6565b610d41565b34801561039257600080fd5b506103646103a13660046133c6565b610d56565b3480156103b257600080fd5b5061030a610d88565b3480156103c757600080fd5b506103646103d63660046133c6565b610de7565b3480156103e757600080fd5b506102a16103f6366004613414565b610ea9565b34801561040757600080fd5b5061041061111c565b60405161027891906138e9565b34801561042957600080fd5b5061036461043836600461379d565b6111a5565b34801561044957600080fd5b5061045d6104583660046133c6565b6119ed565b6040516102789a99989796959493929190613a93565b34801561047f57600080fd5b5061036461048e366004613575565b611a49565b34801561049f57600080fd5b506103646104ae3660046133c6565b611b5f565b3480156104bf57600080fd5b5061026b611d71565b3480156104d457600080fd5b506103646104e3366004613538565b611d77565b3480156104f457600080fd5b506103646105033660046135a0565b611e58565b34801561051457600080fd5b5061026b611f46565b34801561052957600080fd5b5061053d6105383660046133c6565b611f4c565b6040516102789291906138d0565b34801561055757600080fd5b5061030a611f71565b34801561056c57600080fd5b5061036461057b36600461377c565b611fd0565b34801561058c57600080fd5b5061030a6121ae565b3480156105a157600080fd5b506103646105b03660046133c6565b61222c565b3480156105c157600080fd5b506105d56105d0366004613520565b6124e4565b60405161027893929190613826565b3480156105f057600080fd5b506102a16105ff3660046133c6565b612505565b34801561061057600080fd5b5061062461061f366004613520565b612526565b6040516102789796959493929190613a30565b34801561064357600080fd5b5061053d610652366004613520565b612575565b34801561066357600080fd5b5061030a6106723660046133c6565b61259a565b34801561068357600080fd5b50610410612606565b34801561069857600080fd5b506106ac6106a73660046133c6565b61267c565b6040516102789d9c9b9a9998979695949392919061383c565b3480156106d157600080fd5b506102a16106e03660046133c6565b612803565b3480156106f157600080fd5b506102a16107003660046133c6565b612818565b34801561071157600080fd5b506102a16107203660046133c6565b61283f565b34801561073157600080fd5b50610745610740366004613520565b612868565b6040516102789e9d9c9b9a99989796959493929190613b12565b34801561076b57600080fd5b5061036461077a36600461347b565b612b05565b61036461078d3660046133e9565b612d14565b34801561079e57600080fd5b506103646107ad366004613520565b612e8f565b3480156107be57600080fd5b506103646107cd366004613668565b612f99565b60025481565b6000805b600354811161081a576000818152600d6020526040902060010154831415610808576001915050610820565b8061081281613c27565b9150506107dc565b50600090505b919050565b60146020526000908152604090208054600182015460028301546003840154600485015460059095015493949293919290916001600160a01b039091169086565b60035481565b6001600052601160209081527f17bc176d2408558f6e4111feebc3cab4e16b63e967be91cde721f4c8a488b55280546040805182850281018501909152818152606093909291908301828280156108e257602002820191906000526020600020905b8154815260200190600101908083116108ce575b5050505050905090565b606060136000838152602001908152602001600020805480602002602001604051908101604052809291908181526020016000905b828210156109925760008481526020908190206040805160c0810182526006860290920180548352600180820154848601526002820154928401929092526003810154606084015260048101546001600160a01b031660808401526005015460a08301529083529092019101610921565b505050509050919050565b336000908152600660205260409020600a015460ff1680156109c557506109c3836107d8565b155b80156109d15750600088115b80156109f55750336000908152600660205260409020600a0154610100900460ff16155b156102515760038054906000610a0a83613c27565b9091555050604080516101c0810182526003805480835260208084018881528486018e8152606086018c8152608087018f815260a088018f905260c088018d905260e088018b905261010088018a9052600061012089018190526101408901819052336101608a015280546001600160a01b03166101808a0152426101a08a0152958652600d855297909420865181559151600183015551600282015591519282019290925592518051929392610ac7926004850192019061329c565b5060a0820151600582015560c08201518051610aed91600684019160209091019061329c565b5060e08201518051610b0991600784019160209091019061329c565b506101008201518051610b2691600884019160209091019061329c565b506101208201518160090160006101000a81548160ff0219169083151502179055506101408201518160090160016101000a81548160ff0219169083151502179055506101608201518160090160026101000a8154816001600160a01b0302191690836001600160a01b0316021790555061018082015181600a0160006101000a8154816001600160a01b0302191690836001600160a01b031602179055506101a082015181600b0155905050600c6000336001600160a01b03166001600160a01b031681526020019081526020016000206003549080600181540180825580915050600190039060005260206000200160009091909190915055601160006001815260200190815260200160002060035490806001815401808255809150506001900390600052602060002001600090919091909150556013600060035481526020019081526020016000206040518060c00160405280600354815260200160008152602001600081526020018a8152602001336001600160a01b031681526020014281525090806001815401808255809150506001900390600052602060002090600602016000909190919091506000820151816000015560208201518160010155604082015181600201556060820151816003015560808201518160040160006101000a8154816001600160a01b0302191690836001600160a01b0316021790555060a0820151816005015550505050505050505050565b600b6020526000908152604090205460ff1681565b6000546001600160a01b0316331415610d8557600080546001600160a01b0319166001600160a01b0383161790555b50565b336000908152600f60209081526040918290208054835181840281018401909452808452606093928301828280156108e257602002820191906000526020600020908154815260200190600101908083116108ce575050505050905090565b610df03361283f565b8015610e0557506001600160a01b0381163314155b8015610e3b57503360009081526007602090815260408083206006908101546001600160a01b0386168552925290912060040154145b15610251576001600160a01b038181166000818152600660209081526040808320600a018054600160ff199091168117909155815180830183523381524281850190815295855260169093529220905181546001600160a01b03191694169390931783559051910155610d85565b600080546001600160a01b031633148015610edd57506001600160a01b038a1660009081526009602052604090205460ff16155b156102515760005b600154811015610f7657600160009081526008602052600080516020613c8483398151915280548a92600792909185908110610f3157634e487b7160e01b600052603260045260246000fd5b60009182526020808320909101546001600160a01b031683528201929092526040019020600401541415610f6457600080fd5b80610f6e81613c27565b915050610ee5565b506001600160a01b038a166000908152600960205260408120805460ff19166001908117909155805491610fa983613c27565b919050555060086000600181526020019081526020016000208a9080600181540180825580915050600190039060005260206000200160009091909190916101000a8154816001600160a01b0302191690836001600160a01b0316021790555060405180610140016040528060015481526020018b6001600160a01b031681526020018a815260200189815260200188815260200186815260200185815260200187815260200184815260200183815250600760008c6001600160a01b03166001600160a01b031681526020019081526020016000206000820151816000015560208201518160010160006101000a8154816001600160a01b0302191690836001600160a01b0316021790555060408201518160020155606082015181600301556080820151816004015560a0820151816005015560c0820151816006015560e0820151816007015561010082015181600801556101208201518160090155905050600190509998505050505050505050565b6001600052600a60209081527fbbc70db1b6c7afd11e79c0fb0051300458f1a3acb8ee9789d9b6b26c61ad9bc780546040805182850281018501909152818152606093909291908301828280156108e257602002820191906000526020600020905b81546001600160a01b0316815260019091019060200180831161117e575050505050905090565b336000908152600660205260409020600a015460ff1680156111dd57506000838152600d6020526040902060090154610100900460ff165b801561120857506000838152600d60205260409020600901546201000090046001600160a01b031633145b80156112145750600081115b801561123057506000838152600d602052604090206002015482105b801561124e57506000838152600d602052604090206009015460ff16155b80156112725750336000908152600660205260409020600a0154610100900460ff16155b15610251576000838152600d60205260409020600190810154905b8281111580156112ae57506000858152600d60205260409020600201548411155b156119e5576000858152600d6020526040812060020180548692906112d4908490613bd5565b9091555050600380549060006112e983613c27565b91905055506000426003548460405160200161130793929190613826565b60408051601f1981840301815282825280516020918201206101c0840183526003805485528483018290528484018a905260008b8152600d8085529481209182015460608701528b90529290915260049091018054919350608083019161136d90613bec565b80601f016020809104026020016040519081016040528092919081815260200182805461139990613bec565b80156113e65780601f106113bb576101008083540402835291602001916113e6565b820191906000526020600020905b8154815290600101906020018083116113c957829003601f168201915b50505050508152602001600d6000898152602001908152602001600020600501548152602001600d6000898152602001908152602001600020600601805461142d90613bec565b80601f016020809104026020016040519081016040528092919081815260200182805461145990613bec565b80156114a65780601f1061147b576101008083540402835291602001916114a6565b820191906000526020600020905b81548152906001019060200180831161148957829003601f168201915b50505050508152602001600d600089815260200190815260200160002060070180546114d190613bec565b80601f01602080910402602001604051908101604052809291908181526020018280546114fd90613bec565b801561154a5780601f1061151f5761010080835404028352916020019161154a565b820191906000526020600020905b81548152906001019060200180831161152d57829003601f168201915b50505050508152602001600d6000898152602001908152602001600020600801805461157590613bec565b80601f01602080910402602001604051908101604052809291908181526020018280546115a190613bec565b80156115ee5780601f106115c3576101008083540402835291602001916115ee565b820191906000526020600020905b8154815290600101906020018083116115d157829003601f168201915b50505091835250506000602080830182905260408084018390523360608086019190915283546001600160a01b03166080808701919091524260a090960195909552600380548552600d845293829020865181558684015160018201559186015160028301558501519281019290925591830151805191926116789260048501929091019061329c565b5060a0820151600582015560c0820151805161169e91600684019160209091019061329c565b5060e082015180516116ba91600784019160209091019061329c565b5061010082015180516116d791600884019160209091019061329c565b506101208201518160090160006101000a81548160ff0219169083151502179055506101408201518160090160016101000a81548160ff0219169083151502179055506101608201518160090160026101000a8154816001600160a01b0302191690836001600160a01b0316021790555061018082015181600a0160006101000a8154816001600160a01b0302191690836001600160a01b031602179055506101a082015181600b0155905050600c6000336001600160a01b03166001600160a01b031681526020019081526020016000206003549080600181540180825580915050600190039060005260206000200160009091909190915055601160006001815260200190815260200160002060035490806001815401808255809150506001900390600052602060002001600090919091909150556013600060035481526020019081526020016000206040518060c001604052808881526020016000815260200160008152602001878152602001336001600160a01b031681526020014281525090806001815401808255809150506001900390600052602060002090600602016000909190919091506000820151816000015560208201518160010155604082015181600201556060820151816003015560808201518160040160006101000a8154816001600160a01b0302191690836001600160a01b0316021790555060a082015181600501555050601360008781526020019081526020016000206040518060c001604052808881526020018681526020016003548152602001878152602001336001600160a01b03168152602001600d60008a8152602001908152602001600020600b015481525090806001815401808255809150506001900390600052602060002090600602016000909190919091506000820151816000015560208201518160010155604082015181600201556060820151816003015560808201518160040160006101000a8154816001600160a01b0302191690836001600160a01b0316021790555060a0820151816005015550505080806119dd90613c27565b91505061128d565b50505b505050565b6007602081905260009182526040909120805460018201546002830154600384015460048501546005860154600687015497870154600888015460099098015496986001600160a01b039096169794969395929491939091908a565b6000828152600e60205260409020600101546001600160a01b03163314611a6f57600080fd5b808015611a8e57506000828152600e602052604090206006015460ff16155b15611b19576000828152600e602052604090206005015415611af857604080516060810182528381526000848152600e6020908152838220600380820154808552600d80855287862090920180548588015260059093015495909601859052949092529290925290555b6000828152600e60205260409020600401805460ff19166001179055611b5b565b80158015611b3957506000828152600e602052604090206006015460ff16155b15611b5b576000828152600e60205260409020600401805460ff191660021790555b5050565b6000546001600160a01b031633148015611b9157506001600160a01b03811660009081526009602052604090205460ff165b15610251576001600160a01b03811660009081526009602090815260408220805460ff191690556001825260089052600080516020613c8483398151915254905b81811015611d6a5760016000526008602052600080516020613c8483398151915280546001600160a01b038516919083908110611c1f57634e487b7160e01b600052603260045260246000fd5b6000918252602090912001546001600160a01b03161415611d5857600160008190526008602052600080516020613c8483398151915290611c609084613bd5565b81548110611c7e57634e487b7160e01b600052603260045260246000fd5b6000918252602080832090910154600190925260089052600080516020613c8483398151915280546001600160a01b039092169183908110611cd057634e487b7160e01b600052603260045260246000fd5b600091825260208083209190910180546001600160a01b0319166001600160a01b0394909416939093179092556001905260089052600080516020613c84833981519152805480611d3157634e487b7160e01b600052603160045260246000fd5b600082815260209020810160001990810180546001600160a01b0319169055019055611d6a565b80611d6281613c27565b915050611bd2565b5050610d85565b60045481565b6000838152600d60205260409020600901546201000090046001600160a01b031633148015611dbc57506000838152600d6020526040902060090154610100900460ff165b15610251578015611df2576000838152600d60205260409020600a0180546001600160a01b0319166001600160a01b0384161790555b80158015611e1c57506000838152600d60205260409020600a01546001600160a01b038381169116145b15611e535760008054848252600d6020526040909120600a0180546001600160a01b0319166001600160a01b039092169190911790555b6119e8565b6000898152600d60205260409020600901546201000090046001600160a01b031633148015611e9d57506000898152600d6020526040902060090154610100900460ff165b15610251578715611ec6576000898152600d60205260409020600901805460ff19168515151790555b8615611ee1576000898152600d602052604090206003018390555b8515611f0e576000898152600d602090815260409091208351611f0c9260089092019185019061329c565b505b8415611f3b576000898152600d602090815260409091208251611f399260069092019184019061329c565b505b505050505050505050565b60015481565b601660205260009081526040902080546001909101546001600160a01b039091169082565b336000908152601060209081526040918290208054835181840281018401909452808452606093928301828280156108e257602002820191906000526020600020908154815260200190600101908083116108ce575050505050905090565b336000908152600660205260409020600a015460ff16801561200857506000828152600d6020526040902060090154610100900460ff165b801561203457506000828152600d60205260409020600901546201000090046001600160a01b03163314155b15610251576005805490600061204983613c27565b90915550506040805160e0810182526005548082526000858152600d6020908152848220600901546201000090046001600160a01b0390811682860190815233868801908152606087018a81526080880186815260a089018b905260c08901879052968652600e90945296909320855181559251600180850180549284166001600160a01b03199384161790559651600285018054919093169116179055516003820155905160048083018054949593949293909260ff191691849081111561212257634e487b7160e01b600052602160045260246000fd5b021790555060a082015160058281019190915560c0909201516006909101805460ff19169115159190911790556000838152600d60209081526040808320600901546201000090046001600160a01b03168352600f8252808320845481546001818101845592865284862001553384526010835290832093548454918201855593835291200155611b5b565b6001600052601260209081527f71a67924699a20698523213e55fe499d539379d7769cd5567e2c45d583f815a380546040805182850281018501909152818152606093909291908301828280156108e257602002820191906000526020600020908154815260200190600101908083116108ce575050505050905090565b6122353361283f565b61223e57600080fd5b6001600160a01b0381166000908152600660209081526040808320600a01805461ff001916610100179055600c8252808320805482518185028101850190935280835291929091908301828280156122b557602002820191906000526020600020905b8154815260200190600101908083116122a1575b5050505050905060005b81518110156119e85760008282815181106122ea57634e487b7160e01b600052603260045260246000fd5b6020908102919091018101516000818152600d90925260409091206009810154919250906001600160a01b0386811662010000909204161480156123435750600581015433600090815260076020526040902060060154145b156124cf576004805490600061235883613c27565b9091555050600981018054600a83015461ff01600160b01b03199091166001600160a01b03918216620100008102919091179092556000918252600c60209081526040808420805460018101825590855291842090910185905590871682528120905b81548110156124a857838282815481106123e557634e487b7160e01b600052603260045260246000fd5b90600052602060002001541415612496578154829061240690600190613bd5565b8154811061242457634e487b7160e01b600052603260045260246000fd5b906000526020600020015482828154811061244f57634e487b7160e01b600052603260045260246000fd5b90600052602060002001819055508180548061247b57634e487b7160e01b600052603160045260246000fd5b600190038181906000526020600020016000905590556124a8565b806124a081613c27565b9150506123bb565b5050600054600a820180546001600160a01b0319166001600160a01b039092169190911790555b505080806124dc90613c27565b9150506122bf565b60176020526000908152604090208054600182015460029092015490919083565b6001600160a01b03166000908152600660205260409020600a015460ff1690565b600e60205260009081526040902080546001820154600283015460038401546004850154600586015460069096015494956001600160a01b03948516959390941693919260ff91821692911687565b601560205260009081526040902080546001909101546001600160a01b039091169082565b6001600160a01b0381166000908152600c60209081526040918290208054835181840281018401909452808452606093928301828280156125fa57602002820191906000526020600020905b8154815260200190600101908083116125e6575b50505050509050919050565b600160005260086020908152600080516020613c8483398151915280546040805182850281018501909152818152606093909291908301828280156108e2576020028201919060005260206000209081546001600160a01b0316815260019091019060200180831161117e575050505050905090565b600660208190526000918252604090912080546001820154600283015460038401546004850154600586015496860180546001600160a01b0390961697949693959294919391926126cc90613bec565b80601f01602080910402602001604051908101604052809291908181526020018280546126f890613bec565b80156127455780601f1061271a57610100808354040283529160200191612745565b820191906000526020600020905b81548152906001019060200180831161272857829003601f168201915b50505050509080600701805461275a90613bec565b80601f016020809104026020016040519081016040528092919081815260200182805461278690613bec565b80156127d35780601f106127a8576101008083540402835291602001916127d3565b820191906000526020600020905b8154815290600101906020018083116127b657829003601f168201915b5050505060088301546009840154600a850154600b909501549394919390925060ff80831692610100900416908d565b60096020526000908152604090205460ff1681565b600080546001600160a01b038381169116141561283757506001610820565b506000610820565b6001600160a01b03811660009081526009602052604081205460ff161561283757506001610820565b600d6020526000908152604090208054600182015460028301546003840154600485018054949593949293919261289e90613bec565b80601f01602080910402602001604051908101604052809291908181526020018280546128ca90613bec565b80156129175780601f106128ec57610100808354040283529160200191612917565b820191906000526020600020905b8154815290600101906020018083116128fa57829003601f168201915b50505050509080600501549080600601805461293290613bec565b80601f016020809104026020016040519081016040528092919081815260200182805461295e90613bec565b80156129ab5780601f10612980576101008083540402835291602001916129ab565b820191906000526020600020905b81548152906001019060200180831161298e57829003601f168201915b5050505050908060070180546129c090613bec565b80601f01602080910402602001604051908101604052809291908181526020018280546129ec90613bec565b8015612a395780601f10612a0e57610100808354040283529160200191612a39565b820191906000526020600020905b815481529060010190602001808311612a1c57829003601f168201915b505050505090806008018054612a4e90613bec565b80601f0160208091040260200160405190810160405280929190818152602001828054612a7a90613bec565b8015612ac75780601f10612a9c57610100808354040283529160200191612ac7565b820191906000526020600020905b815481529060010190602001808311612aaa57829003601f168201915b5050506009840154600a850154600b90950154939460ff80831695610100840490911694506001600160a01b0362010000909304831693509116908e565b336000908152600b602052604090205460ff16151560011415612b435760405162461bcd60e51b8152600401612b3a906139fa565b60405180910390fd5b336000908152600b60205260408120805460ff191660011790556002805491612b6b83613c27565b90915550507fbbc70db1b6c7afd11e79c0fb0051300458f1a3acb8ee9789d9b6b26c61ad9bc7805460018082019092557fed65b032d5a5fa3a5b6544566ee46a0f6b8fe8b1375ec878dc3be6580b078495018054336001600160a01b03199182168117909255604080516101a08101825283815260208082018f81528284018f8152606084018f8152608085018f815260a086018f815260c087018f815260e088018f905261010088018e905261012088018d9052600061014089018190526101608901819052426101808a01529a8b52600680885298909a2087518154909a166001600160a01b03909a169990991789559351998801999099559051600287015551600386015595516004850155945160058401559251805193949293612c9b9392850192919091019061329c565b5060e08201518051612cb791600784019160209091019061329c565b506101008281015160088301556101208301516009830155610140830151600a8301805461016086015160ff199091169215159290921761ff00191691151590920217905561018090910151600b90910155505050505050505050565b6000818152600e60205260409020600201546001600160a01b031633148015612d71575060016000828152600e6020526040902060049081015460ff1690811115612d6f57634e487b7160e01b600052602160045260246000fd5b145b8015612d9957506000818152600e60205260409020600101546001600160a01b038381169116145b8015612dc657506000818152600e602090815260408083206003908101548452600d909252909120015434145b15610251576000818152600e60209081526040808320600481018054600360ff199182161790915560069091018054909116600190811790915560129092527f71a67924699a20698523213e55fe499d539379d7769cd5567e2c45d583f815a38054928301815583527f09d3634ec98b7a093f4c560246b0e10c09e0e06c46ca9be08ca93e6cf08d8d13909101839055516001600160a01b038416913480156108fc02929091818181858888f19350505050158015612e89573d6000803e3d6000fd5b50611b5b565b612e983361283f565b8015612ec457506000818152600d60205260409020600901546201000090046001600160a01b03163314155b8015612f0057506000818152600d60209081526040808320600901546201000090046001600160a01b0316835260069091529020600a015460ff165b8015612f2d57506000818152600d6020908152604080832060050154338452600790925290912060060154145b15610251576000818152600d60209081526040808320600901805461010061ff0019909116179055805180820182523381524281840190815285855260159093529220915182546001600160a01b0319166001600160a01b039091161782555160019190910155610d85565b612fa23361283f565b612fab57600080fd5b6000828152600e602052604090206006015460ff16158015612ffb57506000828152600e60209081526040808320600301548352600d825280832060050154338452600790925290912060060154145b1561300557600080fd5b6004805490600061301583613c27565b90915550506000828152600e602090815260408083206004808201805460ff1916909117905560028101546001600160a01b039081168552600c84528285206003830154815460018181018455928852958720909501949094559201549091168252812054905b81811015613203576000848152600e6020908152604080832060038101546001909101546001600160a01b03168452600c9092529091208054839081106130d357634e487b7160e01b600052603260045260246000fd5b906000526020600020015414156131f1576000848152600e602090815260408083206001908101546001600160a01b03168452600c909252909120906131199084613bd5565b8154811061313757634e487b7160e01b600052603260045260246000fd5b6000918252602080832090910154868352600e82526040808420600101546001600160a01b03168452600c909252912080548390811061318757634e487b7160e01b600052603260045260246000fd5b6000918252602080832090910192909255858152600e82526040808220600101546001600160a01b03168252600c909252208054806131d657634e487b7160e01b600052603160045260246000fd5b60019003818190600052602060002001600090559055613203565b806131fb81613c27565b91505061307c565b506000838152600e60209081526040808320600301548352600d825290912083516132369260079092019185019061329c565b5050506000908152600e602090815260408083206003810180548552600d9093528184206009908101805460ff19169055600290910154925484529220909101805462010000600160b01b0319166001600160a01b039092166201000002919091179055565b8280546132a890613bec565b90600052602060002090601f0160209004810192826132ca5760008555613310565b82601f106132e357805160ff1916838001178555613310565b82800160010185558215613310579182015b828111156133105782518255916020019190600101906132f5565b5061331c929150613320565b5090565b5b8082111561331c5760008155600101613321565b8035801515811461082057600080fd5b600082601f830112613355578081fd5b813567ffffffffffffffff8082111561337057613370613c58565b604051601f8301601f19168101602001828111828210171561339457613394613c58565b6040528281528483016020018610156133ab578384fd5b82602086016020830137918201602001929092529392505050565b6000602082840312156133d7578081fd5b81356133e281613c6e565b9392505050565b600080604083850312156133fb578081fd5b823561340681613c6e565b946020939093013593505050565b60008060008060008060008060006101208a8c031215613432578485fd5b893561343d81613c6e565b9b60208b01359b5060408b01359a60608101359a506080810135995060a0810135985060c0810135975060e081013596506101000135945092505050565b60008060008060008060008060006101208a8c031215613499578485fd5b8935985060208a0135975060408a0135965060608a0135955060808a0135945060a08a013567ffffffffffffffff808211156134d3578586fd5b6134df8d838e01613345565b955060c08c01359150808211156134f4578485fd5b506135018c828d01613345565b93505060e08a013591506101008a013590509295985092959850929598565b600060208284031215613531578081fd5b5035919050565b60008060006060848603121561354c578283fd5b83359250602084013561355e81613c6e565b915061356c60408501613335565b90509250925092565b60008060408385031215613587578182fd5b8235915061359760208401613335565b90509250929050565b60008060008060008060008060006101208a8c0312156135be578485fd5b893598506135ce60208b01613335565b97506135dc60408b01613335565b96506135ea60608b01613335565b95506135f860808b01613335565b945061360660a08b01613335565b935060c08a0135925060e08a013567ffffffffffffffff80821115613629578384fd5b6136358d838e01613345565b93506101008c013591508082111561364b578283fd5b506136588c828d01613345565b9150509295985092959850929598565b6000806040838503121561367a578182fd5b82359150602083013567ffffffffffffffff811115613697578182fd5b6136a385828601613345565b9150509250929050565b600080600080600080600080610100898b0312156136c9578182fd5b88359750602089013567ffffffffffffffff808211156136e7578384fd5b6136f38c838d01613345565b985060408b0135975060608b0135965060808b0135915080821115613716578384fd5b6137228c838d01613345565b955060a08b0135945060c08b013591508082111561373e578384fd5b61374a8c838d01613345565b935060e08b013591508082111561375f578283fd5b5061376c8b828c01613345565b9150509295985092959890939650565b6000806040838503121561378e578182fd5b50508035926020909101359150565b6000806000606084860312156137b1578081fd5b505081359360208301359350604090920135919050565b6001600160a01b03169052565b15159052565b60008151808452815b81811015613800576020818501810151868301820152016137e4565b818111156138115782602083870101525b50601f01601f19169290920160200192915050565b9283526020830191909152604082015260600190565b600060018060a01b038f1682528d60208301528c60408301528b60608301528a60808301528960a08301526101a060c083015261387d6101a083018a6137db565b82810360e084015261388f818a6137db565b91505086610100830152856101208301528415156101408301526138b76101608301856137d5565b826101808301529e9d5050505050505050505050505050565b6001600160a01b03929092168252602082015260400190565b6020808252825182820181905260009190848201906040850190845b8181101561392a5783516001600160a01b031683529284019291840191600101613905565b50909695505050505050565b602080825282518282018190526000919060409081850190868401855b828110156139aa5781518051855286810151878601528581015186860152606080820151908601526080808201516001600160a01b03169086015260a0908101519085015260c09093019290850190600101613953565b5091979650505050505050565b6020808252825182820181905260009190848201906040850190845b8181101561392a578351835292840192918401916001016139d3565b901515815260200190565b602080825260139082015272105b1b1c995859195e481c9959da5cdd195c99606a1b604082015260600190565b90815260200190565b8781526001600160a01b038781166020830152861660408201526060810185905260e0810160058510613a7357634e487b7160e01b600052602160045260246000fd5b8460808301528360a083015282151560c083015298975050505050505050565b998a526001600160a01b039890981660208a015260408901969096526060880194909452608087019290925260a086015260c085015260e08401526101008301526101208201526101400190565b9586526020860194909452604085019290925260608401526001600160a01b0316608083015260a082015260c00190565b60008f82528e60208301528d60408301528c60608301526101c06080830152613b3f6101c083018d6137db565b8b60a084015282810360c0840152613b57818c6137db565b905082810360e0840152613b6b818b6137db565b9050828103610100840152613b80818a6137db565b915050613b916101208301886137d5565b613b9f6101408301876137d5565b613bad6101608301866137c8565b613bbb6101808301856137c8565b826101a08301529f9e505050505050505050505050505050565b600082821015613be757613be7613c42565b500390565b600281046001821680613c0057607f821691505b60208210811415613c2157634e487b7160e01b600052602260045260246000fd5b50919050565b6000600019821415613c3b57613c3b613c42565b5060010190565b634e487b7160e01b600052601160045260246000fd5b634e487b7160e01b600052604160045260246000fd5b6001600160a01b0381168114610d8557600080fdfead67d757c34507f157cacfa2e3153e9f260a2244f30428821be7be64587ac55fa2646970667358221220706eb88047cdffab1bfe2856346b79be403cdac1b4e927aba6b19403c49a03d064736f6c63430008000033",
  "linkReferences": {},
  "deployedLinkReferences": {}
}