{
  "_format": "hh-sol-artifact-1",
  "contractName": "landregistry",
  "sourceName": "contracts/landregistry.sol",
  "abi": [
    {
      "inputs": [],
      "stateMutability": "nonpayable",
      "type": "constructor"
    },
    {
      "inputs": [
        {
          "internalType": "uint256",
          "name": "landId",
          "type": "uint256"
        },
        {
          "internalType": "address payable",
          "name": "proxyOwner",
          "type": "address"
        },
        {
          "internalType": "bool",
          "name": "_addRemove",
          "type": "bool"
        }
      ],
      "name": "AndandRemoveProxyOwner",
      "outputs": [],
      "stateMutability": "nonpayable",
      "type": "function"
    },
    {
      "inputs": [
        {
          "internalType": "address",
          "name": "_addr",
          "type": "address"
        },
        {
          "internalType": "bytes32",
          "name": "_desg",
          "type": "bytes32"
        }
      ],
      "name": "ChangeDesg",
      "outputs": [],
      "stateMutability": "nonpayable",
      "type": "function"
    },
    {
      "inputs": [
        {
          "internalType": "uint256",
          "name": "_propertyPID",
          "type": "uint256"
        }
      ],
      "name": "CheckDuplicatePid",
      "outputs": [
        {
          "internalType": "bool",
          "name": "",
          "type": "bool"
        }
      ],
      "stateMutability": "view",
      "type": "function"
    },
    {
      "inputs": [
        {
          "internalType": "address",
          "name": "",
          "type": "address"
        }
      ],
      "name": "InspectorMapping",
      "outputs": [
        {
          "internalType": "uint256",
          "name": "id",
          "type": "uint256"
        },
        {
          "internalType": "address",
          "name": "addr",
          "type": "address"
        },
        {
          "internalType": "uint256",
          "name": "cnic",
          "type": "uint256"
        },
        {
          "internalType": "bytes32",
          "name": "postingDistrict",
          "type": "bytes32"
        },
        {
          "internalType": "bytes32",
          "name": "designation",
          "type": "bytes32"
        },
        {
          "internalType": "address",
          "name": "addby",
          "type": "address"
        },
        {
          "internalType": "uint256",
          "name": "addDate",
          "type": "uint256"
        }
      ],
      "stateMutability": "view",
      "type": "function"
    },
    {
      "inputs": [
        {
          "internalType": "uint256",
          "name": "",
          "type": "uint256"
        }
      ],
      "name": "LandRequestMapping",
      "outputs": [
        {
          "internalType": "uint256",
          "name": "reqId",
          "type": "uint256"
        },
        {
          "internalType": "address payable",
          "name": "sellerId",
          "type": "address"
        },
        {
          "internalType": "address payable",
          "name": "buyerId",
          "type": "address"
        },
        {
          "internalType": "uint256",
          "name": "landId",
          "type": "uint256"
        },
        {
          "internalType": "enum landregistry.reqStatus",
          "name": "requestStatus",
          "type": "uint8"
        },
        {
          "internalType": "uint256",
          "name": "bidPrice",
          "type": "uint256"
        },
        {
          "internalType": "bool",
          "name": "isPaymentDone",
          "type": "bool"
        }
      ],
      "stateMutability": "view",
      "type": "function"
    },
    {
      "inputs": [
        {
          "internalType": "address",
          "name": "",
          "type": "address"
        }
      ],
      "name": "RegisteredInspectorMapping",
      "outputs": [
        {
          "internalType": "bool",
          "name": "",
          "type": "bool"
        }
      ],
      "stateMutability": "view",
      "type": "function"
    },
    {
      "inputs": [
        {
          "internalType": "address",
          "name": "",
          "type": "address"
        }
      ],
      "name": "RegisteredUserMapping",
      "outputs": [
        {
          "internalType": "bool",
          "name": "",
          "type": "bool"
        }
      ],
      "stateMutability": "view",
      "type": "function"
    },
    {
      "inputs": [],
      "name": "ReturnAllLandIncpectorList",
      "outputs": [
        {
          "internalType": "address[]",
          "name": "",
          "type": "address[]"
        }
      ],
      "stateMutability": "view",
      "type": "function"
    },
    {
      "inputs": [],
      "name": "ReturnAllLandList",
      "outputs": [
        {
          "internalType": "uint256[]",
          "name": "",
          "type": "uint256[]"
        }
      ],
      "stateMutability": "view",
      "type": "function"
    },
    {
      "inputs": [],
      "name": "ReturnAllUserList",
      "outputs": [
        {
          "internalType": "address[]",
          "name": "",
          "type": "address[]"
        }
      ],
      "stateMutability": "view",
      "type": "function"
    },
    {
      "inputs": [
        {
          "internalType": "address",
          "name": "",
          "type": "address"
        }
      ],
      "name": "UserMapping",
      "outputs": [
        {
          "internalType": "address",
          "name": "id",
          "type": "address"
        },
        {
          "internalType": "bytes32",
          "name": "name",
          "type": "bytes32"
        },
        {
          "internalType": "bytes32",
          "name": "dob",
          "type": "bytes32"
        },
        {
          "internalType": "bytes32",
          "name": "city",
          "type": "bytes32"
        },
        {
          "internalType": "bytes32",
          "name": "district",
          "type": "bytes32"
        },
        {
          "internalType": "uint256",
          "name": "cnic",
          "type": "uint256"
        },
        {
          "internalType": "string",
          "name": "document",
          "type": "string"
        },
        {
          "internalType": "string",
          "name": "profilepic",
          "type": "string"
        },
        {
          "internalType": "bytes32",
          "name": "email",
          "type": "bytes32"
        },
        {
          "internalType": "bytes32",
          "name": "phone",
          "type": "bytes32"
        },
        {
          "internalType": "bool",
          "name": "isUserVerified",
          "type": "bool"
        },
        {
          "internalType": "bool",
          "name": "death",
          "type": "bool"
        },
        {
          "internalType": "uint256",
          "name": "registerdate",
          "type": "uint256"
        }
      ],
      "stateMutability": "view",
      "type": "function"
    },
    {
      "inputs": [
        {
          "internalType": "uint256",
          "name": "_requestId",
          "type": "uint256"
        },
        {
          "internalType": "bool",
          "name": "acceptreject",
          "type": "bool"
        }
      ],
      "name": "acceptRequest",
      "outputs": [],
      "stateMutability": "nonpayable",
      "type": "function"
    },
    {
      "inputs": [
        {
          "internalType": "uint256",
          "name": "_area",
          "type": "uint256"
        },
        {
          "internalType": "string",
          "name": "_landAddress",
          "type": "string"
        },
        {
          "internalType": "bytes32",
          "name": "_district",
          "type": "bytes32"
        },
        {
          "internalType": "uint256",
          "name": "_landPrice",
          "type": "uint256"
        },
        {
          "internalType": "string",
          "name": "_allLatiLongi",
          "type": "string"
        },
        {
          "internalType": "uint256",
          "name": "_propertyPID",
          "type": "uint256"
        },
        {
          "internalType": "string",
          "name": "_document",
          "type": "string"
        },
        {
          "internalType": "string",
          "name": "_landpic",
          "type": "string"
        }
      ],
      "name": "addLand",
      "outputs": [],
      "stateMutability": "nonpayable",
      "type": "function"
    },
    {
      "inputs": [
        {
          "internalType": "address",
          "name": "_addr",
          "type": "address"
        },
        {
          "internalType": "bytes32",
          "name": "_district",
          "type": "bytes32"
        },
        {
          "internalType": "bytes32",
          "name": "_desg",
          "type": "bytes32"
        }
      ],
      "name": "addLandInspector",
      "outputs": [
        {
          "internalType": "bool",
          "name": "",
          "type": "bool"
        }
      ],
      "stateMutability": "nonpayable",
      "type": "function"
    },
    {
      "inputs": [
        {
          "internalType": "address",
          "name": "_addr",
          "type": "address"
        }
      ],
      "name": "changeContractOwner",
      "outputs": [],
      "stateMutability": "nonpayable",
      "type": "function"
    },
    {
      "inputs": [
        {
          "internalType": "uint256",
          "name": "_landId",
          "type": "uint256"
        },
        {
          "internalType": "bool",
          "name": "s",
          "type": "bool"
        },
        {
          "internalType": "bool",
          "name": "p",
          "type": "bool"
        },
        {
          "internalType": "bool",
          "name": "i",
          "type": "bool"
        },
        {
          "internalType": "bool",
          "name": "c",
          "type": "bool"
        },
        {
          "internalType": "bool",
          "name": "sell",
          "type": "bool"
        },
        {
          "internalType": "uint256",
          "name": "_newPrice",
          "type": "uint256"
        },
        {
          "internalType": "string",
          "name": "_newPic",
          "type": "string"
        },
        {
          "internalType": "string",
          "name": "_allLatiLongi",
          "type": "string"
        }
      ],
      "name": "changeDetails",
      "outputs": [],
      "stateMutability": "nonpayable",
      "type": "function"
    },
    {
      "inputs": [],
      "name": "documentId",
      "outputs": [
        {
          "internalType": "uint256",
          "name": "",
          "type": "uint256"
        }
      ],
      "stateMutability": "view",
      "type": "function"
    },
    {
      "inputs": [
        {
          "internalType": "uint256",
          "name": "id",
          "type": "uint256"
        }
      ],
      "name": "getLandHistory",
      "outputs": [
        {
          "components": [
            {
              "internalType": "uint256",
              "name": "parentId",
              "type": "uint256"
            },
            {
              "internalType": "uint256",
              "name": "childCount",
              "type": "uint256"
            },
            {
              "internalType": "uint256",
              "name": "childId",
              "type": "uint256"
            },
            {
              "internalType": "uint256",
              "name": "area",
              "type": "uint256"
            },
            {
              "internalType": "address",
              "name": "parentAddress",
              "type": "address"
            },
            {
              "internalType": "uint256",
              "name": "parentIdRegisterdDate",
              "type": "uint256"
            },
            {
              "internalType": "uint256",
              "name": "childIdRegisterDate",
              "type": "uint256"
            }
          ],
          "internalType": "struct landregistry.LandHistory[]",
          "name": "",
          "type": "tuple[]"
        }
      ],
      "stateMutability": "view",
      "type": "function"
    },
    {
      "inputs": [],
      "name": "inspectorsCount",
      "outputs": [
        {
          "internalType": "uint256",
          "name": "",
          "type": "uint256"
        }
      ],
      "stateMutability": "view",
      "type": "function"
    },
    {
      "inputs": [
        {
          "internalType": "address",
          "name": "_addr",
          "type": "address"
        }
      ],
      "name": "isContractOwner",
      "outputs": [
        {
          "internalType": "bool",
          "name": "",
          "type": "bool"
        }
      ],
      "stateMutability": "view",
      "type": "function"
    },
    {
      "inputs": [
        {
          "internalType": "address",
          "name": "_id",
          "type": "address"
        }
      ],
      "name": "isLandInspector",
      "outputs": [
        {
          "internalType": "bool",
          "name": "",
          "type": "bool"
        }
      ],
      "stateMutability": "view",
      "type": "function"
    },
    {
      "inputs": [
        {
          "internalType": "address",
          "name": "id",
          "type": "address"
        }
      ],
      "name": "isUserVerified",
      "outputs": [
        {
          "internalType": "bool",
          "name": "",
          "type": "bool"
        }
      ],
      "stateMutability": "view",
      "type": "function"
    },
    {
      "inputs": [
        {
          "internalType": "uint256",
          "name": "",
          "type": "uint256"
        }
      ],
      "name": "landHis",
      "outputs": [
        {
          "internalType": "uint256",
          "name": "parentId",
          "type": "uint256"
        },
        {
          "internalType": "uint256",
          "name": "childCount",
          "type": "uint256"
        },
        {
          "internalType": "uint256",
          "name": "childId",
          "type": "uint256"
        },
        {
          "internalType": "uint256",
          "name": "area",
          "type": "uint256"
        },
        {
          "internalType": "address",
          "name": "parentAddress",
          "type": "address"
        },
        {
          "internalType": "uint256",
          "name": "parentIdRegisterdDate",
          "type": "uint256"
        },
        {
          "internalType": "uint256",
          "name": "childIdRegisterDate",
          "type": "uint256"
        }
      ],
      "stateMutability": "view",
      "type": "function"
    },
    {
      "inputs": [
        {
          "internalType": "uint256",
          "name": "",
          "type": "uint256"
        }
      ],
      "name": "landPriceInfo",
      "outputs": [
        {
          "internalType": "uint256",
          "name": "id",
          "type": "uint256"
        },
        {
          "internalType": "uint256",
          "name": "basePrice",
          "type": "uint256"
        },
        {
          "internalType": "uint256",
          "name": "landPrice",
          "type": "uint256"
        }
      ],
      "stateMutability": "view",
      "type": "function"
    },
    {
      "inputs": [
        {
          "internalType": "uint256",
          "name": "",
          "type": "uint256"
        }
      ],
      "name": "landinfo",
      "outputs": [
        {
          "internalType": "address",
          "name": "verfiedby",
          "type": "address"
        },
        {
          "internalType": "uint256",
          "name": "verfydate",
          "type": "uint256"
        },
        {
          "internalType": "bool",
          "name": "directed",
          "type": "bool"
        },
        {
          "internalType": "uint256",
          "name": "childs",
          "type": "uint256"
        },
        {
          "internalType": "enum landregistry.verStatus",
          "name": "verification",
          "type": "uint8"
        }
      ],
      "stateMutability": "view",
      "type": "function"
    },
    {
      "inputs": [
        {
          "internalType": "uint256",
          "name": "",
          "type": "uint256"
        }
      ],
      "name": "lands",
      "outputs": [
        {
          "internalType": "uint256",
          "name": "id",
          "type": "uint256"
        },
        {
          "internalType": "uint256",
          "name": "propertyPID",
          "type": "uint256"
        },
        {
          "internalType": "uint256",
          "name": "area",
          "type": "uint256"
        },
        {
          "internalType": "uint256",
          "name": "landPrice",
          "type": "uint256"
        },
        {
          "internalType": "string",
          "name": "landAddress",
          "type": "string"
        },
        {
          "internalType": "bytes32",
          "name": "district",
          "type": "bytes32"
        },
        {
          "internalType": "string",
          "name": "allLatitudeLongitude",
          "type": "string"
        },
        {
          "internalType": "string",
          "name": "document",
          "type": "string"
        },
        {
          "internalType": "string",
          "name": "landpic",
          "type": "string"
        },
        {
          "internalType": "bool",
          "name": "isforSell",
          "type": "bool"
        },
        {
          "internalType": "bool",
          "name": "isLandVerified",
          "type": "bool"
        },
        {
          "internalType": "address payable",
          "name": "ownerAddress",
          "type": "address"
        },
        {
          "internalType": "address payable",
          "name": "proxyownerAddress",
          "type": "address"
        },
        {
          "internalType": "uint256",
          "name": "registerdate",
          "type": "uint256"
        }
      ],
      "stateMutability": "view",
      "type": "function"
    },
    {
      "inputs": [],
      "name": "landsCount",
      "outputs": [
        {
          "internalType": "uint256",
          "name": "",
          "type": "uint256"
        }
      ],
      "stateMutability": "view",
      "type": "function"
    },
    {
      "inputs": [
        {
          "internalType": "address payable",
          "name": "_receiver",
          "type": "address"
        },
        {
          "internalType": "uint256",
          "name": "_requestId",
          "type": "uint256"
        }
      ],
      "name": "makePayment",
      "outputs": [],
      "stateMutability": "payable",
      "type": "function"
    },
    {
      "inputs": [
        {
          "internalType": "address",
          "name": "id",
          "type": "address"
        }
      ],
      "name": "myAllLands",
      "outputs": [
        {
          "internalType": "uint256[]",
          "name": "",
          "type": "uint256[]"
        }
      ],
      "stateMutability": "view",
      "type": "function"
    },
    {
      "inputs": [],
      "name": "myReceivedLandRequests",
      "outputs": [
        {
          "internalType": "uint256[]",
          "name": "",
          "type": "uint256[]"
        }
      ],
      "stateMutability": "view",
      "type": "function"
    },
    {
      "inputs": [],
      "name": "mySentLandRequests",
      "outputs": [
        {
          "internalType": "uint256[]",
          "name": "",
          "type": "uint256[]"
        }
      ],
      "stateMutability": "view",
      "type": "function"
    },
    {
      "inputs": [
        {
          "internalType": "bytes32",
          "name": "_name",
          "type": "bytes32"
        },
        {
          "internalType": "bytes32",
          "name": "_dob",
          "type": "bytes32"
        },
        {
          "internalType": "bytes32",
          "name": "_city",
          "type": "bytes32"
        },
        {
          "internalType": "bytes32",
          "name": "_district",
          "type": "bytes32"
        },
        {
          "internalType": "uint256",
          "name": "_cinc",
          "type": "uint256"
        },
        {
          "internalType": "string",
          "name": "_document",
          "type": "string"
        },
        {
          "internalType": "string",
          "name": "_profilepic",
          "type": "string"
        },
        {
          "internalType": "bytes32",
          "name": "_email",
          "type": "bytes32"
        },
        {
          "internalType": "bytes32",
          "name": "_phone",
          "type": "bytes32"
        }
      ],
      "name": "registerUser",
      "outputs": [],
      "stateMutability": "nonpayable",
      "type": "function"
    },
    {
      "inputs": [
        {
          "internalType": "address",
          "name": "_addr",
          "type": "address"
        }
      ],
      "name": "removeLandInspector",
      "outputs": [],
      "stateMutability": "nonpayable",
      "type": "function"
    },
    {
      "inputs": [],
      "name": "requestCount",
      "outputs": [
        {
          "internalType": "uint256",
          "name": "",
          "type": "uint256"
        }
      ],
      "stateMutability": "view",
      "type": "function"
    },
    {
      "inputs": [
        {
          "internalType": "uint256",
          "name": "_landId",
          "type": "uint256"
        },
        {
          "internalType": "uint256",
          "name": "_bidPrice",
          "type": "uint256"
        }
      ],
      "name": "requestforBuyWithBid",
      "outputs": [],
      "stateMutability": "nonpayable",
      "type": "function"
    },
    {
      "inputs": [],
      "name": "returnPaymentDoneList",
      "outputs": [
        {
          "internalType": "uint256[]",
          "name": "",
          "type": "uint256[]"
        }
      ],
      "stateMutability": "view",
      "type": "function"
    },
    {
      "inputs": [
        {
          "internalType": "uint256",
          "name": "id",
          "type": "uint256"
        },
        {
          "internalType": "uint256",
          "name": "newarea",
          "type": "uint256"
        },
        {
          "internalType": "uint256",
          "name": "numplots",
          "type": "uint256"
        }
      ],
      "name": "subplot",
      "outputs": [],
      "stateMutability": "nonpayable",
      "type": "function"
    },
    {
      "inputs": [
        {
          "internalType": "address",
          "name": "_addr",
          "type": "address"
        },
        {
          "internalType": "bytes32",
          "name": "_district",
          "type": "bytes32"
        }
      ],
      "name": "tranferPosting",
      "outputs": [],
      "stateMutability": "nonpayable",
      "type": "function"
    },
    {
      "inputs": [
        {
          "internalType": "address",
          "name": "deceased",
          "type": "address"
        }
      ],
      "name": "transferDeceasedOwnership",
      "outputs": [],
      "stateMutability": "nonpayable",
      "type": "function"
    },
    {
      "inputs": [
        {
          "internalType": "uint256",
          "name": "",
          "type": "uint256"
        }
      ],
      "name": "transferInfo",
      "outputs": [
        {
          "internalType": "uint256",
          "name": "id",
          "type": "uint256"
        },
        {
          "internalType": "address",
          "name": "seller",
          "type": "address"
        },
        {
          "internalType": "address",
          "name": "buyer",
          "type": "address"
        },
        {
          "internalType": "address",
          "name": "witness",
          "type": "address"
        },
        {
          "internalType": "address",
          "name": "verfiedby",
          "type": "address"
        },
        {
          "internalType": "uint256",
          "name": "landid",
          "type": "uint256"
        },
        {
          "internalType": "uint256",
          "name": "transferdate",
          "type": "uint256"
        }
      ],
      "stateMutability": "view",
      "type": "function"
    },
    {
      "inputs": [
        {
          "internalType": "uint256",
          "name": "_requestId",
          "type": "uint256"
        },
        {
          "internalType": "string",
          "name": "documentUrl",
          "type": "string"
        },
        {
          "internalType": "address",
          "name": "witness",
          "type": "address"
        }
      ],
      "name": "transferOwnership",
      "outputs": [],
      "stateMutability": "nonpayable",
      "type": "function"
    },
    {
      "inputs": [],
      "name": "userCount",
      "outputs": [
        {
          "internalType": "uint256",
          "name": "",
          "type": "uint256"
        }
      ],
      "stateMutability": "view",
      "type": "function"
    },
    {
      "inputs": [
        {
          "internalType": "address",
          "name": "",
          "type": "address"
        }
      ],
      "name": "userinfo",
      "outputs": [
        {
          "internalType": "address",
          "name": "verfiedby",
          "type": "address"
        },
        {
          "internalType": "uint256",
          "name": "verifydate",
          "type": "uint256"
        },
        {
          "internalType": "enum landregistry.verStatus",
          "name": "verification",
          "type": "uint8"
        }
      ],
      "stateMutability": "view",
      "type": "function"
    },
    {
      "inputs": [
        {
          "internalType": "uint256",
          "name": "_id",
          "type": "uint256"
        },
        {
          "internalType": "bool",
          "name": "accept",
          "type": "bool"
        }
      ],
      "name": "verifyLand",
      "outputs": [],
      "stateMutability": "nonpayable",
      "type": "function"
    },
    {
      "inputs": [
        {
          "internalType": "address",
          "name": "_userId",
          "type": "address"
        },
        {
          "internalType": "bool",
          "name": "accepted",
          "type": "bool"
        }
      ],
      "name": "verifyUser",
      "outputs": [],
      "stateMutability": "nonpayable",
      "type": "function"
    },
    {
      "stateMutability": "payable",
      "type": "receive"
    }
  ],
  "bytecode": "0x608060405234801561001057600080fd5b50600080546001600160a01b03191633179055614cd6806100326000396000f3fe6080604052600436106102765760003560e01c8063836b39791161014f578063b10a30ed116100c1578063dd056ebc1161007a578063dd056ebc146107a9578063de117688146107c9578063e165af87146107e9578063e261f1e514610809578063e749752c14610843578063f98cf07c146108635761027d565b8063b10a30ed146106a4578063c6acafcd146106d7578063cc47e9bd14610708578063d196ebf21461073b578063d251839b1461075b578063d61ff68c146107705761027d565b80639dec448e116101135780639dec448e14610600578063a846fc8f14610620578063a84e3bdd14610635578063aad61de8146103a6578063ab9f38ea14610655578063ace417e0146106845761027d565b8063836b397914610567578063935400ee14610587578063941e2426146105a75780639446ec9f146105bc5780639c32e3b4146105eb5761027d565b80634d500c0e116101e85780635ccfe7c3116101ac5780635ccfe7c31461049f57806364efa002146104bf578063690a3ca9146104f25780637517e00f1461051257806378f7c83f146105325780637e7ed032146105475761027d565b80634d500c0e146103fb5780634f3897211461041b578063553a998d1461044857806358051d931461046a5780635badbe4c1461048a5761027d565b8063314967ac1161023a578063314967ac1461034457806332f2bb14146103665780633ead67b5146103865780633fbc33a2146103a657806343e8349a146103c6578063499701b2146103e65761027d565b806307973ccf1461028257806312ca3f1f146102ad578063145678de146102da5780631c9afd0f1461030d57806323393d77146103225761027d565b3661027d57005b600080fd5b34801561028e57600080fd5b50610297610876565b6040516102a491906149d1565b60405180910390f35b3480156102b957600080fd5b506102cd6102c8366004614388565b61087c565b6040516102a491906148d0565b3480156102e657600080fd5b506102fa6102f5366004614388565b6108c9565b6040516102a49796959493929190614aa8565b34801561031957600080fd5b50610297610910565b34801561032e57600080fd5b50610337610916565b6040516102a49190614898565b34801561035057600080fd5b5061036461035f366004614520565b610996565b005b34801561037257600080fd5b506102cd610381366004614222565b610d4b565b34801561039257600080fd5b506103646103a1366004614222565b610d60565b3480156103b257600080fd5b506103646103c136600461429d565b610d92565b3480156103d257600080fd5b506103646103e13660046144c7565b610df1565b3480156103f257600080fd5b50610337611323565b34801561040757600080fd5b506102cd6104163660046142af565b611382565b34801561042757600080fd5b5061043b610436366004614388565b611747565b6040516102a4919061480d565b34801561045457600080fd5b5061045d611802565b6040516102a491906147c0565b34801561047657600080fd5b50610364610485366004614610565b61188b565b34801561049657600080fd5b506102976123b3565b3480156104ab57600080fd5b506103646104ba3660046143dd565b6123b9565b3480156104cb57600080fd5b506104df6104da366004614222565b612617565b6040516102a49796959493929190614a6d565b3480156104fe57600080fd5b5061036461050d3660046143dd565b61265f565b34801561051e57600080fd5b5061036461052d366004614222565b612865565b34801561053e57600080fd5b50610297612a77565b34801561055357600080fd5b50610364610562366004614269565b612a7d565b34801561057357600080fd5b506103646105823660046143a0565b612c2a565b34801561059357600080fd5b506103646105a23660046143ff565b612d29565b3480156105b357600080fd5b50610297612f7d565b3480156105c857600080fd5b506105dc6105d7366004614222565b612f83565b6040516102a493929190614794565b3480156105f757600080fd5b50610337612fb1565b34801561060c57600080fd5b5061036461061b3660046145ef565b613010565b34801561062c57600080fd5b50610337613379565b34801561064157600080fd5b50610364610650366004614222565b6133f7565b34801561066157600080fd5b50610675610670366004614388565b6136af565b6040516102a4939291906146ad565b34801561069057600080fd5b506102cd61069f366004614222565b6136d0565b3480156106b057600080fd5b506106c46106bf366004614388565b6136f1565b6040516102a497969594939291906149da565b3480156106e357600080fd5b506106f76106f2366004614388565b613740565b6040516102a4959493929190614757565b34801561071457600080fd5b50610728610723366004614388565b61377e565b6040516102a49796959493929190614a2f565b34801561074757600080fd5b50610337610756366004614222565b6137cb565b34801561076757600080fd5b5061045d613837565b34801561077c57600080fd5b5061079061078b366004614222565b6138ad565b6040516102a49d9c9b9a999897969594939291906146c3565b3480156107b557600080fd5b506102cd6107c4366004614222565b613a34565b3480156107d557600080fd5b506102cd6107e4366004614222565b613a49565b3480156107f557600080fd5b506102cd610804366004614222565b613a70565b34801561081557600080fd5b50610829610824366004614388565b613a99565b6040516102a49e9d9c9b9a99989796959493929190614ae1565b34801561084f57600080fd5b5061036461085e3660046142e3565b613d36565b61036461087136600461423e565b613f3c565b60025481565b6000805b60035481116108be576000818152600d60205260409020600101548314156108ac5760019150506108c4565b806108b681614c0e565b915050610880565b50600090505b919050565b601460205260009081526040902080546001820154600283015460038401546004850154600586015460069096015494959394929391926001600160a01b03909116919087565b60035481565b6001600052601160209081527f17bc176d2408558f6e4111feebc3cab4e16b63e967be91cde721f4c8a488b552805460408051828502810185019091528181526060939092919083018282801561098c57602002820191906000526020600020905b815481526020019060010190808311610978575b5050505050905090565b336000908152600660205260409020600a015460ff1680156109be57506109bc8361087c565b155b80156109ca5750600088115b80156109ee5750336000908152600660205260409020600a0154610100900460ff16155b1561027d5760038054906000610a0383614c0e565b9091555050604080516101c0810182526003805480835260208084018881528486018e8152606086018c8152608087018f815260a088018f905260c088018d905260e088018b905261010088018a9052600061012089018190526101408901819052336101608a015280546001600160a01b03166101808a0152426101a08a0152958652600d855297909420865181559151600183015551600282015591519282019290925592518051929392610ac092600485019201906140f8565b5060a0820151600582015560c08201518051610ae69160068401916020909101906140f8565b5060e08201518051610b029160078401916020909101906140f8565b506101008201518051610b1f9160088401916020909101906140f8565b506101208201518160090160006101000a81548160ff0219169083151502179055506101408201518160090160016101000a81548160ff0219169083151502179055506101608201518160090160026101000a8154816001600160a01b0302191690836001600160a01b0316021790555061018082015181600a0160006101000a8154816001600160a01b0302191690836001600160a01b031602179055506101a082015181600b0155905050600c6000336001600160a01b03166001600160a01b031681526020019081526020016000206003549080600181540180825580915050600190039060005260206000200160009091909190915055601160006001815260200190815260200160002060035490806001815401808255809150506001900390600052602060002001600090919091909150556013600060035481526020019081526020016000206040518060e00160405280600354815260200160008152602001600081526020018a8152602001336001600160a01b03168152602001428152602001600081525090806001815401808255809150506001900390600052602060002090600702016000909190919091506000820151816000015560208201518160010155604082015181600201556060820151816003015560808201518160040160006101000a8154816001600160a01b0302191690836001600160a01b0316021790555060a0820151816005015560c0820151816006015550505050505050505050565b600b6020526000908152604090205460ff1681565b6000546001600160a01b0316331415610d8f57600080546001600160a01b0319166001600160a01b0383161790555b50565b6000546001600160a01b031633148015610dc957506001600160a01b03821660009081526009602052604090205460ff1615156001145b1561027d576001600160a01b03821660009081526007602052604090206003018190555b5050565b610dfa33613a70565b8015610e1757506000838152600e602052604090206006015460ff165b8015610e5257506000838152600e602090815260408083206003908101548452600d8352818420600501543385526007909352922090910154145b8015610e7957506001600160a01b0381166000908152600660205260409020600a015460ff165b8015610ea257506000838152600e60205260409020600101546001600160a01b03828116911614155b8015610ecb57506000838152600e60205260409020600201546001600160a01b03828116911614155b1561027d5760048054906000610ee083614c0e565b90915550506000838152600e602090815260408083206004808201805460ff1916909117905560028101546001600160a01b039081168552600c84528285206003830154815460018181018455928852958720909501949094559201549091168252812054905b818110156110ce576000858152600e6020908152604080832060038101546001909101546001600160a01b03168452600c909252909120805483908110610f9e57634e487b7160e01b600052603260045260246000fd5b906000526020600020015414156110bc576000858152600e602090815260408083206001908101546001600160a01b03168452600c90925290912090610fe49084614bbc565b8154811061100257634e487b7160e01b600052603260045260246000fd5b6000918252602080832090910154878352600e82526040808420600101546001600160a01b03168452600c909252912080548390811061105257634e487b7160e01b600052603260045260246000fd5b6000918252602080832090910192909255868152600e82526040808220600101546001600160a01b03168252600c909252208054806110a157634e487b7160e01b600052603160045260246000fd5b600190038181906000526020600020016000905590556110ce565b806110c681614c0e565b915050610f47565b506040518060e001604052806004548152602001600e600087815260200190815260200160002060010160009054906101000a90046001600160a01b03166001600160a01b03168152602001600e600087815260200190815260200160002060020160009054906101000a90046001600160a01b03166001600160a01b03168152602001836001600160a01b03168152602001336001600160a01b03168152602001600e6000878152602001908152602001600020600301548152602001428152506018600060045481526020019081526020016000206000820151816000015560208201518160010160006101000a8154816001600160a01b0302191690836001600160a01b0316021790555060408201518160020160006101000a8154816001600160a01b0302191690836001600160a01b0316021790555060608201518160030160006101000a8154816001600160a01b0302191690836001600160a01b0316021790555060808201518160040160006101000a8154816001600160a01b0302191690836001600160a01b0316021790555060a0820151816005015560c0820151816006015590505082600d6000600e600088815260200190815260200160002060030154815260200190815260200160002060070190805190602001906112ba9291906140f8565b50506000838152600e602090815260408083206003810180548552600d9093528184206009908101805460ff19169055600290910154925484529220909101805462010000600160b01b0319166001600160a01b0390921662010000029190911790555b505050565b336000908152600f602090815260409182902080548351818402810184019094528084526060939283018282801561098c5760200282019190600052602060002090815481526020019060010190808311610978575050505050905090565b600080546001600160a01b0316331480156113ba57506001600160a01b0384166000908152600b602052604090205460ff1615156001145b80156113df57506001600160a01b03841660009081526009602052604090205460ff16155b1561027d5760005b60015481101561148957600160009081526008602052600080516020614c81833981519152805460079291908490811061143157634e487b7160e01b600052603260045260246000fd5b60009182526020808320909101546001600160a01b0390811684528382019490945260409283018220600201549389168252600690522060050154141561147757600080fd5b8061148181614c0e565b9150506113e7565b506001600160a01b0384166000908152600960205260408120805460ff191660019081179091558054916114bc83614c0e565b91905055506008600060018152602001908152602001600020849080600181540180825580915050600190039060005260206000200160009091909190916101000a8154816001600160a01b0302191690836001600160a01b031602179055506040518060e001604052806001548152602001856001600160a01b0316815260200160066000876001600160a01b03166001600160a01b03168152602001908152602001600020600501548152602001848152602001838152602001336001600160a01b031681526020014281525060076000866001600160a01b03166001600160a01b031681526020019081526020016000206000820151816000015560208201518160010160006101000a8154816001600160a01b0302191690836001600160a01b0316021790555060408201518160020155606082015181600301556080820151816004015560a08201518160050160006101000a8154816001600160a01b0302191690836001600160a01b0316021790555060c08201518160060155905050600160066000866001600160a01b03166001600160a01b03168152602001908152602001600020600a0160006101000a81548160ff0219169083151502179055506040518060600160405280336001600160a01b031681526020014281526020016003808111156116c057634e487b7160e01b600052602160045260246000fd5b90526001600160a01b03858116600090815260166020908152604091829020845181546001600160a01b0319169416939093178355830151600180840191909155908301516002830180549192909160ff19169083600381111561173457634e487b7160e01b600052602160045260246000fd5b02179055506001925050505b9392505050565b606060136000838152602001908152602001600020805480602002602001604051908101604052809291908181526020016000905b828210156117f75760008481526020908190206040805160e0810182526007860290920180548352600180820154848601526002820154928401929092526003810154606084015260048101546001600160a01b03166080840152600581015460a08401526006015460c0830152908352909201910161177c565b505050509050919050565b6001600052600a60209081527fbbc70db1b6c7afd11e79c0fb0051300458f1a3acb8ee9789d9b6b26c61ad9bc7805460408051828502810185019091528181526060939092919083018282801561098c57602002820191906000526020600020905b81546001600160a01b03168152600190910190602001808311611864575050505050905090565b336000908152600660205260409020600a015460ff1680156118c357506000838152600d6020526040902060090154610100900460ff165b80156118ee57506000838152600d60205260409020600901546201000090046001600160a01b031633145b80156118fa5750600081115b801561191657506000838152600d602052604090206002015482105b801561193457506000838152600d602052604090206009015460ff16155b80156119585750336000908152600660205260409020600a0154610100900460ff16155b1561027d576000838152600d6020908152604080832060019081015460139093529083208054929392909161198c91614bbc565b815481106119aa57634e487b7160e01b600052603260045260246000fd5b9060005260206000209060070201905060008382600101546119cc9190614ba4565b905060015b8481111580156119f257506000878152600d60205260409020600201548611155b156123aa576000878152600d602052604081206002018054889290611a18908490614bbc565b909155505060038054906000611a2d83614c0e565b919050555060004260035486604051602001611a4b939291906146ad565b60408051601f1981840301815282825280516020918201206101c0840183526003805485528483018290528484018c905260008d8152600d8085529481209182015460608701528d905292909152600490910180549193506080830191611ab190614bd3565b80601f0160208091040260200160405190810160405280929190818152602001828054611add90614bd3565b8015611b2a5780601f10611aff57610100808354040283529160200191611b2a565b820191906000526020600020905b815481529060010190602001808311611b0d57829003601f168201915b50505050508152602001600d60008b8152602001908152602001600020600501548152602001600d60008b81526020019081526020016000206006018054611b7190614bd3565b80601f0160208091040260200160405190810160405280929190818152602001828054611b9d90614bd3565b8015611bea5780601f10611bbf57610100808354040283529160200191611bea565b820191906000526020600020905b815481529060010190602001808311611bcd57829003601f168201915b50505050508152602001600d60008b81526020019081526020016000206007018054611c1590614bd3565b80601f0160208091040260200160405190810160405280929190818152602001828054611c4190614bd3565b8015611c8e5780601f10611c6357610100808354040283529160200191611c8e565b820191906000526020600020905b815481529060010190602001808311611c7157829003601f168201915b50505050508152602001600d60008b81526020019081526020016000206008018054611cb990614bd3565b80601f0160208091040260200160405190810160405280929190818152602001828054611ce590614bd3565b8015611d325780601f10611d0757610100808354040283529160200191611d32565b820191906000526020600020905b815481529060010190602001808311611d1557829003601f168201915b50505091835250506000602080830182905260408084018390523360608086019190915283546001600160a01b03166080808701919091524260a090960195909552600380548552600d84529382902086518155868401516001820155918601516002830155850151928101929092559183015180519192611dbc926004850192909101906140f8565b5060a0820151600582015560c08201518051611de29160068401916020909101906140f8565b5060e08201518051611dfe9160078401916020909101906140f8565b506101008201518051611e1b9160088401916020909101906140f8565b506101208201518160090160006101000a81548160ff0219169083151502179055506101408201518160090160016101000a81548160ff0219169083151502179055506101608201518160090160026101000a8154816001600160a01b0302191690836001600160a01b0316021790555061018082015181600a0160006101000a8154816001600160a01b0302191690836001600160a01b031602179055506101a082015181600b0155905050600c6000336001600160a01b03166001600160a01b031681526020019081526020016000206003549080600181540180825580915050600190039060005260206000200160009091909190915055601160006001815260200190815260200160002060035490806001815401808255809150506001900390600052602060002001600090919091909150556013600060035481526020019081526020016000206040518060e001604052808a81526020016000815260200160008152602001898152602001336001600160a01b03168152602001428152602001600081525090806001815401808255809150506001900390600052602060002090600702016000909190919091506000820151816000015560208201518160010155604082015181600201556060820151816003015560808201518160040160006101000a8154816001600160a01b0302191690836001600160a01b0316021790555060a0820151816005015560c0820151816006015550506040518060a00160405280601560008b815260200190815260200160002060000160009054906101000a90046001600160a01b03166001600160a01b03168152602001601560008b815260200190815260200160002060010154815260200160001515815260200160008152602001601560008b815260200190815260200160002060040160009054906101000a900460ff1660038111156120ed57634e487b7160e01b600052602160045260246000fd5b905260038054600090815260156020908152604091829020845181546001600160a01b039091166001600160a01b0319909116178155908401516001808301919091559184015160028201805491151560ff1992831617905560608501518285015560808501516004830180549395919490939092169190849081111561218457634e487b7160e01b600052602160045260246000fd5b0217905550506040805160a08101825260008b81526015602081815284832080546001600160a01b03168552600180820154838701529585019590955260608401899052918d90529052600490910154909150608082019060ff1660038111156121fe57634e487b7160e01b600052602160045260246000fd5b9052600089815260156020908152604091829020835181546001600160a01b039091166001600160a01b0319909116178155908301516001808301919091559183015160028201805491151560ff19928316179055606084015160038084019190915560808501516004840180549495919490931691849081111561229357634e487b7160e01b600052602160045260246000fd5b0217905550905050601360008981526020019081526020016000206040518060e001604052808a81526020018581526020016003548152602001898152602001336001600160a01b03168152602001600d60008c8152602001908152602001600020600b015481526020014281525090806001815401808255809150506001900390600052602060002090600702016000909190919091506000820151816000015560208201518160010155604082015181600201556060820151816003015560808201518160040160006101000a8154816001600160a01b0302191690836001600160a01b0316021790555060a0820151816005015560c0820151816006015550505080806123a290614c0e565b9150506119d1565b5050505061131e565b60055481565b6123c233613a70565b80156123ee57506000828152600d60205260409020600901546201000090046001600160a01b03163314155b801561242a57506000828152600d60209081526040808320600901546201000090046001600160a01b0316835260069091529020600a015460ff165b801561245757506000828152600d6020908152604080832060050154338452600790925290912060030154145b1561027d57801561253a576000828152600d60209081526040808320600901805461ff001916610100179055805160a081018252338152428184019081526001828401818152888752601580875294872060038082018054606088019081526002608089018181529b8e905298909952865183546001600160a01b039091166001600160a01b03199091161783559451828501559151958101805496151560ff19978816179055955190925594516004850180549396919490931691849081111561253257634e487b7160e01b600052602160045260246000fd5b021790555050505b80612612576000828152600d60209081526040808320600901805461ff0019169055805160a08101825233815242818401908152600182840181815288875260158087529487206003808201805460608801908152608088018681529a8d905297909852855182546001600160a01b039091166001600160a01b0319909116178255935181840155905160028201805491151560ff19928316179055945190955594516004850180549396919490931691849081111561260a57634e487b7160e01b600052602160045260246000fd5b021790555050505b610ded565b600760205260009081526040902080546001820154600283015460038401546004850154600586015460069096015494956001600160a01b0394851695939492939192169087565b6000828152600e60205260409020600101546001600160a01b031633146126a15760405162461bcd60e51b815260040161269890614982565b60405180910390fd5b6000828152600e6020526040902060049081015460ff16818111156126d657634e487b7160e01b600052602160045260246000fd5b14158015612719575060036000838152600e6020526040902060049081015460ff169081111561271657634e487b7160e01b600052602160045260246000fd5b14155b6127355760405162461bcd60e51b815260040161269890614908565b8015612846576000828152600e6020526040902060050154156127a057604080516060810182528381526000848152600e6020908152838220600380820154808552600d80855287862090920180548588015260059093015495909601859052949092529290925290555b6000828152600e6020526040902060048101805460ff191660021790556003015460015b600554811161283f576000818152600e6020526040902060030154821480156127ed5750838114155b801561280b57506000818152600e602052604090206006015460ff16155b1561282d576000818152600e60205260409020600401805460ff191660011790555b8061283781614c0e565b9150506127c4565b5050610ded565b506000908152600e60205260409020600401805460ff19166001179055565b6000546001600160a01b03163314801561289757506001600160a01b03811660009081526009602052604090205460ff165b1561027d576001600160a01b03811660009081526009602090815260408220805460ff191690556001825260089052600080516020614c8183398151915254905b81811015612a705760016000526008602052600080516020614c8183398151915280546001600160a01b03851691908390811061292557634e487b7160e01b600052603260045260246000fd5b6000918252602090912001546001600160a01b03161415612a5e57600160008190526008602052600080516020614c81833981519152906129669084614bbc565b8154811061298457634e487b7160e01b600052603260045260246000fd5b6000918252602080832090910154600190925260089052600080516020614c8183398151915280546001600160a01b0390921691839081106129d657634e487b7160e01b600052603260045260246000fd5b600091825260208083209190910180546001600160a01b0319166001600160a01b0394909416939093179092556001905260089052600080516020614c81833981519152805480612a3757634e487b7160e01b600052603160045260246000fd5b600082815260209020810160001990810180546001600160a01b0319169055019055612a70565b80612a6881614c0e565b9150506128d8565b5050610d8f565b60045481565b612a8633613a70565b8015612a9b57506001600160a01b0382163314155b8015612ad25750336000908152600760209081526040808320600301546001600160a01b0386168452600690925290912060040154145b1561027d578015612b87576001600160a01b038281166000818152600660209081526040808320600a01805460ff1990811660019081179092558251606081018452338152428186019081526002828601818152988852601690965293909520855181546001600160a01b03191698169790971787559151868201559351918501805493959492939092911690836003811115612b7f57634e487b7160e01b600052602160045260246000fd5b021790555050505b80612612576001600160a01b038281166000818152600660209081526040808320600a01805460ff199081169091558151606081018352338152428185019081526001828501818152978752601690955292909420845181546001600160a01b031916971696909617865590518583015592516002850180549395949193909291169083600381111561260a57634e487b7160e01b600052602160045260246000fd5b6000838152600d60205260409020600901546201000090046001600160a01b031633148015612c6f57506000838152600d6020526040902060090154610100900460ff165b8015612c8d57506000838152600d602052604090206009015460ff16155b1561027d578015612cc3576000838152600d60205260409020600a0180546001600160a01b0319166001600160a01b0384161790555b80158015612ced57506000838152600d60205260409020600a01546001600160a01b038381169116145b15612d245760008054848252600d6020526040909120600a0180546001600160a01b0319166001600160a01b039092169190911790555b61131e565b6000898152600d60209081526040808320600901546201000090046001600160a01b03168352600f825280832080548251818502810185019093528083528493830182828015612d9857602002820191906000526020600020905b815481526020019060010190808311612d84575b5050505050905060005b8151811015612e31578b600e6000848481518110612dd057634e487b7160e01b600052603260045260246000fd5b60200260200101518152602001908152602001600020600301541415612e1f57818181518110612e1057634e487b7160e01b600052603260045260246000fd5b60200260200101519250612e31565b80612e2981614c0e565b915050612da2565b506000828152600e6020908152604080832060068101546004909101548f8552600d90935292206009015460ff9283169291909116906201000090046001600160a01b031633148015612e9a575060008d8152600d6020526040902060090154610100900460ff165b8015612ea4575081155b8015612ed057506002816004811115612ecd57634e487b7160e01b600052602160045260246000fd5b14155b1561027d578b15612ef95760008d8152600d60205260409020600901805460ff19168915151790555b8a15612f145760008d8152600d602052604090206003018790555b8915612f415760008d8152600d602090815260409091208751612f3f926008909201918901906140f8565b505b8815612f6e5760008d8152600d602090815260409091208651612f6c926006909201918801906140f8565b505b50505050505050505050505050565b60015481565b6016602052600090815260409020805460018201546002909201546001600160a01b03909116919060ff1683565b3360009081526010602090815260409182902080548351818402810184019094528084526060939283018282801561098c5760200282019190600052602060002090815481526020019060010190808311610978575050505050905090565b6000828152600d60209081526040808320600901546201000090046001600160a01b03168352600f82528083208054825181850281018501909352808352849383018282801561307f57602002820191906000526020600020905b81548152602001906001019080831161306b575b5050505050905060005b81518110156131185784600e60008484815181106130b757634e487b7160e01b600052603260045260246000fd5b60200260200101518152602001908152602001600020600301541415613106578181815181106130f757634e487b7160e01b600052603260045260246000fd5b60200260200101519250613118565b8061311081614c0e565b915050613089565b506000828152600e6020908152604080832060068082015460049092015433865293529220600a015460ff928316929182169116801561316e57506000868152600d6020526040902060090154610100900460ff165b801561319a57506000868152600d60205260409020600901546201000090046001600160a01b03163314155b80156131a4575081155b80156131d0575060028160048111156131cd57634e487b7160e01b600052602160045260246000fd5b14155b80156131fc575060048160048111156131f957634e487b7160e01b600052602160045260246000fd5b14155b1561027d576005805490600061321183614c0e565b90915550506040805160e0810182526005548082526000898152600d6020908152848220600901546201000090046001600160a01b0390811682860190815233868801908152606087018e81526080880186815260a089018f905260c08901879052968652600e90945296909320855181559251600180850180549284166001600160a01b03199384161790559651600285018054919093169116179055516003820155905160048083018054949593949293909260ff19169184908111156132ea57634e487b7160e01b600052602160045260246000fd5b021790555060a082015160058281019190915560c0909201516006909101805460ff19169115159190911790556000878152600d60209081526040808320600901546201000090046001600160a01b03168352600f8252808320845481546001818101845592865284862001553384526010835290832093548454918201855593835291200155505050505050565b6001600052601260209081527f71a67924699a20698523213e55fe499d539379d7769cd5567e2c45d583f815a3805460408051828502810185019091528181526060939092919083018282801561098c5760200282019190600052602060002090815481526020019060010190808311610978575050505050905090565b61340033613a70565b61340957600080fd5b6001600160a01b0381166000908152600660209081526040808320600a01805461ff001916610100179055600c82528083208054825181850281018501909352808352919290919083018282801561348057602002820191906000526020600020905b81548152602001906001019080831161346c575b5050505050905060005b815181101561131e5760008282815181106134b557634e487b7160e01b600052603260045260246000fd5b6020908102919091018101516000818152600d90925260409091206009810154919250906001600160a01b03868116620100009092041614801561350e5750600581015433600090815260076020526040902060030154145b1561369a576004805490600061352383614c0e565b9091555050600981018054600a83015461ff01600160b01b03199091166001600160a01b03918216620100008102919091179092556000918252600c60209081526040808420805460018101825590855291842090910185905590871682528120905b815481101561367357838282815481106135b057634e487b7160e01b600052603260045260246000fd5b9060005260206000200154141561366157815482906135d190600190614bbc565b815481106135ef57634e487b7160e01b600052603260045260246000fd5b906000526020600020015482828154811061361a57634e487b7160e01b600052603260045260246000fd5b90600052602060002001819055508180548061364657634e487b7160e01b600052603160045260246000fd5b60019003818190600052602060002001600090559055613673565b8061366b81614c0e565b915050613586565b5050600054600a820180546001600160a01b0319166001600160a01b039092169190911790555b505080806136a790614c0e565b91505061348a565b60176020526000908152604090208054600182015460029092015490919083565b6001600160a01b03166000908152600660205260409020600a015460ff1690565b600e60205260009081526040902080546001820154600283015460038401546004850154600586015460069096015494956001600160a01b03948516959390941693919260ff91821692911687565b601560205260009081526040902080546001820154600283015460038401546004909401546001600160a01b0390931693919260ff91821692911685565b601860205260009081526040902080546001820154600283015460038401546004850154600586015460069096015494956001600160a01b03948516959385169492831693929091169187565b6001600160a01b0381166000908152600c602090815260409182902080548351818402810184019094528084526060939283018282801561382b57602002820191906000526020600020905b815481526020019060010190808311613817575b50505050509050919050565b600160005260086020908152600080516020614c81833981519152805460408051828502810185019091528181526060939092919083018282801561098c576020028201919060005260206000209081546001600160a01b03168152600190910190602001808311611864575050505050905090565b600660208190526000918252604090912080546001820154600283015460038401546004850154600586015496860180546001600160a01b0390961697949693959294919391926138fd90614bd3565b80601f016020809104026020016040519081016040528092919081815260200182805461392990614bd3565b80156139765780601f1061394b57610100808354040283529160200191613976565b820191906000526020600020905b81548152906001019060200180831161395957829003601f168201915b50505050509080600701805461398b90614bd3565b80601f01602080910402602001604051908101604052809291908181526020018280546139b790614bd3565b8015613a045780601f106139d957610100808354040283529160200191613a04565b820191906000526020600020905b8154815290600101906020018083116139e757829003601f168201915b5050505060088301546009840154600a850154600b909501549394919390925060ff80831692610100900416908d565b60096020526000908152604090205460ff1681565b600080546001600160a01b0383811691161415613a68575060016108c4565b5060006108c4565b6001600160a01b03811660009081526009602052604081205460ff1615613a68575060016108c4565b600d60205260009081526040902080546001820154600283015460038401546004850180549495939492939192613acf90614bd3565b80601f0160208091040260200160405190810160405280929190818152602001828054613afb90614bd3565b8015613b485780601f10613b1d57610100808354040283529160200191613b48565b820191906000526020600020905b815481529060010190602001808311613b2b57829003601f168201915b505050505090806005015490806006018054613b6390614bd3565b80601f0160208091040260200160405190810160405280929190818152602001828054613b8f90614bd3565b8015613bdc5780601f10613bb157610100808354040283529160200191613bdc565b820191906000526020600020905b815481529060010190602001808311613bbf57829003601f168201915b505050505090806007018054613bf190614bd3565b80601f0160208091040260200160405190810160405280929190818152602001828054613c1d90614bd3565b8015613c6a5780601f10613c3f57610100808354040283529160200191613c6a565b820191906000526020600020905b815481529060010190602001808311613c4d57829003601f168201915b505050505090806008018054613c7f90614bd3565b80601f0160208091040260200160405190810160405280929190818152602001828054613cab90614bd3565b8015613cf85780601f10613ccd57610100808354040283529160200191613cf8565b820191906000526020600020905b815481529060010190602001808311613cdb57829003601f168201915b5050506009840154600a850154600b90950154939460ff80831695610100840490911694506001600160a01b0362010000909304831693509116908e565b336000908152600b602052604090205460ff16151560011415613d6b5760405162461bcd60e51b8152600401612698906148db565b336000908152600b60205260408120805460ff191660011790556002805491613d9383614c0e565b90915550507fbbc70db1b6c7afd11e79c0fb0051300458f1a3acb8ee9789d9b6b26c61ad9bc7805460018082019092557fed65b032d5a5fa3a5b6544566ee46a0f6b8fe8b1375ec878dc3be6580b078495018054336001600160a01b03199182168117909255604080516101a08101825283815260208082018f81528284018f8152606084018f8152608085018f815260a086018f815260c087018f815260e088018f905261010088018e905261012088018d9052600061014089018190526101608901819052426101808a01529a8b52600680885298909a2087518154909a166001600160a01b03909a169990991789559351998801999099559051600287015551600386015595516004850155945160058401559251805193949293613ec3939285019291909101906140f8565b5060e08201518051613edf9160078401916020909101906140f8565b506101008281015160088301556101208301516009830155610140830151600a8301805461016086015160ff199091169215159290921761ff00191691151590920217905561018090910151600b90910155505050505050505050565b6000818152600e60205260409020600201546001600160a01b031633148015613f99575060026000828152600e6020526040902060049081015460ff1690811115613f9757634e487b7160e01b600052602160045260246000fd5b145b8015613fda575060036000828152600e6020526040902060049081015460ff1690811115613fd757634e487b7160e01b600052602160045260246000fd5b14155b801561400257506000818152600e60205260409020600101546001600160a01b038381169116145b801561402f57506000818152600e602090815260408083206003908101548452600d909252909120015434145b1561027d576000818152600e60209081526040808320600481018054600360ff199182161790915560069091018054909116600190811790915560129092527f71a67924699a20698523213e55fe499d539379d7769cd5567e2c45d583f815a38054928301815583527f09d3634ec98b7a093f4c560246b0e10c09e0e06c46ca9be08ca93e6cf08d8d13909101839055516001600160a01b038416913480156108fc02929091818181858888f193505050501580156140f2573d6000803e3d6000fd5b50610ded565b82805461410490614bd3565b90600052602060002090601f016020900481019282614126576000855561416c565b82601f1061413f57805160ff191683800117855561416c565b8280016001018555821561416c579182015b8281111561416c578251825591602001919060010190614151565b5061417892915061417c565b5090565b5b80821115614178576000815560010161417d565b803580151581146108c457600080fd5b600082601f8301126141b1578081fd5b813567ffffffffffffffff808211156141cc576141cc614c55565b604051601f8301601f1916810160200182811182821017156141f0576141f0614c55565b604052828152848301602001861015614207578384fd5b82602086016020830137918201602001929092529392505050565b600060208284031215614233578081fd5b813561174081614c6b565b60008060408385031215614250578081fd5b823561425b81614c6b565b946020939093013593505050565b6000806040838503121561427b578182fd5b823561428681614c6b565b915061429460208401614191565b90509250929050565b60008060408385031215614250578182fd5b6000806000606084860312156142c3578081fd5b83356142ce81614c6b565b95602085013595506040909401359392505050565b60008060008060008060008060006101208a8c031215614301578485fd5b8935985060208a0135975060408a0135965060608a0135955060808a0135945060a08a013567ffffffffffffffff8082111561433b578586fd5b6143478d838e016141a1565b955060c08c013591508082111561435c578485fd5b506143698c828d016141a1565b93505060e08a013591506101008a013590509295985092959850929598565b600060208284031215614399578081fd5b5035919050565b6000806000606084860312156143b4578283fd5b8335925060208401356143c681614c6b565b91506143d460408501614191565b90509250925092565b600080604083850312156143ef578182fd5b8235915061429460208401614191565b60008060008060008060008060006101208a8c03121561441d578485fd5b8935985061442d60208b01614191565b975061443b60408b01614191565b965061444960608b01614191565b955061445760808b01614191565b945061446560a08b01614191565b935060c08a0135925060e08a013567ffffffffffffffff80821115614488578384fd5b6144948d838e016141a1565b93506101008c01359150808211156144aa578283fd5b506144b78c828d016141a1565b9150509295985092959850929598565b6000806000606084860312156144db578283fd5b83359250602084013567ffffffffffffffff8111156144f8578283fd5b614504868287016141a1565b925050604084013561451581614c6b565b809150509250925092565b600080600080600080600080610100898b03121561453c578182fd5b88359750602089013567ffffffffffffffff8082111561455a578384fd5b6145668c838d016141a1565b985060408b0135975060608b0135965060808b0135915080821115614589578384fd5b6145958c838d016141a1565b955060a08b0135945060c08b01359150808211156145b1578384fd5b6145bd8c838d016141a1565b935060e08b01359150808211156145d2578283fd5b506145df8b828c016141a1565b9150509295985092959890939650565b60008060408385031215614601578182fd5b50508035926020909101359150565b600080600060608486031215614624578081fd5b505081359360208301359350604090920135919050565b6001600160a01b03169052565b15159052565b6004811061465e5761465e614c3f565b9052565b60008151808452815b818110156146875760208185018101518683018201520161466b565b818111156146985782602083870101525b50601f01601f19169290920160200192915050565b9283526020830191909152604082015260600190565b600060018060a01b038f1682528d60208301528c60408301528b60608301528a60808301528960a08301526101a060c08301526147046101a083018a614662565b82810360e0840152614716818a614662565b915050866101008301528561012083015284151561014083015261473e610160830185614648565b826101808301529e9d5050505050505050505050505050565b6001600160a01b03861681526020810185905283151560408201526060810183905260a0810161478a608083018461464e565b9695505050505050565b6001600160a01b038416815260208101839052606081016147b8604083018461464e565b949350505050565b6020808252825182820181905260009190848201906040850190845b818110156148015783516001600160a01b0316835292840192918401916001016147dc565b50909695505050505050565b602080825282518282018190526000919060409081850190868401855b8281101561488b5781518051855286810151878601528581015186860152606080820151908601526080808201516001600160a01b03169086015260a0808201519086015260c0908101519085015260e0909301929085019060010161482a565b5091979650505050505050565b6020808252825182820181905260009190848201906040850190845b81811015614801578351835292840192918401916001016148b4565b901515815260200190565b602080825260139082015272105b1b1c995859195e481c9959da5cdd195c99606a1b604082015260600190565b60208082526054908201527f52657175657374206d757374206e6f7420626520696e20277061796d656e746460408201527f6f6e65206f7220636f6d706c65746564272073746174757320746f206265206160608201527331b1b2b83a32b21037b9103932b532b1ba32b21760611b608082015260a00190565b6020808252602f908201527f4f6e6c79207468652073656c6c65722063616e20616363657074206f7220726560408201526e3532b1ba1030903932b8bab2b9ba1760891b606082015260800190565b90815260200190565b8781526001600160a01b038781166020830152861660408201526060810185905260e0810160058510614a0f57614a0f614c3f565b8460808301528360a083015282151560c083015298975050505050505050565b9687526001600160a01b03958616602088015293851660408701529184166060860152909216608084015260a083019190915260c082015260e00190565b9687526001600160a01b03958616602088015260408701949094526060860192909252608085015290911660a083015260c082015260e00190565b9687526020870195909552604086019390935260608501919091526001600160a01b0316608084015260a083015260c082015260e00190565b60008f82528e60208301528d60408301528c60608301526101c06080830152614b0e6101c083018d614662565b8b60a084015282810360c0840152614b26818c614662565b905082810360e0840152614b3a818b614662565b9050828103610100840152614b4f818a614662565b915050614b60610120830188614648565b614b6e610140830187614648565b614b7c61016083018661463b565b614b8a61018083018561463b565b826101a08301529f9e505050505050505050505050505050565b60008219821115614bb757614bb7614c29565b500190565b600082821015614bce57614bce614c29565b500390565b600281046001821680614be757607f821691505b60208210811415614c0857634e487b7160e01b600052602260045260246000fd5b50919050565b6000600019821415614c2257614c22614c29565b5060010190565b634e487b7160e01b600052601160045260246000fd5b634e487b7160e01b600052602160045260246000fd5b634e487b7160e01b600052604160045260246000fd5b6001600160a01b0381168114610d8f57600080fdfead67d757c34507f157cacfa2e3153e9f260a2244f30428821be7be64587ac55fa2646970667358221220fa4694faea769f2e7538a73f3f40b060a2e653f8bdaaf0737577cd7c85b1583f64736f6c63430008000033",
  "linkReferences": {},
  "deployedLinkReferences": {}
}