{
  "_format": "hh-sol-artifact-1",
  "contractName": "landregistry",
  "sourceName": "contracts/landregistry.sol",
  "abi": [
    {
      "inputs": [],
      "stateMutability": "nonpayable",
      "type": "constructor"
    },
    {
      "inputs": [
        {
          "internalType": "uint256",
          "name": "landId",
          "type": "uint256"
        },
        {
          "internalType": "address payable",
          "name": "proxyOwner",
          "type": "address"
        },
        {
          "internalType": "bool",
          "name": "x",
          "type": "bool"
        }
      ],
      "name": "AndandRemoveProxyOwner",
      "outputs": [],
      "stateMutability": "nonpayable",
      "type": "function"
    },
    {
      "inputs": [
        {
          "internalType": "uint256",
          "name": "_propertyPID",
          "type": "uint256"
        }
      ],
      "name": "CheckDuplicatePid",
      "outputs": [
        {
          "internalType": "bool",
          "name": "",
          "type": "bool"
        }
      ],
      "stateMutability": "view",
      "type": "function"
    },
    {
      "inputs": [
        {
          "internalType": "address",
          "name": "",
          "type": "address"
        }
      ],
      "name": "InspectorMapping",
      "outputs": [
        {
          "internalType": "uint256",
          "name": "id",
          "type": "uint256"
        },
        {
          "internalType": "address",
          "name": "addr",
          "type": "address"
        },
        {
          "internalType": "bytes32",
          "name": "name",
          "type": "bytes32"
        },
        {
          "internalType": "bytes32",
          "name": "dob",
          "type": "bytes32"
        },
        {
          "internalType": "uint256",
          "name": "cnic",
          "type": "uint256"
        },
        {
          "internalType": "bytes32",
          "name": "city",
          "type": "bytes32"
        },
        {
          "internalType": "bytes32",
          "name": "district",
          "type": "bytes32"
        },
        {
          "internalType": "bytes32",
          "name": "designation",
          "type": "bytes32"
        },
        {
          "internalType": "bytes32",
          "name": "email",
          "type": "bytes32"
        },
        {
          "internalType": "uint256",
          "name": "phone",
          "type": "uint256"
        }
      ],
      "stateMutability": "view",
      "type": "function"
    },
    {
      "inputs": [
        {
          "internalType": "uint256",
          "name": "",
          "type": "uint256"
        }
      ],
      "name": "LandRequestMapping",
      "outputs": [
        {
          "internalType": "uint256",
          "name": "reqId",
          "type": "uint256"
        },
        {
          "internalType": "address payable",
          "name": "sellerId",
          "type": "address"
        },
        {
          "internalType": "address payable",
          "name": "buyerId",
          "type": "address"
        },
        {
          "internalType": "uint256",
          "name": "landId",
          "type": "uint256"
        },
        {
          "internalType": "enum landregistry.reqStatus",
          "name": "requestStatus",
          "type": "uint8"
        },
        {
          "internalType": "uint256",
          "name": "bidPrice",
          "type": "uint256"
        },
        {
          "internalType": "bool",
          "name": "isPaymentDone",
          "type": "bool"
        }
      ],
      "stateMutability": "view",
      "type": "function"
    },
    {
      "inputs": [
        {
          "internalType": "address",
          "name": "",
          "type": "address"
        }
      ],
      "name": "RegisteredInspectorMapping",
      "outputs": [
        {
          "internalType": "bool",
          "name": "",
          "type": "bool"
        }
      ],
      "stateMutability": "view",
      "type": "function"
    },
    {
      "inputs": [
        {
          "internalType": "address",
          "name": "",
          "type": "address"
        }
      ],
      "name": "RegisteredUserMapping",
      "outputs": [
        {
          "internalType": "bool",
          "name": "",
          "type": "bool"
        }
      ],
      "stateMutability": "view",
      "type": "function"
    },
    {
      "inputs": [],
      "name": "ReturnAllLandIncpectorList",
      "outputs": [
        {
          "internalType": "address[]",
          "name": "",
          "type": "address[]"
        }
      ],
      "stateMutability": "view",
      "type": "function"
    },
    {
      "inputs": [],
      "name": "ReturnAllLandList",
      "outputs": [
        {
          "internalType": "uint256[]",
          "name": "",
          "type": "uint256[]"
        }
      ],
      "stateMutability": "view",
      "type": "function"
    },
    {
      "inputs": [],
      "name": "ReturnAllUserList",
      "outputs": [
        {
          "internalType": "address[]",
          "name": "",
          "type": "address[]"
        }
      ],
      "stateMutability": "view",
      "type": "function"
    },
    {
      "inputs": [
        {
          "internalType": "address",
          "name": "",
          "type": "address"
        }
      ],
      "name": "UserMapping",
      "outputs": [
        {
          "internalType": "address",
          "name": "id",
          "type": "address"
        },
        {
          "internalType": "bytes32",
          "name": "name",
          "type": "bytes32"
        },
        {
          "internalType": "bytes32",
          "name": "dob",
          "type": "bytes32"
        },
        {
          "internalType": "bytes32",
          "name": "city",
          "type": "bytes32"
        },
        {
          "internalType": "bytes32",
          "name": "district",
          "type": "bytes32"
        },
        {
          "internalType": "uint256",
          "name": "cinc",
          "type": "uint256"
        },
        {
          "internalType": "string",
          "name": "document",
          "type": "string"
        },
        {
          "internalType": "string",
          "name": "profilepic",
          "type": "string"
        },
        {
          "internalType": "bytes32",
          "name": "email",
          "type": "bytes32"
        },
        {
          "internalType": "bool",
          "name": "isUserVerified",
          "type": "bool"
        },
        {
          "internalType": "bool",
          "name": "death",
          "type": "bool"
        },
        {
          "internalType": "uint256",
          "name": "registerdate",
          "type": "uint256"
        }
      ],
      "stateMutability": "view",
      "type": "function"
    },
    {
      "inputs": [
        {
          "internalType": "uint256",
          "name": "_requestId",
          "type": "uint256"
        },
        {
          "internalType": "bool",
          "name": "acceptreject",
          "type": "bool"
        }
      ],
      "name": "acceptRequest",
      "outputs": [],
      "stateMutability": "nonpayable",
      "type": "function"
    },
    {
      "inputs": [
        {
          "internalType": "uint256",
          "name": "_area",
          "type": "uint256"
        },
        {
          "internalType": "string",
          "name": "_landAddress",
          "type": "string"
        },
        {
          "internalType": "bytes32",
          "name": "_district",
          "type": "bytes32"
        },
        {
          "internalType": "uint256",
          "name": "_landPrice",
          "type": "uint256"
        },
        {
          "internalType": "string",
          "name": "_allLatiLongi",
          "type": "string"
        },
        {
          "internalType": "uint256",
          "name": "_propertyPID",
          "type": "uint256"
        },
        {
          "internalType": "string",
          "name": "_document",
          "type": "string"
        },
        {
          "internalType": "string",
          "name": "_landpic",
          "type": "string"
        }
      ],
      "name": "addLand",
      "outputs": [],
      "stateMutability": "nonpayable",
      "type": "function"
    },
    {
      "inputs": [
        {
          "internalType": "address",
          "name": "_addr",
          "type": "address"
        },
        {
          "internalType": "bytes32",
          "name": "_name",
          "type": "bytes32"
        },
        {
          "internalType": "bytes32",
          "name": "_dob",
          "type": "bytes32"
        },
        {
          "internalType": "uint256",
          "name": "_cinc",
          "type": "uint256"
        },
        {
          "internalType": "bytes32",
          "name": "_designation",
          "type": "bytes32"
        },
        {
          "internalType": "bytes32",
          "name": "_city",
          "type": "bytes32"
        },
        {
          "internalType": "bytes32",
          "name": "_district",
          "type": "bytes32"
        },
        {
          "internalType": "bytes32",
          "name": "_email",
          "type": "bytes32"
        },
        {
          "internalType": "uint256",
          "name": "_phone",
          "type": "uint256"
        }
      ],
      "name": "addLandInspector",
      "outputs": [
        {
          "internalType": "bool",
          "name": "",
          "type": "bool"
        }
      ],
      "stateMutability": "nonpayable",
      "type": "function"
    },
    {
      "inputs": [
        {
          "internalType": "address",
          "name": "_addr",
          "type": "address"
        }
      ],
      "name": "changeContractOwner",
      "outputs": [],
      "stateMutability": "nonpayable",
      "type": "function"
    },
    {
      "inputs": [
        {
          "internalType": "uint256",
          "name": "_landId",
          "type": "uint256"
        },
        {
          "internalType": "bool",
          "name": "s",
          "type": "bool"
        },
        {
          "internalType": "bool",
          "name": "p",
          "type": "bool"
        },
        {
          "internalType": "bool",
          "name": "i",
          "type": "bool"
        },
        {
          "internalType": "bool",
          "name": "c",
          "type": "bool"
        },
        {
          "internalType": "bool",
          "name": "sell",
          "type": "bool"
        },
        {
          "internalType": "uint256",
          "name": "_newPrice",
          "type": "uint256"
        },
        {
          "internalType": "string",
          "name": "_newPic",
          "type": "string"
        },
        {
          "internalType": "string",
          "name": "_allLatiLongi",
          "type": "string"
        }
      ],
      "name": "changeDetails",
      "outputs": [],
      "stateMutability": "nonpayable",
      "type": "function"
    },
    {
      "inputs": [],
      "name": "documentId",
      "outputs": [
        {
          "internalType": "uint256",
          "name": "",
          "type": "uint256"
        }
      ],
      "stateMutability": "view",
      "type": "function"
    },
    {
      "inputs": [
        {
          "internalType": "uint256",
          "name": "landId",
          "type": "uint256"
        }
      ],
      "name": "getLandHistory",
      "outputs": [
        {
          "components": [
            {
              "internalType": "uint256",
              "name": "parentId",
              "type": "uint256"
            },
            {
              "internalType": "uint256",
              "name": "childCount",
              "type": "uint256"
            },
            {
              "internalType": "uint256",
              "name": "childId",
              "type": "uint256"
            },
            {
              "internalType": "uint256",
              "name": "area",
              "type": "uint256"
            },
            {
              "internalType": "address",
              "name": "ownerAddress",
              "type": "address"
            },
            {
              "internalType": "uint256",
              "name": "timestamp",
              "type": "uint256"
            }
          ],
          "internalType": "struct landregistry.LandHistory[]",
          "name": "",
          "type": "tuple[]"
        }
      ],
      "stateMutability": "view",
      "type": "function"
    },
    {
      "inputs": [
        {
          "internalType": "uint256",
          "name": "landId",
          "type": "uint256"
        }
      ],
      "name": "getLandHistoryId",
      "outputs": [
        {
          "components": [
            {
              "internalType": "uint256",
              "name": "parentId",
              "type": "uint256"
            },
            {
              "internalType": "uint256",
              "name": "childCount",
              "type": "uint256"
            },
            {
              "internalType": "uint256",
              "name": "childId",
              "type": "uint256"
            },
            {
              "internalType": "uint256",
              "name": "area",
              "type": "uint256"
            },
            {
              "internalType": "address",
              "name": "ownerAddress",
              "type": "address"
            },
            {
              "internalType": "uint256",
              "name": "timestamp",
              "type": "uint256"
            }
          ],
          "internalType": "struct landregistry.LandHistory[]",
          "name": "",
          "type": "tuple[]"
        }
      ],
      "stateMutability": "view",
      "type": "function"
    },
    {
      "inputs": [],
      "name": "inspectorsCount",
      "outputs": [
        {
          "internalType": "uint256",
          "name": "",
          "type": "uint256"
        }
      ],
      "stateMutability": "view",
      "type": "function"
    },
    {
      "inputs": [
        {
          "internalType": "address",
          "name": "_addr",
          "type": "address"
        }
      ],
      "name": "isContractOwner",
      "outputs": [
        {
          "internalType": "bool",
          "name": "",
          "type": "bool"
        }
      ],
      "stateMutability": "view",
      "type": "function"
    },
    {
      "inputs": [
        {
          "internalType": "address",
          "name": "_id",
          "type": "address"
        }
      ],
      "name": "isLandInspector",
      "outputs": [
        {
          "internalType": "bool",
          "name": "",
          "type": "bool"
        }
      ],
      "stateMutability": "view",
      "type": "function"
    },
    {
      "inputs": [
        {
          "internalType": "address",
          "name": "id",
          "type": "address"
        }
      ],
      "name": "isUserVerified",
      "outputs": [
        {
          "internalType": "bool",
          "name": "",
          "type": "bool"
        }
      ],
      "stateMutability": "view",
      "type": "function"
    },
    {
      "inputs": [
        {
          "internalType": "uint256",
          "name": "",
          "type": "uint256"
        }
      ],
      "name": "landinfo",
      "outputs": [
        {
          "internalType": "address",
          "name": "verfiedby",
          "type": "address"
        },
        {
          "internalType": "uint256",
          "name": "timestamp",
          "type": "uint256"
        }
      ],
      "stateMutability": "view",
      "type": "function"
    },
    {
      "inputs": [
        {
          "internalType": "uint256",
          "name": "",
          "type": "uint256"
        }
      ],
      "name": "lands",
      "outputs": [
        {
          "internalType": "uint256",
          "name": "id",
          "type": "uint256"
        },
        {
          "internalType": "uint256",
          "name": "propertyPID",
          "type": "uint256"
        },
        {
          "internalType": "uint256",
          "name": "area",
          "type": "uint256"
        },
        {
          "internalType": "uint256",
          "name": "landPrice",
          "type": "uint256"
        },
        {
          "internalType": "string",
          "name": "landAddress",
          "type": "string"
        },
        {
          "internalType": "bytes32",
          "name": "district",
          "type": "bytes32"
        },
        {
          "internalType": "string",
          "name": "allLatitudeLongitude",
          "type": "string"
        },
        {
          "internalType": "string",
          "name": "document",
          "type": "string"
        },
        {
          "internalType": "string",
          "name": "landpic",
          "type": "string"
        },
        {
          "internalType": "bool",
          "name": "isforSell",
          "type": "bool"
        },
        {
          "internalType": "bool",
          "name": "isLandVerified",
          "type": "bool"
        },
        {
          "internalType": "address payable",
          "name": "ownerAddress",
          "type": "address"
        },
        {
          "internalType": "address payable",
          "name": "proxyownerAddress",
          "type": "address"
        },
        {
          "internalType": "uint256",
          "name": "registerdate",
          "type": "uint256"
        }
      ],
      "stateMutability": "view",
      "type": "function"
    },
    {
      "inputs": [],
      "name": "landsCount",
      "outputs": [
        {
          "internalType": "uint256",
          "name": "",
          "type": "uint256"
        }
      ],
      "stateMutability": "view",
      "type": "function"
    },
    {
      "inputs": [
        {
          "internalType": "address payable",
          "name": "_receiver",
          "type": "address"
        },
        {
          "internalType": "uint256",
          "name": "_requestId",
          "type": "uint256"
        }
      ],
      "name": "makePayment",
      "outputs": [],
      "stateMutability": "payable",
      "type": "function"
    },
    {
      "inputs": [
        {
          "internalType": "address",
          "name": "id",
          "type": "address"
        }
      ],
      "name": "myAllLands",
      "outputs": [
        {
          "internalType": "uint256[]",
          "name": "",
          "type": "uint256[]"
        }
      ],
      "stateMutability": "view",
      "type": "function"
    },
    {
      "inputs": [],
      "name": "myReceivedLandRequests",
      "outputs": [
        {
          "internalType": "uint256[]",
          "name": "",
          "type": "uint256[]"
        }
      ],
      "stateMutability": "view",
      "type": "function"
    },
    {
      "inputs": [],
      "name": "mySentLandRequests",
      "outputs": [
        {
          "internalType": "uint256[]",
          "name": "",
          "type": "uint256[]"
        }
      ],
      "stateMutability": "view",
      "type": "function"
    },
    {
      "inputs": [
        {
          "internalType": "bytes32",
          "name": "_name",
          "type": "bytes32"
        },
        {
          "internalType": "bytes32",
          "name": "_dob",
          "type": "bytes32"
        },
        {
          "internalType": "bytes32",
          "name": "_city",
          "type": "bytes32"
        },
        {
          "internalType": "bytes32",
          "name": "_district",
          "type": "bytes32"
        },
        {
          "internalType": "uint256",
          "name": "_cinc",
          "type": "uint256"
        },
        {
          "internalType": "string",
          "name": "_document",
          "type": "string"
        },
        {
          "internalType": "string",
          "name": "_profilepic",
          "type": "string"
        },
        {
          "internalType": "bytes32",
          "name": "_email",
          "type": "bytes32"
        }
      ],
      "name": "registerUser",
      "outputs": [],
      "stateMutability": "nonpayable",
      "type": "function"
    },
    {
      "inputs": [
        {
          "internalType": "address",
          "name": "_addr",
          "type": "address"
        }
      ],
      "name": "removeLandInspector",
      "outputs": [],
      "stateMutability": "nonpayable",
      "type": "function"
    },
    {
      "inputs": [
        {
          "internalType": "uint256",
          "name": "_landId",
          "type": "uint256"
        },
        {
          "internalType": "uint256",
          "name": "_bidPrice",
          "type": "uint256"
        }
      ],
      "name": "requestforBuyWithBid",
      "outputs": [],
      "stateMutability": "nonpayable",
      "type": "function"
    },
    {
      "inputs": [],
      "name": "returnPaymentDoneList",
      "outputs": [
        {
          "internalType": "uint256[]",
          "name": "",
          "type": "uint256[]"
        }
      ],
      "stateMutability": "view",
      "type": "function"
    },
    {
      "inputs": [
        {
          "internalType": "uint256",
          "name": "id",
          "type": "uint256"
        },
        {
          "internalType": "uint256",
          "name": "newarea",
          "type": "uint256"
        },
        {
          "internalType": "uint256",
          "name": "numplots",
          "type": "uint256"
        }
      ],
      "name": "subplot",
      "outputs": [],
      "stateMutability": "nonpayable",
      "type": "function"
    },
    {
      "inputs": [
        {
          "internalType": "uint256",
          "name": "_requestId",
          "type": "uint256"
        },
        {
          "internalType": "string",
          "name": "documentUrl",
          "type": "string"
        }
      ],
      "name": "transferOwnership",
      "outputs": [],
      "stateMutability": "nonpayable",
      "type": "function"
    },
    {
      "inputs": [
        {
          "internalType": "address",
          "name": "deceased",
          "type": "address"
        },
        {
          "internalType": "string",
          "name": "documentUrl",
          "type": "string"
        }
      ],
      "name": "transferOwnership1",
      "outputs": [],
      "stateMutability": "nonpayable",
      "type": "function"
    },
    {
      "inputs": [],
      "name": "userCount",
      "outputs": [
        {
          "internalType": "uint256",
          "name": "",
          "type": "uint256"
        }
      ],
      "stateMutability": "view",
      "type": "function"
    },
    {
      "inputs": [
        {
          "internalType": "address",
          "name": "",
          "type": "address"
        }
      ],
      "name": "userinfo",
      "outputs": [
        {
          "internalType": "address",
          "name": "verfiedby",
          "type": "address"
        },
        {
          "internalType": "uint256",
          "name": "verifydate",
          "type": "uint256"
        }
      ],
      "stateMutability": "view",
      "type": "function"
    },
    {
      "inputs": [
        {
          "internalType": "uint256",
          "name": "_id",
          "type": "uint256"
        }
      ],
      "name": "verifyLand",
      "outputs": [],
      "stateMutability": "nonpayable",
      "type": "function"
    },
    {
      "inputs": [
        {
          "internalType": "address",
          "name": "_userId",
          "type": "address"
        }
      ],
      "name": "verifyUser",
      "outputs": [],
      "stateMutability": "nonpayable",
      "type": "function"
    },
    {
      "stateMutability": "payable",
      "type": "receive"
    }
  ],
  "bytecode": "0x608060405234801561001057600080fd5b50600080546001600160a01b03191633179055613cae806100326000396000f3fe60806040526004361061023f5760003560e01c8063935400ee1161012e578063d196ebf2116100ab578063e165af871161006f578063e165af87146106d8578063e261f1e5146106f8578063f98cf07c14610732578063f9c43bdf14610745578063fa0245491461076557610246565b8063d196ebf21461062b578063d251839b1461064b578063d61ff68c14610660578063dd056ebc14610698578063de117688146106b857610246565b8063a846fc8f116100f2578063a846fc8f14610583578063ace417e014610598578063b10a30ed146105b8578063c6acafcd146105eb578063c981925b1461060b57610246565b8063935400ee146104eb578063941e24261461050b5780639446ec9f146105205780639c32e3b41461054e5780639dec448e1461056357610246565b80634f389721116101bc578063690a3ca911610180578063690a3ca9146104565780637517e00f1461047657806378f7c83f14610496578063836b3979146104ab5780638efca422146104cb57610246565b80634f3897211461039e57806354d1b98f146103be578063553a998d146103de57806358051d931461040057806364efa0021461042057610246565b8063314967ac11610203578063314967ac1461030757806332f2bb14146103295780633ead67b514610349578063499701b2146103695780634d8131201461037e57610246565b806307973ccf1461024b57806312ca3f1f146102765780631c9afd0f146102a357806323393d77146102b85780632b13aa44146102da57610246565b3661024657005b600080fd5b34801561025757600080fd5b50610260610785565b60405161026d9190613a2d565b60405180910390f35b34801561028257600080fd5b5061029661029136600461354c565b61078b565b60405161026d91906139f5565b3480156102af57600080fd5b506102606107d8565b3480156102c457600080fd5b506102cd6107de565b60405161026d91906139bd565b3480156102e657600080fd5b506102fa6102f536600461354c565b61085e565b60405161026d919061393c565b34801561031357600080fd5b506103276103223660046136c3565b61090f565b005b34801561033557600080fd5b506102966103443660046133ae565b610cb4565b34801561035557600080fd5b506103276103643660046133ae565b610cc9565b34801561037557600080fd5b506102cd610cfb565b34801561038a57600080fd5b506103276103993660046133ae565b610d5a565b3480156103aa57600080fd5b506102fa6103b936600461354c565b610e1c565b3480156103ca57600080fd5b506102966103d93660046133fc565b610ec4565b3480156103ea57600080fd5b506103f3611137565b60405161026d91906138ef565b34801561040c57600080fd5b5061032761041b3660046137b3565b6111c0565b34801561042c57600080fd5b5061044061043b3660046133ae565b611a15565b60405161026d9a99989796959493929190613a99565b34801561046257600080fd5b506103276104713660046135a1565b611a71565b34801561048257600080fd5b506103276104913660046133ae565b611b63565b3480156104a257600080fd5b50610260611d75565b3480156104b757600080fd5b506103276104c6366004613564565b611d7b565b3480156104d757600080fd5b506103276104e63660046134b1565b611e5c565b3480156104f757600080fd5b506103276105063660046135cc565b612057565b34801561051757600080fd5b50610260612145565b34801561052c57600080fd5b5061054061053b3660046133ae565b61214b565b60405161026d9291906138d6565b34801561055a57600080fd5b506102cd612170565b34801561056f57600080fd5b5061032761057e366004613792565b6121cf565b34801561058f57600080fd5b506102cd6123ad565b3480156105a457600080fd5b506102966105b33660046133ae565b61242b565b3480156105c457600080fd5b506105d86105d336600461354c565b61244c565b60405161026d9796959493929190613a36565b3480156105f757600080fd5b5061054061060636600461354c565b61249b565b34801561061757600080fd5b50610327610626366004613463565b6124c0565b34801561063757600080fd5b506102cd6106463660046133ae565b612794565b34801561065757600080fd5b506103f3612800565b34801561066c57600080fd5b5061068061067b3660046133ae565b612876565b60405161026d9c9b9a99989796959493929190613852565b3480156106a457600080fd5b506102966106b33660046133ae565b6129f9565b3480156106c457600080fd5b506102966106d33660046133ae565b612a0e565b3480156106e457600080fd5b506102966106f33660046133ae565b612a35565b34801561070457600080fd5b5061071861071336600461354c565b612a5e565b60405161026d9e9d9c9b9a99989796959493929190613ae7565b6103276107403660046133d1565b612cfb565b34801561075157600080fd5b5061032761076036600461354c565b612e76565b34801561077157600080fd5b50610327610780366004613694565b612f81565b60025481565b6000805b60035481116107cd576000818152600d60205260409020600101548314156107bb5760019150506107d3565b806107c581613bfc565b91505061078f565b50600090505b919050565b60035481565b6001600052601160209081527f17bc176d2408558f6e4111feebc3cab4e16b63e967be91cde721f4c8a488b552805460408051828502810185019091528181526060939092919083018282801561085457602002820191906000526020600020905b815481526020019060010190808311610840575b5050505050905090565b606060136000838152602001908152602001600020805480602002602001604051908101604052809291908181526020016000905b828210156109045760008481526020908190206040805160c0810182526006860290920180548352600180820154848601526002820154928401929092526003810154606084015260048101546001600160a01b031660808401526005015460a08301529083529092019101610893565b505050509050919050565b3360009081526006602052604090206009015460ff16801561093757506109358361078b565b155b80156109435750600088115b8015610967575033600090815260066020526040902060090154610100900460ff16155b15610246576003805490600061097c83613bfc565b9091555050604080516101c0810182526003805480835260208084018881528486018e8152606086018c8152608087018f815260a088018f905260c088018d905260e088018b905261010088018a9052600061012089018190526101408901819052336101608a015280546001600160a01b03166101808a0152426101a08a0152958652600d855297909420865181559151600183015551600282015591519282019290925592518051929392610a399260048501920190613284565b5060a0820151600582015560c08201518051610a5f916006840191602090910190613284565b5060e08201518051610a7b916007840191602090910190613284565b506101008201518051610a98916008840191602090910190613284565b506101208201518160090160006101000a81548160ff0219169083151502179055506101408201518160090160016101000a81548160ff0219169083151502179055506101608201518160090160026101000a8154816001600160a01b0302191690836001600160a01b0316021790555061018082015181600a0160006101000a8154816001600160a01b0302191690836001600160a01b031602179055506101a082015181600b0155905050600c6000336001600160a01b03166001600160a01b031681526020019081526020016000206003549080600181540180825580915050600190039060005260206000200160009091909190915055601160006001815260200190815260200160002060035490806001815401808255809150506001900390600052602060002001600090919091909150556013600060035481526020019081526020016000206040518060c00160405280600354815260200160008152602001600081526020018a815260200160006001600160a01b031681526020014281525090806001815401808255809150506001900390600052602060002090600602016000909190919091506000820151816000015560208201518160010155604082015181600201556060820151816003015560808201518160040160006101000a8154816001600160a01b0302191690836001600160a01b0316021790555060a0820151816005015550505050505050505050565b600b6020526000908152604090205460ff1681565b6000546001600160a01b0316331415610cf857600080546001600160a01b0319166001600160a01b0383161790555b50565b336000908152600f60209081526040918290208054835181840281018401909452808452606093928301828280156108545760200282019190600052602060002090815481526020019060010190808311610840575050505050905090565b610d6333612a35565b8015610d7857506001600160a01b0381163314155b8015610dae57503360009081526007602090815260408083206006908101546001600160a01b0386168552925290912060040154145b15610246576001600160a01b0381811660008181526006602090815260408083206009018054600160ff199091168117909155815180830183523381524281850190815295855260159093529220905181546001600160a01b03191694169390931783559051910155610cf8565b6000818152601360209081526040808320805482518185028101850190935280835260609493849084015b82821015610eb85760008481526020908190206040805160c0810182526006860290920180548352600180820154848601526002820154928401929092526003810154606084015260048101546001600160a01b031660808401526005015460a08301529083529092019101610e47565b50929695505050505050565b600080546001600160a01b031633148015610ef857506001600160a01b038a1660009081526009602052604090205460ff16155b156102465760005b600154811015610f9157600160009081526008602052600080516020613c5983398151915280548a92600792909185908110610f4c57634e487b7160e01b600052603260045260246000fd5b60009182526020808320909101546001600160a01b031683528201929092526040019020600401541415610f7f57600080fd5b80610f8981613bfc565b915050610f00565b506001600160a01b038a166000908152600960205260408120805460ff19166001908117909155805491610fc483613bfc565b919050555060086000600181526020019081526020016000208a9080600181540180825580915050600190039060005260206000200160009091909190916101000a8154816001600160a01b0302191690836001600160a01b0316021790555060405180610140016040528060015481526020018b6001600160a01b031681526020018a815260200189815260200188815260200186815260200185815260200187815260200184815260200183815250600760008c6001600160a01b03166001600160a01b031681526020019081526020016000206000820151816000015560208201518160010160006101000a8154816001600160a01b0302191690836001600160a01b0316021790555060408201518160020155606082015181600301556080820151816004015560a0820151816005015560c0820151816006015560e0820151816007015561010082015181600801556101208201518160090155905050600190509998505050505050505050565b6001600052600a60209081527fbbc70db1b6c7afd11e79c0fb0051300458f1a3acb8ee9789d9b6b26c61ad9bc7805460408051828502810185019091528181526060939092919083018282801561085457602002820191906000526020600020905b81546001600160a01b03168152600190910190602001808311611199575050505050905090565b3360009081526006602052604090206009015460ff1680156111f857506000838152600d6020526040902060090154610100900460ff165b801561122357506000838152600d60205260409020600901546201000090046001600160a01b031633145b801561122f5750600081115b801561124b57506000838152600d602052604090206002015482105b801561126957506000838152600d602052604090206009015460ff16155b801561128d575033600090815260066020526040902060090154610100900460ff16155b15610246576000838152600d60205260409020600190810154905b8281111580156112c957506000858152600d60205260409020600201548411155b15611a0d576000858152600d6020526040812060020180548692906112ef908490613baa565b90915550506003805490600061130483613bfc565b9190505550600042600354846040516020016113229392919061383c565b60408051601f1981840301815282825280516020918201206101c0840183526003805485528483018290528484018a905260008b8152600d8085529481209182015460608701528b90529290915260049091018054919350608083019161138890613bc1565b80601f01602080910402602001604051908101604052809291908181526020018280546113b490613bc1565b80156114015780601f106113d657610100808354040283529160200191611401565b820191906000526020600020905b8154815290600101906020018083116113e457829003601f168201915b50505050508152602001600d6000898152602001908152602001600020600501548152602001600d6000898152602001908152602001600020600601805461144890613bc1565b80601f016020809104026020016040519081016040528092919081815260200182805461147490613bc1565b80156114c15780601f10611496576101008083540402835291602001916114c1565b820191906000526020600020905b8154815290600101906020018083116114a457829003601f168201915b50505050508152602001600d600089815260200190815260200160002060070180546114ec90613bc1565b80601f016020809104026020016040519081016040528092919081815260200182805461151890613bc1565b80156115655780601f1061153a57610100808354040283529160200191611565565b820191906000526020600020905b81548152906001019060200180831161154857829003601f168201915b50505050508152602001600d6000898152602001908152602001600020600801805461159090613bc1565b80601f01602080910402602001604051908101604052809291908181526020018280546115bc90613bc1565b80156116095780601f106115de57610100808354040283529160200191611609565b820191906000526020600020905b8154815290600101906020018083116115ec57829003601f168201915b50505050508152602001600015158152602001600115158152602001336001600160a01b0316815260200160008054906101000a90046001600160a01b03166001600160a01b0316815260200142815250600d600060035481526020019081526020016000206000820151816000015560208201518160010155604082015181600201556060820151816003015560808201518160040190805190602001906116b3929190613284565b5060a0820151600582015560c082015180516116d9916006840191602090910190613284565b5060e082015180516116f5916007840191602090910190613284565b506101008201518051611712916008840191602090910190613284565b506101208201518160090160006101000a81548160ff0219169083151502179055506101408201518160090160016101000a81548160ff0219169083151502179055506101608201518160090160026101000a8154816001600160a01b0302191690836001600160a01b0316021790555061018082015181600a0160006101000a8154816001600160a01b0302191690836001600160a01b031602179055506101a082015181600b0155905050600c6000336001600160a01b03166001600160a01b031681526020019081526020016000206003549080600181540180825580915050600190039060005260206000200160009091909190915055601160006001815260200190815260200160002060035490806001815401808255809150506001900390600052602060002001600090919091909150556013600060035481526020019081526020016000206040518060c00160405280888152602001600081526020016000815260200187815260200160006001600160a01b031681526020014281525090806001815401808255809150506001900390600052602060002090600602016000909190919091506000820151816000015560208201518160010155604082015181600201556060820151816003015560808201518160040160006101000a8154816001600160a01b0302191690836001600160a01b0316021790555060a082015181600501555050601360008781526020019081526020016000206040518060c00160405280888152602001868152602001600354815260200187815260200160006001600160a01b03168152602001600081525090806001815401808255809150506001900390600052602060002090600602016000909190919091506000820151816000015560208201518160010155604082015181600201556060820151816003015560808201518160040160006101000a8154816001600160a01b0302191690836001600160a01b0316021790555060a082015181600501555050508080611a0590613bfc565b9150506112a8565b50505b505050565b6007602081905260009182526040909120805460018201546002830154600384015460048501546005860154600687015497870154600888015460099098015496986001600160a01b039096169794969395929491939091908a565b6000828152600e60205260409020600101546001600160a01b03163314611a9757600080fd5b808015611ab657506000828152600e602052604090206006015460ff16155b15611b1d576000828152600e602052604090206005015415611afc576000828152600e6020908152604080832060058101546003918201548552600d9093529220909101555b6000828152600e60205260409020600401805460ff19166001179055611b5f565b80158015611b3d57506000828152600e602052604090206006015460ff16155b15611b5f576000828152600e60205260409020600401805460ff191660021790555b5050565b6000546001600160a01b031633148015611b9557506001600160a01b03811660009081526009602052604090205460ff165b15610246576001600160a01b03811660009081526009602090815260408220805460ff191690556001825260089052600080516020613c5983398151915254905b81811015611d6e5760016000526008602052600080516020613c5983398151915280546001600160a01b038516919083908110611c2357634e487b7160e01b600052603260045260246000fd5b6000918252602090912001546001600160a01b03161415611d5c57600160008190526008602052600080516020613c5983398151915290611c649084613baa565b81548110611c8257634e487b7160e01b600052603260045260246000fd5b6000918252602080832090910154600190925260089052600080516020613c5983398151915280546001600160a01b039092169183908110611cd457634e487b7160e01b600052603260045260246000fd5b600091825260208083209190910180546001600160a01b0319166001600160a01b0394909416939093179092556001905260089052600080516020613c59833981519152805480611d3557634e487b7160e01b600052603160045260246000fd5b600082815260209020810160001990810180546001600160a01b0319169055019055611d6e565b80611d6681613bfc565b915050611bd6565b5050610cf8565b60045481565b6000838152600d60205260409020600901546201000090046001600160a01b031633148015611dc057506000838152600d6020526040902060090154610100900460ff165b15610246578015611df6576000838152600d60205260409020600a0180546001600160a01b0319166001600160a01b0384161790555b80158015611e2057506000838152600d60205260409020600a01546001600160a01b038381169116145b15611e575760008054848252600d6020526040909120600a0180546001600160a01b0319166001600160a01b039092169190911790555b611a10565b336000908152600b602052604090205460ff16151560011415611e9a5760405162461bcd60e51b8152600401611e9190613a00565b60405180910390fd5b336000908152600b60205260408120805460ff191660011790556002805491611ec283613bfc565b90915550507fbbc70db1b6c7afd11e79c0fb0051300458f1a3acb8ee9789d9b6b26c61ad9bc7805460018082019092557fed65b032d5a5fa3a5b6544566ee46a0f6b8fe8b1375ec878dc3be6580b078495018054336001600160a01b03199182168117909255604080516101808101825283815260208082018e81528284018e8152606084018e8152608085018e815260a086018e815260c087018e815260e088018e905261010088018d9052600061012089018190526101408901819052426101608a01529a8b52600680885298909a2087518154909a166001600160a01b03909a169990991789559351998801999099559051600287015551600386015595516004850155945160058401559251805193949293611fea93928501929190910190613284565b5060e08201518051612006916007840191602090910190613284565b5061010082810151600883015561012083015160098301805461014086015160ff199091169215159290921761ff00191691151590920217905561016090910151600a909101555050505050505050565b6000898152600d60205260409020600901546201000090046001600160a01b03163314801561209c57506000898152600d6020526040902060090154610100900460ff165b156102465787156120c5576000898152600d60205260409020600901805460ff19168515151790555b86156120e0576000898152600d602052604090206003018390555b851561210d576000898152600d60209081526040909120835161210b92600890920191850190613284565b505b841561213a576000898152600d60209081526040909120825161213892600690920191840190613284565b505b505050505050505050565b60015481565b601560205260009081526040902080546001909101546001600160a01b039091169082565b336000908152601060209081526040918290208054835181840281018401909452808452606093928301828280156108545760200282019190600052602060002090815481526020019060010190808311610840575050505050905090565b3360009081526006602052604090206009015460ff16801561220757506000828152600d6020526040902060090154610100900460ff165b801561223357506000828152600d60205260409020600901546201000090046001600160a01b03163314155b15610246576005805490600061224883613bfc565b90915550506040805160e0810182526005548082526000858152600d6020908152848220600901546201000090046001600160a01b0390811682860190815233868801908152606087018a81526080880186815260a089018b905260c08901879052968652600e90945296909320855181559251600180850180549284166001600160a01b03199384161790559651600285018054919093169116179055516003820155905160048083018054949593949293909260ff191691849081111561232157634e487b7160e01b600052602160045260246000fd5b021790555060a082015160058281019190915560c0909201516006909101805460ff19169115159190911790556000838152600d60209081526040808320600901546201000090046001600160a01b03168352600f8252808320845481546001818101845592865284862001553384526010835290832093548454918201855593835291200155611b5f565b6001600052601260209081527f71a67924699a20698523213e55fe499d539379d7769cd5567e2c45d583f815a380546040805182850281018501909152818152606093909291908301828280156108545760200282019190600052602060002090815481526020019060010190808311610840575050505050905090565b6001600160a01b031660009081526006602052604090206009015460ff1690565b600e60205260009081526040902080546001820154600283015460038401546004850154600586015460069096015494956001600160a01b03948516959390941693919260ff91821692911687565b601460205260009081526040902080546001909101546001600160a01b039091169082565b6124c933612a35565b6124d257600080fd5b6001600160a01b0382166000908152600660209081526040808320600901805461ff001916610100179055600c82528083208054825181850281018501909352808352919290919083018282801561254957602002820191906000526020600020905b815481526020019060010190808311612535575b5050505050905060005b815181101561278e57600082828151811061257e57634e487b7160e01b600052603260045260246000fd5b6020908102919091018101516000818152600d90925260409091206009810154919250906001600160a01b0387811662010000909204161480156125d75750600581015433600090815260076020526040902060060154145b1561277957600480549060006125ec83613bfc565b909155505084516126069060078301906020880190613284565b50600981018054600a83015461ff01600160b01b03199091166001600160a01b03918216620100008102919091179092556000918252600c60209081526040808420805460018101825590855291842090910185905590881682528120905b8154811015612752578382828154811061268f57634e487b7160e01b600052603260045260246000fd5b9060005260206000200154141561274057815482906126b090600190613baa565b815481106126ce57634e487b7160e01b600052603260045260246000fd5b90600052602060002001548282815481106126f957634e487b7160e01b600052603260045260246000fd5b90600052602060002001819055508180548061272557634e487b7160e01b600052603160045260246000fd5b60019003818190600052602060002001600090559055612752565b8061274a81613bfc565b915050612665565b5050600054600a820180546001600160a01b0319166001600160a01b039092169190911790555b5050808061278690613bfc565b915050612553565b50505050565b6001600160a01b0381166000908152600c60209081526040918290208054835181840281018401909452808452606093928301828280156127f457602002820191906000526020600020905b8154815260200190600101908083116127e0575b50505050509050919050565b600160005260086020908152600080516020613c598339815191528054604080518285028101850190915281815260609390929190830182828015610854576020028201919060005260206000209081546001600160a01b03168152600190910190602001808311611199575050505050905090565b600660208190526000918252604090912080546001820154600283015460038401546004850154600586015496860180546001600160a01b0390961697949693959294919391926128c690613bc1565b80601f01602080910402602001604051908101604052809291908181526020018280546128f290613bc1565b801561293f5780601f106129145761010080835404028352916020019161293f565b820191906000526020600020905b81548152906001019060200180831161292257829003601f168201915b50505050509080600701805461295490613bc1565b80601f016020809104026020016040519081016040528092919081815260200182805461298090613bc1565b80156129cd5780601f106129a2576101008083540402835291602001916129cd565b820191906000526020600020905b8154815290600101906020018083116129b057829003601f168201915b50505060088401546009850154600a909501549394909360ff808316945061010090920490911691508c565b60096020526000908152604090205460ff1681565b600080546001600160a01b0383811691161415612a2d575060016107d3565b5060006107d3565b6001600160a01b03811660009081526009602052604081205460ff1615612a2d575060016107d3565b600d60205260009081526040902080546001820154600283015460038401546004850180549495939492939192612a9490613bc1565b80601f0160208091040260200160405190810160405280929190818152602001828054612ac090613bc1565b8015612b0d5780601f10612ae257610100808354040283529160200191612b0d565b820191906000526020600020905b815481529060010190602001808311612af057829003601f168201915b505050505090806005015490806006018054612b2890613bc1565b80601f0160208091040260200160405190810160405280929190818152602001828054612b5490613bc1565b8015612ba15780601f10612b7657610100808354040283529160200191612ba1565b820191906000526020600020905b815481529060010190602001808311612b8457829003601f168201915b505050505090806007018054612bb690613bc1565b80601f0160208091040260200160405190810160405280929190818152602001828054612be290613bc1565b8015612c2f5780601f10612c0457610100808354040283529160200191612c2f565b820191906000526020600020905b815481529060010190602001808311612c1257829003601f168201915b505050505090806008018054612c4490613bc1565b80601f0160208091040260200160405190810160405280929190818152602001828054612c7090613bc1565b8015612cbd5780601f10612c9257610100808354040283529160200191612cbd565b820191906000526020600020905b815481529060010190602001808311612ca057829003601f168201915b5050506009840154600a850154600b90950154939460ff80831695610100840490911694506001600160a01b0362010000909304831693509116908e565b6000818152600e60205260409020600201546001600160a01b031633148015612d58575060016000828152600e6020526040902060049081015460ff1690811115612d5657634e487b7160e01b600052602160045260246000fd5b145b8015612d8057506000818152600e60205260409020600101546001600160a01b038381169116145b8015612dad57506000818152600e602090815260408083206003908101548452600d909252909120015434145b15610246576000818152600e60209081526040808320600481018054600360ff199182161790915560069091018054909116600190811790915560129092527f71a67924699a20698523213e55fe499d539379d7769cd5567e2c45d583f815a38054928301815583527f09d3634ec98b7a093f4c560246b0e10c09e0e06c46ca9be08ca93e6cf08d8d13909101839055516001600160a01b038416913480156108fc02929091818181858888f19350505050158015612e70573d6000803e3d6000fd5b50611b5f565b612e7f33612a35565b8015612eab57506000818152600d60205260409020600901546201000090046001600160a01b03163314155b8015612ee857506000818152600d602090815260408083206009908101546201000090046001600160a01b031684526006909252909120015460ff165b8015612f1557506000818152600d6020908152604080832060050154338452600790925290912060060154145b15610246576000818152600d60209081526040808320600901805461010061ff0019909116179055805180820182523381524281840190815285855260149093529220915182546001600160a01b0319166001600160a01b039091161782555160019190910155610cf8565b612f8a33612a35565b612f9357600080fd5b6000828152600e602052604090206006015460ff16158015612fe357506000828152600e60209081526040808320600301548352600d825280832060050154338452600790925290912060060154145b15612fed57600080fd5b60048054906000612ffd83613bfc565b90915550506000828152600e602090815260408083206004808201805460ff1916909117905560028101546001600160a01b039081168552600c84528285206003830154815460018181018455928852958720909501949094559201549091168252812054905b818110156131eb576000848152600e6020908152604080832060038101546001909101546001600160a01b03168452600c9092529091208054839081106130bb57634e487b7160e01b600052603260045260246000fd5b906000526020600020015414156131d9576000848152600e602090815260408083206001908101546001600160a01b03168452600c909252909120906131019084613baa565b8154811061311f57634e487b7160e01b600052603260045260246000fd5b6000918252602080832090910154868352600e82526040808420600101546001600160a01b03168452600c909252912080548390811061316f57634e487b7160e01b600052603260045260246000fd5b6000918252602080832090910192909255858152600e82526040808220600101546001600160a01b03168252600c909252208054806131be57634e487b7160e01b600052603160045260246000fd5b600190038181906000526020600020016000905590556131eb565b806131e381613bfc565b915050613064565b506000838152600e60209081526040808320600301548352600d8252909120835161321e92600790920191850190613284565b5050506000908152600e602090815260408083206003810180548552600d9093528184206009908101805460ff19169055600290910154925484529220909101805462010000600160b01b0319166001600160a01b039092166201000002919091179055565b82805461329090613bc1565b90600052602060002090601f0160209004810192826132b257600085556132f8565b82601f106132cb57805160ff19168380011785556132f8565b828001600101855582156132f8579182015b828111156132f85782518255916020019190600101906132dd565b50613304929150613308565b5090565b5b808211156133045760008155600101613309565b803580151581146107d357600080fd5b600082601f83011261333d578081fd5b813567ffffffffffffffff8082111561335857613358613c2d565b604051601f8301601f19168101602001828111828210171561337c5761337c613c2d565b604052828152848301602001861015613393578384fd5b82602086016020830137918201602001929092529392505050565b6000602082840312156133bf578081fd5b81356133ca81613c43565b9392505050565b600080604083850312156133e3578081fd5b82356133ee81613c43565b946020939093013593505050565b60008060008060008060008060006101208a8c03121561341a578485fd5b893561342581613c43565b9b60208b01359b5060408b01359a60608101359a506080810135995060a0810135985060c0810135975060e081013596506101000135945092505050565b60008060408385031215613475578182fd5b823561348081613c43565b9150602083013567ffffffffffffffff81111561349b578182fd5b6134a78582860161332d565b9150509250929050565b600080600080600080600080610100898b0312156134cd578384fd5b883597506020890135965060408901359550606089013594506080890135935060a089013567ffffffffffffffff80821115613507578485fd5b6135138c838d0161332d565b945060c08b0135915080821115613528578384fd5b506135358b828c0161332d565b92505060e089013590509295985092959890939650565b60006020828403121561355d578081fd5b5035919050565b600080600060608486031215613578578283fd5b83359250602084013561358a81613c43565b91506135986040850161331d565b90509250925092565b600080604083850312156135b3578182fd5b823591506135c36020840161331d565b90509250929050565b60008060008060008060008060006101208a8c0312156135ea578485fd5b893598506135fa60208b0161331d565b975061360860408b0161331d565b965061361660608b0161331d565b955061362460808b0161331d565b945061363260a08b0161331d565b935060c08a0135925060e08a013567ffffffffffffffff80821115613655578384fd5b6136618d838e0161332d565b93506101008c0135915080821115613677578283fd5b506136848c828d0161332d565b9150509295985092959850929598565b600080604083850312156136a6578182fd5b82359150602083013567ffffffffffffffff81111561349b578182fd5b600080600080600080600080610100898b0312156136df578182fd5b88359750602089013567ffffffffffffffff808211156136fd578384fd5b6137098c838d0161332d565b985060408b0135975060608b0135965060808b013591508082111561372c578384fd5b6137388c838d0161332d565b955060a08b0135945060c08b0135915080821115613754578384fd5b6137608c838d0161332d565b935060e08b0135915080821115613775578283fd5b506137828b828c0161332d565b9150509295985092959890939650565b600080604083850312156137a4578182fd5b50508035926020909101359150565b6000806000606084860312156137c7578081fd5b505081359360208301359350604090920135919050565b6001600160a01b03169052565b15159052565b60008151808452815b81811015613816576020818501810151868301820152016137fa565b818111156138275782602083870101525b50601f01601f19169290920160200192915050565b9283526020830191909152604082015260600190565b600061018060018060a01b038f1683528d60208401528c60408401528b60608401528a60808401528960a08401528060c08401526138928184018a6137f1565b905082810360e08401526138a681896137f1565b61010084019790975250509215156101208401529015156101408301526101609091015298975050505050505050565b6001600160a01b03929092168252602082015260400190565b6020808252825182820181905260009190848201906040850190845b818110156139305783516001600160a01b03168352928401929184019160010161390b565b50909695505050505050565b602080825282518282018190526000919060409081850190868401855b828110156139b05781518051855286810151878601528581015186860152606080820151908601526080808201516001600160a01b03169086015260a0908101519085015260c09093019290850190600101613959565b5091979650505050505050565b6020808252825182820181905260009190848201906040850190845b81811015613930578351835292840192918401916001016139d9565b901515815260200190565b602080825260139082015272105b1b1c995859195e481c9959da5cdd195c99606a1b604082015260600190565b90815260200190565b8781526001600160a01b038781166020830152861660408201526060810185905260e0810160058510613a7957634e487b7160e01b600052602160045260246000fd5b8460808301528360a083015282151560c083015298975050505050505050565b998a526001600160a01b039890981660208a015260408901969096526060880194909452608087019290925260a086015260c085015260e08401526101008301526101208201526101400190565b60008f82528e60208301528d60408301528c60608301526101c06080830152613b146101c083018d6137f1565b8b60a084015282810360c0840152613b2c818c6137f1565b905082810360e0840152613b40818b6137f1565b9050828103610100840152613b55818a6137f1565b915050613b666101208301886137eb565b613b746101408301876137eb565b613b826101608301866137de565b613b906101808301856137de565b826101a08301529f9e505050505050505050505050505050565b600082821015613bbc57613bbc613c17565b500390565b600281046001821680613bd557607f821691505b60208210811415613bf657634e487b7160e01b600052602260045260246000fd5b50919050565b6000600019821415613c1057613c10613c17565b5060010190565b634e487b7160e01b600052601160045260246000fd5b634e487b7160e01b600052604160045260246000fd5b6001600160a01b0381168114610cf857600080fdfead67d757c34507f157cacfa2e3153e9f260a2244f30428821be7be64587ac55fa26469706673582212201660cdc350775a16110ed4c3177ee301adef9608670eb1e5d343fe98d139b8d564736f6c63430008000033",
  "linkReferences": {},
  "deployedLinkReferences": {}
}